{"contracts/CarbonIntensityOracle.sol":{"CarbonIntensityOracle":{"abi":[{"inputs":[{"internalType":"address","name":"router","type":"address"},{"internalType":"uint64","name":"_subscriptionId","type":"uint64"},{"internalType":"bytes32","name":"_donID","type":"bytes32"}],"stateMutability":"nonpayable","type":"constructor"},{"inputs":[],"name":"EmptyArgs","type":"error"},{"inputs":[],"name":"EmptySecrets","type":"error"},{"inputs":[],"name":"EmptySource","type":"error"},{"inputs":[],"name":"NoInlineSecrets","type":"error"},{"inputs":[],"name":"OnlyRouterCanFulfill","type":"error"},{"inputs":[{"internalType":"address","name":"owner","type":"address"}],"name":"OwnableInvalidOwner","type":"error"},{"inputs":[{"internalType":"address","name":"account","type":"address"}],"name":"OwnableUnauthorizedAccount","type":"error"},{"anonymous":false,"inputs":[{"indexed":true,"internalType":"bytes32","name":"requestId","type":"bytes32"},{"indexed":false,"internalType":"string","name":"zone","type":"string"}],"name":"CarbonIntensityRequested","type":"event"},{"anonymous":false,"inputs":[{"indexed":false,"internalType":"uint256","name":"intensity","type":"uint256"},{"indexed":false,"internalType":"string","name":"zone","type":"string"}],"name":"CarbonIntensityUpdated","type":"event"},{"anonymous":false,"inputs":[{"indexed":true,"internalType":"address","name":"previousOwner","type":"address"},{"indexed":true,"internalType":"address","name":"newOwner","type":"address"}],"name":"OwnershipTransferred","type":"event"},{"anonymous":false,"inputs":[{"indexed":true,"internalType":"bytes32","name":"requestId","type":"bytes32"},{"indexed":false,"internalType":"bytes","name":"error","type":"bytes"}],"name":"RequestFailed","type":"event"},{"anonymous":false,"inputs":[{"indexed":true,"internalType":"bytes32","name":"id","type":"bytes32"}],"name":"RequestFulfilled","type":"event"},{"anonymous":false,"inputs":[{"indexed":true,"internalType":"bytes32","name":"id","type":"bytes32"}],"name":"RequestSent","type":"event"},{"inputs":[],"name":"carbonIntensity","outputs":[{"internalType":"uint256","name":"","type":"uint256"}],"stateMutability":"view","type":"function"},{"inputs":[],"name":"currentZone","outputs":[{"internalType":"string","name":"","type":"string"}],"stateMutability":"view","type":"function"},{"inputs":[],"name":"donID","outputs":[{"internalType":"bytes32","name":"","type":"bytes32"}],"stateMutability":"view","type":"function"},{"inputs":[],"name":"encryptedSecretsUrls","outputs":[{"internalType":"bytes","name":"","type":"bytes"}],"stateMutability":"view","type":"function"},{"inputs":[],"name":"gasLimit","outputs":[{"internalType":"uint32","name":"","type":"uint32"}],"stateMutability":"view","type":"function"},{"inputs":[],"name":"getGridStatus","outputs":[{"internalType":"string","name":"","type":"string"}],"stateMutability":"view","type":"function"},{"inputs":[{"internalType":"bytes32","name":"requestId","type":"bytes32"},{"internalType":"bytes","name":"response","type":"bytes"},{"internalType":"bytes","name":"err","type":"bytes"}],"name":"handleOracleFulfillment","outputs":[],"stateMutability":"nonpayable","type":"function"},{"inputs":[],"name":"latestRequestId","outputs":[{"internalType":"bytes32","name":"","type":"bytes32"}],"stateMutability":"view","type":"function"},{"inputs":[],"name":"owner","outputs":[{"internalType":"address","name":"","type":"address"}],"stateMutability":"view","type":"function"},{"inputs":[],"name":"renounceOwnership","outputs":[],"stateMutability":"nonpayable","type":"function"},{"inputs":[{"internalType":"string","name":"zone","type":"string"}],"name":"requestCarbonIntensity","outputs":[{"internalType":"bytes32","name":"","type":"bytes32"}],"stateMutability":"nonpayable","type":"function"},{"inputs":[{"internalType":"uint256","name":"_intensity","type":"uint256"}],"name":"setCarbonIntensity","outputs":[],"stateMutability":"nonpayable","type":"function"},{"inputs":[{"internalType":"bytes","name":"_encryptedSecretsUrls","type":"bytes"}],"name":"setEncryptedSecretsUrls","outputs":[],"stateMutability":"nonpayable","type":"function"},{"inputs":[{"internalType":"string","name":"_source","type":"string"}],"name":"setSource","outputs":[],"stateMutability":"nonpayable","type":"function"},{"inputs":[],"name":"source","outputs":[{"internalType":"string","name":"","type":"string"}],"stateMutability":"view","type":"function"},{"inputs":[],"name":"subscriptionId","outputs":[{"internalType":"uint64","name":"","type":"uint64"}],"stateMutability":"view","type":"function"},{"inputs":[{"internalType":"address","name":"newOwner","type":"address"}],"name":"transferOwnership","outputs":[],"stateMutability":"nonpayable","type":"function"},{"inputs":[{"internalType":"uint64","name":"_subscriptionId","type":"uint64"},{"internalType":"uint32","name":"_gasLimit","type":"uint32"},{"internalType":"bytes32","name":"_donID","type":"bytes32"}],"name":"updateConfig","outputs":[],"stateMutability":"nonpayable","type":"function"},{"inputs":[{"internalType":"bytes32","name":"","type":"bytes32"}],"name":"validRequests","outputs":[{"internalType":"bool","name":"","type":"bool"}],"stateMutability":"view","type":"function"}],"evm":{"bytecode":{"linkReferences":{},"object":"60a03461011357601f611db638819003918201601f19168301916001600160401b03831184841017610118578084926060946040528339810103126101135780516001600160a01b038116908190036101135760208201516001600160401b038116929083900361011357604001519060805233156100fd5760008054336001600160a01b0319821681178355604051946a0493e000000000000000009390926001600160a01b0316907f8be0079c531659141344cd1fd0a4f28419497f9722a3daafe3b4186f6b6457e09080a360018060601b0319600454161717600455600555611c87908161012f8239608051818181610282015261143f0152f35b631e4fbdf760e01b600052600060045260246000fd5b600080fd5b634e487b7160e01b600052604160045260246000fdfe6080604052600436101561001257600080fd5b60003560e01c806309c1ba2e146101475780630ca76175146101425780631aa46f591461013d57806341c52553146101385780634ae63ee21461013357806360adab3c1461012e57806367e828bf1461012957806369fee87e146101245780636e74336b1461011f578063715018a61461011a5780638da5cb5b1461011557806396f887d61461011057806399d254551461010b578063adefa75f14610106578063bd3edca714610101578063d0f784f0146100fc578063dab79c40146100f7578063f2fde38b146100f25763f68016b7146100ed57600080fd5b610c73565b610be6565b610b3e565b610a2e565b6109fd565b6108ef565b6107f7565b6106e0565b61067c565b610623565b610605565b61059c565b610580565b610550565b610532565b610455565b6102f2565b61022e565b3461016e57600036600319011261016e5760206001600160401b0360045416604051908152f35b600080fd5b634e487b7160e01b600052604160045260246000fd5b604081019081106001600160401b038211176101a457604052565b610173565b90601f801991011681019081106001600160401b038211176101a457604052565b9291926001600160401b0382116101a457604051916101f3601f8201601f1916602001846101a9565b82948184528183011161016e578281602093846000960137010152565b9080601f8301121561016e5781602061022b933591016101ca565b90565b3461016e57606036600319011261016e576004356024356001600160401b03811161016e57610261903690600401610210565b6044356001600160401b03811161016e57610280903690600401610210565b7f00000000000000000000000000000000000000000000000000000000000000006001600160a01b031633036102e1576102ba9183610f80565b7f85e1543bf2f84fe80c6badbce3648c8539ad1df4d2b3d822938ca0538be727e6600080a2005b63c6829f8360e01b60005260046000fd5b3461016e57600036600319011261016e576020600154604051908152f35b90600182811c92168015610340575b602083101461032a57565b634e487b7160e01b600052602260045260246000fd5b91607f169161031f565b604051906000826006549161035e83610310565b80835292600181169081156103e45750600114610384575b610382925003836101a9565b565b506006600090815290917ff652222313e28459528d920b65115c16c04f3efc82aaedc97be59f3f377c0d3f5b8183106103c857505090602061038292820101610376565b60209193508060019154838589010152019101909184926103b0565b6020925061038294915060ff191682840152151560051b820101610376565b919082519283825260005b84811061042f575050826000602080949584010152601f8019910116010190565b8060208092840101518282860101520161040e565b90602061022b928181520190610403565b3461016e57600036600319011261016e57604051600060035461047781610310565b808452906001811690811561050e57506001146104af575b6104ab8361049f818503826101a9565b60405191829182610444565b0390f35b600360009081527fc2575a0e9e593c00f959f8c92f12db2869c3395a3b0502d05e2516446f71f85b939250905b8082106104f45750909150810160200161049f61048f565b9192600181602092548385880101520191019092916104dc565b60ff191660208086019190915291151560051b8401909101915061049f905061048f565b3461016e57600036600319011261016e576020600254604051908152f35b3461016e57600036600319011261016e576104ab61056c610c9a565b604051918291602083526020830190610403565b3461016e57600036600319011261016e576104ab61056c61034a565b3461016e57602036600319011261016e577fd5d38beeba170512a581e928b7d5f0ee2fa78e7e8574a7963de014e1fe180e2660806004356105db611064565b8060025560405190815260406020820152600660408201526513505395505360d21b6060820152a1005b3461016e57600036600319011261016e576020600554604051908152f35b3461016e57600036600319011261016e5761063c611064565b600080546001600160a01b0319811682556001600160a01b03167f8be0079c531659141344cd1fd0a4f28419497f9722a3daafe3b4186f6b6457e08280a3005b3461016e57600036600319011261016e576000546040516001600160a01b039091168152602090f35b602060031982011261016e57600435906001600160401b03821161016e578060238301121561016e5781602461022b936004013591016101ca565b3461016e576104ab6107ce6106f4366106a5565b7f4a2ff27be19571b6819a0d723c35af5791837b9b5e0de5c2e0bd8651755bd96861079561076e610723610cee565b61073461072e61034a565b826114d6565b61075a61073f610d37565b8661074982610d88565b5261075381610d88565b508261108d565b610765600754610310565b6107e15761120e565b60045461078b6001600160401b0382169160401c63ffffffff1690565b90600554926113e7565b9283926107bc6107af856000526008602052604060002090565b805460ff19166001179055565b6107c584600155565b61049f81610e7e565b0390a26040519081529081906020820190565b6107f26107ec610b24565b826110d0565b61120e565b3461016e57610805366106a5565b61080d611064565b80516001600160401b0381116101a4576108318161082c600654610310565b610dc5565b602091601f8211600114610871576108619260009183610866575b50508160011b916000199060031b1c19161790565b600655005b01519050388061084c565b6006600052601f198216927ff652222313e28459528d920b65115c16c04f3efc82aaedc97be59f3f377c0d3f9160005b8581106108d7575083600195106108be575b505050811b01600655005b015160001960f88460031b161c191690553880806108b3565b919260206001819286850151815501940192016108a1565b3461016e57602036600319011261016e576004356001600160401b03811161016e5761091f903690600401610210565b610927611064565b80516001600160401b0381116101a45761094b81610946600754610310565b610e0a565b602091601f821160011461097f5761097a92600091836108665750508160011b916000199060031b1c19161790565b600755005b6007600052601f198216927fa66cc928b5edb82af9bd49922954155ab7b0942694bea4ce44661d9a8736c6889160005b8581106109e5575083600195106109cc575b505050811b01600755005b015160001960f88460031b161c191690553880806109c1565b919260206001819286850151815501940192016109af565b3461016e57602036600319011261016e576004356000526008602052602060ff604060002054166040519015158152f35b3461016e57606036600319011261016e576004356001600160401b03811680910361016e5760243563ffffffff8116810361016e5760443591610a6f611064565b6bffffffff00000000000000006004549260401b16916bffffffffffffffffffffffff19161717600455600555600080f35b60009291815491610ab183610310565b8083529260018116908115610b075750600114610acd57505050565b60009081526020812093945091925b838310610aed575060209250010190565b600181602092949394548385870101520191019190610adc565b915050602093945060ff929192191683830152151560051b010190565b6040519061038282610b37816007610aa1565b03836101a9565b3461016e57600036600319011261016e576040516000600754610b6081610310565b808452906001811690811561050e5750600114610b87576104ab8361049f818503826101a9565b600760009081527fa66cc928b5edb82af9bd49922954155ab7b0942694bea4ce44661d9a8736c688939250905b808210610bcc5750909150810160200161049f61048f565b919260018160209254838588010152019101909291610bb4565b3461016e57602036600319011261016e576004356001600160a01b0381169081900361016e57610c14611064565b8015610c5d57600080546001600160a01b03198116831782556001600160a01b0316907f8be0079c531659141344cd1fd0a4f28419497f9722a3daafe3b4186f6b6457e09080a3005b631e4fbdf760e01b600052600060045260246000fd5b3461016e57600036600319011261016e57602063ffffffff60045460401c16604051908152f35b61012c60025410600014610ccb57604051610cb66040826101a9565b600581526421a622a0a760d91b602082015290565b604051610cd96040826101a9565b6005815264444952545960d81b602082015290565b6040519060e082018281106001600160401b038211176101a457604052606060c08360008152600060208201526000604082015282808201528260808201528260a08201520152565b60408051909190610d4883826101a9565b6001815291601f19018260005b828110610d6157505050565b806060602080938501015201610d55565b634e487b7160e01b600052603260045260246000fd5b805115610d955760200190565b610d72565b8051821015610d955760209160051b010190565b818110610db9575050565b60008155600101610dae565b90601f8211610dd2575050565b6103829160066000526020600020906020601f840160051c83019310610e00575b601f0160051c0190610dae565b9091508190610df3565b90601f8211610e17575050565b6103829160076000526020600020906020601f840160051c83019310610e0057601f0160051c0190610dae565b9190601f8111610e5357505050565b610382926000526020600020906020601f840160051c83019310610e0057601f0160051c0190610dae565b9081516001600160401b0381116101a457610ea581610e9e600354610310565b6003610e44565b602092601f8211600114610edb57610ed6929382916000926108665750508160011b916000199060031b1c19161790565b600355565b6003600052601f198216937fc2575a0e9e593c00f959f8c92f12db2869c3395a3b0502d05e2516446f71f85b9160005b868110610f425750836001959610610f29575b505050811b01600355565b015160001960f88460031b161c19169055388080610f1e565b91926020600181928685015181550194019201610f0b565b9081602091031261016e575190565b60409061022b928152816020820152016003610aa1565b909181600052600860205260ff604060002054161561102d578051610ff4575050610fb781602080610fbc94518301019101610f5a565b600255565b7fd5d38beeba170512a581e928b7d5f0ee2fa78e7e8574a7963de014e1fe180e26610fef60025460405191829182610f69565b0390a1565b7f61982c98cbc49d11759a948f460b92bca26bdf12ceee12c310f117eb2ca9a9cb9192506110289060405191829182610444565b0390a2565b60405162461bcd60e51b815260206004820152600f60248201526e125b9d985b1a59081c995c5d595cdd608a1b6044820152606490fd5b6000546001600160a01b0316330361107857565b63118cdaa760e01b6000523360045260246000fd5b81511561109a5760a00152565b63fe936cb760e01b60005260046000fd5b634e487b7160e01b600052602160045260246000fd5b600311156110cb57565b6110ab565b8151156110e4576001602082015260800152565b63e889636f60e01b60005260046000fd5b604051906111046040836101a9565b600c82526b31b7b232a637b1b0ba34b7b760a11b6020830152565b6040519061112e6040836101a9565b60088252676c616e677561676560c01b6020830152565b600111156110cb57565b6040519061115e6040836101a9565b6006825265736f7572636560d01b6020830152565b604051906111826040836101a9565b60048252636172677360e01b6020830152565b604051906111a46040836101a9565b600f82526e39b2b1b932ba39a637b1b0ba34b7b760891b6020830152565b604051906111d16040836101a9565b60078252667365637265747360c81b6020830152565b604051906111f66040836101a9565b600982526862797465734172677360b81b6020830152565b611216611519565b906112286112226110f5565b8361154a565b6112458151611236816110c1565b61123f816110c1565b83611633565b61125061122261111f565b61126a604082015161126181611145565b61123f81611145565b61127561122261114f565b61128360608201518361154a565b60a08101805151611382575b506080810190815151611303575b60c09150018051516112b0575b50515190565b916112bc6112226111e7565b6112c582611696565b60005b835180518210156112f057906112ea6112e382600194610d9a565b51856116f9565b016112c8565b505091506112fd816116d6565b386112aa565b602081018051611312816110c1565b61131b816110c1565b156113715760c09261135461136c9261133b611335611195565b8861154a565b51611345816110c1565b61134e816110c1565b86611633565b61136561135f6111c2565b8661154a565b51846116f9565b61129d565b63a80d31f760e01b60005260046000fd5b9261139461138e611173565b8461154a565b61139d83611696565b60005b845180518210156113c857906113c26113bb82600194610d9a565b518661154a565b016113a0565b505092506113d5826116d6565b3861128f565b6040513d6000823e3d90fd5b92906020926001600160401b039263ffffffff611426604051978896879663230e93b160e11b885216600487015260a0602487015260a4860190610403565b60016044860152921660648401526084830152038160007f00000000000000000000000000000000000000000000000000000000000000006001600160a01b03165af19081156114d1576000916114a2575b50807f1131472297a800fee664d1d89cfa8f7676ff07189ecc53f80bbb5f4969099db8600080a290565b6114c4915060203d6020116114ca575b6114bc81836101a9565b810190610f5a565b38611478565b503d6114b2565b6113db565b60008251156114f057506000808252604082015260600152565b6322ce3edd60e01b8152600490fd5b6040519061150c82610189565b6000602083606081520152565b60405161152581610189565b600061152f6114ff565b8083526115456101006020850192848452611792565b505290565b815161159b9291906001600160401b03166017811161159e578151611586916115809061157960605b60ff1690565b1760ff1690565b9061192a565b505b51906115926114ff565b50805191611b94565b50565b60ff81116115cb5781516115c591906115bd90601860605b179061192a565b508251611b14565b50611588565b61ffff81116115f05781516115c591906115e890601960606115b6565b508251611a9b565b63ffffffff81116116175781516115c5919061160f90601a60606115b6565b508251611a22565b81516115c5919061162b90601b60606115b6565b5082516119a4565b906103829161164281516118ba565b506040519160208301526020825261165b6040836101a9565b6116f9565b634e487b7160e01b600052601160045260246000fd5b906020820180921161168457565b611660565b9190820180921161168457565b6020906116a5609f825161192a565b5001805190600182018092116116845752565b601f1981019190821161168457565b60001981019190821161168457565b6020906116e560ff825161192a565b500180516000198101919082116116845752565b815161159b9291906001600160401b03166017811161172657815161158691611580906115796040611573565b60ff81116117425781516115c591906115bd90601860406115b6565b61ffff811161175f5781516115c591906115e890601960406115b6565b63ffffffff811161177e5781516115c5919061160f90601a60406115b6565b81516115c5919061162b90601b60406115b6565b9061179b6114ff565b50601f8116806117ca575b508060208301526040519081835260008252810160200190811061016e5760405290565b6020036020811161168457810180911161168457386117a6565b906117ed6114ff565b5080516117f86114ff565b506118068251821115611b8d565b825151916118148284611689565b906020850151821161188d575b602091855183815196820101958211611885575b505001905b602081101561185f57600019906020036101000a019081199051169082511617905290565b909161187a6118746118809285518152611676565b93611676565b916116b8565b61183a565b523880611835565b61189f611899836118a4565b86611c3a565b611821565b908160011b918083046002149015171561168457565b6118c26114ff565b5080515160018101908181116116845760208301518110156118fb575b60c2602084519283010153805182116118f757505090565b5290565b8160011b82810460021483151715611684576119249061191d85519186611792565b50846117e4565b506118df565b906119336114ff565b508151516001810191828211611684576020840151821015611966575b602084519283010153805182116118f757505090565b8260011b838104600214841517156116845761198f9061198886519187611792565b50856117e4565b50611950565b601f8111611684576101000a90565b906119ad6114ff565b5081515180600801918260081161168457602084015183116119fa575b6119dc6119d76008611995565b6116c7565b9060088551938401019119825116179052805182116118f757505090565b8260011b8381046002148415171561168457611a1c9061198886519187611792565b506119ca565b90611a2b6114ff565b508151518060040191826004116116845760208401518311611a73575b611a556119d76004611995565b9060048551938401019119825116179052805182116118f757505090565b8260011b8381046002148415171561168457611a959061198886519187611792565b50611a48565b90611aa46114ff565b508151518060020191826002116116845760208401518311611aec575b611ace6119d76002611995565b9060028551938401019119825116179052805182116118f757505090565b8260011b8381046002148415171561168457611b0e9061198886519187611792565b50611ac1565b90611b1d6114ff565b508151518060010191826001116116845760208401518311611b65575b611b476119d76001611995565b9060018551938401019119825116179052805182116118f757505090565b8260011b8381046002148415171561168457611b879061198886519187611792565b50611b3a565b1561016e57565b91611b9d6114ff565b50611bab8251821115611b8d565b602083515192611bbb8385611689565b828601518111611c23575b855183815196820101958211611c1b575b505001905b6020811015611c0157600019906020036101000a019081199051169082511617905290565b909161187a611874611c169285518152611676565b611bdc565b523880611bd7565b611c35611c2f826118a4565b87611c3a565b611bc6565b9061159b91611c4b81519282611792565b506117e456fea26469706673582212207073fddedc9a2e3856b709476485f986ca6fe2d729402f4073284145e29e1ceb64736f6c634300081b0033","opcodes":"PUSH1 0xA0 CALLVALUE PUSH2 0x113 JUMPI PUSH1 0x1F PUSH2 0x1DB6 CODESIZE DUP2 SWAP1 SUB SWAP2 DUP3 ADD PUSH1 0x1F NOT AND DUP4 ADD SWAP2 PUSH1 0x1 PUSH1 0x1 PUSH1 0x40 SHL SUB DUP4 GT DUP5 DUP5 LT OR PUSH2 0x118 JUMPI DUP1 DUP5 SWAP3 PUSH1 0x60 SWAP5 PUSH1 0x40 MSTORE DUP4 CODECOPY DUP2 ADD SUB SLT PUSH2 0x113 JUMPI DUP1 MLOAD PUSH1 0x1 PUSH1 0x1 PUSH1 0xA0 SHL SUB DUP2 AND SWAP1 DUP2 SWAP1 SUB PUSH2 0x113 JUMPI PUSH1 0x20 DUP3 ADD MLOAD PUSH1 0x1 PUSH1 0x1 PUSH1 0x40 SHL SUB DUP2 AND SWAP3 SWAP1 DUP4 SWAP1 SUB PUSH2 0x113 JUMPI PUSH1 0x40 ADD MLOAD SWAP1 PUSH1 0x80 MSTORE CALLER ISZERO PUSH2 0xFD JUMPI PUSH1 0x0 DUP1 SLOAD CALLER PUSH1 0x1 PUSH1 0x1 PUSH1 0xA0 SHL SUB NOT DUP3 AND DUP2 OR DUP4 SSTORE PUSH1 0x40 MLOAD SWAP5 PUSH11 0x493E00000000000000000 SWAP4 SWAP1 SWAP3 PUSH1 0x1 PUSH1 0x1 PUSH1 0xA0 SHL SUB AND SWAP1 PUSH32 0x8BE0079C531659141344CD1FD0A4F28419497F9722A3DAAFE3B4186F6B6457E0 SWAP1 DUP1 LOG3 PUSH1 0x1 DUP1 PUSH1 0x60 SHL SUB NOT PUSH1 0x4 SLOAD AND OR OR PUSH1 0x4 SSTORE PUSH1 0x5 SSTORE PUSH2 0x1C87 SWAP1 DUP2 PUSH2 0x12F DUP3 CODECOPY PUSH1 0x80 MLOAD DUP2 DUP2 DUP2 PUSH2 0x282 ADD MSTORE PUSH2 0x143F ADD MSTORE RETURN JUMPDEST PUSH4 0x1E4FBDF7 PUSH1 0xE0 SHL PUSH1 0x0 MSTORE PUSH1 0x0 PUSH1 0x4 MSTORE PUSH1 0x24 PUSH1 0x0 REVERT JUMPDEST PUSH1 0x0 DUP1 REVERT JUMPDEST PUSH4 0x4E487B71 PUSH1 0xE0 SHL PUSH1 0x0 MSTORE PUSH1 0x41 PUSH1 0x4 MSTORE PUSH1 0x24 PUSH1 0x0 REVERT INVALID PUSH1 0x80 PUSH1 0x40 MSTORE PUSH1 0x4 CALLDATASIZE LT ISZERO PUSH2 0x12 JUMPI PUSH1 0x0 DUP1 REVERT JUMPDEST PUSH1 0x0 CALLDATALOAD PUSH1 0xE0 SHR DUP1 PUSH4 0x9C1BA2E EQ PUSH2 0x147 JUMPI DUP1 PUSH4 0xCA76175 EQ PUSH2 0x142 JUMPI DUP1 PUSH4 0x1AA46F59 EQ PUSH2 0x13D JUMPI DUP1 PUSH4 0x41C52553 EQ PUSH2 0x138 JUMPI DUP1 PUSH4 0x4AE63EE2 EQ PUSH2 0x133 JUMPI DUP1 PUSH4 0x60ADAB3C EQ PUSH2 0x12E JUMPI DUP1 PUSH4 0x67E828BF EQ PUSH2 0x129 JUMPI DUP1 PUSH4 0x69FEE87E EQ PUSH2 0x124 JUMPI DUP1 PUSH4 0x6E74336B EQ PUSH2 0x11F JUMPI DUP1 PUSH4 0x715018A6 EQ PUSH2 0x11A JUMPI DUP1 PUSH4 0x8DA5CB5B EQ PUSH2 0x115 JUMPI DUP1 PUSH4 0x96F887D6 EQ PUSH2 0x110 JUMPI DUP1 PUSH4 0x99D25455 EQ PUSH2 0x10B JUMPI DUP1 PUSH4 0xADEFA75F EQ PUSH2 0x106 JUMPI DUP1 PUSH4 0xBD3EDCA7 EQ PUSH2 0x101 JUMPI DUP1 PUSH4 0xD0F784F0 EQ PUSH2 0xFC JUMPI DUP1 PUSH4 0xDAB79C40 EQ PUSH2 0xF7 JUMPI DUP1 PUSH4 0xF2FDE38B EQ PUSH2 0xF2 JUMPI PUSH4 0xF68016B7 EQ PUSH2 0xED JUMPI PUSH1 0x0 DUP1 REVERT JUMPDEST PUSH2 0xC73 JUMP JUMPDEST PUSH2 0xBE6 JUMP JUMPDEST PUSH2 0xB3E JUMP JUMPDEST PUSH2 0xA2E JUMP JUMPDEST PUSH2 0x9FD JUMP JUMPDEST PUSH2 0x8EF JUMP JUMPDEST PUSH2 0x7F7 JUMP JUMPDEST PUSH2 0x6E0 JUMP JUMPDEST PUSH2 0x67C JUMP JUMPDEST PUSH2 0x623 JUMP JUMPDEST PUSH2 0x605 JUMP JUMPDEST PUSH2 0x59C JUMP JUMPDEST PUSH2 0x580 JUMP JUMPDEST PUSH2 0x550 JUMP JUMPDEST PUSH2 0x532 JUMP JUMPDEST PUSH2 0x455 JUMP JUMPDEST PUSH2 0x2F2 JUMP JUMPDEST PUSH2 0x22E JUMP JUMPDEST CALLVALUE PUSH2 0x16E JUMPI PUSH1 0x0 CALLDATASIZE PUSH1 0x3 NOT ADD SLT PUSH2 0x16E JUMPI PUSH1 0x20 PUSH1 0x1 PUSH1 0x1 PUSH1 0x40 SHL SUB PUSH1 0x4 SLOAD AND PUSH1 0x40 MLOAD SWAP1 DUP2 MSTORE RETURN JUMPDEST PUSH1 0x0 DUP1 REVERT JUMPDEST PUSH4 0x4E487B71 PUSH1 0xE0 SHL PUSH1 0x0 MSTORE PUSH1 0x41 PUSH1 0x4 MSTORE PUSH1 0x24 PUSH1 0x0 REVERT JUMPDEST PUSH1 0x40 DUP2 ADD SWAP1 DUP2 LT PUSH1 0x1 PUSH1 0x1 PUSH1 0x40 SHL SUB DUP3 GT OR PUSH2 0x1A4 JUMPI PUSH1 0x40 MSTORE JUMP JUMPDEST PUSH2 0x173 JUMP JUMPDEST SWAP1 PUSH1 0x1F DUP1 NOT SWAP2 ADD AND DUP2 ADD SWAP1 DUP2 LT PUSH1 0x1 PUSH1 0x1 PUSH1 0x40 SHL SUB DUP3 GT OR PUSH2 0x1A4 JUMPI PUSH1 0x40 MSTORE JUMP JUMPDEST SWAP3 SWAP2 SWAP3 PUSH1 0x1 PUSH1 0x1 PUSH1 0x40 SHL SUB DUP3 GT PUSH2 0x1A4 JUMPI PUSH1 0x40 MLOAD SWAP2 PUSH2 0x1F3 PUSH1 0x1F DUP3 ADD PUSH1 0x1F NOT AND PUSH1 0x20 ADD DUP5 PUSH2 0x1A9 JUMP JUMPDEST DUP3 SWAP5 DUP2 DUP5 MSTORE DUP2 DUP4 ADD GT PUSH2 0x16E JUMPI DUP3 DUP2 PUSH1 0x20 SWAP4 DUP5 PUSH1 0x0 SWAP7 ADD CALLDATACOPY ADD ADD MSTORE JUMP JUMPDEST SWAP1 DUP1 PUSH1 0x1F DUP4 ADD SLT ISZERO PUSH2 0x16E JUMPI DUP2 PUSH1 0x20 PUSH2 0x22B SWAP4 CALLDATALOAD SWAP2 ADD PUSH2 0x1CA JUMP JUMPDEST SWAP1 JUMP JUMPDEST CALLVALUE PUSH2 0x16E JUMPI PUSH1 0x60 CALLDATASIZE PUSH1 0x3 NOT ADD SLT PUSH2 0x16E JUMPI PUSH1 0x4 CALLDATALOAD PUSH1 0x24 CALLDATALOAD PUSH1 0x1 PUSH1 0x1 PUSH1 0x40 SHL SUB DUP2 GT PUSH2 0x16E JUMPI PUSH2 0x261 SWAP1 CALLDATASIZE SWAP1 PUSH1 0x4 ADD PUSH2 0x210 JUMP JUMPDEST PUSH1 0x44 CALLDATALOAD PUSH1 0x1 PUSH1 0x1 PUSH1 0x40 SHL SUB DUP2 GT PUSH2 0x16E JUMPI PUSH2 0x280 SWAP1 CALLDATASIZE SWAP1 PUSH1 0x4 ADD PUSH2 0x210 JUMP JUMPDEST PUSH32 0x0 PUSH1 0x1 PUSH1 0x1 PUSH1 0xA0 SHL SUB AND CALLER SUB PUSH2 0x2E1 JUMPI PUSH2 0x2BA SWAP2 DUP4 PUSH2 0xF80 JUMP JUMPDEST PUSH32 0x85E1543BF2F84FE80C6BADBCE3648C8539AD1DF4D2B3D822938CA0538BE727E6 PUSH1 0x0 DUP1 LOG2 STOP JUMPDEST PUSH4 0xC6829F83 PUSH1 0xE0 SHL PUSH1 0x0 MSTORE PUSH1 0x4 PUSH1 0x0 REVERT JUMPDEST CALLVALUE PUSH2 0x16E JUMPI PUSH1 0x0 CALLDATASIZE PUSH1 0x3 NOT ADD SLT PUSH2 0x16E JUMPI PUSH1 0x20 PUSH1 0x1 SLOAD PUSH1 0x40 MLOAD SWAP1 DUP2 MSTORE RETURN JUMPDEST SWAP1 PUSH1 0x1 DUP3 DUP2 SHR SWAP3 AND DUP1 ISZERO PUSH2 0x340 JUMPI JUMPDEST PUSH1 0x20 DUP4 LT EQ PUSH2 0x32A JUMPI JUMP JUMPDEST PUSH4 0x4E487B71 PUSH1 0xE0 SHL PUSH1 0x0 MSTORE PUSH1 0x22 PUSH1 0x4 MSTORE PUSH1 0x24 PUSH1 0x0 REVERT JUMPDEST SWAP2 PUSH1 0x7F AND SWAP2 PUSH2 0x31F JUMP JUMPDEST PUSH1 0x40 MLOAD SWAP1 PUSH1 0x0 DUP3 PUSH1 0x6 SLOAD SWAP2 PUSH2 0x35E DUP4 PUSH2 0x310 JUMP JUMPDEST DUP1 DUP4 MSTORE SWAP3 PUSH1 0x1 DUP2 AND SWAP1 DUP2 ISZERO PUSH2 0x3E4 JUMPI POP PUSH1 0x1 EQ PUSH2 0x384 JUMPI JUMPDEST PUSH2 0x382 SWAP3 POP SUB DUP4 PUSH2 0x1A9 JUMP JUMPDEST JUMP JUMPDEST POP PUSH1 0x6 PUSH1 0x0 SWAP1 DUP2 MSTORE SWAP1 SWAP2 PUSH32 0xF652222313E28459528D920B65115C16C04F3EFC82AAEDC97BE59F3F377C0D3F JUMPDEST DUP2 DUP4 LT PUSH2 0x3C8 JUMPI POP POP SWAP1 PUSH1 0x20 PUSH2 0x382 SWAP3 DUP3 ADD ADD PUSH2 0x376 JUMP JUMPDEST PUSH1 0x20 SWAP2 SWAP4 POP DUP1 PUSH1 0x1 SWAP2 SLOAD DUP4 DUP6 DUP10 ADD ADD MSTORE ADD SWAP2 ADD SWAP1 SWAP2 DUP5 SWAP3 PUSH2 0x3B0 JUMP JUMPDEST PUSH1 0x20 SWAP3 POP PUSH2 0x382 SWAP5 SWAP2 POP PUSH1 0xFF NOT AND DUP3 DUP5 ADD MSTORE ISZERO ISZERO PUSH1 0x5 SHL DUP3 ADD ADD PUSH2 0x376 JUMP JUMPDEST SWAP2 SWAP1 DUP3 MLOAD SWAP3 DUP4 DUP3 MSTORE PUSH1 0x0 JUMPDEST DUP5 DUP2 LT PUSH2 0x42F JUMPI POP POP DUP3 PUSH1 0x0 PUSH1 0x20 DUP1 SWAP5 SWAP6 DUP5 ADD ADD MSTORE PUSH1 0x1F DUP1 NOT SWAP2 ADD AND ADD ADD SWAP1 JUMP JUMPDEST DUP1 PUSH1 0x20 DUP1 SWAP3 DUP5 ADD ADD MLOAD DUP3 DUP3 DUP7 ADD ADD MSTORE ADD PUSH2 0x40E JUMP JUMPDEST SWAP1 PUSH1 0x20 PUSH2 0x22B SWAP3 DUP2 DUP2 MSTORE ADD SWAP1 PUSH2 0x403 JUMP JUMPDEST CALLVALUE PUSH2 0x16E JUMPI PUSH1 0x0 CALLDATASIZE PUSH1 0x3 NOT ADD SLT PUSH2 0x16E JUMPI PUSH1 0x40 MLOAD PUSH1 0x0 PUSH1 0x3 SLOAD PUSH2 0x477 DUP2 PUSH2 0x310 JUMP JUMPDEST DUP1 DUP5 MSTORE SWAP1 PUSH1 0x1 DUP2 AND SWAP1 DUP2 ISZERO PUSH2 0x50E JUMPI POP PUSH1 0x1 EQ PUSH2 0x4AF JUMPI JUMPDEST PUSH2 0x4AB DUP4 PUSH2 0x49F DUP2 DUP6 SUB DUP3 PUSH2 0x1A9 JUMP JUMPDEST PUSH1 0x40 MLOAD SWAP2 DUP3 SWAP2 DUP3 PUSH2 0x444 JUMP JUMPDEST SUB SWAP1 RETURN JUMPDEST PUSH1 0x3 PUSH1 0x0 SWAP1 DUP2 MSTORE PUSH32 0xC2575A0E9E593C00F959F8C92F12DB2869C3395A3B0502D05E2516446F71F85B SWAP4 SWAP3 POP SWAP1 JUMPDEST DUP1 DUP3 LT PUSH2 0x4F4 JUMPI POP SWAP1 SWAP2 POP DUP2 ADD PUSH1 0x20 ADD PUSH2 0x49F PUSH2 0x48F JUMP JUMPDEST SWAP2 SWAP3 PUSH1 0x1 DUP2 PUSH1 0x20 SWAP3 SLOAD DUP4 DUP6 DUP9 ADD ADD MSTORE ADD SWAP2 ADD SWAP1 SWAP3 SWAP2 PUSH2 0x4DC JUMP JUMPDEST PUSH1 0xFF NOT AND PUSH1 0x20 DUP1 DUP7 ADD SWAP2 SWAP1 SWAP2 MSTORE SWAP2 ISZERO ISZERO PUSH1 0x5 SHL DUP5 ADD SWAP1 SWAP2 ADD SWAP2 POP PUSH2 0x49F SWAP1 POP PUSH2 0x48F JUMP JUMPDEST CALLVALUE PUSH2 0x16E JUMPI PUSH1 0x0 CALLDATASIZE PUSH1 0x3 NOT ADD SLT PUSH2 0x16E JUMPI PUSH1 0x20 PUSH1 0x2 SLOAD PUSH1 0x40 MLOAD SWAP1 DUP2 MSTORE RETURN JUMPDEST CALLVALUE PUSH2 0x16E JUMPI PUSH1 0x0 CALLDATASIZE PUSH1 0x3 NOT ADD SLT PUSH2 0x16E JUMPI PUSH2 0x4AB PUSH2 0x56C PUSH2 0xC9A JUMP JUMPDEST PUSH1 0x40 MLOAD SWAP2 DUP3 SWAP2 PUSH1 0x20 DUP4 MSTORE PUSH1 0x20 DUP4 ADD SWAP1 PUSH2 0x403 JUMP JUMPDEST CALLVALUE PUSH2 0x16E JUMPI PUSH1 0x0 CALLDATASIZE PUSH1 0x3 NOT ADD SLT PUSH2 0x16E JUMPI PUSH2 0x4AB PUSH2 0x56C PUSH2 0x34A JUMP JUMPDEST CALLVALUE PUSH2 0x16E JUMPI PUSH1 0x20 CALLDATASIZE PUSH1 0x3 NOT ADD SLT PUSH2 0x16E JUMPI PUSH32 0xD5D38BEEBA170512A581E928B7D5F0EE2FA78E7E8574A7963DE014E1FE180E26 PUSH1 0x80 PUSH1 0x4 CALLDATALOAD PUSH2 0x5DB PUSH2 0x1064 JUMP JUMPDEST DUP1 PUSH1 0x2 SSTORE PUSH1 0x40 MLOAD SWAP1 DUP2 MSTORE PUSH1 0x40 PUSH1 0x20 DUP3 ADD MSTORE PUSH1 0x6 PUSH1 0x40 DUP3 ADD MSTORE PUSH6 0x135053955053 PUSH1 0xD2 SHL PUSH1 0x60 DUP3 ADD MSTORE LOG1 STOP JUMPDEST CALLVALUE PUSH2 0x16E JUMPI PUSH1 0x0 CALLDATASIZE PUSH1 0x3 NOT ADD SLT PUSH2 0x16E JUMPI PUSH1 0x20 PUSH1 0x5 SLOAD PUSH1 0x40 MLOAD SWAP1 DUP2 MSTORE RETURN JUMPDEST CALLVALUE PUSH2 0x16E JUMPI PUSH1 0x0 CALLDATASIZE PUSH1 0x3 NOT ADD SLT PUSH2 0x16E JUMPI PUSH2 0x63C PUSH2 0x1064 JUMP JUMPDEST PUSH1 0x0 DUP1 SLOAD PUSH1 0x1 PUSH1 0x1 PUSH1 0xA0 SHL SUB NOT DUP2 AND DUP3 SSTORE PUSH1 0x1 PUSH1 0x1 PUSH1 0xA0 SHL SUB AND PUSH32 0x8BE0079C531659141344CD1FD0A4F28419497F9722A3DAAFE3B4186F6B6457E0 DUP3 DUP1 LOG3 STOP JUMPDEST CALLVALUE PUSH2 0x16E JUMPI PUSH1 0x0 CALLDATASIZE PUSH1 0x3 NOT ADD SLT PUSH2 0x16E JUMPI PUSH1 0x0 SLOAD PUSH1 0x40 MLOAD PUSH1 0x1 PUSH1 0x1 PUSH1 0xA0 SHL SUB SWAP1 SWAP2 AND DUP2 MSTORE PUSH1 0x20 SWAP1 RETURN JUMPDEST PUSH1 0x20 PUSH1 0x3 NOT DUP3 ADD SLT PUSH2 0x16E JUMPI PUSH1 0x4 CALLDATALOAD SWAP1 PUSH1 0x1 PUSH1 0x1 PUSH1 0x40 SHL SUB DUP3 GT PUSH2 0x16E JUMPI DUP1 PUSH1 0x23 DUP4 ADD SLT ISZERO PUSH2 0x16E JUMPI DUP2 PUSH1 0x24 PUSH2 0x22B SWAP4 PUSH1 0x4 ADD CALLDATALOAD SWAP2 ADD PUSH2 0x1CA JUMP JUMPDEST CALLVALUE PUSH2 0x16E JUMPI PUSH2 0x4AB PUSH2 0x7CE PUSH2 0x6F4 CALLDATASIZE PUSH2 0x6A5 JUMP JUMPDEST PUSH32 0x4A2FF27BE19571B6819A0D723C35AF5791837B9B5E0DE5C2E0BD8651755BD968 PUSH2 0x795 PUSH2 0x76E PUSH2 0x723 PUSH2 0xCEE JUMP JUMPDEST PUSH2 0x734 PUSH2 0x72E PUSH2 0x34A JUMP JUMPDEST DUP3 PUSH2 0x14D6 JUMP JUMPDEST PUSH2 0x75A PUSH2 0x73F PUSH2 0xD37 JUMP JUMPDEST DUP7 PUSH2 0x749 DUP3 PUSH2 0xD88 JUMP JUMPDEST MSTORE PUSH2 0x753 DUP2 PUSH2 0xD88 JUMP JUMPDEST POP DUP3 PUSH2 0x108D JUMP JUMPDEST PUSH2 0x765 PUSH1 0x7 SLOAD PUSH2 0x310 JUMP JUMPDEST PUSH2 0x7E1 JUMPI PUSH2 0x120E JUMP JUMPDEST PUSH1 0x4 SLOAD PUSH2 0x78B PUSH1 0x1 PUSH1 0x1 PUSH1 0x40 SHL SUB DUP3 AND SWAP2 PUSH1 0x40 SHR PUSH4 0xFFFFFFFF AND SWAP1 JUMP JUMPDEST SWAP1 PUSH1 0x5 SLOAD SWAP3 PUSH2 0x13E7 JUMP JUMPDEST SWAP3 DUP4 SWAP3 PUSH2 0x7BC PUSH2 0x7AF DUP6 PUSH1 0x0 MSTORE PUSH1 0x8 PUSH1 0x20 MSTORE PUSH1 0x40 PUSH1 0x0 KECCAK256 SWAP1 JUMP JUMPDEST DUP1 SLOAD PUSH1 0xFF NOT AND PUSH1 0x1 OR SWAP1 SSTORE JUMP JUMPDEST PUSH2 0x7C5 DUP5 PUSH1 0x1 SSTORE JUMP JUMPDEST PUSH2 0x49F DUP2 PUSH2 0xE7E JUMP JUMPDEST SUB SWAP1 LOG2 PUSH1 0x40 MLOAD SWAP1 DUP2 MSTORE SWAP1 DUP2 SWAP1 PUSH1 0x20 DUP3 ADD SWAP1 JUMP JUMPDEST PUSH2 0x7F2 PUSH2 0x7EC PUSH2 0xB24 JUMP JUMPDEST DUP3 PUSH2 0x10D0 JUMP JUMPDEST PUSH2 0x120E JUMP JUMPDEST CALLVALUE PUSH2 0x16E JUMPI PUSH2 0x805 CALLDATASIZE PUSH2 0x6A5 JUMP JUMPDEST PUSH2 0x80D PUSH2 0x1064 JUMP JUMPDEST DUP1 MLOAD PUSH1 0x1 PUSH1 0x1 PUSH1 0x40 SHL SUB DUP2 GT PUSH2 0x1A4 JUMPI PUSH2 0x831 DUP2 PUSH2 0x82C PUSH1 0x6 SLOAD PUSH2 0x310 JUMP JUMPDEST PUSH2 0xDC5 JUMP JUMPDEST PUSH1 0x20 SWAP2 PUSH1 0x1F DUP3 GT PUSH1 0x1 EQ PUSH2 0x871 JUMPI PUSH2 0x861 SWAP3 PUSH1 0x0 SWAP2 DUP4 PUSH2 0x866 JUMPI JUMPDEST POP POP DUP2 PUSH1 0x1 SHL SWAP2 PUSH1 0x0 NOT SWAP1 PUSH1 0x3 SHL SHR NOT AND OR SWAP1 JUMP JUMPDEST PUSH1 0x6 SSTORE STOP JUMPDEST ADD MLOAD SWAP1 POP CODESIZE DUP1 PUSH2 0x84C JUMP JUMPDEST PUSH1 0x6 PUSH1 0x0 MSTORE PUSH1 0x1F NOT DUP3 AND SWAP3 PUSH32 0xF652222313E28459528D920B65115C16C04F3EFC82AAEDC97BE59F3F377C0D3F SWAP2 PUSH1 0x0 JUMPDEST DUP6 DUP2 LT PUSH2 0x8D7 JUMPI POP DUP4 PUSH1 0x1 SWAP6 LT PUSH2 0x8BE JUMPI JUMPDEST POP POP POP DUP2 SHL ADD PUSH1 0x6 SSTORE STOP JUMPDEST ADD MLOAD PUSH1 0x0 NOT PUSH1 0xF8 DUP5 PUSH1 0x3 SHL AND SHR NOT AND SWAP1 SSTORE CODESIZE DUP1 DUP1 PUSH2 0x8B3 JUMP JUMPDEST SWAP2 SWAP3 PUSH1 0x20 PUSH1 0x1 DUP2 SWAP3 DUP7 DUP6 ADD MLOAD DUP2 SSTORE ADD SWAP5 ADD SWAP3 ADD PUSH2 0x8A1 JUMP JUMPDEST CALLVALUE PUSH2 0x16E JUMPI PUSH1 0x20 CALLDATASIZE PUSH1 0x3 NOT ADD SLT PUSH2 0x16E JUMPI PUSH1 0x4 CALLDATALOAD PUSH1 0x1 PUSH1 0x1 PUSH1 0x40 SHL SUB DUP2 GT PUSH2 0x16E JUMPI PUSH2 0x91F SWAP1 CALLDATASIZE SWAP1 PUSH1 0x4 ADD PUSH2 0x210 JUMP JUMPDEST PUSH2 0x927 PUSH2 0x1064 JUMP JUMPDEST DUP1 MLOAD PUSH1 0x1 PUSH1 0x1 PUSH1 0x40 SHL SUB DUP2 GT PUSH2 0x1A4 JUMPI PUSH2 0x94B DUP2 PUSH2 0x946 PUSH1 0x7 SLOAD PUSH2 0x310 JUMP JUMPDEST PUSH2 0xE0A JUMP JUMPDEST PUSH1 0x20 SWAP2 PUSH1 0x1F DUP3 GT PUSH1 0x1 EQ PUSH2 0x97F JUMPI PUSH2 0x97A SWAP3 PUSH1 0x0 SWAP2 DUP4 PUSH2 0x866 JUMPI POP POP DUP2 PUSH1 0x1 SHL SWAP2 PUSH1 0x0 NOT SWAP1 PUSH1 0x3 SHL SHR NOT AND OR SWAP1 JUMP JUMPDEST PUSH1 0x7 SSTORE STOP JUMPDEST PUSH1 0x7 PUSH1 0x0 MSTORE PUSH1 0x1F NOT DUP3 AND SWAP3 PUSH32 0xA66CC928B5EDB82AF9BD49922954155AB7B0942694BEA4CE44661D9A8736C688 SWAP2 PUSH1 0x0 JUMPDEST DUP6 DUP2 LT PUSH2 0x9E5 JUMPI POP DUP4 PUSH1 0x1 SWAP6 LT PUSH2 0x9CC JUMPI JUMPDEST POP POP POP DUP2 SHL ADD PUSH1 0x7 SSTORE STOP JUMPDEST ADD MLOAD PUSH1 0x0 NOT PUSH1 0xF8 DUP5 PUSH1 0x3 SHL AND SHR NOT AND SWAP1 SSTORE CODESIZE DUP1 DUP1 PUSH2 0x9C1 JUMP JUMPDEST SWAP2 SWAP3 PUSH1 0x20 PUSH1 0x1 DUP2 SWAP3 DUP7 DUP6 ADD MLOAD DUP2 SSTORE ADD SWAP5 ADD SWAP3 ADD PUSH2 0x9AF JUMP JUMPDEST CALLVALUE PUSH2 0x16E JUMPI PUSH1 0x20 CALLDATASIZE PUSH1 0x3 NOT ADD SLT PUSH2 0x16E JUMPI PUSH1 0x4 CALLDATALOAD PUSH1 0x0 MSTORE PUSH1 0x8 PUSH1 0x20 MSTORE PUSH1 0x20 PUSH1 0xFF PUSH1 0x40 PUSH1 0x0 KECCAK256 SLOAD AND PUSH1 0x40 MLOAD SWAP1 ISZERO ISZERO DUP2 MSTORE RETURN JUMPDEST CALLVALUE PUSH2 0x16E JUMPI PUSH1 0x60 CALLDATASIZE PUSH1 0x3 NOT ADD SLT PUSH2 0x16E JUMPI PUSH1 0x4 CALLDATALOAD PUSH1 0x1 PUSH1 0x1 PUSH1 0x40 SHL SUB DUP2 AND DUP1 SWAP2 SUB PUSH2 0x16E JUMPI PUSH1 0x24 CALLDATALOAD PUSH4 0xFFFFFFFF DUP2 AND DUP2 SUB PUSH2 0x16E JUMPI PUSH1 0x44 CALLDATALOAD SWAP2 PUSH2 0xA6F PUSH2 0x1064 JUMP JUMPDEST PUSH12 0xFFFFFFFF0000000000000000 PUSH1 0x4 SLOAD SWAP3 PUSH1 0x40 SHL AND SWAP2 PUSH12 0xFFFFFFFFFFFFFFFFFFFFFFFF NOT AND OR OR PUSH1 0x4 SSTORE PUSH1 0x5 SSTORE PUSH1 0x0 DUP1 RETURN JUMPDEST PUSH1 0x0 SWAP3 SWAP2 DUP2 SLOAD SWAP2 PUSH2 0xAB1 DUP4 PUSH2 0x310 JUMP JUMPDEST DUP1 DUP4 MSTORE SWAP3 PUSH1 0x1 DUP2 AND SWAP1 DUP2 ISZERO PUSH2 0xB07 JUMPI POP PUSH1 0x1 EQ PUSH2 0xACD JUMPI POP POP POP JUMP JUMPDEST PUSH1 0x0 SWAP1 DUP2 MSTORE PUSH1 0x20 DUP2 KECCAK256 SWAP4 SWAP5 POP SWAP2 SWAP3 JUMPDEST DUP4 DUP4 LT PUSH2 0xAED JUMPI POP PUSH1 0x20 SWAP3 POP ADD ADD SWAP1 JUMP JUMPDEST PUSH1 0x1 DUP2 PUSH1 0x20 SWAP3 SWAP5 SWAP4 SWAP5 SLOAD DUP4 DUP6 DUP8 ADD ADD MSTORE ADD SWAP2 ADD SWAP2 SWAP1 PUSH2 0xADC JUMP JUMPDEST SWAP2 POP POP PUSH1 0x20 SWAP4 SWAP5 POP PUSH1 0xFF SWAP3 SWAP2 SWAP3 NOT AND DUP4 DUP4 ADD MSTORE ISZERO ISZERO PUSH1 0x5 SHL ADD ADD SWAP1 JUMP JUMPDEST PUSH1 0x40 MLOAD SWAP1 PUSH2 0x382 DUP3 PUSH2 0xB37 DUP2 PUSH1 0x7 PUSH2 0xAA1 JUMP JUMPDEST SUB DUP4 PUSH2 0x1A9 JUMP JUMPDEST CALLVALUE PUSH2 0x16E JUMPI PUSH1 0x0 CALLDATASIZE PUSH1 0x3 NOT ADD SLT PUSH2 0x16E JUMPI PUSH1 0x40 MLOAD PUSH1 0x0 PUSH1 0x7 SLOAD PUSH2 0xB60 DUP2 PUSH2 0x310 JUMP JUMPDEST DUP1 DUP5 MSTORE SWAP1 PUSH1 0x1 DUP2 AND SWAP1 DUP2 ISZERO PUSH2 0x50E JUMPI POP PUSH1 0x1 EQ PUSH2 0xB87 JUMPI PUSH2 0x4AB DUP4 PUSH2 0x49F DUP2 DUP6 SUB DUP3 PUSH2 0x1A9 JUMP JUMPDEST PUSH1 0x7 PUSH1 0x0 SWAP1 DUP2 MSTORE PUSH32 0xA66CC928B5EDB82AF9BD49922954155AB7B0942694BEA4CE44661D9A8736C688 SWAP4 SWAP3 POP SWAP1 JUMPDEST DUP1 DUP3 LT PUSH2 0xBCC JUMPI POP SWAP1 SWAP2 POP DUP2 ADD PUSH1 0x20 ADD PUSH2 0x49F PUSH2 0x48F JUMP JUMPDEST SWAP2 SWAP3 PUSH1 0x1 DUP2 PUSH1 0x20 SWAP3 SLOAD DUP4 DUP6 DUP9 ADD ADD MSTORE ADD SWAP2 ADD SWAP1 SWAP3 SWAP2 PUSH2 0xBB4 JUMP JUMPDEST CALLVALUE PUSH2 0x16E JUMPI PUSH1 0x20 CALLDATASIZE PUSH1 0x3 NOT ADD SLT PUSH2 0x16E JUMPI PUSH1 0x4 CALLDATALOAD PUSH1 0x1 PUSH1 0x1 PUSH1 0xA0 SHL SUB DUP2 AND SWAP1 DUP2 SWAP1 SUB PUSH2 0x16E JUMPI PUSH2 0xC14 PUSH2 0x1064 JUMP JUMPDEST DUP1 ISZERO PUSH2 0xC5D JUMPI PUSH1 0x0 DUP1 SLOAD PUSH1 0x1 PUSH1 0x1 PUSH1 0xA0 SHL SUB NOT DUP2 AND DUP4 OR DUP3 SSTORE PUSH1 0x1 PUSH1 0x1 PUSH1 0xA0 SHL SUB AND SWAP1 PUSH32 0x8BE0079C531659141344CD1FD0A4F28419497F9722A3DAAFE3B4186F6B6457E0 SWAP1 DUP1 LOG3 STOP JUMPDEST PUSH4 0x1E4FBDF7 PUSH1 0xE0 SHL PUSH1 0x0 MSTORE PUSH1 0x0 PUSH1 0x4 MSTORE PUSH1 0x24 PUSH1 0x0 REVERT JUMPDEST CALLVALUE PUSH2 0x16E JUMPI PUSH1 0x0 CALLDATASIZE PUSH1 0x3 NOT ADD SLT PUSH2 0x16E JUMPI PUSH1 0x20 PUSH4 0xFFFFFFFF PUSH1 0x4 SLOAD PUSH1 0x40 SHR AND PUSH1 0x40 MLOAD SWAP1 DUP2 MSTORE RETURN JUMPDEST PUSH2 0x12C PUSH1 0x2 SLOAD LT PUSH1 0x0 EQ PUSH2 0xCCB JUMPI PUSH1 0x40 MLOAD PUSH2 0xCB6 PUSH1 0x40 DUP3 PUSH2 0x1A9 JUMP JUMPDEST PUSH1 0x5 DUP2 MSTORE PUSH5 0x21A622A0A7 PUSH1 0xD9 SHL PUSH1 0x20 DUP3 ADD MSTORE SWAP1 JUMP JUMPDEST PUSH1 0x40 MLOAD PUSH2 0xCD9 PUSH1 0x40 DUP3 PUSH2 0x1A9 JUMP JUMPDEST PUSH1 0x5 DUP2 MSTORE PUSH5 0x4449525459 PUSH1 0xD8 SHL PUSH1 0x20 DUP3 ADD MSTORE SWAP1 JUMP JUMPDEST PUSH1 0x40 MLOAD SWAP1 PUSH1 0xE0 DUP3 ADD DUP3 DUP2 LT PUSH1 0x1 PUSH1 0x1 PUSH1 0x40 SHL SUB DUP3 GT OR PUSH2 0x1A4 JUMPI PUSH1 0x40 MSTORE PUSH1 0x60 PUSH1 0xC0 DUP4 PUSH1 0x0 DUP2 MSTORE PUSH1 0x0 PUSH1 0x20 DUP3 ADD MSTORE PUSH1 0x0 PUSH1 0x40 DUP3 ADD MSTORE DUP3 DUP1 DUP3 ADD MSTORE DUP3 PUSH1 0x80 DUP3 ADD MSTORE DUP3 PUSH1 0xA0 DUP3 ADD MSTORE ADD MSTORE JUMP JUMPDEST PUSH1 0x40 DUP1 MLOAD SWAP1 SWAP2 SWAP1 PUSH2 0xD48 DUP4 DUP3 PUSH2 0x1A9 JUMP JUMPDEST PUSH1 0x1 DUP2 MSTORE SWAP2 PUSH1 0x1F NOT ADD DUP3 PUSH1 0x0 JUMPDEST DUP3 DUP2 LT PUSH2 0xD61 JUMPI POP POP POP JUMP JUMPDEST DUP1 PUSH1 0x60 PUSH1 0x20 DUP1 SWAP4 DUP6 ADD ADD MSTORE ADD PUSH2 0xD55 JUMP JUMPDEST PUSH4 0x4E487B71 PUSH1 0xE0 SHL PUSH1 0x0 MSTORE PUSH1 0x32 PUSH1 0x4 MSTORE PUSH1 0x24 PUSH1 0x0 REVERT JUMPDEST DUP1 MLOAD ISZERO PUSH2 0xD95 JUMPI PUSH1 0x20 ADD SWAP1 JUMP JUMPDEST PUSH2 0xD72 JUMP JUMPDEST DUP1 MLOAD DUP3 LT ISZERO PUSH2 0xD95 JUMPI PUSH1 0x20 SWAP2 PUSH1 0x5 SHL ADD ADD SWAP1 JUMP JUMPDEST DUP2 DUP2 LT PUSH2 0xDB9 JUMPI POP POP JUMP JUMPDEST PUSH1 0x0 DUP2 SSTORE PUSH1 0x1 ADD PUSH2 0xDAE JUMP JUMPDEST SWAP1 PUSH1 0x1F DUP3 GT PUSH2 0xDD2 JUMPI POP POP JUMP JUMPDEST PUSH2 0x382 SWAP2 PUSH1 0x6 PUSH1 0x0 MSTORE PUSH1 0x20 PUSH1 0x0 KECCAK256 SWAP1 PUSH1 0x20 PUSH1 0x1F DUP5 ADD PUSH1 0x5 SHR DUP4 ADD SWAP4 LT PUSH2 0xE00 JUMPI JUMPDEST PUSH1 0x1F ADD PUSH1 0x5 SHR ADD SWAP1 PUSH2 0xDAE JUMP JUMPDEST SWAP1 SWAP2 POP DUP2 SWAP1 PUSH2 0xDF3 JUMP JUMPDEST SWAP1 PUSH1 0x1F DUP3 GT PUSH2 0xE17 JUMPI POP POP JUMP JUMPDEST PUSH2 0x382 SWAP2 PUSH1 0x7 PUSH1 0x0 MSTORE PUSH1 0x20 PUSH1 0x0 KECCAK256 SWAP1 PUSH1 0x20 PUSH1 0x1F DUP5 ADD PUSH1 0x5 SHR DUP4 ADD SWAP4 LT PUSH2 0xE00 JUMPI PUSH1 0x1F ADD PUSH1 0x5 SHR ADD SWAP1 PUSH2 0xDAE JUMP JUMPDEST SWAP2 SWAP1 PUSH1 0x1F DUP2 GT PUSH2 0xE53 JUMPI POP POP POP JUMP JUMPDEST PUSH2 0x382 SWAP3 PUSH1 0x0 MSTORE PUSH1 0x20 PUSH1 0x0 KECCAK256 SWAP1 PUSH1 0x20 PUSH1 0x1F DUP5 ADD PUSH1 0x5 SHR DUP4 ADD SWAP4 LT PUSH2 0xE00 JUMPI PUSH1 0x1F ADD PUSH1 0x5 SHR ADD SWAP1 PUSH2 0xDAE JUMP JUMPDEST SWAP1 DUP2 MLOAD PUSH1 0x1 PUSH1 0x1 PUSH1 0x40 SHL SUB DUP2 GT PUSH2 0x1A4 JUMPI PUSH2 0xEA5 DUP2 PUSH2 0xE9E PUSH1 0x3 SLOAD PUSH2 0x310 JUMP JUMPDEST PUSH1 0x3 PUSH2 0xE44 JUMP JUMPDEST PUSH1 0x20 SWAP3 PUSH1 0x1F DUP3 GT PUSH1 0x1 EQ PUSH2 0xEDB JUMPI PUSH2 0xED6 SWAP3 SWAP4 DUP3 SWAP2 PUSH1 0x0 SWAP3 PUSH2 0x866 JUMPI POP POP DUP2 PUSH1 0x1 SHL SWAP2 PUSH1 0x0 NOT SWAP1 PUSH1 0x3 SHL SHR NOT AND OR SWAP1 JUMP JUMPDEST PUSH1 0x3 SSTORE JUMP JUMPDEST PUSH1 0x3 PUSH1 0x0 MSTORE PUSH1 0x1F NOT DUP3 AND SWAP4 PUSH32 0xC2575A0E9E593C00F959F8C92F12DB2869C3395A3B0502D05E2516446F71F85B SWAP2 PUSH1 0x0 JUMPDEST DUP7 DUP2 LT PUSH2 0xF42 JUMPI POP DUP4 PUSH1 0x1 SWAP6 SWAP7 LT PUSH2 0xF29 JUMPI JUMPDEST POP POP POP DUP2 SHL ADD PUSH1 0x3 SSTORE JUMP JUMPDEST ADD MLOAD PUSH1 0x0 NOT PUSH1 0xF8 DUP5 PUSH1 0x3 SHL AND SHR NOT AND SWAP1 SSTORE CODESIZE DUP1 DUP1 PUSH2 0xF1E JUMP JUMPDEST SWAP2 SWAP3 PUSH1 0x20 PUSH1 0x1 DUP2 SWAP3 DUP7 DUP6 ADD MLOAD DUP2 SSTORE ADD SWAP5 ADD SWAP3 ADD PUSH2 0xF0B JUMP JUMPDEST SWAP1 DUP2 PUSH1 0x20 SWAP2 SUB SLT PUSH2 0x16E JUMPI MLOAD SWAP1 JUMP JUMPDEST PUSH1 0x40 SWAP1 PUSH2 0x22B SWAP3 DUP2 MSTORE DUP2 PUSH1 0x20 DUP3 ADD MSTORE ADD PUSH1 0x3 PUSH2 0xAA1 JUMP JUMPDEST SWAP1 SWAP2 DUP2 PUSH1 0x0 MSTORE PUSH1 0x8 PUSH1 0x20 MSTORE PUSH1 0xFF PUSH1 0x40 PUSH1 0x0 KECCAK256 SLOAD AND ISZERO PUSH2 0x102D JUMPI DUP1 MLOAD PUSH2 0xFF4 JUMPI POP POP PUSH2 0xFB7 DUP2 PUSH1 0x20 DUP1 PUSH2 0xFBC SWAP5 MLOAD DUP4 ADD ADD SWAP2 ADD PUSH2 0xF5A JUMP JUMPDEST PUSH1 0x2 SSTORE JUMP JUMPDEST PUSH32 0xD5D38BEEBA170512A581E928B7D5F0EE2FA78E7E8574A7963DE014E1FE180E26 PUSH2 0xFEF PUSH1 0x2 SLOAD PUSH1 0x40 MLOAD SWAP2 DUP3 SWAP2 DUP3 PUSH2 0xF69 JUMP JUMPDEST SUB SWAP1 LOG1 JUMP JUMPDEST PUSH32 0x61982C98CBC49D11759A948F460B92BCA26BDF12CEEE12C310F117EB2CA9A9CB SWAP2 SWAP3 POP PUSH2 0x1028 SWAP1 PUSH1 0x40 MLOAD SWAP2 DUP3 SWAP2 DUP3 PUSH2 0x444 JUMP JUMPDEST SUB SWAP1 LOG2 JUMP JUMPDEST PUSH1 0x40 MLOAD PUSH3 0x461BCD PUSH1 0xE5 SHL DUP2 MSTORE PUSH1 0x20 PUSH1 0x4 DUP3 ADD MSTORE PUSH1 0xF PUSH1 0x24 DUP3 ADD MSTORE PUSH15 0x125B9D985B1A59081C995C5D595CDD PUSH1 0x8A SHL PUSH1 0x44 DUP3 ADD MSTORE PUSH1 0x64 SWAP1 REVERT JUMPDEST PUSH1 0x0 SLOAD PUSH1 0x1 PUSH1 0x1 PUSH1 0xA0 SHL SUB AND CALLER SUB PUSH2 0x1078 JUMPI JUMP JUMPDEST PUSH4 0x118CDAA7 PUSH1 0xE0 SHL PUSH1 0x0 MSTORE CALLER PUSH1 0x4 MSTORE PUSH1 0x24 PUSH1 0x0 REVERT JUMPDEST DUP2 MLOAD ISZERO PUSH2 0x109A JUMPI PUSH1 0xA0 ADD MSTORE JUMP JUMPDEST PUSH4 0xFE936CB7 PUSH1 0xE0 SHL PUSH1 0x0 MSTORE PUSH1 0x4 PUSH1 0x0 REVERT JUMPDEST PUSH4 0x4E487B71 PUSH1 0xE0 SHL PUSH1 0x0 MSTORE PUSH1 0x21 PUSH1 0x4 MSTORE PUSH1 0x24 PUSH1 0x0 REVERT JUMPDEST PUSH1 0x3 GT ISZERO PUSH2 0x10CB JUMPI JUMP JUMPDEST PUSH2 0x10AB JUMP JUMPDEST DUP2 MLOAD ISZERO PUSH2 0x10E4 JUMPI PUSH1 0x1 PUSH1 0x20 DUP3 ADD MSTORE PUSH1 0x80 ADD MSTORE JUMP JUMPDEST PUSH4 0xE889636F PUSH1 0xE0 SHL PUSH1 0x0 MSTORE PUSH1 0x4 PUSH1 0x0 REVERT JUMPDEST PUSH1 0x40 MLOAD SWAP1 PUSH2 0x1104 PUSH1 0x40 DUP4 PUSH2 0x1A9 JUMP JUMPDEST PUSH1 0xC DUP3 MSTORE PUSH12 0x31B7B232A637B1B0BA34B7B7 PUSH1 0xA1 SHL PUSH1 0x20 DUP4 ADD MSTORE JUMP JUMPDEST PUSH1 0x40 MLOAD SWAP1 PUSH2 0x112E PUSH1 0x40 DUP4 PUSH2 0x1A9 JUMP JUMPDEST PUSH1 0x8 DUP3 MSTORE PUSH8 0x6C616E6775616765 PUSH1 0xC0 SHL PUSH1 0x20 DUP4 ADD MSTORE JUMP JUMPDEST PUSH1 0x1 GT ISZERO PUSH2 0x10CB JUMPI JUMP JUMPDEST PUSH1 0x40 MLOAD SWAP1 PUSH2 0x115E PUSH1 0x40 DUP4 PUSH2 0x1A9 JUMP JUMPDEST PUSH1 0x6 DUP3 MSTORE PUSH6 0x736F75726365 PUSH1 0xD0 SHL PUSH1 0x20 DUP4 ADD MSTORE JUMP JUMPDEST PUSH1 0x40 MLOAD SWAP1 PUSH2 0x1182 PUSH1 0x40 DUP4 PUSH2 0x1A9 JUMP JUMPDEST PUSH1 0x4 DUP3 MSTORE PUSH4 0x61726773 PUSH1 0xE0 SHL PUSH1 0x20 DUP4 ADD MSTORE JUMP JUMPDEST PUSH1 0x40 MLOAD SWAP1 PUSH2 0x11A4 PUSH1 0x40 DUP4 PUSH2 0x1A9 JUMP JUMPDEST PUSH1 0xF DUP3 MSTORE PUSH15 0x39B2B1B932BA39A637B1B0BA34B7B7 PUSH1 0x89 SHL PUSH1 0x20 DUP4 ADD MSTORE JUMP JUMPDEST PUSH1 0x40 MLOAD SWAP1 PUSH2 0x11D1 PUSH1 0x40 DUP4 PUSH2 0x1A9 JUMP JUMPDEST PUSH1 0x7 DUP3 MSTORE PUSH7 0x73656372657473 PUSH1 0xC8 SHL PUSH1 0x20 DUP4 ADD MSTORE JUMP JUMPDEST PUSH1 0x40 MLOAD SWAP1 PUSH2 0x11F6 PUSH1 0x40 DUP4 PUSH2 0x1A9 JUMP JUMPDEST PUSH1 0x9 DUP3 MSTORE PUSH9 0x627974657341726773 PUSH1 0xB8 SHL PUSH1 0x20 DUP4 ADD MSTORE JUMP JUMPDEST PUSH2 0x1216 PUSH2 0x1519 JUMP JUMPDEST SWAP1 PUSH2 0x1228 PUSH2 0x1222 PUSH2 0x10F5 JUMP JUMPDEST DUP4 PUSH2 0x154A JUMP JUMPDEST PUSH2 0x1245 DUP2 MLOAD PUSH2 0x1236 DUP2 PUSH2 0x10C1 JUMP JUMPDEST PUSH2 0x123F DUP2 PUSH2 0x10C1 JUMP JUMPDEST DUP4 PUSH2 0x1633 JUMP JUMPDEST PUSH2 0x1250 PUSH2 0x1222 PUSH2 0x111F JUMP JUMPDEST PUSH2 0x126A PUSH1 0x40 DUP3 ADD MLOAD PUSH2 0x1261 DUP2 PUSH2 0x1145 JUMP JUMPDEST PUSH2 0x123F DUP2 PUSH2 0x1145 JUMP JUMPDEST PUSH2 0x1275 PUSH2 0x1222 PUSH2 0x114F JUMP JUMPDEST PUSH2 0x1283 PUSH1 0x60 DUP3 ADD MLOAD DUP4 PUSH2 0x154A JUMP JUMPDEST PUSH1 0xA0 DUP2 ADD DUP1 MLOAD MLOAD PUSH2 0x1382 JUMPI JUMPDEST POP PUSH1 0x80 DUP2 ADD SWAP1 DUP2 MLOAD MLOAD PUSH2 0x1303 JUMPI JUMPDEST PUSH1 0xC0 SWAP2 POP ADD DUP1 MLOAD MLOAD PUSH2 0x12B0 JUMPI JUMPDEST POP MLOAD MLOAD SWAP1 JUMP JUMPDEST SWAP2 PUSH2 0x12BC PUSH2 0x1222 PUSH2 0x11E7 JUMP JUMPDEST PUSH2 0x12C5 DUP3 PUSH2 0x1696 JUMP JUMPDEST PUSH1 0x0 JUMPDEST DUP4 MLOAD DUP1 MLOAD DUP3 LT ISZERO PUSH2 0x12F0 JUMPI SWAP1 PUSH2 0x12EA PUSH2 0x12E3 DUP3 PUSH1 0x1 SWAP5 PUSH2 0xD9A JUMP JUMPDEST MLOAD DUP6 PUSH2 0x16F9 JUMP JUMPDEST ADD PUSH2 0x12C8 JUMP JUMPDEST POP POP SWAP2 POP PUSH2 0x12FD DUP2 PUSH2 0x16D6 JUMP JUMPDEST CODESIZE PUSH2 0x12AA JUMP JUMPDEST PUSH1 0x20 DUP2 ADD DUP1 MLOAD PUSH2 0x1312 DUP2 PUSH2 0x10C1 JUMP JUMPDEST PUSH2 0x131B DUP2 PUSH2 0x10C1 JUMP JUMPDEST ISZERO PUSH2 0x1371 JUMPI PUSH1 0xC0 SWAP3 PUSH2 0x1354 PUSH2 0x136C SWAP3 PUSH2 0x133B PUSH2 0x1335 PUSH2 0x1195 JUMP JUMPDEST DUP9 PUSH2 0x154A JUMP JUMPDEST MLOAD PUSH2 0x1345 DUP2 PUSH2 0x10C1 JUMP JUMPDEST PUSH2 0x134E DUP2 PUSH2 0x10C1 JUMP JUMPDEST DUP7 PUSH2 0x1633 JUMP JUMPDEST PUSH2 0x1365 PUSH2 0x135F PUSH2 0x11C2 JUMP JUMPDEST DUP7 PUSH2 0x154A JUMP JUMPDEST MLOAD DUP5 PUSH2 0x16F9 JUMP JUMPDEST PUSH2 0x129D JUMP JUMPDEST PUSH4 0xA80D31F7 PUSH1 0xE0 SHL PUSH1 0x0 MSTORE PUSH1 0x4 PUSH1 0x0 REVERT JUMPDEST SWAP3 PUSH2 0x1394 PUSH2 0x138E PUSH2 0x1173 JUMP JUMPDEST DUP5 PUSH2 0x154A JUMP JUMPDEST PUSH2 0x139D DUP4 PUSH2 0x1696 JUMP JUMPDEST PUSH1 0x0 JUMPDEST DUP5 MLOAD DUP1 MLOAD DUP3 LT ISZERO PUSH2 0x13C8 JUMPI SWAP1 PUSH2 0x13C2 PUSH2 0x13BB DUP3 PUSH1 0x1 SWAP5 PUSH2 0xD9A JUMP JUMPDEST MLOAD DUP7 PUSH2 0x154A JUMP JUMPDEST ADD PUSH2 0x13A0 JUMP JUMPDEST POP POP SWAP3 POP PUSH2 0x13D5 DUP3 PUSH2 0x16D6 JUMP JUMPDEST CODESIZE PUSH2 0x128F JUMP JUMPDEST PUSH1 0x40 MLOAD RETURNDATASIZE PUSH1 0x0 DUP3 RETURNDATACOPY RETURNDATASIZE SWAP1 REVERT JUMPDEST SWAP3 SWAP1 PUSH1 0x20 SWAP3 PUSH1 0x1 PUSH1 0x1 PUSH1 0x40 SHL SUB SWAP3 PUSH4 0xFFFFFFFF PUSH2 0x1426 PUSH1 0x40 MLOAD SWAP8 DUP9 SWAP7 DUP8 SWAP7 PUSH4 0x230E93B1 PUSH1 0xE1 SHL DUP9 MSTORE AND PUSH1 0x4 DUP8 ADD MSTORE PUSH1 0xA0 PUSH1 0x24 DUP8 ADD MSTORE PUSH1 0xA4 DUP7 ADD SWAP1 PUSH2 0x403 JUMP JUMPDEST PUSH1 0x1 PUSH1 0x44 DUP7 ADD MSTORE SWAP3 AND PUSH1 0x64 DUP5 ADD MSTORE PUSH1 0x84 DUP4 ADD MSTORE SUB DUP2 PUSH1 0x0 PUSH32 0x0 PUSH1 0x1 PUSH1 0x1 PUSH1 0xA0 SHL SUB AND GAS CALL SWAP1 DUP2 ISZERO PUSH2 0x14D1 JUMPI PUSH1 0x0 SWAP2 PUSH2 0x14A2 JUMPI JUMPDEST POP DUP1 PUSH32 0x1131472297A800FEE664D1D89CFA8F7676FF07189ECC53F80BBB5F4969099DB8 PUSH1 0x0 DUP1 LOG2 SWAP1 JUMP JUMPDEST PUSH2 0x14C4 SWAP2 POP PUSH1 0x20 RETURNDATASIZE PUSH1 0x20 GT PUSH2 0x14CA JUMPI JUMPDEST PUSH2 0x14BC DUP2 DUP4 PUSH2 0x1A9 JUMP JUMPDEST DUP2 ADD SWAP1 PUSH2 0xF5A JUMP JUMPDEST CODESIZE PUSH2 0x1478 JUMP JUMPDEST POP RETURNDATASIZE PUSH2 0x14B2 JUMP JUMPDEST PUSH2 0x13DB JUMP JUMPDEST PUSH1 0x0 DUP3 MLOAD ISZERO PUSH2 0x14F0 JUMPI POP PUSH1 0x0 DUP1 DUP3 MSTORE PUSH1 0x40 DUP3 ADD MSTORE PUSH1 0x60 ADD MSTORE JUMP JUMPDEST PUSH4 0x22CE3EDD PUSH1 0xE0 SHL DUP2 MSTORE PUSH1 0x4 SWAP1 REVERT JUMPDEST PUSH1 0x40 MLOAD SWAP1 PUSH2 0x150C DUP3 PUSH2 0x189 JUMP JUMPDEST PUSH1 0x0 PUSH1 0x20 DUP4 PUSH1 0x60 DUP2 MSTORE ADD MSTORE JUMP JUMPDEST PUSH1 0x40 MLOAD PUSH2 0x1525 DUP2 PUSH2 0x189 JUMP JUMPDEST PUSH1 0x0 PUSH2 0x152F PUSH2 0x14FF JUMP JUMPDEST DUP1 DUP4 MSTORE PUSH2 0x1545 PUSH2 0x100 PUSH1 0x20 DUP6 ADD SWAP3 DUP5 DUP5 MSTORE PUSH2 0x1792 JUMP JUMPDEST POP MSTORE SWAP1 JUMP JUMPDEST DUP2 MLOAD PUSH2 0x159B SWAP3 SWAP2 SWAP1 PUSH1 0x1 PUSH1 0x1 PUSH1 0x40 SHL SUB AND PUSH1 0x17 DUP2 GT PUSH2 0x159E JUMPI DUP2 MLOAD PUSH2 0x1586 SWAP2 PUSH2 0x1580 SWAP1 PUSH2 0x1579 PUSH1 0x60 JUMPDEST PUSH1 0xFF AND SWAP1 JUMP JUMPDEST OR PUSH1 0xFF AND SWAP1 JUMP JUMPDEST SWAP1 PUSH2 0x192A JUMP JUMPDEST POP JUMPDEST MLOAD SWAP1 PUSH2 0x1592 PUSH2 0x14FF JUMP JUMPDEST POP DUP1 MLOAD SWAP2 PUSH2 0x1B94 JUMP JUMPDEST POP JUMP JUMPDEST PUSH1 0xFF DUP2 GT PUSH2 0x15CB JUMPI DUP2 MLOAD PUSH2 0x15C5 SWAP2 SWAP1 PUSH2 0x15BD SWAP1 PUSH1 0x18 PUSH1 0x60 JUMPDEST OR SWAP1 PUSH2 0x192A JUMP JUMPDEST POP DUP3 MLOAD PUSH2 0x1B14 JUMP JUMPDEST POP PUSH2 0x1588 JUMP JUMPDEST PUSH2 0xFFFF DUP2 GT PUSH2 0x15F0 JUMPI DUP2 MLOAD PUSH2 0x15C5 SWAP2 SWAP1 PUSH2 0x15E8 SWAP1 PUSH1 0x19 PUSH1 0x60 PUSH2 0x15B6 JUMP JUMPDEST POP DUP3 MLOAD PUSH2 0x1A9B JUMP JUMPDEST PUSH4 0xFFFFFFFF DUP2 GT PUSH2 0x1617 JUMPI DUP2 MLOAD PUSH2 0x15C5 SWAP2 SWAP1 PUSH2 0x160F SWAP1 PUSH1 0x1A PUSH1 0x60 PUSH2 0x15B6 JUMP JUMPDEST POP DUP3 MLOAD PUSH2 0x1A22 JUMP JUMPDEST DUP2 MLOAD PUSH2 0x15C5 SWAP2 SWAP1 PUSH2 0x162B SWAP1 PUSH1 0x1B PUSH1 0x60 PUSH2 0x15B6 JUMP JUMPDEST POP DUP3 MLOAD PUSH2 0x19A4 JUMP JUMPDEST SWAP1 PUSH2 0x382 SWAP2 PUSH2 0x1642 DUP2 MLOAD PUSH2 0x18BA JUMP JUMPDEST POP PUSH1 0x40 MLOAD SWAP2 PUSH1 0x20 DUP4 ADD MSTORE PUSH1 0x20 DUP3 MSTORE PUSH2 0x165B PUSH1 0x40 DUP4 PUSH2 0x1A9 JUMP JUMPDEST PUSH2 0x16F9 JUMP JUMPDEST PUSH4 0x4E487B71 PUSH1 0xE0 SHL PUSH1 0x0 MSTORE PUSH1 0x11 PUSH1 0x4 MSTORE PUSH1 0x24 PUSH1 0x0 REVERT JUMPDEST SWAP1 PUSH1 0x20 DUP3 ADD DUP1 SWAP3 GT PUSH2 0x1684 JUMPI JUMP JUMPDEST PUSH2 0x1660 JUMP JUMPDEST SWAP2 SWAP1 DUP3 ADD DUP1 SWAP3 GT PUSH2 0x1684 JUMPI JUMP JUMPDEST PUSH1 0x20 SWAP1 PUSH2 0x16A5 PUSH1 0x9F DUP3 MLOAD PUSH2 0x192A JUMP JUMPDEST POP ADD DUP1 MLOAD SWAP1 PUSH1 0x1 DUP3 ADD DUP1 SWAP3 GT PUSH2 0x1684 JUMPI MSTORE JUMP JUMPDEST PUSH1 0x1F NOT DUP2 ADD SWAP2 SWAP1 DUP3 GT PUSH2 0x1684 JUMPI JUMP JUMPDEST PUSH1 0x0 NOT DUP2 ADD SWAP2 SWAP1 DUP3 GT PUSH2 0x1684 JUMPI JUMP JUMPDEST PUSH1 0x20 SWAP1 PUSH2 0x16E5 PUSH1 0xFF DUP3 MLOAD PUSH2 0x192A JUMP JUMPDEST POP ADD DUP1 MLOAD PUSH1 0x0 NOT DUP2 ADD SWAP2 SWAP1 DUP3 GT PUSH2 0x1684 JUMPI MSTORE JUMP JUMPDEST DUP2 MLOAD PUSH2 0x159B SWAP3 SWAP2 SWAP1 PUSH1 0x1 PUSH1 0x1 PUSH1 0x40 SHL SUB AND PUSH1 0x17 DUP2 GT PUSH2 0x1726 JUMPI DUP2 MLOAD PUSH2 0x1586 SWAP2 PUSH2 0x1580 SWAP1 PUSH2 0x1579 PUSH1 0x40 PUSH2 0x1573 JUMP JUMPDEST PUSH1 0xFF DUP2 GT PUSH2 0x1742 JUMPI DUP2 MLOAD PUSH2 0x15C5 SWAP2 SWAP1 PUSH2 0x15BD SWAP1 PUSH1 0x18 PUSH1 0x40 PUSH2 0x15B6 JUMP JUMPDEST PUSH2 0xFFFF DUP2 GT PUSH2 0x175F JUMPI DUP2 MLOAD PUSH2 0x15C5 SWAP2 SWAP1 PUSH2 0x15E8 SWAP1 PUSH1 0x19 PUSH1 0x40 PUSH2 0x15B6 JUMP JUMPDEST PUSH4 0xFFFFFFFF DUP2 GT PUSH2 0x177E JUMPI DUP2 MLOAD PUSH2 0x15C5 SWAP2 SWAP1 PUSH2 0x160F SWAP1 PUSH1 0x1A PUSH1 0x40 PUSH2 0x15B6 JUMP JUMPDEST DUP2 MLOAD PUSH2 0x15C5 SWAP2 SWAP1 PUSH2 0x162B SWAP1 PUSH1 0x1B PUSH1 0x40 PUSH2 0x15B6 JUMP JUMPDEST SWAP1 PUSH2 0x179B PUSH2 0x14FF JUMP JUMPDEST POP PUSH1 0x1F DUP2 AND DUP1 PUSH2 0x17CA JUMPI JUMPDEST POP DUP1 PUSH1 0x20 DUP4 ADD MSTORE PUSH1 0x40 MLOAD SWAP1 DUP2 DUP4 MSTORE PUSH1 0x0 DUP3 MSTORE DUP2 ADD PUSH1 0x20 ADD SWAP1 DUP2 LT PUSH2 0x16E JUMPI PUSH1 0x40 MSTORE SWAP1 JUMP JUMPDEST PUSH1 0x20 SUB PUSH1 0x20 DUP2 GT PUSH2 0x1684 JUMPI DUP2 ADD DUP1 SWAP2 GT PUSH2 0x1684 JUMPI CODESIZE PUSH2 0x17A6 JUMP JUMPDEST SWAP1 PUSH2 0x17ED PUSH2 0x14FF JUMP JUMPDEST POP DUP1 MLOAD PUSH2 0x17F8 PUSH2 0x14FF JUMP JUMPDEST POP PUSH2 0x1806 DUP3 MLOAD DUP3 GT ISZERO PUSH2 0x1B8D JUMP JUMPDEST DUP3 MLOAD MLOAD SWAP2 PUSH2 0x1814 DUP3 DUP5 PUSH2 0x1689 JUMP JUMPDEST SWAP1 PUSH1 0x20 DUP6 ADD MLOAD DUP3 GT PUSH2 0x188D JUMPI JUMPDEST PUSH1 0x20 SWAP2 DUP6 MLOAD DUP4 DUP2 MLOAD SWAP7 DUP3 ADD ADD SWAP6 DUP3 GT PUSH2 0x1885 JUMPI JUMPDEST POP POP ADD SWAP1 JUMPDEST PUSH1 0x20 DUP2 LT ISZERO PUSH2 0x185F JUMPI PUSH1 0x0 NOT SWAP1 PUSH1 0x20 SUB PUSH2 0x100 EXP ADD SWAP1 DUP2 NOT SWAP1 MLOAD AND SWAP1 DUP3 MLOAD AND OR SWAP1 MSTORE SWAP1 JUMP JUMPDEST SWAP1 SWAP2 PUSH2 0x187A PUSH2 0x1874 PUSH2 0x1880 SWAP3 DUP6 MLOAD DUP2 MSTORE PUSH2 0x1676 JUMP JUMPDEST SWAP4 PUSH2 0x1676 JUMP JUMPDEST SWAP2 PUSH2 0x16B8 JUMP JUMPDEST PUSH2 0x183A JUMP JUMPDEST MSTORE CODESIZE DUP1 PUSH2 0x1835 JUMP JUMPDEST PUSH2 0x189F PUSH2 0x1899 DUP4 PUSH2 0x18A4 JUMP JUMPDEST DUP7 PUSH2 0x1C3A JUMP JUMPDEST PUSH2 0x1821 JUMP JUMPDEST SWAP1 DUP2 PUSH1 0x1 SHL SWAP2 DUP1 DUP4 DIV PUSH1 0x2 EQ SWAP1 ISZERO OR ISZERO PUSH2 0x1684 JUMPI JUMP JUMPDEST PUSH2 0x18C2 PUSH2 0x14FF JUMP JUMPDEST POP DUP1 MLOAD MLOAD PUSH1 0x1 DUP2 ADD SWAP1 DUP2 DUP2 GT PUSH2 0x1684 JUMPI PUSH1 0x20 DUP4 ADD MLOAD DUP2 LT ISZERO PUSH2 0x18FB JUMPI JUMPDEST PUSH1 0xC2 PUSH1 0x20 DUP5 MLOAD SWAP3 DUP4 ADD ADD MSTORE8 DUP1 MLOAD DUP3 GT PUSH2 0x18F7 JUMPI POP POP SWAP1 JUMP JUMPDEST MSTORE SWAP1 JUMP JUMPDEST DUP2 PUSH1 0x1 SHL DUP3 DUP2 DIV PUSH1 0x2 EQ DUP4 ISZERO OR ISZERO PUSH2 0x1684 JUMPI PUSH2 0x1924 SWAP1 PUSH2 0x191D DUP6 MLOAD SWAP2 DUP7 PUSH2 0x1792 JUMP JUMPDEST POP DUP5 PUSH2 0x17E4 JUMP JUMPDEST POP PUSH2 0x18DF JUMP JUMPDEST SWAP1 PUSH2 0x1933 PUSH2 0x14FF JUMP JUMPDEST POP DUP2 MLOAD MLOAD PUSH1 0x1 DUP2 ADD SWAP2 DUP3 DUP3 GT PUSH2 0x1684 JUMPI PUSH1 0x20 DUP5 ADD MLOAD DUP3 LT ISZERO PUSH2 0x1966 JUMPI JUMPDEST PUSH1 0x20 DUP5 MLOAD SWAP3 DUP4 ADD ADD MSTORE8 DUP1 MLOAD DUP3 GT PUSH2 0x18F7 JUMPI POP POP SWAP1 JUMP JUMPDEST DUP3 PUSH1 0x1 SHL DUP4 DUP2 DIV PUSH1 0x2 EQ DUP5 ISZERO OR ISZERO PUSH2 0x1684 JUMPI PUSH2 0x198F SWAP1 PUSH2 0x1988 DUP7 MLOAD SWAP2 DUP8 PUSH2 0x1792 JUMP JUMPDEST POP DUP6 PUSH2 0x17E4 JUMP JUMPDEST POP PUSH2 0x1950 JUMP JUMPDEST PUSH1 0x1F DUP2 GT PUSH2 0x1684 JUMPI PUSH2 0x100 EXP SWAP1 JUMP JUMPDEST SWAP1 PUSH2 0x19AD PUSH2 0x14FF JUMP JUMPDEST POP DUP2 MLOAD MLOAD DUP1 PUSH1 0x8 ADD SWAP2 DUP3 PUSH1 0x8 GT PUSH2 0x1684 JUMPI PUSH1 0x20 DUP5 ADD MLOAD DUP4 GT PUSH2 0x19FA JUMPI JUMPDEST PUSH2 0x19DC PUSH2 0x19D7 PUSH1 0x8 PUSH2 0x1995 JUMP JUMPDEST PUSH2 0x16C7 JUMP JUMPDEST SWAP1 PUSH1 0x8 DUP6 MLOAD SWAP4 DUP5 ADD ADD SWAP2 NOT DUP3 MLOAD AND OR SWAP1 MSTORE DUP1 MLOAD DUP3 GT PUSH2 0x18F7 JUMPI POP POP SWAP1 JUMP JUMPDEST DUP3 PUSH1 0x1 SHL DUP4 DUP2 DIV PUSH1 0x2 EQ DUP5 ISZERO OR ISZERO PUSH2 0x1684 JUMPI PUSH2 0x1A1C SWAP1 PUSH2 0x1988 DUP7 MLOAD SWAP2 DUP8 PUSH2 0x1792 JUMP JUMPDEST POP PUSH2 0x19CA JUMP JUMPDEST SWAP1 PUSH2 0x1A2B PUSH2 0x14FF JUMP JUMPDEST POP DUP2 MLOAD MLOAD DUP1 PUSH1 0x4 ADD SWAP2 DUP3 PUSH1 0x4 GT PUSH2 0x1684 JUMPI PUSH1 0x20 DUP5 ADD MLOAD DUP4 GT PUSH2 0x1A73 JUMPI JUMPDEST PUSH2 0x1A55 PUSH2 0x19D7 PUSH1 0x4 PUSH2 0x1995 JUMP JUMPDEST SWAP1 PUSH1 0x4 DUP6 MLOAD SWAP4 DUP5 ADD ADD SWAP2 NOT DUP3 MLOAD AND OR SWAP1 MSTORE DUP1 MLOAD DUP3 GT PUSH2 0x18F7 JUMPI POP POP SWAP1 JUMP JUMPDEST DUP3 PUSH1 0x1 SHL DUP4 DUP2 DIV PUSH1 0x2 EQ DUP5 ISZERO OR ISZERO PUSH2 0x1684 JUMPI PUSH2 0x1A95 SWAP1 PUSH2 0x1988 DUP7 MLOAD SWAP2 DUP8 PUSH2 0x1792 JUMP JUMPDEST POP PUSH2 0x1A48 JUMP JUMPDEST SWAP1 PUSH2 0x1AA4 PUSH2 0x14FF JUMP JUMPDEST POP DUP2 MLOAD MLOAD DUP1 PUSH1 0x2 ADD SWAP2 DUP3 PUSH1 0x2 GT PUSH2 0x1684 JUMPI PUSH1 0x20 DUP5 ADD MLOAD DUP4 GT PUSH2 0x1AEC JUMPI JUMPDEST PUSH2 0x1ACE PUSH2 0x19D7 PUSH1 0x2 PUSH2 0x1995 JUMP JUMPDEST SWAP1 PUSH1 0x2 DUP6 MLOAD SWAP4 DUP5 ADD ADD SWAP2 NOT DUP3 MLOAD AND OR SWAP1 MSTORE DUP1 MLOAD DUP3 GT PUSH2 0x18F7 JUMPI POP POP SWAP1 JUMP JUMPDEST DUP3 PUSH1 0x1 SHL DUP4 DUP2 DIV PUSH1 0x2 EQ DUP5 ISZERO OR ISZERO PUSH2 0x1684 JUMPI PUSH2 0x1B0E SWAP1 PUSH2 0x1988 DUP7 MLOAD SWAP2 DUP8 PUSH2 0x1792 JUMP JUMPDEST POP PUSH2 0x1AC1 JUMP JUMPDEST SWAP1 PUSH2 0x1B1D PUSH2 0x14FF JUMP JUMPDEST POP DUP2 MLOAD MLOAD DUP1 PUSH1 0x1 ADD SWAP2 DUP3 PUSH1 0x1 GT PUSH2 0x1684 JUMPI PUSH1 0x20 DUP5 ADD MLOAD DUP4 GT PUSH2 0x1B65 JUMPI JUMPDEST PUSH2 0x1B47 PUSH2 0x19D7 PUSH1 0x1 PUSH2 0x1995 JUMP JUMPDEST SWAP1 PUSH1 0x1 DUP6 MLOAD SWAP4 DUP5 ADD ADD SWAP2 NOT DUP3 MLOAD AND OR SWAP1 MSTORE DUP1 MLOAD DUP3 GT PUSH2 0x18F7 JUMPI POP POP SWAP1 JUMP JUMPDEST DUP3 PUSH1 0x1 SHL DUP4 DUP2 DIV PUSH1 0x2 EQ DUP5 ISZERO OR ISZERO PUSH2 0x1684 JUMPI PUSH2 0x1B87 SWAP1 PUSH2 0x1988 DUP7 MLOAD SWAP2 DUP8 PUSH2 0x1792 JUMP JUMPDEST POP PUSH2 0x1B3A JUMP JUMPDEST ISZERO PUSH2 0x16E JUMPI JUMP JUMPDEST SWAP2 PUSH2 0x1B9D PUSH2 0x14FF JUMP JUMPDEST POP PUSH2 0x1BAB DUP3 MLOAD DUP3 GT ISZERO PUSH2 0x1B8D JUMP JUMPDEST PUSH1 0x20 DUP4 MLOAD MLOAD SWAP3 PUSH2 0x1BBB DUP4 DUP6 PUSH2 0x1689 JUMP JUMPDEST DUP3 DUP7 ADD MLOAD DUP2 GT PUSH2 0x1C23 JUMPI JUMPDEST DUP6 MLOAD DUP4 DUP2 MLOAD SWAP7 DUP3 ADD ADD SWAP6 DUP3 GT PUSH2 0x1C1B JUMPI JUMPDEST POP POP ADD SWAP1 JUMPDEST PUSH1 0x20 DUP2 LT ISZERO PUSH2 0x1C01 JUMPI PUSH1 0x0 NOT SWAP1 PUSH1 0x20 SUB PUSH2 0x100 EXP ADD SWAP1 DUP2 NOT SWAP1 MLOAD AND SWAP1 DUP3 MLOAD AND OR SWAP1 MSTORE SWAP1 JUMP JUMPDEST SWAP1 SWAP2 PUSH2 0x187A PUSH2 0x1874 PUSH2 0x1C16 SWAP3 DUP6 MLOAD DUP2 MSTORE PUSH2 0x1676 JUMP JUMPDEST PUSH2 0x1BDC JUMP JUMPDEST MSTORE CODESIZE DUP1 PUSH2 0x1BD7 JUMP JUMPDEST PUSH2 0x1C35 PUSH2 0x1C2F DUP3 PUSH2 0x18A4 JUMP JUMPDEST DUP8 PUSH2 0x1C3A JUMP JUMPDEST PUSH2 0x1BC6 JUMP JUMPDEST SWAP1 PUSH2 0x159B SWAP2 PUSH2 0x1C4B DUP2 MLOAD SWAP3 DUP3 PUSH2 0x1792 JUMP JUMPDEST POP PUSH2 0x17E4 JUMP INVALID LOG2 PUSH5 0x6970667358 0x22 SLT KECCAK256 PUSH17 0x73FDDEDC9A2E3856B709476485F986CA6F 0xE2 0xD7 0x29 BLOCKHASH 0x2F BLOCKHASH PUSH20 0x284145E29E1CEB64736F6C634300081B00330000 "},"methodIdentifiers":{"carbonIntensity()":"4ae63ee2","currentZone()":"41c52553","donID()":"6e74336b","encryptedSecretsUrls()":"dab79c40","gasLimit()":"f68016b7","getGridStatus()":"60adab3c","handleOracleFulfillment(bytes32,bytes,bytes)":"0ca76175","latestRequestId()":"1aa46f59","owner()":"8da5cb5b","renounceOwnership()":"715018a6","requestCarbonIntensity(string)":"96f887d6","setCarbonIntensity(uint256)":"69fee87e","setEncryptedSecretsUrls(bytes)":"adefa75f","setSource(string)":"99d25455","source()":"67e828bf","subscriptionId()":"09c1ba2e","transferOwnership(address)":"f2fde38b","updateConfig(uint64,uint32,bytes32)":"d0f784f0","validRequests(bytes32)":"bd3edca7"}}}}}