{"contracts/CarbonGhostNFT.sol":{"CarbonGhostNFT":{"abi":[{"inputs":[],"stateMutability":"nonpayable","type":"constructor"},{"inputs":[{"internalType":"address","name":"sender","type":"address"},{"internalType":"uint256","name":"tokenId","type":"uint256"},{"internalType":"address","name":"owner","type":"address"}],"name":"ERC721IncorrectOwner","type":"error"},{"inputs":[{"internalType":"address","name":"operator","type":"address"},{"internalType":"uint256","name":"tokenId","type":"uint256"}],"name":"ERC721InsufficientApproval","type":"error"},{"inputs":[{"internalType":"address","name":"approver","type":"address"}],"name":"ERC721InvalidApprover","type":"error"},{"inputs":[{"internalType":"address","name":"operator","type":"address"}],"name":"ERC721InvalidOperator","type":"error"},{"inputs":[{"internalType":"address","name":"owner","type":"address"}],"name":"ERC721InvalidOwner","type":"error"},{"inputs":[{"internalType":"address","name":"receiver","type":"address"}],"name":"ERC721InvalidReceiver","type":"error"},{"inputs":[{"internalType":"address","name":"sender","type":"address"}],"name":"ERC721InvalidSender","type":"error"},{"inputs":[{"internalType":"uint256","name":"tokenId","type":"uint256"}],"name":"ERC721NonexistentToken","type":"error"},{"inputs":[{"internalType":"address","name":"owner","type":"address"}],"name":"OwnableInvalidOwner","type":"error"},{"inputs":[{"internalType":"address","name":"account","type":"address"}],"name":"OwnableUnauthorizedAccount","type":"error"},{"anonymous":false,"inputs":[{"indexed":true,"internalType":"address","name":"owner","type":"address"},{"indexed":true,"internalType":"address","name":"approved","type":"address"},{"indexed":true,"internalType":"uint256","name":"tokenId","type":"uint256"}],"name":"Approval","type":"event"},{"anonymous":false,"inputs":[{"indexed":true,"internalType":"address","name":"owner","type":"address"},{"indexed":true,"internalType":"address","name":"operator","type":"address"},{"indexed":false,"internalType":"bool","name":"approved","type":"bool"}],"name":"ApprovalForAll","type":"event"},{"anonymous":false,"inputs":[{"indexed":false,"internalType":"uint256","name":"_fromTokenId","type":"uint256"},{"indexed":false,"internalType":"uint256","name":"_toTokenId","type":"uint256"}],"name":"BatchMetadataUpdate","type":"event"},{"anonymous":false,"inputs":[{"indexed":true,"internalType":"uint256","name":"tokenId","type":"uint256"},{"indexed":false,"internalType":"address","name":"owner","type":"address"}],"name":"GhostDied","type":"event"},{"anonymous":false,"inputs":[{"indexed":true,"internalType":"uint256","name":"tokenId","type":"uint256"},{"indexed":true,"internalType":"address","name":"owner","type":"address"},{"indexed":false,"internalType":"bytes32","name":"hardwareId","type":"bytes32"}],"name":"GhostMinted","type":"event"},{"anonymous":false,"inputs":[{"indexed":true,"internalType":"uint256","name":"tokenId","type":"uint256"},{"indexed":false,"internalType":"uint256","name":"health","type":"uint256"},{"indexed":false,"internalType":"string","name":"season","type":"string"},{"indexed":false,"internalType":"string","name":"mood","type":"string"}],"name":"GhostUpdated","type":"event"},{"anonymous":false,"inputs":[{"indexed":true,"internalType":"uint256","name":"tokenId","type":"uint256"},{"indexed":false,"internalType":"address","name":"from","type":"address"},{"indexed":false,"internalType":"address","name":"to","type":"address"}],"name":"HardwareTransferred","type":"event"},{"anonymous":false,"inputs":[{"indexed":false,"internalType":"uint256","name":"_tokenId","type":"uint256"}],"name":"MetadataUpdate","type":"event"},{"anonymous":false,"inputs":[{"indexed":true,"internalType":"address","name":"previousOwner","type":"address"},{"indexed":true,"internalType":"address","name":"newOwner","type":"address"}],"name":"OwnershipTransferred","type":"event"},{"anonymous":false,"inputs":[{"indexed":true,"internalType":"uint256","name":"tokenId","type":"uint256"},{"indexed":false,"internalType":"string","name":"fromSeason","type":"string"},{"indexed":false,"internalType":"string","name":"toSeason","type":"string"}],"name":"SeasonChanged","type":"event"},{"anonymous":false,"inputs":[{"indexed":true,"internalType":"address","name":"from","type":"address"},{"indexed":true,"internalType":"address","name":"to","type":"address"},{"indexed":true,"internalType":"uint256","name":"tokenId","type":"uint256"}],"name":"Transfer","type":"event"},{"inputs":[],"name":"CLEAN_HEAL_RATE","outputs":[{"internalType":"uint256","name":"","type":"uint256"}],"stateMutability":"view","type":"function"},{"inputs":[],"name":"DIRTY_DAMAGE_RATE","outputs":[{"internalType":"uint256","name":"","type":"uint256"}],"stateMutability":"view","type":"function"},{"inputs":[],"name":"STREAK_BONUS","outputs":[{"internalType":"uint256","name":"","type":"uint256"}],"stateMutability":"view","type":"function"},{"inputs":[{"internalType":"address","name":"to","type":"address"},{"internalType":"uint256","name":"tokenId","type":"uint256"}],"name":"approve","outputs":[],"stateMutability":"nonpayable","type":"function"},{"inputs":[{"internalType":"address","name":"owner","type":"address"}],"name":"balanceOf","outputs":[{"internalType":"uint256","name":"","type":"uint256"}],"stateMutability":"view","type":"function"},{"inputs":[],"name":"deadGhostURI","outputs":[{"internalType":"string","name":"","type":"string"}],"stateMutability":"view","type":"function"},{"inputs":[{"internalType":"address","name":"","type":"address"}],"name":"deviceToToken","outputs":[{"internalType":"uint256","name":"","type":"uint256"}],"stateMutability":"view","type":"function"},{"inputs":[],"name":"fallGhostURI","outputs":[{"internalType":"string","name":"","type":"string"}],"stateMutability":"view","type":"function"},{"inputs":[{"internalType":"uint256","name":"tokenId","type":"uint256"}],"name":"getApproved","outputs":[{"internalType":"address","name":"","type":"address"}],"stateMutability":"view","type":"function"},{"inputs":[{"internalType":"uint256","name":"tokenId","type":"uint256"}],"name":"getGhost","outputs":[{"components":[{"internalType":"uint256","name":"health","type":"uint256"},{"internalType":"string","name":"season","type":"string"},{"internalType":"string","name":"mood","type":"string"},{"internalType":"uint256","name":"lastUpdate","type":"uint256"},{"internalType":"address","name":"deviceOwner","type":"address"},{"internalType":"bytes32","name":"hardwareId","type":"bytes32"},{"internalType":"bool","name":"isSoulbound","type":"bool"},{"internalType":"uint256","name":"totalCleanReadings","type":"uint256"},{"internalType":"uint256","name":"totalDirtyReadings","type":"uint256"},{"internalType":"uint256","name":"consecutiveClean","type":"uint256"},{"internalType":"uint256","name":"consecutiveDirty","type":"uint256"}],"internalType":"struct CarbonGhostNFT.Ghost","name":"","type":"tuple"}],"stateMutability":"view","type":"function"},{"inputs":[{"internalType":"uint256","name":"tokenId","type":"uint256"}],"name":"getGhostHistory","outputs":[{"internalType":"uint256","name":"totalClean","type":"uint256"},{"internalType":"uint256","name":"totalDirty","type":"uint256"},{"internalType":"uint256","name":"health","type":"uint256"},{"internalType":"string","name":"season","type":"string"},{"internalType":"uint256","name":"cleanStreak","type":"uint256"},{"internalType":"uint256","name":"dirtyStreak","type":"uint256"}],"stateMutability":"view","type":"function"},{"inputs":[{"internalType":"uint256","name":"","type":"uint256"}],"name":"ghosts","outputs":[{"internalType":"uint256","name":"health","type":"uint256"},{"internalType":"string","name":"season","type":"string"},{"internalType":"string","name":"mood","type":"string"},{"internalType":"uint256","name":"lastUpdate","type":"uint256"},{"internalType":"address","name":"deviceOwner","type":"address"},{"internalType":"bytes32","name":"hardwareId","type":"bytes32"},{"internalType":"bool","name":"isSoulbound","type":"bool"},{"internalType":"uint256","name":"totalCleanReadings","type":"uint256"},{"internalType":"uint256","name":"totalDirtyReadings","type":"uint256"},{"internalType":"uint256","name":"consecutiveClean","type":"uint256"},{"internalType":"uint256","name":"consecutiveDirty","type":"uint256"}],"stateMutability":"view","type":"function"},{"inputs":[{"internalType":"bytes32","name":"","type":"bytes32"}],"name":"hardwareRegistered","outputs":[{"internalType":"bool","name":"","type":"bool"}],"stateMutability":"view","type":"function"},{"inputs":[{"internalType":"bytes32","name":"","type":"bytes32"}],"name":"hardwareToToken","outputs":[{"internalType":"uint256","name":"","type":"uint256"}],"stateMutability":"view","type":"function"},{"inputs":[{"internalType":"address","name":"owner","type":"address"},{"internalType":"address","name":"operator","type":"address"}],"name":"isApprovedForAll","outputs":[{"internalType":"bool","name":"","type":"bool"}],"stateMutability":"view","type":"function"},{"inputs":[{"internalType":"address","name":"to","type":"address"},{"internalType":"address","name":"deviceAddress","type":"address"},{"internalType":"bytes32","name":"hardwareId","type":"bytes32"}],"name":"mintGhost","outputs":[{"internalType":"uint256","name":"","type":"uint256"}],"stateMutability":"nonpayable","type":"function"},{"inputs":[],"name":"name","outputs":[{"internalType":"string","name":"","type":"string"}],"stateMutability":"view","type":"function"},{"inputs":[],"name":"owner","outputs":[{"internalType":"address","name":"","type":"address"}],"stateMutability":"view","type":"function"},{"inputs":[{"internalType":"uint256","name":"tokenId","type":"uint256"}],"name":"ownerOf","outputs":[{"internalType":"address","name":"","type":"address"}],"stateMutability":"view","type":"function"},{"inputs":[],"name":"renounceOwnership","outputs":[],"stateMutability":"nonpayable","type":"function"},{"inputs":[{"internalType":"address","name":"from","type":"address"},{"internalType":"address","name":"to","type":"address"},{"internalType":"uint256","name":"tokenId","type":"uint256"}],"name":"safeTransferFrom","outputs":[],"stateMutability":"nonpayable","type":"function"},{"inputs":[{"internalType":"address","name":"from","type":"address"},{"internalType":"address","name":"to","type":"address"},{"internalType":"uint256","name":"tokenId","type":"uint256"},{"internalType":"bytes","name":"data","type":"bytes"}],"name":"safeTransferFrom","outputs":[],"stateMutability":"nonpayable","type":"function"},{"inputs":[{"internalType":"address","name":"operator","type":"address"},{"internalType":"bool","name":"approved","type":"bool"}],"name":"setApprovalForAll","outputs":[],"stateMutability":"nonpayable","type":"function"},{"inputs":[],"name":"springGhostURI","outputs":[{"internalType":"string","name":"","type":"string"}],"stateMutability":"view","type":"function"},{"inputs":[],"name":"summerGhostURI","outputs":[{"internalType":"string","name":"","type":"string"}],"stateMutability":"view","type":"function"},{"inputs":[{"internalType":"bytes4","name":"interfaceId","type":"bytes4"}],"name":"supportsInterface","outputs":[{"internalType":"bool","name":"","type":"bool"}],"stateMutability":"view","type":"function"},{"inputs":[],"name":"symbol","outputs":[{"internalType":"string","name":"","type":"string"}],"stateMutability":"view","type":"function"},{"inputs":[{"internalType":"uint256","name":"tokenId","type":"uint256"}],"name":"tokenURI","outputs":[{"internalType":"string","name":"","type":"string"}],"stateMutability":"view","type":"function"},{"inputs":[{"internalType":"address","name":"from","type":"address"},{"internalType":"address","name":"to","type":"address"},{"internalType":"uint256","name":"tokenId","type":"uint256"}],"name":"transferFrom","outputs":[],"stateMutability":"nonpayable","type":"function"},{"inputs":[{"internalType":"uint256","name":"tokenId","type":"uint256"},{"internalType":"address","name":"newOwner","type":"address"}],"name":"transferHardware","outputs":[],"stateMutability":"nonpayable","type":"function"},{"inputs":[{"internalType":"address","name":"newOwner","type":"address"}],"name":"transferOwnership","outputs":[],"stateMutability":"nonpayable","type":"function"},{"inputs":[{"internalType":"uint256","name":"tokenId","type":"uint256"},{"internalType":"string","name":"status","type":"string"}],"name":"updateGhost","outputs":[],"stateMutability":"nonpayable","type":"function"},{"inputs":[],"name":"winterGhostURI","outputs":[{"internalType":"string","name":"","type":"string"}],"stateMutability":"view","type":"function"}],"evm":{"bytecode":{"linkReferences":{},"object":"60806040523461057957604080519081016001600160401b038111828210176104a6576040908152600b82526a10d85c989bdb91da1bdcdd60aa1b602083015280519081016001600160401b038111828210176104a657604052600581526411d213d4d560da1b602082015281516001600160401b0381116104a65761008660005461057e565b601f811161052b575b50602092601f82116001146104c757928192936000926104bc575b50508160011b916000199060031b1c1916176000555b80516001600160401b0381116104a6576100db60015461057e565b601f811161044c575b50602091601f82116001146103e8579181926000926103dd575b50508160011b916000199060031b1c1916176001555b33156103c75760078054336001600160a01b0319821681179092556001600160a01b03167f8be0079c531659141344cd1fd0a4f28419497f9722a3daafe3b4186f6b6457e0600080a3610168600d5461057e565b601f8111610388575b507f697066733a2f2f516d537072696e6747686f7374000000000000000000000028600d55600e546101a29061057e565b601f8111610349575b507f697066733a2f2f516d53756d6d657247686f7374000000000000000000000028600e55600f546101dc9061057e565b601f811161030a575b507f697066733a2f2f516d46616c6c47686f73740000000000000000000000000024600f556010546102169061057e565b601f81116102cb575b507f697066733a2f2f516d57696e74657247686f73740000000000000000000000286010556011546102509061057e565b601f811161028c575b7f697066733a2f2f516d4465616447686f7374000000000000000000000000002460115560405161314e90816105d08239f35b60116000526102c590601f0160051c7f31ecc21a745e3968a04e9570e4425bc18fa8019c68028196b546d1669c200c68908101906105b8565b38610259565b601060005261030490601f0160051c7f1b6847dc741a1b0cd08d278845f9d819d87b734759afb55fe2de5cb82a9ae672908101906105b8565b3861021f565b600f60005261034390601f0160051c7f8d1108e10bcb7c27dddfc02ed9d693a074039d026cf4ea4240b40f7d581ac802908101906105b8565b386101e5565b600e60005261038290601f0160051c7fbb7b4a454dc3493923482f07822329ed19e8244eff582cc204f8554c3620c3fd908101906105b8565b386101ab565b600d6000526103c190601f0160051c7fd7b6990105719101dabeb77144f2a3385c8033acd3af97e9423a695e81ad1eb5908101906105b8565b38610171565b631e4fbdf760e01b600052600060045260246000fd5b0151905038806100fe565b601f198216926001600052806000209160005b8581106104345750836001951061041b575b505050811b01600155610114565b015160001960f88460031b161c1916905538808061040d565b919260206001819286850151815501940192016103fb565b6001600052610496907fb10e2d527612073b26eecdfd717e6a320cf44b4afac2b0732d9fcbe2b7fa0cf6601f840160051c8101916020851061049c575b601f0160051c01906105b8565b386100e4565b9091508190610489565b634e487b7160e01b600052604160045260246000fd5b0151905038806100aa565b601f1982169360008052806000209160005b86811061051357508360019596106104fa575b505050811b016000556100c0565b015160001960f88460031b161c191690553880806104ec565b919260206001819286850151815501940192016104d9565b60008052610573907f290decd9548b62a8d60345a988386fc84ba6bc95484008f6362f93160ef3e563601f840160051c8101916020851061049c57601f0160051c01906105b8565b3861008f565b600080fd5b90600182811c921680156105ae575b602083101461059857565b634e487b7160e01b600052602260045260246000fd5b91607f169161058d565b8181106105c3575050565b600081556001016105b856fe608080604052600436101561001357600080fd5b60003560e01c90816301ffc9a7146120495750806305f9d9cb1461202d57806306fdde0314611f88578063081812fc14611f4a578063095ea7b314611e5b57806323b872dd14611e445780632c1495b61461187e5780632dac3960146112fb5780633f73ae72146112c157806342842e0e1461129157806346a479e51461116857806356520a17146110815780635f5ac283146110655780636352211e1461103557806370a0823114610fdf578063715018a614610f8257806374f3c3fc14610f5e578063817efdce14610dfa5780638da5cb5b14610dd157806395d89b4114610d04578063a22cb46514610c5a578063a24a527114610c29578063acdfd1b314610bfd578063af57a55514610bd9578063b6ccebcf14610bb5578063b88d4fde14610b47578063bcf6447514610b2b578063c87b56dd146104af578063d5b8d468146102db578063d93767ea146102b7578063e985e9c51461025c578063f2fde38b146101d25763f6dc74bd1461018a57600080fd5b346101cd5760003660031901126101cd576101c96040516101b5816101ae81612248565b0382612199565b6040519182916020835260208301906120f1565b0390f35b600080fd5b346101cd5760203660031901126101cd576101eb612116565b6101f3612834565b6001600160a01b0316801561024657600780546001600160a01b0319811683179091556001600160a01b03167f8be0079c531659141344cd1fd0a4f28419497f9722a3daafe3b4186f6b6457e0600080a3005b631e4fbdf760e01b600052600060045260246000fd5b346101cd5760403660031901126101cd57610275612116565b61027d61212c565b9060018060a01b0316600052600560205260406000209060018060a01b0316600052602052602060ff604060002054166040519015158152f35b346101cd5760003660031901126101cd576101c96040516101b5816101ae816123f3565b346101cd5760203660031901126101cd5760043560006101406040516103008161217c565b82815260606020820152606060408201528260608201528260808201528260a08201528260c08201528260e08201528261010082015282610120820152015280600052600260205261036060018060a01b03604060002054161515612689565b600052600960205260408060002081519061037a8261217c565b805482528251916103998361039281600186016124fd565b0384612199565b602081019283528351916103b48361039281600285016124fd565b8482019283526003810154926060830193845260018060a01b0360048301541660808401908152600583015460a0850190815260ff6006850154169060c08601911515825260078501549260e0870193845261046b6008870154956101008901968752610458600a60098a0154996101208c019a8b5201549961014081019a8b526101608e519e8f9e8f9360208552516020850152519201526101808d01906120f1565b90518b8203601f190160608d01526120f1565b975160808a0152516001600160a01b031660a08901525160c088015251151560e0870152516101008601525161012085015251610140840152516101608301520390f35b346101cd5760203660031901126101cd576004356000818152600260205260409020546104e6906001600160a01b03161515612689565b8060005260096020526040600020906040516105018161217c565b82548152604051918261051781600187016124fd565b036105229084612199565b60208201928352604051938461053b81600284016124fd565b036105469086612199565b6040830194855260038101546060840152600160a01b600190036004820154166080840152600581015460a0840152600681015460ff16151560c0840152600781015460e0840190815260088201549061010085019182526009830154926101208601938452600a015493610140860194855286516105c490612b2e565b9787516105d090612be9565b916105da90612d58565b9780519982519880516105ec90612d58565b90516105f790612d58565b92519351955161060690612d58565b965161061190612d58565b975161061c90612d58565b985161062790612d58565b996040519c8d809d602082017f7b226e616d65223a2022436172626f6e2047686f737420230000000000000000905280516038819301916020019161066b926120ce565b61088b60f21b6038918f01918201527f226465736372697074696f6e223a2022536561736f6e3a200000000000000000603a8201528151916106b690839060528401906020016120ce565b01603801601a810161040560f31b905281519182601c830191602001916106dc926120ce565b01601a01600281016b014903e102432b0b63a341d160a51b905281519182600e8301916020019161070c926120ce565b01600201600c81016302f3130360e41b905261088b60f21b6010820152691134b6b0b3b2911d101160b11b601282015281519182601c83019160200191610752926120ce565b61088b60f21b601c92909101918201526e2261747472696275746573223a205b60881b601e8201527f7b2274726169745f74797065223a20224865616c7468222c202276616c756522602d8201526101d160f51b604d820152815191600c8201916107c5918491604f01906020016120ce565b0160100160338101611f4b60f21b9052603581017f7b2274726169745f74797065223a2022536561736f6e222c202276616c7565229052621d101160e91b60558201528151918260588301916020019161081e926120ce565b0160330160258101600160fd1b905281519182602683019160200191610843926120ce565b0160250162089f4b60ea1b6001820152600481017f7b2274726169745f74797065223a20224d6f6f64222c202276616c7565223a209052601160f91b60248201528151918260258301916020019161089a926120ce565b0160010162089f4b60ea1b6024820152602781017f7b2274726169745f74797065223a2022546f74616c20436c65616e205265616490526f034b733b9911610113b30b63ab2911d160851b604782015281519182605783019160200191610900926120ce565b0160240160338101611f4b60f21b9052603581017f7b2274726169745f74797065223a2022546f74616c204469727479205265616490526f034b733b9911610113b30b63ab2911d160851b605582015281519182606583019160200191610966926120ce565b0160330160328101611f4b60f21b9052603481017f7b2274726169745f74797065223a2022436c65616e2053747265616b222c202290526703b30b63ab2911d160c51b605482015281519182605c830191602001916109c4926120ce565b01603201602a8101611f4b60f21b9052602c81017f7b2274726169745f74797065223a202244697274792053747265616b222c202290526703b30b63ab2911d160c51b604c82015281519182605483019160200191610a22926120ce565b01602a01602a8101607d60f81b9052602b8101615d7d60f01b905203602a01601c1981018252600301610a559082612199565b604051610a63606082612199565b60408082527f4142434445464748494a4b4c4d4e4f505152535455565758595a61626364656660208301527f6768696a6b6c6d6e6f707172737475767778797a303132333435363738392b2f90820152610abc9161301c565b6040518091602082017f646174613a6170706c69636174696f6e2f6a736f6e3b6261736536342c000000905280519081603d84019160200191610afe926120ce565b810103603d01601f1981018252610b159082612199565b604051809160208252602082016101c9916120f1565b346101cd5760003660031901126101cd57602060405160018152f35b346101cd5760803660031901126101cd57610b60612116565b610b6861212c565b906044356064359267ffffffffffffffff84116101cd57366023850112156101cd57610ba1610bb39436906024816004013591016121d7565b92610bad838383612580565b33612987565b005b346101cd5760003660031901126101cd576101c96040516101b5816101ae816122e9565b346101cd5760003660031901126101cd576101c96040516101b5816101ae8161236e565b346101cd5760203660031901126101cd57600435600052600b6020526020604060002054604051908152f35b346101cd5760203660031901126101cd57600435600052600c602052602060ff604060002054166040519015158152f35b346101cd5760403660031901126101cd57610c73612116565b60243590811515908183036101cd576001600160a01b0316918215610cef57610cc19033600052600560205260406000208460005260205260406000209060ff801983541691151516179055565b6040519081527f17307eab39ab6107e8899845ad3d59bd9653f200f220920489ca2b5937696c3160203392a3005b82630b61174360e31b60005260045260246000fd5b346101cd5760003660031901126101cd576040516000600154610d268161220e565b8084529060018116908115610dad5750600114610d4e575b6101c9836101b581850382612199565b600160009081527fb10e2d527612073b26eecdfd717e6a320cf44b4afac2b0732d9fcbe2b7fa0cf6939250905b808210610d93575090915081016020016101b5610d3e565b919260018160209254838588010152019101909291610d7b565b60ff191660208086019190915291151560051b840190910191506101b59050610d3e565b346101cd5760003660031901126101cd576007546040516001600160a01b039091168152602090f35b346101cd5760403660031901126101cd57600435610e1661212c565b90610e20816126d9565b336001600160a01b0390911603610f29576001600160a01b0382168015610ef057600082815260096020526040812060040180546001600160a01b03198116841790915590936001600160a01b03918216929190610e7f908590612710565b1680610e9957637e27328960e01b85526004849052602485fd5b828103610ed457507fea8d4830026c44c91618341dd03a64194fad13c4176744abc919af15f9acdcdc9160409182519182526020820152a280f35b6364283d7b60e01b855260048390526024849052604452606484fd5b60405162461bcd60e51b815260206004820152601160248201527024b73b30b634b2103732bb9037bbb732b960791b6044820152606490fd5b60405162461bcd60e51b815260206004820152600d60248201526c2737ba103a34329037bbb732b960991b6044820152606490fd5b346101cd5760003660031901126101cd576101c96040516101b5816101ae81612478565b346101cd5760003660031901126101cd57610f9b612834565b600780546001600160a01b031981169091556000906001600160a01b03167f8be0079c531659141344cd1fd0a4f28419497f9722a3daafe3b4186f6b6457e08280a3005b346101cd5760203660031901126101cd576001600160a01b03611000612116565b16801561101f5760005260036020526020604060002054604051908152f35b6322718ad960e21b600052600060045260246000fd5b346101cd5760203660031901126101cd5760206110536004356126d9565b6040516001600160a01b039091168152f35b346101cd5760003660031901126101cd57602060405160038152f35b346101cd5760203660031901126101cd576004356000526009602052602060406000208054906040516110bb816101ae81600186016124fd565b604051916110d08361039281600285016124fd565b60038101549260018060a01b03600483015416600583015460ff60068501541690600785015492611136600887015495611128600a60098a0154990154996101606040519e8f9e8f90815201526101608d01906120f1565b908b820360408d01526120f1565b9760608a0152608089015260a0880152151560c087015260e08601526101008501526101208401526101408301520390f35b346101cd5760203660031901126101cd5760043560008181526002602052604090205461119f906001600160a01b03161515612689565b600052600960205260406000206040516111b88161217c565b81548152604051916111d18361039281600185016124fd565b602082019283526040516111ec816101ae81600286016124fd565b60408301526003810154606083015260018060a01b036004820154166080830152600581015460a083015260ff600682015416151560c08301526007810154918260e082015261128260088301549485610100840152600a60098501549485610120860152015492836101408201525190519060405196879687526020870152604086015260c0606086015260c08501906120f1565b91608084015260a08301520390f35b346101cd57610bb36112a236612142565b90604051926112b2602085612199565b60008452610bad838383612580565b346101cd5760203660031901126101cd576001600160a01b036112e2612116565b16600052600a6020526020604060002054604051908152f35b346101cd5760403660031901126101cd5760043560243567ffffffffffffffff81116101cd57366023820112156101cd576113409036906024816004013591016121d7565b611348612834565b60008281526002602052604090205461136b906001600160a01b03161515612689565b816000526009602052604060002060018101604051906113968261138f81846124fd565b0383612199565b8483549285516020870190812096604097600560208a516113b78c82612199565b828152016421a622a0a760d91b815220146000146117cb575050600785016113df81546125d0565b9055600985016113ef81546125d0565b8091556000600a870155600290600581061590816117c1575b506117b9575b855490606461141d82846126cc565b11156117a9575050606485555b816000526009602052856000208054604b81109081158061179e575b156115d757505080600160029201611467611461825461220e565b8261261a565b600c65537072696e6760d01b01905501611484611461825461220e565b601067426c6f6f6d696e6760c01b01905585516114ae906114a8816101ae81612478565b8361285d565b426003860155845492827fe2267724154d2ee55333bab328e2971878e0a154a3c11e4befcaf4f7a88a9389885186815260606020820152806115066114f660608301876124fd565b8281038d84015260028c016124fd565b0390a2815160208301208751611520816101ae81866124fd565b6020815191012003611584575b50505015908161157a575b5061153f57005b6004015490516001600160a01b0390911681527fd8fe76dab9bc87697e5595a194a133b77fb4df26e5e8a7912b292b694fc8f6a290602090a2005b9050151584611538565b7f62ba4931de755221bf21b177998c1ac214066976a361c2eedfb178ffc3d12d24916115cc6115be9289519384938b85528b8501906120f1565b9083820360208501526124fd565b0390a284868061152d565b603281109182159081611796575b501561164357505080600160029201611601611461825461220e565b600c6529bab6b6b2b960d11b0190550161161e611461825461220e565b6008635761726d60e01b019055855161163e906114a8816101ae81612248565b6114ae565b60198110918215908161178e575b50156116d75750508060016002920161166d611461825461220e565b60086311985b1b60e21b0190550180546116869061220e565b601f81116116b5575b506012684465636c696e696e6760b81b019055855161163e906114a8816101ae816123f3565b6116d19082600052601f6020600020910160051c810190612603565b8861168f565b600211159081611786575b501561173d57806001600292016116fc611461825461220e565b600c652bb4b73a32b960d11b01905501611719611461825461220e565b60106710dc9a5d1a58d85b60c21b019055855161163e906114a8816101ae8161236e565b60026001820191611757611751845461220e565b8461261a565b6008631119585960e21b0180935501611773611461825461220e565b5561163e86516114a8816101ae816122e9565b9050896116e2565b90508b611651565b90508b6115e5565b506064811115611446565b6117b2916126cc565b855561142a565b50600361140e565b9050151589611408565b5190206005602088516117de8a82612199565b8281520164444952545960d81b8152200361142a576008850161180181546125d0565b9055600a850161181181546125d0565b8091556000600987015560039060058106159081611874575b5061186c575b8085101561184257506000855561142a565b84039150838211611856578691855561142a565b634e487b7160e01b600052601160045260246000fd5b506004611830565b905015158961182a565b346101cd5760603660031901126101cd57611897612116565b61189f61212c565b6118a7612834565b604435600052600c60205260ff60406000205416611dff576008546118cb816125d0565b6008556020916040516118de8482612199565b600081526001600160a01b03851615611de9576001600160a01b036119038487612710565b16611dd357843b611c8c575b50909192604051916119208361217c565b6032835261192c6125df565b85840190815260409384516119418682612199565b600781526613995d5d1c985b60ca1b888201528582015242606082015260018060a01b038416608082015260443560a0820152600160c0820152600060e082015260006101008201526000610120820152600061014082015285600052600987528460002091815183555180519067ffffffffffffffff8211611bfa5781906119da826119d1600188015461220e565b60018801612644565b8990601f8311600114611c1b57600092611c10575b50508160011b916000199060031b1c19161760018301555b8481015180519067ffffffffffffffff8211611bfa57611a3782611a2e600287015461220e565b60028701612644565b8890601f8311600114611b85579180600a949261014094600092611b7a575b50508160011b916000199060031b1c19161760028501555b6060810151600385015560808101516004850180546001600160a01b039092166001600160a01b031990921691909117905560a0810151600585015560c081015160068501805460ff191691151560ff1691909117905560e081015160078501556101008101516008850155610120810151600985015501519101556001600160a01b03166000908152600a8552828120849055604435808252600b86528382208590558152600c8552829020805460ff191660011790558151611b3f90611b39816101ae81612248565b8461285d565b827f218516bf62149417fd9533597ed29f259bd16cbe64ad7aa8111d863a7a246e5e85845193604435855260018060a01b031693a351908152f35b015190508b80611a56565b9060028501600052896000209160005b8b601f1986168210611be457505092600a94926001926101409583601f19811610611bcb575b505050811b016002850155611a6e565b015160001960f88460031b161c191690558b8080611bbb565b6001849582939585015181550194019201611b95565b634e487b7160e01b600052604160045260246000fd5b0151905089806119ef565b92506001850160005289600020906000935b8b601f1985168610611c7357506001945083601f19811610611c5a575b505050811b016001830155611a07565b015160001960f88460031b161c19169055898080611c4a565b8282015184559485019460019093019290910190611c2d565b83611cc69160405180938192630a85bd0160e11b8352336004840152600060248401528760448401526080606484015260848301906120f1565b038160006001600160a01b038a165af18091600091611d8e575b5090611d46575050503d600014611d3e573d90611cfc826121bb565b91611d0a6040519384612199565b82523d60008284013e5b81519182611d3b57633250574960e11b60009081526001600160a01b038516600452602490fd5b01fd5b606090611d14565b929391929091906001600160e01b03191663757a42ff60e11b01611d6d579291908461190f565b633250574960e11b60009081526001600160a01b0391909116600452602490fd5b8581813d8311611dcc575b611da38183612199565b81010312611dc85751906001600160e01b031982168203611dc5575086611ce0565b80fd5b5080fd5b503d611d99565b6339e3563760e11b600052600060045260246000fd5b633250574960e11b600052600060045260246000fd5b60405162461bcd60e51b815260206004820152601c60248201527f486172647761726520616c72656164792068617320612067686f7374000000006044820152606490fd5b346101cd57610bb3611e5536612142565b91612580565b346101cd5760403660031901126101cd57611e74612116565b602435611e80816126d9565b33151580611f37575b80611f09575b611ef45781906001600160a01b0384811691167f8c5be1e5ebec7d5bd14f71427d1e84f3dd0314c0f7b2291e5b200ac8c7c3b925600080a4600090815260046020526040902080546001600160a01b0319166001600160a01b03909216919091179055005b63a9fbf51f60e01b6000523360045260246000fd5b506001600160a01b038116600090815260056020908152604080832033845290915290205460ff1615611e8f565b506001600160a01b038116331415611e89565b346101cd5760203660031901126101cd57600435611f67816126d9565b506000526004602052602060018060a01b0360406000205416604051908152f35b346101cd5760003660031901126101cd5760405160008054611fa98161220e565b8084529060018116908115610dad5750600114611fd0576101c9836101b581850382612199565b60008080527f290decd9548b62a8d60345a988386fc84ba6bc95484008f6362f93160ef3e563939250905b808210612013575090915081016020016101b5610d3e565b919260018160209254838588010152019101909291611ffb565b346101cd5760003660031901126101cd57602060405160028152f35b346101cd5760203660031901126101cd576004359063ffffffff60e01b82168092036101cd57602091632483248360e11b811490811561208b575b5015158152f35b6380ac58cd60e01b8114915081156120bd575b81156120ac575b5083612084565b6301ffc9a760e01b149050836120a5565b635b5e139f60e01b8114915061209e565b60005b8381106120e15750506000910152565b81810151838201526020016120d1565b9060209161210a815180928185528580860191016120ce565b601f01601f1916010190565b600435906001600160a01b03821682036101cd57565b602435906001600160a01b03821682036101cd57565b60609060031901126101cd576004356001600160a01b03811681036101cd57906024356001600160a01b03811681036101cd579060443590565b610160810190811067ffffffffffffffff821117611bfa57604052565b90601f8019910116810190811067ffffffffffffffff821117611bfa57604052565b67ffffffffffffffff8111611bfa57601f01601f191660200190565b9291926121e3826121bb565b916121f16040519384612199565b8294818452818301116101cd578281602093846000960137010152565b90600182811c9216801561223e575b602083101461222857565b634e487b7160e01b600052602260045260246000fd5b91607f169161221d565b600e54600092916122588261220e565b80825291600181169081156122cd5750600114612273575050565b600e60009081529293509091907fbb7b4a454dc3493923482f07822329ed19e8244eff582cc204f8554c3620c3fd5b8383106122b3575060209250010190565b6001816020929493945483858701015201910191906122a2565b9050602093945060ff929192191683830152151560051b010190565b601154600092916122f98261220e565b80825291600181169081156122cd5750600114612314575050565b601160009081529293509091907f31ecc21a745e3968a04e9570e4425bc18fa8019c68028196b546d1669c200c685b838310612354575060209250010190565b600181602092949394548385870101520191019190612343565b6010546000929161237e8261220e565b80825291600181169081156122cd5750600114612399575050565b601060009081529293509091907f1b6847dc741a1b0cd08d278845f9d819d87b734759afb55fe2de5cb82a9ae6725b8383106123d9575060209250010190565b6001816020929493945483858701015201910191906123c8565b600f54600092916124038261220e565b80825291600181169081156122cd575060011461241e575050565b600f60009081529293509091907f8d1108e10bcb7c27dddfc02ed9d693a074039d026cf4ea4240b40f7d581ac8025b83831061245e575060209250010190565b60018160209294939454838587010152019101919061244d565b600d54600092916124888261220e565b80825291600181169081156122cd57506001146124a3575050565b600d60009081529293509091907fd7b6990105719101dabeb77144f2a3385c8033acd3af97e9423a695e81ad1eb55b8383106124e3575060209250010190565b6001816020929493945483858701015201910191906124d2565b6000929181549161250d8361220e565b8083529260018116908115612563575060011461252957505050565b60009081526020812093945091925b838310612549575060209250010190565b600181602092949394548385870101520191019190612538565b915050602093945060ff929192191683830152151560051b010190565b91906001600160a01b03811615611de95761259d908233916127da565b6001600160a01b0390811692168083036125b657505050565b6364283d7b60e01b60005260045260245260445260646000fd5b60001981146118565760010190565b604051906125ee604083612199565b600682526529bab6b6b2b960d11b6020830152565b81811061260e575050565b60008155600101612603565b90601f8111612627575050565b61264291600052601f6020600020910160051c810190612603565b565b9190601f811161265357505050565b612642926000526020600020906020601f840160051c8301931061267f575b601f0160051c0190612603565b9091508190612672565b1561269057565b60405162461bcd60e51b815260206004820152601460248201527311da1bdcdd08191bd95cc81b9bdd08195e1a5cdd60621b6044820152606490fd5b9190820180921161185657565b6000818152600260205260409020546001600160a01b03169081156126fc575090565b637e27328960e01b60005260045260246000fd5b6000828152600260205260409020546001600160a01b0316156127ce5781600052600960205260ff60066040600020015416806127c6575b61275b5761275891600091612ea2565b90565b60405162461bcd60e51b815260206004820152603760248201527f47686f737420697320736f756c626f756e6420746f206861726477617265202d60448201527f20757365207472616e73666572486172647761726528290000000000000000006064820152608490fd5b506001612748565b61275891600091612ea2565b600082815260026020526040902054909291906001600160a01b03161561282b5780600052600960205260ff6006604060002001541680612823575b61275b5761275892612ea2565b506001612816565b61275892612ea2565b6007546001600160a01b0316330361284857565b63118cdaa760e01b6000523360045260246000fd5b9190918060005260066020526040600020835167ffffffffffffffff8111611bfa576128938161288d845461220e565b84612644565b6020601f82116001146128fb57908060209493927ff8e1a15aba9398e019f0b49df1a4fde98ee17ae345cb5f6b5e2c27f5033e8ce796976000926128f0575b50508160011b916000199060031b1c19161790555b604051908152a1565b0151905038806128d2565b601f1982169583600052816000209660005b81811061296f575096600192849260209796957ff8e1a15aba9398e019f0b49df1a4fde98ee17ae345cb5f6b5e2c27f5033e8ce7999a10612956575b505050811b0190556128e7565b015160001960f88460031b161c19169055388080612949565b8383015189556001909801976020938401930161290d565b823b612995575b5050505050565b604051630a85bd0160e11b81526001600160a01b0391821660048201529181166024830152604482019390935260806064820152911691602090829081906129e19060848301906120f1565b03816000865af18091600091612a81575b5090612a4b57503d15612a44573d612a09816121bb565b90612a176040519283612199565b81523d6000602083013e5b80519081612a3f5782633250574960e11b60005260045260246000fd5b602001fd5b6060612a22565b6001600160e01b03191663757a42ff60e11b01612a6d5750388080808061298e565b633250574960e11b60005260045260246000fd5b6020813d602011612abc575b81612a9a60209383612199565b81010312611dc85751906001600160e01b031982168203611dc55750386129f2565b3d9150612a8d565b60405190612ad3604083612199565b6006825265537072696e6760d01b6020830152565b60405190612af7604083612199565b600482526311985b1b60e21b6020830152565b60405190612b19604083612199565b60068252652bb4b73a32b960d11b6020830152565b80519060208101918220612b40612ac4565b6020815191012014612bd75780518220612b586125df565b6020815191012014612bc55780518220612b70612ae8565b6020815191012014612bb357519020612b87612b0a565b6020815191012014612ba357604051612758816101ae816122e9565b604051612758816101ae8161236e565b5050604051612758816101ae816123f3565b5050604051612758816101ae81612248565b5050604051612758816101ae81612478565b80519060208101918220612bfb612ac4565b6020815191012014612cfa5780518220612c136125df565b6020815191012014612cce5780518220612c2b612ae8565b6020815191012014612ca257519020612c42612b0a565b6020815191012014612c7857604051612c5c604082612199565b600c81526b2e3a991b19182e3aa322982360a11b602082015290565b604051612c86604082612199565b600c81526b2e3a991b9a1a2e3aa322982360a11b602082015290565b5050604051612cb2604082612199565b600c81526b2e3aa21c19a1ae3aa2231a1960a11b602082015290565b5050604051612cde604082612199565b600c81526b2e3a991b18182e3aa322982360a11b602082015290565b5050604051612d0a604082612199565b600c81526b0b8ea88706686b8ea888c66760a31b602082015290565b90612d30826121bb565b612d3d6040519182612199565b8281528092612d4e601f19916121bb565b0190602036910137565b8060009172184f03e93ff9f4daa797ed6e38ed64bf6a1f0160401b821015612e7f575b806d04ee2d6d415b85acef8100000000600a921015612e64575b662386f26fc10000811015612e50575b6305f5e100811015612e3f575b612710811015612e30575b6064811015612e22575b1015612e17575b600a6021612dde60018501612d26565b938401015b60001901916f181899199a1a9b1b9c1cb0b131b232b360811b8282061a8353048015612e1257600a9091612de3565b505090565b600190910190612dce565b606460029104930192612dc7565b61271060049104930192612dbd565b6305f5e10060089104930192612db2565b662386f26fc1000060109104930192612da5565b6d04ee2d6d415b85acef810000000060209104930192612d95565b506040915072184f03e93ff9f4daa797ed6e38ed64bf6a1f0160401b8104612d7b565b6000828152600260205260409020546001600160a01b03908116931680151580612f84575b505082612f46575b6001600160a01b031680612f2c575b8160005260026020526040600020816bffffffffffffffffffffffff60a01b825416179055827fddf252ad1be2c89b69c2b068fc378daa952ba7f163c4a11628f55a4df523b3ef600080a490565b806000526003602052604060002060018154019055612ede565b81600052600460205260406000206bffffffffffffffffffffffff60a01b815416905582600052600360205260406000206000198154019055612ecf565b80612fc8575b15612f955780612ec7565b905082612fb15750637e27328960e01b60005260045260246000fd5b63177e802f60e01b60005260045260245260446000fd5b508084148015612ff8575b80612f8a57506000838152600460205260409020546001600160a01b03168114612f8a565b5083600052600560205260406000208160005260205260ff60406000205416612fd3565b919091805115613100578051600281018091116118565760039004600281901b906001600160fe1b038116036118565761305590612d26565b9060208201908081518201956020870190815192600083525b8881106130b2575050600393949596505251068060011461309f57600214613094575090565b603d90600019015390565b50603d9081600019820153600119015390565b600360049199969901986001603f8b5182828260121c16870101518453828282600c1c16870101518385015382828260061c168701015160028501531684010151600382015301949761306e565b509050604051613111602082612199565b600081529056fea2646970667358221220406ce907953f7d307ebb5a1c9276be4edf9a68c105e1c11cea4130f72e0a99e264736f6c634300081b0033","opcodes":"PUSH1 0x80 PUSH1 0x40 MSTORE CALLVALUE PUSH2 0x579 JUMPI PUSH1 0x40 DUP1 MLOAD SWAP1 DUP2 ADD PUSH1 0x1 PUSH1 0x1 PUSH1 0x40 SHL SUB DUP2 GT DUP3 DUP3 LT OR PUSH2 0x4A6 JUMPI PUSH1 0x40 SWAP1 DUP2 MSTORE PUSH1 0xB DUP3 MSTORE PUSH11 0x10D85C989BDB91DA1BDCDD PUSH1 0xAA SHL PUSH1 0x20 DUP4 ADD MSTORE DUP1 MLOAD SWAP1 DUP2 ADD PUSH1 0x1 PUSH1 0x1 PUSH1 0x40 SHL SUB DUP2 GT DUP3 DUP3 LT OR PUSH2 0x4A6 JUMPI PUSH1 0x40 MSTORE PUSH1 0x5 DUP2 MSTORE PUSH5 0x11D213D4D5 PUSH1 0xDA SHL PUSH1 0x20 DUP3 ADD MSTORE DUP2 MLOAD PUSH1 0x1 PUSH1 0x1 PUSH1 0x40 SHL SUB DUP2 GT PUSH2 0x4A6 JUMPI PUSH2 0x86 PUSH1 0x0 SLOAD PUSH2 0x57E JUMP JUMPDEST PUSH1 0x1F DUP2 GT PUSH2 0x52B JUMPI JUMPDEST POP PUSH1 0x20 SWAP3 PUSH1 0x1F DUP3 GT PUSH1 0x1 EQ PUSH2 0x4C7 JUMPI SWAP3 DUP2 SWAP3 SWAP4 PUSH1 0x0 SWAP3 PUSH2 0x4BC JUMPI JUMPDEST POP POP DUP2 PUSH1 0x1 SHL SWAP2 PUSH1 0x0 NOT SWAP1 PUSH1 0x3 SHL SHR NOT AND OR PUSH1 0x0 SSTORE JUMPDEST DUP1 MLOAD PUSH1 0x1 PUSH1 0x1 PUSH1 0x40 SHL SUB DUP2 GT PUSH2 0x4A6 JUMPI PUSH2 0xDB PUSH1 0x1 SLOAD PUSH2 0x57E JUMP JUMPDEST PUSH1 0x1F DUP2 GT PUSH2 0x44C JUMPI JUMPDEST POP PUSH1 0x20 SWAP2 PUSH1 0x1F DUP3 GT PUSH1 0x1 EQ PUSH2 0x3E8 JUMPI SWAP2 DUP2 SWAP3 PUSH1 0x0 SWAP3 PUSH2 0x3DD JUMPI JUMPDEST POP POP DUP2 PUSH1 0x1 SHL SWAP2 PUSH1 0x0 NOT SWAP1 PUSH1 0x3 SHL SHR NOT AND OR PUSH1 0x1 SSTORE JUMPDEST CALLER ISZERO PUSH2 0x3C7 JUMPI PUSH1 0x7 DUP1 SLOAD CALLER PUSH1 0x1 PUSH1 0x1 PUSH1 0xA0 SHL SUB NOT DUP3 AND DUP2 OR SWAP1 SWAP3 SSTORE PUSH1 0x1 PUSH1 0x1 PUSH1 0xA0 SHL SUB AND PUSH32 0x8BE0079C531659141344CD1FD0A4F28419497F9722A3DAAFE3B4186F6B6457E0 PUSH1 0x0 DUP1 LOG3 PUSH2 0x168 PUSH1 0xD SLOAD PUSH2 0x57E JUMP JUMPDEST PUSH1 0x1F DUP2 GT PUSH2 0x388 JUMPI JUMPDEST POP PUSH32 0x697066733A2F2F516D537072696E6747686F7374000000000000000000000028 PUSH1 0xD SSTORE PUSH1 0xE SLOAD PUSH2 0x1A2 SWAP1 PUSH2 0x57E JUMP JUMPDEST PUSH1 0x1F DUP2 GT PUSH2 0x349 JUMPI JUMPDEST POP PUSH32 0x697066733A2F2F516D53756D6D657247686F7374000000000000000000000028 PUSH1 0xE SSTORE PUSH1 0xF SLOAD PUSH2 0x1DC SWAP1 PUSH2 0x57E JUMP JUMPDEST PUSH1 0x1F DUP2 GT PUSH2 0x30A JUMPI JUMPDEST POP PUSH32 0x697066733A2F2F516D46616C6C47686F73740000000000000000000000000024 PUSH1 0xF SSTORE PUSH1 0x10 SLOAD PUSH2 0x216 SWAP1 PUSH2 0x57E JUMP JUMPDEST PUSH1 0x1F DUP2 GT PUSH2 0x2CB JUMPI JUMPDEST POP PUSH32 0x697066733A2F2F516D57696E74657247686F7374000000000000000000000028 PUSH1 0x10 SSTORE PUSH1 0x11 SLOAD PUSH2 0x250 SWAP1 PUSH2 0x57E JUMP JUMPDEST PUSH1 0x1F DUP2 GT PUSH2 0x28C JUMPI JUMPDEST PUSH32 0x697066733A2F2F516D4465616447686F73740000000000000000000000000024 PUSH1 0x11 SSTORE PUSH1 0x40 MLOAD PUSH2 0x314E SWAP1 DUP2 PUSH2 0x5D0 DUP3 CODECOPY RETURN JUMPDEST PUSH1 0x11 PUSH1 0x0 MSTORE PUSH2 0x2C5 SWAP1 PUSH1 0x1F ADD PUSH1 0x5 SHR PUSH32 0x31ECC21A745E3968A04E9570E4425BC18FA8019C68028196B546D1669C200C68 SWAP1 DUP2 ADD SWAP1 PUSH2 0x5B8 JUMP JUMPDEST CODESIZE PUSH2 0x259 JUMP JUMPDEST PUSH1 0x10 PUSH1 0x0 MSTORE PUSH2 0x304 SWAP1 PUSH1 0x1F ADD PUSH1 0x5 SHR PUSH32 0x1B6847DC741A1B0CD08D278845F9D819D87B734759AFB55FE2DE5CB82A9AE672 SWAP1 DUP2 ADD SWAP1 PUSH2 0x5B8 JUMP JUMPDEST CODESIZE PUSH2 0x21F JUMP JUMPDEST PUSH1 0xF PUSH1 0x0 MSTORE PUSH2 0x343 SWAP1 PUSH1 0x1F ADD PUSH1 0x5 SHR PUSH32 0x8D1108E10BCB7C27DDDFC02ED9D693A074039D026CF4EA4240B40F7D581AC802 SWAP1 DUP2 ADD SWAP1 PUSH2 0x5B8 JUMP JUMPDEST CODESIZE PUSH2 0x1E5 JUMP JUMPDEST PUSH1 0xE PUSH1 0x0 MSTORE PUSH2 0x382 SWAP1 PUSH1 0x1F ADD PUSH1 0x5 SHR PUSH32 0xBB7B4A454DC3493923482F07822329ED19E8244EFF582CC204F8554C3620C3FD SWAP1 DUP2 ADD SWAP1 PUSH2 0x5B8 JUMP JUMPDEST CODESIZE PUSH2 0x1AB JUMP JUMPDEST PUSH1 0xD PUSH1 0x0 MSTORE PUSH2 0x3C1 SWAP1 PUSH1 0x1F ADD PUSH1 0x5 SHR PUSH32 0xD7B6990105719101DABEB77144F2A3385C8033ACD3AF97E9423A695E81AD1EB5 SWAP1 DUP2 ADD SWAP1 PUSH2 0x5B8 JUMP JUMPDEST CODESIZE PUSH2 0x171 JUMP JUMPDEST PUSH4 0x1E4FBDF7 PUSH1 0xE0 SHL PUSH1 0x0 MSTORE PUSH1 0x0 PUSH1 0x4 MSTORE PUSH1 0x24 PUSH1 0x0 REVERT JUMPDEST ADD MLOAD SWAP1 POP CODESIZE DUP1 PUSH2 0xFE JUMP JUMPDEST PUSH1 0x1F NOT DUP3 AND SWAP3 PUSH1 0x1 PUSH1 0x0 MSTORE DUP1 PUSH1 0x0 KECCAK256 SWAP2 PUSH1 0x0 JUMPDEST DUP6 DUP2 LT PUSH2 0x434 JUMPI POP DUP4 PUSH1 0x1 SWAP6 LT PUSH2 0x41B JUMPI JUMPDEST POP POP POP DUP2 SHL ADD PUSH1 0x1 SSTORE PUSH2 0x114 JUMP JUMPDEST ADD MLOAD PUSH1 0x0 NOT PUSH1 0xF8 DUP5 PUSH1 0x3 SHL AND SHR NOT AND SWAP1 SSTORE CODESIZE DUP1 DUP1 PUSH2 0x40D JUMP JUMPDEST SWAP2 SWAP3 PUSH1 0x20 PUSH1 0x1 DUP2 SWAP3 DUP7 DUP6 ADD MLOAD DUP2 SSTORE ADD SWAP5 ADD SWAP3 ADD PUSH2 0x3FB JUMP JUMPDEST PUSH1 0x1 PUSH1 0x0 MSTORE PUSH2 0x496 SWAP1 PUSH32 0xB10E2D527612073B26EECDFD717E6A320CF44B4AFAC2B0732D9FCBE2B7FA0CF6 PUSH1 0x1F DUP5 ADD PUSH1 0x5 SHR DUP2 ADD SWAP2 PUSH1 0x20 DUP6 LT PUSH2 0x49C JUMPI JUMPDEST PUSH1 0x1F ADD PUSH1 0x5 SHR ADD SWAP1 PUSH2 0x5B8 JUMP JUMPDEST CODESIZE PUSH2 0xE4 JUMP JUMPDEST SWAP1 SWAP2 POP DUP2 SWAP1 PUSH2 0x489 JUMP JUMPDEST PUSH4 0x4E487B71 PUSH1 0xE0 SHL PUSH1 0x0 MSTORE PUSH1 0x41 PUSH1 0x4 MSTORE PUSH1 0x24 PUSH1 0x0 REVERT JUMPDEST ADD MLOAD SWAP1 POP CODESIZE DUP1 PUSH2 0xAA JUMP JUMPDEST PUSH1 0x1F NOT DUP3 AND SWAP4 PUSH1 0x0 DUP1 MSTORE DUP1 PUSH1 0x0 KECCAK256 SWAP2 PUSH1 0x0 JUMPDEST DUP7 DUP2 LT PUSH2 0x513 JUMPI POP DUP4 PUSH1 0x1 SWAP6 SWAP7 LT PUSH2 0x4FA JUMPI JUMPDEST POP POP POP DUP2 SHL ADD PUSH1 0x0 SSTORE PUSH2 0xC0 JUMP JUMPDEST ADD MLOAD PUSH1 0x0 NOT PUSH1 0xF8 DUP5 PUSH1 0x3 SHL AND SHR NOT AND SWAP1 SSTORE CODESIZE DUP1 DUP1 PUSH2 0x4EC JUMP JUMPDEST SWAP2 SWAP3 PUSH1 0x20 PUSH1 0x1 DUP2 SWAP3 DUP7 DUP6 ADD MLOAD DUP2 SSTORE ADD SWAP5 ADD SWAP3 ADD PUSH2 0x4D9 JUMP JUMPDEST PUSH1 0x0 DUP1 MSTORE PUSH2 0x573 SWAP1 PUSH32 0x290DECD9548B62A8D60345A988386FC84BA6BC95484008F6362F93160EF3E563 PUSH1 0x1F DUP5 ADD PUSH1 0x5 SHR DUP2 ADD SWAP2 PUSH1 0x20 DUP6 LT PUSH2 0x49C JUMPI PUSH1 0x1F ADD PUSH1 0x5 SHR ADD SWAP1 PUSH2 0x5B8 JUMP JUMPDEST CODESIZE PUSH2 0x8F JUMP JUMPDEST PUSH1 0x0 DUP1 REVERT JUMPDEST SWAP1 PUSH1 0x1 DUP3 DUP2 SHR SWAP3 AND DUP1 ISZERO PUSH2 0x5AE JUMPI JUMPDEST PUSH1 0x20 DUP4 LT EQ PUSH2 0x598 JUMPI JUMP JUMPDEST PUSH4 0x4E487B71 PUSH1 0xE0 SHL PUSH1 0x0 MSTORE PUSH1 0x22 PUSH1 0x4 MSTORE PUSH1 0x24 PUSH1 0x0 REVERT JUMPDEST SWAP2 PUSH1 0x7F AND SWAP2 PUSH2 0x58D JUMP JUMPDEST DUP2 DUP2 LT PUSH2 0x5C3 JUMPI POP POP JUMP JUMPDEST PUSH1 0x0 DUP2 SSTORE PUSH1 0x1 ADD PUSH2 0x5B8 JUMP INVALID PUSH1 0x80 DUP1 PUSH1 0x40 MSTORE PUSH1 0x4 CALLDATASIZE LT ISZERO PUSH2 0x13 JUMPI PUSH1 0x0 DUP1 REVERT JUMPDEST PUSH1 0x0 CALLDATALOAD PUSH1 0xE0 SHR SWAP1 DUP2 PUSH4 0x1FFC9A7 EQ PUSH2 0x2049 JUMPI POP DUP1 PUSH4 0x5F9D9CB EQ PUSH2 0x202D JUMPI DUP1 PUSH4 0x6FDDE03 EQ PUSH2 0x1F88 JUMPI DUP1 PUSH4 0x81812FC EQ PUSH2 0x1F4A JUMPI DUP1 PUSH4 0x95EA7B3 EQ PUSH2 0x1E5B JUMPI DUP1 PUSH4 0x23B872DD EQ PUSH2 0x1E44 JUMPI DUP1 PUSH4 0x2C1495B6 EQ PUSH2 0x187E JUMPI DUP1 PUSH4 0x2DAC3960 EQ PUSH2 0x12FB JUMPI DUP1 PUSH4 0x3F73AE72 EQ PUSH2 0x12C1 JUMPI DUP1 PUSH4 0x42842E0E EQ PUSH2 0x1291 JUMPI DUP1 PUSH4 0x46A479E5 EQ PUSH2 0x1168 JUMPI DUP1 PUSH4 0x56520A17 EQ PUSH2 0x1081 JUMPI DUP1 PUSH4 0x5F5AC283 EQ PUSH2 0x1065 JUMPI DUP1 PUSH4 0x6352211E EQ PUSH2 0x1035 JUMPI DUP1 PUSH4 0x70A08231 EQ PUSH2 0xFDF JUMPI DUP1 PUSH4 0x715018A6 EQ PUSH2 0xF82 JUMPI DUP1 PUSH4 0x74F3C3FC EQ PUSH2 0xF5E JUMPI DUP1 PUSH4 0x817EFDCE EQ PUSH2 0xDFA JUMPI DUP1 PUSH4 0x8DA5CB5B EQ PUSH2 0xDD1 JUMPI DUP1 PUSH4 0x95D89B41 EQ PUSH2 0xD04 JUMPI DUP1 PUSH4 0xA22CB465 EQ PUSH2 0xC5A JUMPI DUP1 PUSH4 0xA24A5271 EQ PUSH2 0xC29 JUMPI DUP1 PUSH4 0xACDFD1B3 EQ PUSH2 0xBFD JUMPI DUP1 PUSH4 0xAF57A555 EQ PUSH2 0xBD9 JUMPI DUP1 PUSH4 0xB6CCEBCF EQ PUSH2 0xBB5 JUMPI DUP1 PUSH4 0xB88D4FDE EQ PUSH2 0xB47 JUMPI DUP1 PUSH4 0xBCF64475 EQ PUSH2 0xB2B JUMPI DUP1 PUSH4 0xC87B56DD EQ PUSH2 0x4AF JUMPI DUP1 PUSH4 0xD5B8D468 EQ PUSH2 0x2DB JUMPI DUP1 PUSH4 0xD93767EA EQ PUSH2 0x2B7 JUMPI DUP1 PUSH4 0xE985E9C5 EQ PUSH2 0x25C JUMPI DUP1 PUSH4 0xF2FDE38B EQ PUSH2 0x1D2 JUMPI PUSH4 0xF6DC74BD EQ PUSH2 0x18A JUMPI PUSH1 0x0 DUP1 REVERT JUMPDEST CALLVALUE PUSH2 0x1CD JUMPI PUSH1 0x0 CALLDATASIZE PUSH1 0x3 NOT ADD SLT PUSH2 0x1CD JUMPI PUSH2 0x1C9 PUSH1 0x40 MLOAD PUSH2 0x1B5 DUP2 PUSH2 0x1AE DUP2 PUSH2 0x2248 JUMP JUMPDEST SUB DUP3 PUSH2 0x2199 JUMP JUMPDEST PUSH1 0x40 MLOAD SWAP2 DUP3 SWAP2 PUSH1 0x20 DUP4 MSTORE PUSH1 0x20 DUP4 ADD SWAP1 PUSH2 0x20F1 JUMP JUMPDEST SUB SWAP1 RETURN JUMPDEST PUSH1 0x0 DUP1 REVERT JUMPDEST CALLVALUE PUSH2 0x1CD JUMPI PUSH1 0x20 CALLDATASIZE PUSH1 0x3 NOT ADD SLT PUSH2 0x1CD JUMPI PUSH2 0x1EB PUSH2 0x2116 JUMP JUMPDEST PUSH2 0x1F3 PUSH2 0x2834 JUMP JUMPDEST PUSH1 0x1 PUSH1 0x1 PUSH1 0xA0 SHL SUB AND DUP1 ISZERO PUSH2 0x246 JUMPI PUSH1 0x7 DUP1 SLOAD PUSH1 0x1 PUSH1 0x1 PUSH1 0xA0 SHL SUB NOT DUP2 AND DUP4 OR SWAP1 SWAP2 SSTORE PUSH1 0x1 PUSH1 0x1 PUSH1 0xA0 SHL SUB AND PUSH32 0x8BE0079C531659141344CD1FD0A4F28419497F9722A3DAAFE3B4186F6B6457E0 PUSH1 0x0 DUP1 LOG3 STOP JUMPDEST PUSH4 0x1E4FBDF7 PUSH1 0xE0 SHL PUSH1 0x0 MSTORE PUSH1 0x0 PUSH1 0x4 MSTORE PUSH1 0x24 PUSH1 0x0 REVERT JUMPDEST CALLVALUE PUSH2 0x1CD JUMPI PUSH1 0x40 CALLDATASIZE PUSH1 0x3 NOT ADD SLT PUSH2 0x1CD JUMPI PUSH2 0x275 PUSH2 0x2116 JUMP JUMPDEST PUSH2 0x27D PUSH2 0x212C JUMP JUMPDEST SWAP1 PUSH1 0x1 DUP1 PUSH1 0xA0 SHL SUB AND PUSH1 0x0 MSTORE PUSH1 0x5 PUSH1 0x20 MSTORE PUSH1 0x40 PUSH1 0x0 KECCAK256 SWAP1 PUSH1 0x1 DUP1 PUSH1 0xA0 SHL SUB AND PUSH1 0x0 MSTORE PUSH1 0x20 MSTORE PUSH1 0x20 PUSH1 0xFF PUSH1 0x40 PUSH1 0x0 KECCAK256 SLOAD AND PUSH1 0x40 MLOAD SWAP1 ISZERO ISZERO DUP2 MSTORE RETURN JUMPDEST CALLVALUE PUSH2 0x1CD JUMPI PUSH1 0x0 CALLDATASIZE PUSH1 0x3 NOT ADD SLT PUSH2 0x1CD JUMPI PUSH2 0x1C9 PUSH1 0x40 MLOAD PUSH2 0x1B5 DUP2 PUSH2 0x1AE DUP2 PUSH2 0x23F3 JUMP JUMPDEST CALLVALUE PUSH2 0x1CD JUMPI PUSH1 0x20 CALLDATASIZE PUSH1 0x3 NOT ADD SLT PUSH2 0x1CD JUMPI PUSH1 0x4 CALLDATALOAD PUSH1 0x0 PUSH2 0x140 PUSH1 0x40 MLOAD PUSH2 0x300 DUP2 PUSH2 0x217C JUMP JUMPDEST DUP3 DUP2 MSTORE PUSH1 0x60 PUSH1 0x20 DUP3 ADD MSTORE PUSH1 0x60 PUSH1 0x40 DUP3 ADD MSTORE DUP3 PUSH1 0x60 DUP3 ADD MSTORE DUP3 PUSH1 0x80 DUP3 ADD MSTORE DUP3 PUSH1 0xA0 DUP3 ADD MSTORE DUP3 PUSH1 0xC0 DUP3 ADD MSTORE DUP3 PUSH1 0xE0 DUP3 ADD MSTORE DUP3 PUSH2 0x100 DUP3 ADD MSTORE DUP3 PUSH2 0x120 DUP3 ADD MSTORE ADD MSTORE DUP1 PUSH1 0x0 MSTORE PUSH1 0x2 PUSH1 0x20 MSTORE PUSH2 0x360 PUSH1 0x1 DUP1 PUSH1 0xA0 SHL SUB PUSH1 0x40 PUSH1 0x0 KECCAK256 SLOAD AND ISZERO ISZERO PUSH2 0x2689 JUMP JUMPDEST PUSH1 0x0 MSTORE PUSH1 0x9 PUSH1 0x20 MSTORE PUSH1 0x40 DUP1 PUSH1 0x0 KECCAK256 DUP2 MLOAD SWAP1 PUSH2 0x37A DUP3 PUSH2 0x217C JUMP JUMPDEST DUP1 SLOAD DUP3 MSTORE DUP3 MLOAD SWAP2 PUSH2 0x399 DUP4 PUSH2 0x392 DUP2 PUSH1 0x1 DUP7 ADD PUSH2 0x24FD JUMP JUMPDEST SUB DUP5 PUSH2 0x2199 JUMP JUMPDEST PUSH1 0x20 DUP2 ADD SWAP3 DUP4 MSTORE DUP4 MLOAD SWAP2 PUSH2 0x3B4 DUP4 PUSH2 0x392 DUP2 PUSH1 0x2 DUP6 ADD PUSH2 0x24FD JUMP JUMPDEST DUP5 DUP3 ADD SWAP3 DUP4 MSTORE PUSH1 0x3 DUP2 ADD SLOAD SWAP3 PUSH1 0x60 DUP4 ADD SWAP4 DUP5 MSTORE PUSH1 0x1 DUP1 PUSH1 0xA0 SHL SUB PUSH1 0x4 DUP4 ADD SLOAD AND PUSH1 0x80 DUP5 ADD SWAP1 DUP2 MSTORE PUSH1 0x5 DUP4 ADD SLOAD PUSH1 0xA0 DUP6 ADD SWAP1 DUP2 MSTORE PUSH1 0xFF PUSH1 0x6 DUP6 ADD SLOAD AND SWAP1 PUSH1 0xC0 DUP7 ADD SWAP2 ISZERO ISZERO DUP3 MSTORE PUSH1 0x7 DUP6 ADD SLOAD SWAP3 PUSH1 0xE0 DUP8 ADD SWAP4 DUP5 MSTORE PUSH2 0x46B PUSH1 0x8 DUP8 ADD SLOAD SWAP6 PUSH2 0x100 DUP10 ADD SWAP7 DUP8 MSTORE PUSH2 0x458 PUSH1 0xA PUSH1 0x9 DUP11 ADD SLOAD SWAP10 PUSH2 0x120 DUP13 ADD SWAP11 DUP12 MSTORE ADD SLOAD SWAP10 PUSH2 0x140 DUP2 ADD SWAP11 DUP12 MSTORE PUSH2 0x160 DUP15 MLOAD SWAP15 DUP16 SWAP15 DUP16 SWAP4 PUSH1 0x20 DUP6 MSTORE MLOAD PUSH1 0x20 DUP6 ADD MSTORE MLOAD SWAP3 ADD MSTORE PUSH2 0x180 DUP14 ADD SWAP1 PUSH2 0x20F1 JUMP JUMPDEST SWAP1 MLOAD DUP12 DUP3 SUB PUSH1 0x1F NOT ADD PUSH1 0x60 DUP14 ADD MSTORE PUSH2 0x20F1 JUMP JUMPDEST SWAP8 MLOAD PUSH1 0x80 DUP11 ADD MSTORE MLOAD PUSH1 0x1 PUSH1 0x1 PUSH1 0xA0 SHL SUB AND PUSH1 0xA0 DUP10 ADD MSTORE MLOAD PUSH1 0xC0 DUP9 ADD MSTORE MLOAD ISZERO ISZERO PUSH1 0xE0 DUP8 ADD MSTORE MLOAD PUSH2 0x100 DUP7 ADD MSTORE MLOAD PUSH2 0x120 DUP6 ADD MSTORE MLOAD PUSH2 0x140 DUP5 ADD MSTORE MLOAD PUSH2 0x160 DUP4 ADD MSTORE SUB SWAP1 RETURN JUMPDEST CALLVALUE PUSH2 0x1CD JUMPI PUSH1 0x20 CALLDATASIZE PUSH1 0x3 NOT ADD SLT PUSH2 0x1CD JUMPI PUSH1 0x4 CALLDATALOAD PUSH1 0x0 DUP2 DUP2 MSTORE PUSH1 0x2 PUSH1 0x20 MSTORE PUSH1 0x40 SWAP1 KECCAK256 SLOAD PUSH2 0x4E6 SWAP1 PUSH1 0x1 PUSH1 0x1 PUSH1 0xA0 SHL SUB AND ISZERO ISZERO PUSH2 0x2689 JUMP JUMPDEST DUP1 PUSH1 0x0 MSTORE PUSH1 0x9 PUSH1 0x20 MSTORE PUSH1 0x40 PUSH1 0x0 KECCAK256 SWAP1 PUSH1 0x40 MLOAD PUSH2 0x501 DUP2 PUSH2 0x217C JUMP JUMPDEST DUP3 SLOAD DUP2 MSTORE PUSH1 0x40 MLOAD SWAP2 DUP3 PUSH2 0x517 DUP2 PUSH1 0x1 DUP8 ADD PUSH2 0x24FD JUMP JUMPDEST SUB PUSH2 0x522 SWAP1 DUP5 PUSH2 0x2199 JUMP JUMPDEST PUSH1 0x20 DUP3 ADD SWAP3 DUP4 MSTORE PUSH1 0x40 MLOAD SWAP4 DUP5 PUSH2 0x53B DUP2 PUSH1 0x2 DUP5 ADD PUSH2 0x24FD JUMP JUMPDEST SUB PUSH2 0x546 SWAP1 DUP7 PUSH2 0x2199 JUMP JUMPDEST PUSH1 0x40 DUP4 ADD SWAP5 DUP6 MSTORE PUSH1 0x3 DUP2 ADD SLOAD PUSH1 0x60 DUP5 ADD MSTORE PUSH1 0x1 PUSH1 0xA0 SHL PUSH1 0x1 SWAP1 SUB PUSH1 0x4 DUP3 ADD SLOAD AND PUSH1 0x80 DUP5 ADD MSTORE PUSH1 0x5 DUP2 ADD SLOAD PUSH1 0xA0 DUP5 ADD MSTORE PUSH1 0x6 DUP2 ADD SLOAD PUSH1 0xFF AND ISZERO ISZERO PUSH1 0xC0 DUP5 ADD MSTORE PUSH1 0x7 DUP2 ADD SLOAD PUSH1 0xE0 DUP5 ADD SWAP1 DUP2 MSTORE PUSH1 0x8 DUP3 ADD SLOAD SWAP1 PUSH2 0x100 DUP6 ADD SWAP2 DUP3 MSTORE PUSH1 0x9 DUP4 ADD SLOAD SWAP3 PUSH2 0x120 DUP7 ADD SWAP4 DUP5 MSTORE PUSH1 0xA ADD SLOAD SWAP4 PUSH2 0x140 DUP7 ADD SWAP5 DUP6 MSTORE DUP7 MLOAD PUSH2 0x5C4 SWAP1 PUSH2 0x2B2E JUMP JUMPDEST SWAP8 DUP8 MLOAD PUSH2 0x5D0 SWAP1 PUSH2 0x2BE9 JUMP JUMPDEST SWAP2 PUSH2 0x5DA SWAP1 PUSH2 0x2D58 JUMP JUMPDEST SWAP8 DUP1 MLOAD SWAP10 DUP3 MLOAD SWAP9 DUP1 MLOAD PUSH2 0x5EC SWAP1 PUSH2 0x2D58 JUMP JUMPDEST SWAP1 MLOAD PUSH2 0x5F7 SWAP1 PUSH2 0x2D58 JUMP JUMPDEST SWAP3 MLOAD SWAP4 MLOAD SWAP6 MLOAD PUSH2 0x606 SWAP1 PUSH2 0x2D58 JUMP JUMPDEST SWAP7 MLOAD PUSH2 0x611 SWAP1 PUSH2 0x2D58 JUMP JUMPDEST SWAP8 MLOAD PUSH2 0x61C SWAP1 PUSH2 0x2D58 JUMP JUMPDEST SWAP9 MLOAD PUSH2 0x627 SWAP1 PUSH2 0x2D58 JUMP JUMPDEST SWAP10 PUSH1 0x40 MLOAD SWAP13 DUP14 DUP1 SWAP14 PUSH1 0x20 DUP3 ADD PUSH32 0x7B226E616D65223A2022436172626F6E2047686F737420230000000000000000 SWAP1 MSTORE DUP1 MLOAD PUSH1 0x38 DUP2 SWAP4 ADD SWAP2 PUSH1 0x20 ADD SWAP2 PUSH2 0x66B SWAP3 PUSH2 0x20CE JUMP JUMPDEST PUSH2 0x88B PUSH1 0xF2 SHL PUSH1 0x38 SWAP2 DUP16 ADD SWAP2 DUP3 ADD MSTORE PUSH32 0x226465736372697074696F6E223A2022536561736F6E3A200000000000000000 PUSH1 0x3A DUP3 ADD MSTORE DUP2 MLOAD SWAP2 PUSH2 0x6B6 SWAP1 DUP4 SWAP1 PUSH1 0x52 DUP5 ADD SWAP1 PUSH1 0x20 ADD PUSH2 0x20CE JUMP JUMPDEST ADD PUSH1 0x38 ADD PUSH1 0x1A DUP2 ADD PUSH2 0x405 PUSH1 0xF3 SHL SWAP1 MSTORE DUP2 MLOAD SWAP2 DUP3 PUSH1 0x1C DUP4 ADD SWAP2 PUSH1 0x20 ADD SWAP2 PUSH2 0x6DC SWAP3 PUSH2 0x20CE JUMP JUMPDEST ADD PUSH1 0x1A ADD PUSH1 0x2 DUP2 ADD PUSH12 0x14903E102432B0B63A341D1 PUSH1 0xA5 SHL SWAP1 MSTORE DUP2 MLOAD SWAP2 DUP3 PUSH1 0xE DUP4 ADD SWAP2 PUSH1 0x20 ADD SWAP2 PUSH2 0x70C SWAP3 PUSH2 0x20CE JUMP JUMPDEST ADD PUSH1 0x2 ADD PUSH1 0xC DUP2 ADD PUSH4 0x2F31303 PUSH1 0xE4 SHL SWAP1 MSTORE PUSH2 0x88B PUSH1 0xF2 SHL PUSH1 0x10 DUP3 ADD MSTORE PUSH10 0x1134B6B0B3B2911D1011 PUSH1 0xB1 SHL PUSH1 0x12 DUP3 ADD MSTORE DUP2 MLOAD SWAP2 DUP3 PUSH1 0x1C DUP4 ADD SWAP2 PUSH1 0x20 ADD SWAP2 PUSH2 0x752 SWAP3 PUSH2 0x20CE JUMP JUMPDEST PUSH2 0x88B PUSH1 0xF2 SHL PUSH1 0x1C SWAP3 SWAP1 SWAP2 ADD SWAP2 DUP3 ADD MSTORE PUSH15 0x2261747472696275746573223A205B PUSH1 0x88 SHL PUSH1 0x1E DUP3 ADD MSTORE PUSH32 0x7B2274726169745F74797065223A20224865616C7468222C202276616C756522 PUSH1 0x2D DUP3 ADD MSTORE PUSH2 0x1D1 PUSH1 0xF5 SHL PUSH1 0x4D DUP3 ADD MSTORE DUP2 MLOAD SWAP2 PUSH1 0xC DUP3 ADD SWAP2 PUSH2 0x7C5 SWAP2 DUP5 SWAP2 PUSH1 0x4F ADD SWAP1 PUSH1 0x20 ADD PUSH2 0x20CE JUMP JUMPDEST ADD PUSH1 0x10 ADD PUSH1 0x33 DUP2 ADD PUSH2 0x1F4B PUSH1 0xF2 SHL SWAP1 MSTORE PUSH1 0x35 DUP2 ADD PUSH32 0x7B2274726169745F74797065223A2022536561736F6E222C202276616C756522 SWAP1 MSTORE PUSH3 0x1D1011 PUSH1 0xE9 SHL PUSH1 0x55 DUP3 ADD MSTORE DUP2 MLOAD SWAP2 DUP3 PUSH1 0x58 DUP4 ADD SWAP2 PUSH1 0x20 ADD SWAP2 PUSH2 0x81E SWAP3 PUSH2 0x20CE JUMP JUMPDEST ADD PUSH1 0x33 ADD PUSH1 0x25 DUP2 ADD PUSH1 0x1 PUSH1 0xFD SHL SWAP1 MSTORE DUP2 MLOAD SWAP2 DUP3 PUSH1 0x26 DUP4 ADD SWAP2 PUSH1 0x20 ADD SWAP2 PUSH2 0x843 SWAP3 PUSH2 0x20CE JUMP JUMPDEST ADD PUSH1 0x25 ADD PUSH3 0x89F4B PUSH1 0xEA SHL PUSH1 0x1 DUP3 ADD MSTORE PUSH1 0x4 DUP2 ADD PUSH32 0x7B2274726169745F74797065223A20224D6F6F64222C202276616C7565223A20 SWAP1 MSTORE PUSH1 0x11 PUSH1 0xF9 SHL PUSH1 0x24 DUP3 ADD MSTORE DUP2 MLOAD SWAP2 DUP3 PUSH1 0x25 DUP4 ADD SWAP2 PUSH1 0x20 ADD SWAP2 PUSH2 0x89A SWAP3 PUSH2 0x20CE JUMP JUMPDEST ADD PUSH1 0x1 ADD PUSH3 0x89F4B PUSH1 0xEA SHL PUSH1 0x24 DUP3 ADD MSTORE PUSH1 0x27 DUP2 ADD PUSH32 0x7B2274726169745F74797065223A2022546F74616C20436C65616E2052656164 SWAP1 MSTORE PUSH16 0x34B733B9911610113B30B63AB2911D1 PUSH1 0x85 SHL PUSH1 0x47 DUP3 ADD MSTORE DUP2 MLOAD SWAP2 DUP3 PUSH1 0x57 DUP4 ADD SWAP2 PUSH1 0x20 ADD SWAP2 PUSH2 0x900 SWAP3 PUSH2 0x20CE JUMP JUMPDEST ADD PUSH1 0x24 ADD PUSH1 0x33 DUP2 ADD PUSH2 0x1F4B PUSH1 0xF2 SHL SWAP1 MSTORE PUSH1 0x35 DUP2 ADD PUSH32 0x7B2274726169745F74797065223A2022546F74616C2044697274792052656164 SWAP1 MSTORE PUSH16 0x34B733B9911610113B30B63AB2911D1 PUSH1 0x85 SHL PUSH1 0x55 DUP3 ADD MSTORE DUP2 MLOAD SWAP2 DUP3 PUSH1 0x65 DUP4 ADD SWAP2 PUSH1 0x20 ADD SWAP2 PUSH2 0x966 SWAP3 PUSH2 0x20CE JUMP JUMPDEST ADD PUSH1 0x33 ADD PUSH1 0x32 DUP2 ADD PUSH2 0x1F4B PUSH1 0xF2 SHL SWAP1 MSTORE PUSH1 0x34 DUP2 ADD PUSH32 0x7B2274726169745F74797065223A2022436C65616E2053747265616B222C2022 SWAP1 MSTORE PUSH8 0x3B30B63AB2911D1 PUSH1 0xC5 SHL PUSH1 0x54 DUP3 ADD MSTORE DUP2 MLOAD SWAP2 DUP3 PUSH1 0x5C DUP4 ADD SWAP2 PUSH1 0x20 ADD SWAP2 PUSH2 0x9C4 SWAP3 PUSH2 0x20CE JUMP JUMPDEST ADD PUSH1 0x32 ADD PUSH1 0x2A DUP2 ADD PUSH2 0x1F4B PUSH1 0xF2 SHL SWAP1 MSTORE PUSH1 0x2C DUP2 ADD PUSH32 0x7B2274726169745F74797065223A202244697274792053747265616B222C2022 SWAP1 MSTORE PUSH8 0x3B30B63AB2911D1 PUSH1 0xC5 SHL PUSH1 0x4C DUP3 ADD MSTORE DUP2 MLOAD SWAP2 DUP3 PUSH1 0x54 DUP4 ADD SWAP2 PUSH1 0x20 ADD SWAP2 PUSH2 0xA22 SWAP3 PUSH2 0x20CE JUMP JUMPDEST ADD PUSH1 0x2A ADD PUSH1 0x2A DUP2 ADD PUSH1 0x7D PUSH1 0xF8 SHL SWAP1 MSTORE PUSH1 0x2B DUP2 ADD PUSH2 0x5D7D PUSH1 0xF0 SHL SWAP1 MSTORE SUB PUSH1 0x2A ADD PUSH1 0x1C NOT DUP2 ADD DUP3 MSTORE PUSH1 0x3 ADD PUSH2 0xA55 SWAP1 DUP3 PUSH2 0x2199 JUMP JUMPDEST PUSH1 0x40 MLOAD PUSH2 0xA63 PUSH1 0x60 DUP3 PUSH2 0x2199 JUMP JUMPDEST PUSH1 0x40 DUP1 DUP3 MSTORE PUSH32 0x4142434445464748494A4B4C4D4E4F505152535455565758595A616263646566 PUSH1 0x20 DUP4 ADD MSTORE PUSH32 0x6768696A6B6C6D6E6F707172737475767778797A303132333435363738392B2F SWAP1 DUP3 ADD MSTORE PUSH2 0xABC SWAP2 PUSH2 0x301C JUMP JUMPDEST PUSH1 0x40 MLOAD DUP1 SWAP2 PUSH1 0x20 DUP3 ADD PUSH32 0x646174613A6170706C69636174696F6E2F6A736F6E3B6261736536342C000000 SWAP1 MSTORE DUP1 MLOAD SWAP1 DUP2 PUSH1 0x3D DUP5 ADD SWAP2 PUSH1 0x20 ADD SWAP2 PUSH2 0xAFE SWAP3 PUSH2 0x20CE JUMP JUMPDEST DUP2 ADD SUB PUSH1 0x3D ADD PUSH1 0x1F NOT DUP2 ADD DUP3 MSTORE PUSH2 0xB15 SWAP1 DUP3 PUSH2 0x2199 JUMP JUMPDEST PUSH1 0x40 MLOAD DUP1 SWAP2 PUSH1 0x20 DUP3 MSTORE PUSH1 0x20 DUP3 ADD PUSH2 0x1C9 SWAP2 PUSH2 0x20F1 JUMP JUMPDEST CALLVALUE PUSH2 0x1CD JUMPI PUSH1 0x0 CALLDATASIZE PUSH1 0x3 NOT ADD SLT PUSH2 0x1CD JUMPI PUSH1 0x20 PUSH1 0x40 MLOAD PUSH1 0x1 DUP2 MSTORE RETURN JUMPDEST CALLVALUE PUSH2 0x1CD JUMPI PUSH1 0x80 CALLDATASIZE PUSH1 0x3 NOT ADD SLT PUSH2 0x1CD JUMPI PUSH2 0xB60 PUSH2 0x2116 JUMP JUMPDEST PUSH2 0xB68 PUSH2 0x212C JUMP JUMPDEST SWAP1 PUSH1 0x44 CALLDATALOAD PUSH1 0x64 CALLDATALOAD SWAP3 PUSH8 0xFFFFFFFFFFFFFFFF DUP5 GT PUSH2 0x1CD JUMPI CALLDATASIZE PUSH1 0x23 DUP6 ADD SLT ISZERO PUSH2 0x1CD JUMPI PUSH2 0xBA1 PUSH2 0xBB3 SWAP5 CALLDATASIZE SWAP1 PUSH1 0x24 DUP2 PUSH1 0x4 ADD CALLDATALOAD SWAP2 ADD PUSH2 0x21D7 JUMP JUMPDEST SWAP3 PUSH2 0xBAD DUP4 DUP4 DUP4 PUSH2 0x2580 JUMP JUMPDEST CALLER PUSH2 0x2987 JUMP JUMPDEST STOP JUMPDEST CALLVALUE PUSH2 0x1CD JUMPI PUSH1 0x0 CALLDATASIZE PUSH1 0x3 NOT ADD SLT PUSH2 0x1CD JUMPI PUSH2 0x1C9 PUSH1 0x40 MLOAD PUSH2 0x1B5 DUP2 PUSH2 0x1AE DUP2 PUSH2 0x22E9 JUMP JUMPDEST CALLVALUE PUSH2 0x1CD JUMPI PUSH1 0x0 CALLDATASIZE PUSH1 0x3 NOT ADD SLT PUSH2 0x1CD JUMPI PUSH2 0x1C9 PUSH1 0x40 MLOAD PUSH2 0x1B5 DUP2 PUSH2 0x1AE DUP2 PUSH2 0x236E JUMP JUMPDEST CALLVALUE PUSH2 0x1CD JUMPI PUSH1 0x20 CALLDATASIZE PUSH1 0x3 NOT ADD SLT PUSH2 0x1CD JUMPI PUSH1 0x4 CALLDATALOAD PUSH1 0x0 MSTORE PUSH1 0xB PUSH1 0x20 MSTORE PUSH1 0x20 PUSH1 0x40 PUSH1 0x0 KECCAK256 SLOAD PUSH1 0x40 MLOAD SWAP1 DUP2 MSTORE RETURN JUMPDEST CALLVALUE PUSH2 0x1CD JUMPI PUSH1 0x20 CALLDATASIZE PUSH1 0x3 NOT ADD SLT PUSH2 0x1CD JUMPI PUSH1 0x4 CALLDATALOAD PUSH1 0x0 MSTORE PUSH1 0xC PUSH1 0x20 MSTORE PUSH1 0x20 PUSH1 0xFF PUSH1 0x40 PUSH1 0x0 KECCAK256 SLOAD AND PUSH1 0x40 MLOAD SWAP1 ISZERO ISZERO DUP2 MSTORE RETURN JUMPDEST CALLVALUE PUSH2 0x1CD JUMPI PUSH1 0x40 CALLDATASIZE PUSH1 0x3 NOT ADD SLT PUSH2 0x1CD JUMPI PUSH2 0xC73 PUSH2 0x2116 JUMP JUMPDEST PUSH1 0x24 CALLDATALOAD SWAP1 DUP2 ISZERO ISZERO SWAP1 DUP2 DUP4 SUB PUSH2 0x1CD JUMPI PUSH1 0x1 PUSH1 0x1 PUSH1 0xA0 SHL SUB AND SWAP2 DUP3 ISZERO PUSH2 0xCEF JUMPI PUSH2 0xCC1 SWAP1 CALLER PUSH1 0x0 MSTORE PUSH1 0x5 PUSH1 0x20 MSTORE PUSH1 0x40 PUSH1 0x0 KECCAK256 DUP5 PUSH1 0x0 MSTORE PUSH1 0x20 MSTORE PUSH1 0x40 PUSH1 0x0 KECCAK256 SWAP1 PUSH1 0xFF DUP1 NOT DUP4 SLOAD AND SWAP2 ISZERO ISZERO AND OR SWAP1 SSTORE JUMP JUMPDEST PUSH1 0x40 MLOAD SWAP1 DUP2 MSTORE PUSH32 0x17307EAB39AB6107E8899845AD3D59BD9653F200F220920489CA2B5937696C31 PUSH1 0x20 CALLER SWAP3 LOG3 STOP JUMPDEST DUP3 PUSH4 0xB611743 PUSH1 0xE3 SHL PUSH1 0x0 MSTORE PUSH1 0x4 MSTORE PUSH1 0x24 PUSH1 0x0 REVERT JUMPDEST CALLVALUE PUSH2 0x1CD JUMPI PUSH1 0x0 CALLDATASIZE PUSH1 0x3 NOT ADD SLT PUSH2 0x1CD JUMPI PUSH1 0x40 MLOAD PUSH1 0x0 PUSH1 0x1 SLOAD PUSH2 0xD26 DUP2 PUSH2 0x220E JUMP JUMPDEST DUP1 DUP5 MSTORE SWAP1 PUSH1 0x1 DUP2 AND SWAP1 DUP2 ISZERO PUSH2 0xDAD JUMPI POP PUSH1 0x1 EQ PUSH2 0xD4E JUMPI JUMPDEST PUSH2 0x1C9 DUP4 PUSH2 0x1B5 DUP2 DUP6 SUB DUP3 PUSH2 0x2199 JUMP JUMPDEST PUSH1 0x1 PUSH1 0x0 SWAP1 DUP2 MSTORE PUSH32 0xB10E2D527612073B26EECDFD717E6A320CF44B4AFAC2B0732D9FCBE2B7FA0CF6 SWAP4 SWAP3 POP SWAP1 JUMPDEST DUP1 DUP3 LT PUSH2 0xD93 JUMPI POP SWAP1 SWAP2 POP DUP2 ADD PUSH1 0x20 ADD PUSH2 0x1B5 PUSH2 0xD3E JUMP JUMPDEST SWAP2 SWAP3 PUSH1 0x1 DUP2 PUSH1 0x20 SWAP3 SLOAD DUP4 DUP6 DUP9 ADD ADD MSTORE ADD SWAP2 ADD SWAP1 SWAP3 SWAP2 PUSH2 0xD7B JUMP JUMPDEST PUSH1 0xFF NOT AND PUSH1 0x20 DUP1 DUP7 ADD SWAP2 SWAP1 SWAP2 MSTORE SWAP2 ISZERO ISZERO PUSH1 0x5 SHL DUP5 ADD SWAP1 SWAP2 ADD SWAP2 POP PUSH2 0x1B5 SWAP1 POP PUSH2 0xD3E JUMP JUMPDEST CALLVALUE PUSH2 0x1CD JUMPI PUSH1 0x0 CALLDATASIZE PUSH1 0x3 NOT ADD SLT PUSH2 0x1CD JUMPI PUSH1 0x7 SLOAD PUSH1 0x40 MLOAD PUSH1 0x1 PUSH1 0x1 PUSH1 0xA0 SHL SUB SWAP1 SWAP2 AND DUP2 MSTORE PUSH1 0x20 SWAP1 RETURN JUMPDEST CALLVALUE PUSH2 0x1CD JUMPI PUSH1 0x40 CALLDATASIZE PUSH1 0x3 NOT ADD SLT PUSH2 0x1CD JUMPI PUSH1 0x4 CALLDATALOAD PUSH2 0xE16 PUSH2 0x212C JUMP JUMPDEST SWAP1 PUSH2 0xE20 DUP2 PUSH2 0x26D9 JUMP JUMPDEST CALLER PUSH1 0x1 PUSH1 0x1 PUSH1 0xA0 SHL SUB SWAP1 SWAP2 AND SUB PUSH2 0xF29 JUMPI PUSH1 0x1 PUSH1 0x1 PUSH1 0xA0 SHL SUB DUP3 AND DUP1 ISZERO PUSH2 0xEF0 JUMPI PUSH1 0x0 DUP3 DUP2 MSTORE PUSH1 0x9 PUSH1 0x20 MSTORE PUSH1 0x40 DUP2 KECCAK256 PUSH1 0x4 ADD DUP1 SLOAD PUSH1 0x1 PUSH1 0x1 PUSH1 0xA0 SHL SUB NOT DUP2 AND DUP5 OR SWAP1 SWAP2 SSTORE SWAP1 SWAP4 PUSH1 0x1 PUSH1 0x1 PUSH1 0xA0 SHL SUB SWAP2 DUP3 AND SWAP3 SWAP2 SWAP1 PUSH2 0xE7F SWAP1 DUP6 SWAP1 PUSH2 0x2710 JUMP JUMPDEST AND DUP1 PUSH2 0xE99 JUMPI PUSH4 0x7E273289 PUSH1 0xE0 SHL DUP6 MSTORE PUSH1 0x4 DUP5 SWAP1 MSTORE PUSH1 0x24 DUP6 REVERT JUMPDEST DUP3 DUP2 SUB PUSH2 0xED4 JUMPI POP PUSH32 0xEA8D4830026C44C91618341DD03A64194FAD13C4176744ABC919AF15F9ACDCDC SWAP2 PUSH1 0x40 SWAP2 DUP3 MLOAD SWAP2 DUP3 MSTORE PUSH1 0x20 DUP3 ADD MSTORE LOG2 DUP1 RETURN JUMPDEST PUSH4 0x64283D7B PUSH1 0xE0 SHL DUP6 MSTORE PUSH1 0x4 DUP4 SWAP1 MSTORE PUSH1 0x24 DUP5 SWAP1 MSTORE PUSH1 0x44 MSTORE PUSH1 0x64 DUP5 REVERT JUMPDEST PUSH1 0x40 MLOAD PUSH3 0x461BCD PUSH1 0xE5 SHL DUP2 MSTORE PUSH1 0x20 PUSH1 0x4 DUP3 ADD MSTORE PUSH1 0x11 PUSH1 0x24 DUP3 ADD MSTORE PUSH17 0x24B73B30B634B2103732BB9037BBB732B9 PUSH1 0x79 SHL PUSH1 0x44 DUP3 ADD MSTORE PUSH1 0x64 SWAP1 REVERT JUMPDEST PUSH1 0x40 MLOAD PUSH3 0x461BCD PUSH1 0xE5 SHL DUP2 MSTORE PUSH1 0x20 PUSH1 0x4 DUP3 ADD MSTORE PUSH1 0xD PUSH1 0x24 DUP3 ADD MSTORE PUSH13 0x2737BA103A34329037BBB732B9 PUSH1 0x99 SHL PUSH1 0x44 DUP3 ADD MSTORE PUSH1 0x64 SWAP1 REVERT JUMPDEST CALLVALUE PUSH2 0x1CD JUMPI PUSH1 0x0 CALLDATASIZE PUSH1 0x3 NOT ADD SLT PUSH2 0x1CD JUMPI PUSH2 0x1C9 PUSH1 0x40 MLOAD PUSH2 0x1B5 DUP2 PUSH2 0x1AE DUP2 PUSH2 0x2478 JUMP JUMPDEST CALLVALUE PUSH2 0x1CD JUMPI PUSH1 0x0 CALLDATASIZE PUSH1 0x3 NOT ADD SLT PUSH2 0x1CD JUMPI PUSH2 0xF9B PUSH2 0x2834 JUMP JUMPDEST PUSH1 0x7 DUP1 SLOAD PUSH1 0x1 PUSH1 0x1 PUSH1 0xA0 SHL SUB NOT DUP2 AND SWAP1 SWAP2 SSTORE PUSH1 0x0 SWAP1 PUSH1 0x1 PUSH1 0x1 PUSH1 0xA0 SHL SUB AND PUSH32 0x8BE0079C531659141344CD1FD0A4F28419497F9722A3DAAFE3B4186F6B6457E0 DUP3 DUP1 LOG3 STOP JUMPDEST CALLVALUE PUSH2 0x1CD JUMPI PUSH1 0x20 CALLDATASIZE PUSH1 0x3 NOT ADD SLT PUSH2 0x1CD JUMPI PUSH1 0x1 PUSH1 0x1 PUSH1 0xA0 SHL SUB PUSH2 0x1000 PUSH2 0x2116 JUMP JUMPDEST AND DUP1 ISZERO PUSH2 0x101F JUMPI PUSH1 0x0 MSTORE PUSH1 0x3 PUSH1 0x20 MSTORE PUSH1 0x20 PUSH1 0x40 PUSH1 0x0 KECCAK256 SLOAD PUSH1 0x40 MLOAD SWAP1 DUP2 MSTORE RETURN JUMPDEST PUSH4 0x22718AD9 PUSH1 0xE2 SHL PUSH1 0x0 MSTORE PUSH1 0x0 PUSH1 0x4 MSTORE PUSH1 0x24 PUSH1 0x0 REVERT JUMPDEST CALLVALUE PUSH2 0x1CD JUMPI PUSH1 0x20 CALLDATASIZE PUSH1 0x3 NOT ADD SLT PUSH2 0x1CD JUMPI PUSH1 0x20 PUSH2 0x1053 PUSH1 0x4 CALLDATALOAD PUSH2 0x26D9 JUMP JUMPDEST PUSH1 0x40 MLOAD PUSH1 0x1 PUSH1 0x1 PUSH1 0xA0 SHL SUB SWAP1 SWAP2 AND DUP2 MSTORE RETURN JUMPDEST CALLVALUE PUSH2 0x1CD JUMPI PUSH1 0x0 CALLDATASIZE PUSH1 0x3 NOT ADD SLT PUSH2 0x1CD JUMPI PUSH1 0x20 PUSH1 0x40 MLOAD PUSH1 0x3 DUP2 MSTORE RETURN JUMPDEST CALLVALUE PUSH2 0x1CD JUMPI PUSH1 0x20 CALLDATASIZE PUSH1 0x3 NOT ADD SLT PUSH2 0x1CD JUMPI PUSH1 0x4 CALLDATALOAD PUSH1 0x0 MSTORE PUSH1 0x9 PUSH1 0x20 MSTORE PUSH1 0x20 PUSH1 0x40 PUSH1 0x0 KECCAK256 DUP1 SLOAD SWAP1 PUSH1 0x40 MLOAD PUSH2 0x10BB DUP2 PUSH2 0x1AE DUP2 PUSH1 0x1 DUP7 ADD PUSH2 0x24FD JUMP JUMPDEST PUSH1 0x40 MLOAD SWAP2 PUSH2 0x10D0 DUP4 PUSH2 0x392 DUP2 PUSH1 0x2 DUP6 ADD PUSH2 0x24FD JUMP JUMPDEST PUSH1 0x3 DUP2 ADD SLOAD SWAP3 PUSH1 0x1 DUP1 PUSH1 0xA0 SHL SUB PUSH1 0x4 DUP4 ADD SLOAD AND PUSH1 0x5 DUP4 ADD SLOAD PUSH1 0xFF PUSH1 0x6 DUP6 ADD SLOAD AND SWAP1 PUSH1 0x7 DUP6 ADD SLOAD SWAP3 PUSH2 0x1136 PUSH1 0x8 DUP8 ADD SLOAD SWAP6 PUSH2 0x1128 PUSH1 0xA PUSH1 0x9 DUP11 ADD SLOAD SWAP10 ADD SLOAD SWAP10 PUSH2 0x160 PUSH1 0x40 MLOAD SWAP15 DUP16 SWAP15 DUP16 SWAP1 DUP2 MSTORE ADD MSTORE PUSH2 0x160 DUP14 ADD SWAP1 PUSH2 0x20F1 JUMP JUMPDEST SWAP1 DUP12 DUP3 SUB PUSH1 0x40 DUP14 ADD MSTORE PUSH2 0x20F1 JUMP JUMPDEST SWAP8 PUSH1 0x60 DUP11 ADD MSTORE PUSH1 0x80 DUP10 ADD MSTORE PUSH1 0xA0 DUP9 ADD MSTORE ISZERO ISZERO PUSH1 0xC0 DUP8 ADD MSTORE PUSH1 0xE0 DUP7 ADD MSTORE PUSH2 0x100 DUP6 ADD MSTORE PUSH2 0x120 DUP5 ADD MSTORE PUSH2 0x140 DUP4 ADD MSTORE SUB SWAP1 RETURN JUMPDEST CALLVALUE PUSH2 0x1CD JUMPI PUSH1 0x20 CALLDATASIZE PUSH1 0x3 NOT ADD SLT PUSH2 0x1CD JUMPI PUSH1 0x4 CALLDATALOAD PUSH1 0x0 DUP2 DUP2 MSTORE PUSH1 0x2 PUSH1 0x20 MSTORE PUSH1 0x40 SWAP1 KECCAK256 SLOAD PUSH2 0x119F SWAP1 PUSH1 0x1 PUSH1 0x1 PUSH1 0xA0 SHL SUB AND ISZERO ISZERO PUSH2 0x2689 JUMP JUMPDEST PUSH1 0x0 MSTORE PUSH1 0x9 PUSH1 0x20 MSTORE PUSH1 0x40 PUSH1 0x0 KECCAK256 PUSH1 0x40 MLOAD PUSH2 0x11B8 DUP2 PUSH2 0x217C JUMP JUMPDEST DUP2 SLOAD DUP2 MSTORE PUSH1 0x40 MLOAD SWAP2 PUSH2 0x11D1 DUP4 PUSH2 0x392 DUP2 PUSH1 0x1 DUP6 ADD PUSH2 0x24FD JUMP JUMPDEST PUSH1 0x20 DUP3 ADD SWAP3 DUP4 MSTORE PUSH1 0x40 MLOAD PUSH2 0x11EC DUP2 PUSH2 0x1AE DUP2 PUSH1 0x2 DUP7 ADD PUSH2 0x24FD JUMP JUMPDEST PUSH1 0x40 DUP4 ADD MSTORE PUSH1 0x3 DUP2 ADD SLOAD PUSH1 0x60 DUP4 ADD MSTORE PUSH1 0x1 DUP1 PUSH1 0xA0 SHL SUB PUSH1 0x4 DUP3 ADD SLOAD AND PUSH1 0x80 DUP4 ADD MSTORE PUSH1 0x5 DUP2 ADD SLOAD PUSH1 0xA0 DUP4 ADD MSTORE PUSH1 0xFF PUSH1 0x6 DUP3 ADD SLOAD AND ISZERO ISZERO PUSH1 0xC0 DUP4 ADD MSTORE PUSH1 0x7 DUP2 ADD SLOAD SWAP2 DUP3 PUSH1 0xE0 DUP3 ADD MSTORE PUSH2 0x1282 PUSH1 0x8 DUP4 ADD SLOAD SWAP5 DUP6 PUSH2 0x100 DUP5 ADD MSTORE PUSH1 0xA PUSH1 0x9 DUP6 ADD SLOAD SWAP5 DUP6 PUSH2 0x120 DUP7 ADD MSTORE ADD SLOAD SWAP3 DUP4 PUSH2 0x140 DUP3 ADD MSTORE MLOAD SWAP1 MLOAD SWAP1 PUSH1 0x40 MLOAD SWAP7 DUP8 SWAP7 DUP8 MSTORE PUSH1 0x20 DUP8 ADD MSTORE PUSH1 0x40 DUP7 ADD MSTORE PUSH1 0xC0 PUSH1 0x60 DUP7 ADD MSTORE PUSH1 0xC0 DUP6 ADD SWAP1 PUSH2 0x20F1 JUMP JUMPDEST SWAP2 PUSH1 0x80 DUP5 ADD MSTORE PUSH1 0xA0 DUP4 ADD MSTORE SUB SWAP1 RETURN JUMPDEST CALLVALUE PUSH2 0x1CD JUMPI PUSH2 0xBB3 PUSH2 0x12A2 CALLDATASIZE PUSH2 0x2142 JUMP JUMPDEST SWAP1 PUSH1 0x40 MLOAD SWAP3 PUSH2 0x12B2 PUSH1 0x20 DUP6 PUSH2 0x2199 JUMP JUMPDEST PUSH1 0x0 DUP5 MSTORE PUSH2 0xBAD DUP4 DUP4 DUP4 PUSH2 0x2580 JUMP JUMPDEST CALLVALUE PUSH2 0x1CD JUMPI PUSH1 0x20 CALLDATASIZE PUSH1 0x3 NOT ADD SLT PUSH2 0x1CD JUMPI PUSH1 0x1 PUSH1 0x1 PUSH1 0xA0 SHL SUB PUSH2 0x12E2 PUSH2 0x2116 JUMP JUMPDEST AND PUSH1 0x0 MSTORE PUSH1 0xA PUSH1 0x20 MSTORE PUSH1 0x20 PUSH1 0x40 PUSH1 0x0 KECCAK256 SLOAD PUSH1 0x40 MLOAD SWAP1 DUP2 MSTORE RETURN JUMPDEST CALLVALUE PUSH2 0x1CD JUMPI PUSH1 0x40 CALLDATASIZE PUSH1 0x3 NOT ADD SLT PUSH2 0x1CD JUMPI PUSH1 0x4 CALLDATALOAD PUSH1 0x24 CALLDATALOAD PUSH8 0xFFFFFFFFFFFFFFFF DUP2 GT PUSH2 0x1CD JUMPI CALLDATASIZE PUSH1 0x23 DUP3 ADD SLT ISZERO PUSH2 0x1CD JUMPI PUSH2 0x1340 SWAP1 CALLDATASIZE SWAP1 PUSH1 0x24 DUP2 PUSH1 0x4 ADD CALLDATALOAD SWAP2 ADD PUSH2 0x21D7 JUMP JUMPDEST PUSH2 0x1348 PUSH2 0x2834 JUMP JUMPDEST PUSH1 0x0 DUP3 DUP2 MSTORE PUSH1 0x2 PUSH1 0x20 MSTORE PUSH1 0x40 SWAP1 KECCAK256 SLOAD PUSH2 0x136B SWAP1 PUSH1 0x1 PUSH1 0x1 PUSH1 0xA0 SHL SUB AND ISZERO ISZERO PUSH2 0x2689 JUMP JUMPDEST DUP2 PUSH1 0x0 MSTORE PUSH1 0x9 PUSH1 0x20 MSTORE PUSH1 0x40 PUSH1 0x0 KECCAK256 PUSH1 0x1 DUP2 ADD PUSH1 0x40 MLOAD SWAP1 PUSH2 0x1396 DUP3 PUSH2 0x138F DUP2 DUP5 PUSH2 0x24FD JUMP JUMPDEST SUB DUP4 PUSH2 0x2199 JUMP JUMPDEST DUP5 DUP4 SLOAD SWAP3 DUP6 MLOAD PUSH1 0x20 DUP8 ADD SWAP1 DUP2 KECCAK256 SWAP7 PUSH1 0x40 SWAP8 PUSH1 0x5 PUSH1 0x20 DUP11 MLOAD PUSH2 0x13B7 DUP13 DUP3 PUSH2 0x2199 JUMP JUMPDEST DUP3 DUP2 MSTORE ADD PUSH5 0x21A622A0A7 PUSH1 0xD9 SHL DUP2 MSTORE KECCAK256 EQ PUSH1 0x0 EQ PUSH2 0x17CB JUMPI POP POP PUSH1 0x7 DUP6 ADD PUSH2 0x13DF DUP2 SLOAD PUSH2 0x25D0 JUMP JUMPDEST SWAP1 SSTORE PUSH1 0x9 DUP6 ADD PUSH2 0x13EF DUP2 SLOAD PUSH2 0x25D0 JUMP JUMPDEST DUP1 SWAP2 SSTORE PUSH1 0x0 PUSH1 0xA DUP8 ADD SSTORE PUSH1 0x2 SWAP1 PUSH1 0x5 DUP2 MOD ISZERO SWAP1 DUP2 PUSH2 0x17C1 JUMPI JUMPDEST POP PUSH2 0x17B9 JUMPI JUMPDEST DUP6 SLOAD SWAP1 PUSH1 0x64 PUSH2 0x141D DUP3 DUP5 PUSH2 0x26CC JUMP JUMPDEST GT ISZERO PUSH2 0x17A9 JUMPI POP POP PUSH1 0x64 DUP6 SSTORE JUMPDEST DUP2 PUSH1 0x0 MSTORE PUSH1 0x9 PUSH1 0x20 MSTORE DUP6 PUSH1 0x0 KECCAK256 DUP1 SLOAD PUSH1 0x4B DUP2 LT SWAP1 DUP2 ISZERO DUP1 PUSH2 0x179E JUMPI JUMPDEST ISZERO PUSH2 0x15D7 JUMPI POP POP DUP1 PUSH1 0x1 PUSH1 0x2 SWAP3 ADD PUSH2 0x1467 PUSH2 0x1461 DUP3 SLOAD PUSH2 0x220E JUMP JUMPDEST DUP3 PUSH2 0x261A JUMP JUMPDEST PUSH1 0xC PUSH6 0x537072696E67 PUSH1 0xD0 SHL ADD SWAP1 SSTORE ADD PUSH2 0x1484 PUSH2 0x1461 DUP3 SLOAD PUSH2 0x220E JUMP JUMPDEST PUSH1 0x10 PUSH8 0x426C6F6F6D696E67 PUSH1 0xC0 SHL ADD SWAP1 SSTORE DUP6 MLOAD PUSH2 0x14AE SWAP1 PUSH2 0x14A8 DUP2 PUSH2 0x1AE DUP2 PUSH2 0x2478 JUMP JUMPDEST DUP4 PUSH2 0x285D JUMP JUMPDEST TIMESTAMP PUSH1 0x3 DUP7 ADD SSTORE DUP5 SLOAD SWAP3 DUP3 PUSH32 0xE2267724154D2EE55333BAB328E2971878E0A154A3C11E4BEFCAF4F7A88A9389 DUP9 MLOAD DUP7 DUP2 MSTORE PUSH1 0x60 PUSH1 0x20 DUP3 ADD MSTORE DUP1 PUSH2 0x1506 PUSH2 0x14F6 PUSH1 0x60 DUP4 ADD DUP8 PUSH2 0x24FD JUMP JUMPDEST DUP3 DUP2 SUB DUP14 DUP5 ADD MSTORE PUSH1 0x2 DUP13 ADD PUSH2 0x24FD JUMP JUMPDEST SUB SWAP1 LOG2 DUP2 MLOAD PUSH1 0x20 DUP4 ADD KECCAK256 DUP8 MLOAD PUSH2 0x1520 DUP2 PUSH2 0x1AE DUP2 DUP7 PUSH2 0x24FD JUMP JUMPDEST PUSH1 0x20 DUP2 MLOAD SWAP2 ADD KECCAK256 SUB PUSH2 0x1584 JUMPI JUMPDEST POP POP POP ISZERO SWAP1 DUP2 PUSH2 0x157A JUMPI JUMPDEST POP PUSH2 0x153F JUMPI STOP JUMPDEST PUSH1 0x4 ADD SLOAD SWAP1 MLOAD PUSH1 0x1 PUSH1 0x1 PUSH1 0xA0 SHL SUB SWAP1 SWAP2 AND DUP2 MSTORE PUSH32 0xD8FE76DAB9BC87697E5595A194A133B77FB4DF26E5E8A7912B292B694FC8F6A2 SWAP1 PUSH1 0x20 SWAP1 LOG2 STOP JUMPDEST SWAP1 POP ISZERO ISZERO DUP5 PUSH2 0x1538 JUMP JUMPDEST PUSH32 0x62BA4931DE755221BF21B177998C1AC214066976A361C2EEDFB178FFC3D12D24 SWAP2 PUSH2 0x15CC PUSH2 0x15BE SWAP3 DUP10 MLOAD SWAP4 DUP5 SWAP4 DUP12 DUP6 MSTORE DUP12 DUP6 ADD SWAP1 PUSH2 0x20F1 JUMP JUMPDEST SWAP1 DUP4 DUP3 SUB PUSH1 0x20 DUP6 ADD MSTORE PUSH2 0x24FD JUMP JUMPDEST SUB SWAP1 LOG2 DUP5 DUP7 DUP1 PUSH2 0x152D JUMP JUMPDEST PUSH1 0x32 DUP2 LT SWAP2 DUP3 ISZERO SWAP1 DUP2 PUSH2 0x1796 JUMPI JUMPDEST POP ISZERO PUSH2 0x1643 JUMPI POP POP DUP1 PUSH1 0x1 PUSH1 0x2 SWAP3 ADD PUSH2 0x1601 PUSH2 0x1461 DUP3 SLOAD PUSH2 0x220E JUMP JUMPDEST PUSH1 0xC PUSH6 0x29BAB6B6B2B9 PUSH1 0xD1 SHL ADD SWAP1 SSTORE ADD PUSH2 0x161E PUSH2 0x1461 DUP3 SLOAD PUSH2 0x220E JUMP JUMPDEST PUSH1 0x8 PUSH4 0x5761726D PUSH1 0xE0 SHL ADD SWAP1 SSTORE DUP6 MLOAD PUSH2 0x163E SWAP1 PUSH2 0x14A8 DUP2 PUSH2 0x1AE DUP2 PUSH2 0x2248 JUMP JUMPDEST PUSH2 0x14AE JUMP JUMPDEST PUSH1 0x19 DUP2 LT SWAP2 DUP3 ISZERO SWAP1 DUP2 PUSH2 0x178E JUMPI JUMPDEST POP ISZERO PUSH2 0x16D7 JUMPI POP POP DUP1 PUSH1 0x1 PUSH1 0x2 SWAP3 ADD PUSH2 0x166D PUSH2 0x1461 DUP3 SLOAD PUSH2 0x220E JUMP JUMPDEST PUSH1 0x8 PUSH4 0x11985B1B PUSH1 0xE2 SHL ADD SWAP1 SSTORE ADD DUP1 SLOAD PUSH2 0x1686 SWAP1 PUSH2 0x220E JUMP JUMPDEST PUSH1 0x1F DUP2 GT PUSH2 0x16B5 JUMPI JUMPDEST POP PUSH1 0x12 PUSH9 0x4465636C696E696E67 PUSH1 0xB8 SHL ADD SWAP1 SSTORE DUP6 MLOAD PUSH2 0x163E SWAP1 PUSH2 0x14A8 DUP2 PUSH2 0x1AE DUP2 PUSH2 0x23F3 JUMP JUMPDEST PUSH2 0x16D1 SWAP1 DUP3 PUSH1 0x0 MSTORE PUSH1 0x1F PUSH1 0x20 PUSH1 0x0 KECCAK256 SWAP2 ADD PUSH1 0x5 SHR DUP2 ADD SWAP1 PUSH2 0x2603 JUMP JUMPDEST DUP9 PUSH2 0x168F JUMP JUMPDEST PUSH1 0x2 GT ISZERO SWAP1 DUP2 PUSH2 0x1786 JUMPI JUMPDEST POP ISZERO PUSH2 0x173D JUMPI DUP1 PUSH1 0x1 PUSH1 0x2 SWAP3 ADD PUSH2 0x16FC PUSH2 0x1461 DUP3 SLOAD PUSH2 0x220E JUMP JUMPDEST PUSH1 0xC PUSH6 0x2BB4B73A32B9 PUSH1 0xD1 SHL ADD SWAP1 SSTORE ADD PUSH2 0x1719 PUSH2 0x1461 DUP3 SLOAD PUSH2 0x220E JUMP JUMPDEST PUSH1 0x10 PUSH8 0x10DC9A5D1A58D85B PUSH1 0xC2 SHL ADD SWAP1 SSTORE DUP6 MLOAD PUSH2 0x163E SWAP1 PUSH2 0x14A8 DUP2 PUSH2 0x1AE DUP2 PUSH2 0x236E JUMP JUMPDEST PUSH1 0x2 PUSH1 0x1 DUP3 ADD SWAP2 PUSH2 0x1757 PUSH2 0x1751 DUP5 SLOAD PUSH2 0x220E JUMP JUMPDEST DUP5 PUSH2 0x261A JUMP JUMPDEST PUSH1 0x8 PUSH4 0x11195859 PUSH1 0xE2 SHL ADD DUP1 SWAP4 SSTORE ADD PUSH2 0x1773 PUSH2 0x1461 DUP3 SLOAD PUSH2 0x220E JUMP JUMPDEST SSTORE PUSH2 0x163E DUP7 MLOAD PUSH2 0x14A8 DUP2 PUSH2 0x1AE DUP2 PUSH2 0x22E9 JUMP JUMPDEST SWAP1 POP DUP10 PUSH2 0x16E2 JUMP JUMPDEST SWAP1 POP DUP12 PUSH2 0x1651 JUMP JUMPDEST SWAP1 POP DUP12 PUSH2 0x15E5 JUMP JUMPDEST POP PUSH1 0x64 DUP2 GT ISZERO PUSH2 0x1446 JUMP JUMPDEST PUSH2 0x17B2 SWAP2 PUSH2 0x26CC JUMP JUMPDEST DUP6 SSTORE PUSH2 0x142A JUMP JUMPDEST POP PUSH1 0x3 PUSH2 0x140E JUMP JUMPDEST SWAP1 POP ISZERO ISZERO DUP10 PUSH2 0x1408 JUMP JUMPDEST MLOAD SWAP1 KECCAK256 PUSH1 0x5 PUSH1 0x20 DUP9 MLOAD PUSH2 0x17DE DUP11 DUP3 PUSH2 0x2199 JUMP JUMPDEST DUP3 DUP2 MSTORE ADD PUSH5 0x4449525459 PUSH1 0xD8 SHL DUP2 MSTORE KECCAK256 SUB PUSH2 0x142A JUMPI PUSH1 0x8 DUP6 ADD PUSH2 0x1801 DUP2 SLOAD PUSH2 0x25D0 JUMP JUMPDEST SWAP1 SSTORE PUSH1 0xA DUP6 ADD PUSH2 0x1811 DUP2 SLOAD PUSH2 0x25D0 JUMP JUMPDEST DUP1 SWAP2 SSTORE PUSH1 0x0 PUSH1 0x9 DUP8 ADD SSTORE PUSH1 0x3 SWAP1 PUSH1 0x5 DUP2 MOD ISZERO SWAP1 DUP2 PUSH2 0x1874 JUMPI JUMPDEST POP PUSH2 0x186C JUMPI JUMPDEST DUP1 DUP6 LT ISZERO PUSH2 0x1842 JUMPI POP PUSH1 0x0 DUP6 SSTORE PUSH2 0x142A JUMP JUMPDEST DUP5 SUB SWAP2 POP DUP4 DUP3 GT PUSH2 0x1856 JUMPI DUP7 SWAP2 DUP6 SSTORE PUSH2 0x142A JUMP JUMPDEST PUSH4 0x4E487B71 PUSH1 0xE0 SHL PUSH1 0x0 MSTORE PUSH1 0x11 PUSH1 0x4 MSTORE PUSH1 0x24 PUSH1 0x0 REVERT JUMPDEST POP PUSH1 0x4 PUSH2 0x1830 JUMP JUMPDEST SWAP1 POP ISZERO ISZERO DUP10 PUSH2 0x182A JUMP JUMPDEST CALLVALUE PUSH2 0x1CD JUMPI PUSH1 0x60 CALLDATASIZE PUSH1 0x3 NOT ADD SLT PUSH2 0x1CD JUMPI PUSH2 0x1897 PUSH2 0x2116 JUMP JUMPDEST PUSH2 0x189F PUSH2 0x212C JUMP JUMPDEST PUSH2 0x18A7 PUSH2 0x2834 JUMP JUMPDEST PUSH1 0x44 CALLDATALOAD PUSH1 0x0 MSTORE PUSH1 0xC PUSH1 0x20 MSTORE PUSH1 0xFF PUSH1 0x40 PUSH1 0x0 KECCAK256 SLOAD AND PUSH2 0x1DFF JUMPI PUSH1 0x8 SLOAD PUSH2 0x18CB DUP2 PUSH2 0x25D0 JUMP JUMPDEST PUSH1 0x8 SSTORE PUSH1 0x20 SWAP2 PUSH1 0x40 MLOAD PUSH2 0x18DE DUP5 DUP3 PUSH2 0x2199 JUMP JUMPDEST PUSH1 0x0 DUP2 MSTORE PUSH1 0x1 PUSH1 0x1 PUSH1 0xA0 SHL SUB DUP6 AND ISZERO PUSH2 0x1DE9 JUMPI PUSH1 0x1 PUSH1 0x1 PUSH1 0xA0 SHL SUB PUSH2 0x1903 DUP5 DUP8 PUSH2 0x2710 JUMP JUMPDEST AND PUSH2 0x1DD3 JUMPI DUP5 EXTCODESIZE PUSH2 0x1C8C JUMPI JUMPDEST POP SWAP1 SWAP2 SWAP3 PUSH1 0x40 MLOAD SWAP2 PUSH2 0x1920 DUP4 PUSH2 0x217C JUMP JUMPDEST PUSH1 0x32 DUP4 MSTORE PUSH2 0x192C PUSH2 0x25DF JUMP JUMPDEST DUP6 DUP5 ADD SWAP1 DUP2 MSTORE PUSH1 0x40 SWAP4 DUP5 MLOAD PUSH2 0x1941 DUP7 DUP3 PUSH2 0x2199 JUMP JUMPDEST PUSH1 0x7 DUP2 MSTORE PUSH7 0x13995D5D1C985B PUSH1 0xCA SHL DUP9 DUP3 ADD MSTORE DUP6 DUP3 ADD MSTORE TIMESTAMP PUSH1 0x60 DUP3 ADD MSTORE PUSH1 0x1 DUP1 PUSH1 0xA0 SHL SUB DUP5 AND PUSH1 0x80 DUP3 ADD MSTORE PUSH1 0x44 CALLDATALOAD PUSH1 0xA0 DUP3 ADD MSTORE PUSH1 0x1 PUSH1 0xC0 DUP3 ADD MSTORE PUSH1 0x0 PUSH1 0xE0 DUP3 ADD MSTORE PUSH1 0x0 PUSH2 0x100 DUP3 ADD MSTORE PUSH1 0x0 PUSH2 0x120 DUP3 ADD MSTORE PUSH1 0x0 PUSH2 0x140 DUP3 ADD MSTORE DUP6 PUSH1 0x0 MSTORE PUSH1 0x9 DUP8 MSTORE DUP5 PUSH1 0x0 KECCAK256 SWAP2 DUP2 MLOAD DUP4 SSTORE MLOAD DUP1 MLOAD SWAP1 PUSH8 0xFFFFFFFFFFFFFFFF DUP3 GT PUSH2 0x1BFA JUMPI DUP2 SWAP1 PUSH2 0x19DA DUP3 PUSH2 0x19D1 PUSH1 0x1 DUP9 ADD SLOAD PUSH2 0x220E JUMP JUMPDEST PUSH1 0x1 DUP9 ADD PUSH2 0x2644 JUMP JUMPDEST DUP10 SWAP1 PUSH1 0x1F DUP4 GT PUSH1 0x1 EQ PUSH2 0x1C1B JUMPI PUSH1 0x0 SWAP3 PUSH2 0x1C10 JUMPI JUMPDEST POP POP DUP2 PUSH1 0x1 SHL SWAP2 PUSH1 0x0 NOT SWAP1 PUSH1 0x3 SHL SHR NOT AND OR PUSH1 0x1 DUP4 ADD SSTORE JUMPDEST DUP5 DUP2 ADD MLOAD DUP1 MLOAD SWAP1 PUSH8 0xFFFFFFFFFFFFFFFF DUP3 GT PUSH2 0x1BFA JUMPI PUSH2 0x1A37 DUP3 PUSH2 0x1A2E PUSH1 0x2 DUP8 ADD SLOAD PUSH2 0x220E JUMP JUMPDEST PUSH1 0x2 DUP8 ADD PUSH2 0x2644 JUMP JUMPDEST DUP9 SWAP1 PUSH1 0x1F DUP4 GT PUSH1 0x1 EQ PUSH2 0x1B85 JUMPI SWAP2 DUP1 PUSH1 0xA SWAP5 SWAP3 PUSH2 0x140 SWAP5 PUSH1 0x0 SWAP3 PUSH2 0x1B7A JUMPI JUMPDEST POP POP DUP2 PUSH1 0x1 SHL SWAP2 PUSH1 0x0 NOT SWAP1 PUSH1 0x3 SHL SHR NOT AND OR PUSH1 0x2 DUP6 ADD SSTORE JUMPDEST PUSH1 0x60 DUP2 ADD MLOAD PUSH1 0x3 DUP6 ADD SSTORE PUSH1 0x80 DUP2 ADD MLOAD PUSH1 0x4 DUP6 ADD DUP1 SLOAD PUSH1 0x1 PUSH1 0x1 PUSH1 0xA0 SHL SUB SWAP1 SWAP3 AND PUSH1 0x1 PUSH1 0x1 PUSH1 0xA0 SHL SUB NOT SWAP1 SWAP3 AND SWAP2 SWAP1 SWAP2 OR SWAP1 SSTORE PUSH1 0xA0 DUP2 ADD MLOAD PUSH1 0x5 DUP6 ADD SSTORE PUSH1 0xC0 DUP2 ADD MLOAD PUSH1 0x6 DUP6 ADD DUP1 SLOAD PUSH1 0xFF NOT AND SWAP2 ISZERO ISZERO PUSH1 0xFF AND SWAP2 SWAP1 SWAP2 OR SWAP1 SSTORE PUSH1 0xE0 DUP2 ADD MLOAD PUSH1 0x7 DUP6 ADD SSTORE PUSH2 0x100 DUP2 ADD MLOAD PUSH1 0x8 DUP6 ADD SSTORE PUSH2 0x120 DUP2 ADD MLOAD PUSH1 0x9 DUP6 ADD SSTORE ADD MLOAD SWAP2 ADD SSTORE PUSH1 0x1 PUSH1 0x1 PUSH1 0xA0 SHL SUB AND PUSH1 0x0 SWAP1 DUP2 MSTORE PUSH1 0xA DUP6 MSTORE DUP3 DUP2 KECCAK256 DUP5 SWAP1 SSTORE PUSH1 0x44 CALLDATALOAD DUP1 DUP3 MSTORE PUSH1 0xB DUP7 MSTORE DUP4 DUP3 KECCAK256 DUP6 SWAP1 SSTORE DUP2 MSTORE PUSH1 0xC DUP6 MSTORE DUP3 SWAP1 KECCAK256 DUP1 SLOAD PUSH1 0xFF NOT AND PUSH1 0x1 OR SWAP1 SSTORE DUP2 MLOAD PUSH2 0x1B3F SWAP1 PUSH2 0x1B39 DUP2 PUSH2 0x1AE DUP2 PUSH2 0x2248 JUMP JUMPDEST DUP5 PUSH2 0x285D JUMP JUMPDEST DUP3 PUSH32 0x218516BF62149417FD9533597ED29F259BD16CBE64AD7AA8111D863A7A246E5E DUP6 DUP5 MLOAD SWAP4 PUSH1 0x44 CALLDATALOAD DUP6 MSTORE PUSH1 0x1 DUP1 PUSH1 0xA0 SHL SUB AND SWAP4 LOG3 MLOAD SWAP1 DUP2 MSTORE RETURN JUMPDEST ADD MLOAD SWAP1 POP DUP12 DUP1 PUSH2 0x1A56 JUMP JUMPDEST SWAP1 PUSH1 0x2 DUP6 ADD PUSH1 0x0 MSTORE DUP10 PUSH1 0x0 KECCAK256 SWAP2 PUSH1 0x0 JUMPDEST DUP12 PUSH1 0x1F NOT DUP7 AND DUP3 LT PUSH2 0x1BE4 JUMPI POP POP SWAP3 PUSH1 0xA SWAP5 SWAP3 PUSH1 0x1 SWAP3 PUSH2 0x140 SWAP6 DUP4 PUSH1 0x1F NOT DUP2 AND LT PUSH2 0x1BCB JUMPI JUMPDEST POP POP POP DUP2 SHL ADD PUSH1 0x2 DUP6 ADD SSTORE PUSH2 0x1A6E JUMP JUMPDEST ADD MLOAD PUSH1 0x0 NOT PUSH1 0xF8 DUP5 PUSH1 0x3 SHL AND SHR NOT AND SWAP1 SSTORE DUP12 DUP1 DUP1 PUSH2 0x1BBB JUMP JUMPDEST PUSH1 0x1 DUP5 SWAP6 DUP3 SWAP4 SWAP6 DUP6 ADD MLOAD DUP2 SSTORE ADD SWAP5 ADD SWAP3 ADD PUSH2 0x1B95 JUMP JUMPDEST PUSH4 0x4E487B71 PUSH1 0xE0 SHL PUSH1 0x0 MSTORE PUSH1 0x41 PUSH1 0x4 MSTORE PUSH1 0x24 PUSH1 0x0 REVERT JUMPDEST ADD MLOAD SWAP1 POP DUP10 DUP1 PUSH2 0x19EF JUMP JUMPDEST SWAP3 POP PUSH1 0x1 DUP6 ADD PUSH1 0x0 MSTORE DUP10 PUSH1 0x0 KECCAK256 SWAP1 PUSH1 0x0 SWAP4 JUMPDEST DUP12 PUSH1 0x1F NOT DUP6 AND DUP7 LT PUSH2 0x1C73 JUMPI POP PUSH1 0x1 SWAP5 POP DUP4 PUSH1 0x1F NOT DUP2 AND LT PUSH2 0x1C5A JUMPI JUMPDEST POP POP POP DUP2 SHL ADD PUSH1 0x1 DUP4 ADD SSTORE PUSH2 0x1A07 JUMP JUMPDEST ADD MLOAD PUSH1 0x0 NOT PUSH1 0xF8 DUP5 PUSH1 0x3 SHL AND SHR NOT AND SWAP1 SSTORE DUP10 DUP1 DUP1 PUSH2 0x1C4A JUMP JUMPDEST DUP3 DUP3 ADD MLOAD DUP5 SSTORE SWAP5 DUP6 ADD SWAP5 PUSH1 0x1 SWAP1 SWAP4 ADD SWAP3 SWAP1 SWAP2 ADD SWAP1 PUSH2 0x1C2D JUMP JUMPDEST DUP4 PUSH2 0x1CC6 SWAP2 PUSH1 0x40 MLOAD DUP1 SWAP4 DUP2 SWAP3 PUSH4 0xA85BD01 PUSH1 0xE1 SHL DUP4 MSTORE CALLER PUSH1 0x4 DUP5 ADD MSTORE PUSH1 0x0 PUSH1 0x24 DUP5 ADD MSTORE DUP8 PUSH1 0x44 DUP5 ADD MSTORE PUSH1 0x80 PUSH1 0x64 DUP5 ADD MSTORE PUSH1 0x84 DUP4 ADD SWAP1 PUSH2 0x20F1 JUMP JUMPDEST SUB DUP2 PUSH1 0x0 PUSH1 0x1 PUSH1 0x1 PUSH1 0xA0 SHL SUB DUP11 AND GAS CALL DUP1 SWAP2 PUSH1 0x0 SWAP2 PUSH2 0x1D8E JUMPI JUMPDEST POP SWAP1 PUSH2 0x1D46 JUMPI POP POP POP RETURNDATASIZE PUSH1 0x0 EQ PUSH2 0x1D3E JUMPI RETURNDATASIZE SWAP1 PUSH2 0x1CFC DUP3 PUSH2 0x21BB JUMP JUMPDEST SWAP2 PUSH2 0x1D0A PUSH1 0x40 MLOAD SWAP4 DUP5 PUSH2 0x2199 JUMP JUMPDEST DUP3 MSTORE RETURNDATASIZE PUSH1 0x0 DUP3 DUP5 ADD RETURNDATACOPY JUMPDEST DUP2 MLOAD SWAP2 DUP3 PUSH2 0x1D3B JUMPI PUSH4 0x32505749 PUSH1 0xE1 SHL PUSH1 0x0 SWAP1 DUP2 MSTORE PUSH1 0x1 PUSH1 0x1 PUSH1 0xA0 SHL SUB DUP6 AND PUSH1 0x4 MSTORE PUSH1 0x24 SWAP1 REVERT JUMPDEST ADD REVERT JUMPDEST PUSH1 0x60 SWAP1 PUSH2 0x1D14 JUMP JUMPDEST SWAP3 SWAP4 SWAP2 SWAP3 SWAP1 SWAP2 SWAP1 PUSH1 0x1 PUSH1 0x1 PUSH1 0xE0 SHL SUB NOT AND PUSH4 0x757A42FF PUSH1 0xE1 SHL ADD PUSH2 0x1D6D JUMPI SWAP3 SWAP2 SWAP1 DUP5 PUSH2 0x190F JUMP JUMPDEST PUSH4 0x32505749 PUSH1 0xE1 SHL PUSH1 0x0 SWAP1 DUP2 MSTORE PUSH1 0x1 PUSH1 0x1 PUSH1 0xA0 SHL SUB SWAP2 SWAP1 SWAP2 AND PUSH1 0x4 MSTORE PUSH1 0x24 SWAP1 REVERT JUMPDEST DUP6 DUP2 DUP2 RETURNDATASIZE DUP4 GT PUSH2 0x1DCC JUMPI JUMPDEST PUSH2 0x1DA3 DUP2 DUP4 PUSH2 0x2199 JUMP JUMPDEST DUP2 ADD SUB SLT PUSH2 0x1DC8 JUMPI MLOAD SWAP1 PUSH1 0x1 PUSH1 0x1 PUSH1 0xE0 SHL SUB NOT DUP3 AND DUP3 SUB PUSH2 0x1DC5 JUMPI POP DUP7 PUSH2 0x1CE0 JUMP JUMPDEST DUP1 REVERT JUMPDEST POP DUP1 REVERT JUMPDEST POP RETURNDATASIZE PUSH2 0x1D99 JUMP JUMPDEST PUSH4 0x39E35637 PUSH1 0xE1 SHL PUSH1 0x0 MSTORE PUSH1 0x0 PUSH1 0x4 MSTORE PUSH1 0x24 PUSH1 0x0 REVERT JUMPDEST PUSH4 0x32505749 PUSH1 0xE1 SHL PUSH1 0x0 MSTORE PUSH1 0x0 PUSH1 0x4 MSTORE PUSH1 0x24 PUSH1 0x0 REVERT JUMPDEST PUSH1 0x40 MLOAD PUSH3 0x461BCD PUSH1 0xE5 SHL DUP2 MSTORE PUSH1 0x20 PUSH1 0x4 DUP3 ADD MSTORE PUSH1 0x1C PUSH1 0x24 DUP3 ADD MSTORE PUSH32 0x486172647761726520616C72656164792068617320612067686F737400000000 PUSH1 0x44 DUP3 ADD MSTORE PUSH1 0x64 SWAP1 REVERT JUMPDEST CALLVALUE PUSH2 0x1CD JUMPI PUSH2 0xBB3 PUSH2 0x1E55 CALLDATASIZE PUSH2 0x2142 JUMP JUMPDEST SWAP2 PUSH2 0x2580 JUMP JUMPDEST CALLVALUE PUSH2 0x1CD JUMPI PUSH1 0x40 CALLDATASIZE PUSH1 0x3 NOT ADD SLT PUSH2 0x1CD JUMPI PUSH2 0x1E74 PUSH2 0x2116 JUMP JUMPDEST PUSH1 0x24 CALLDATALOAD PUSH2 0x1E80 DUP2 PUSH2 0x26D9 JUMP JUMPDEST CALLER ISZERO ISZERO DUP1 PUSH2 0x1F37 JUMPI JUMPDEST DUP1 PUSH2 0x1F09 JUMPI JUMPDEST PUSH2 0x1EF4 JUMPI DUP2 SWAP1 PUSH1 0x1 PUSH1 0x1 PUSH1 0xA0 SHL SUB DUP5 DUP2 AND SWAP2 AND PUSH32 0x8C5BE1E5EBEC7D5BD14F71427D1E84F3DD0314C0F7B2291E5B200AC8C7C3B925 PUSH1 0x0 DUP1 LOG4 PUSH1 0x0 SWAP1 DUP2 MSTORE PUSH1 0x4 PUSH1 0x20 MSTORE PUSH1 0x40 SWAP1 KECCAK256 DUP1 SLOAD PUSH1 0x1 PUSH1 0x1 PUSH1 0xA0 SHL SUB NOT AND PUSH1 0x1 PUSH1 0x1 PUSH1 0xA0 SHL SUB SWAP1 SWAP3 AND SWAP2 SWAP1 SWAP2 OR SWAP1 SSTORE STOP JUMPDEST PUSH4 0xA9FBF51F PUSH1 0xE0 SHL PUSH1 0x0 MSTORE CALLER PUSH1 0x4 MSTORE PUSH1 0x24 PUSH1 0x0 REVERT JUMPDEST POP PUSH1 0x1 PUSH1 0x1 PUSH1 0xA0 SHL SUB DUP2 AND PUSH1 0x0 SWAP1 DUP2 MSTORE PUSH1 0x5 PUSH1 0x20 SWAP1 DUP2 MSTORE PUSH1 0x40 DUP1 DUP4 KECCAK256 CALLER DUP5 MSTORE SWAP1 SWAP2 MSTORE SWAP1 KECCAK256 SLOAD PUSH1 0xFF AND ISZERO PUSH2 0x1E8F JUMP JUMPDEST POP PUSH1 0x1 PUSH1 0x1 PUSH1 0xA0 SHL SUB DUP2 AND CALLER EQ ISZERO PUSH2 0x1E89 JUMP JUMPDEST CALLVALUE PUSH2 0x1CD JUMPI PUSH1 0x20 CALLDATASIZE PUSH1 0x3 NOT ADD SLT PUSH2 0x1CD JUMPI PUSH1 0x4 CALLDATALOAD PUSH2 0x1F67 DUP2 PUSH2 0x26D9 JUMP JUMPDEST POP PUSH1 0x0 MSTORE PUSH1 0x4 PUSH1 0x20 MSTORE PUSH1 0x20 PUSH1 0x1 DUP1 PUSH1 0xA0 SHL SUB PUSH1 0x40 PUSH1 0x0 KECCAK256 SLOAD AND PUSH1 0x40 MLOAD SWAP1 DUP2 MSTORE RETURN JUMPDEST CALLVALUE PUSH2 0x1CD JUMPI PUSH1 0x0 CALLDATASIZE PUSH1 0x3 NOT ADD SLT PUSH2 0x1CD JUMPI PUSH1 0x40 MLOAD PUSH1 0x0 DUP1 SLOAD PUSH2 0x1FA9 DUP2 PUSH2 0x220E JUMP JUMPDEST DUP1 DUP5 MSTORE SWAP1 PUSH1 0x1 DUP2 AND SWAP1 DUP2 ISZERO PUSH2 0xDAD JUMPI POP PUSH1 0x1 EQ PUSH2 0x1FD0 JUMPI PUSH2 0x1C9 DUP4 PUSH2 0x1B5 DUP2 DUP6 SUB DUP3 PUSH2 0x2199 JUMP JUMPDEST PUSH1 0x0 DUP1 DUP1 MSTORE PUSH32 0x290DECD9548B62A8D60345A988386FC84BA6BC95484008F6362F93160EF3E563 SWAP4 SWAP3 POP SWAP1 JUMPDEST DUP1 DUP3 LT PUSH2 0x2013 JUMPI POP SWAP1 SWAP2 POP DUP2 ADD PUSH1 0x20 ADD PUSH2 0x1B5 PUSH2 0xD3E JUMP JUMPDEST SWAP2 SWAP3 PUSH1 0x1 DUP2 PUSH1 0x20 SWAP3 SLOAD DUP4 DUP6 DUP9 ADD ADD MSTORE ADD SWAP2 ADD SWAP1 SWAP3 SWAP2 PUSH2 0x1FFB JUMP JUMPDEST CALLVALUE PUSH2 0x1CD JUMPI PUSH1 0x0 CALLDATASIZE PUSH1 0x3 NOT ADD SLT PUSH2 0x1CD JUMPI PUSH1 0x20 PUSH1 0x40 MLOAD PUSH1 0x2 DUP2 MSTORE RETURN JUMPDEST CALLVALUE PUSH2 0x1CD JUMPI PUSH1 0x20 CALLDATASIZE PUSH1 0x3 NOT ADD SLT PUSH2 0x1CD JUMPI PUSH1 0x4 CALLDATALOAD SWAP1 PUSH4 0xFFFFFFFF PUSH1 0xE0 SHL DUP3 AND DUP1 SWAP3 SUB PUSH2 0x1CD JUMPI PUSH1 0x20 SWAP2 PUSH4 0x24832483 PUSH1 0xE1 SHL DUP2 EQ SWAP1 DUP2 ISZERO PUSH2 0x208B JUMPI JUMPDEST POP ISZERO ISZERO DUP2 MSTORE RETURN JUMPDEST PUSH4 0x80AC58CD PUSH1 0xE0 SHL DUP2 EQ SWAP2 POP DUP2 ISZERO PUSH2 0x20BD JUMPI JUMPDEST DUP2 ISZERO PUSH2 0x20AC JUMPI JUMPDEST POP DUP4 PUSH2 0x2084 JUMP JUMPDEST PUSH4 0x1FFC9A7 PUSH1 0xE0 SHL EQ SWAP1 POP DUP4 PUSH2 0x20A5 JUMP JUMPDEST PUSH4 0x5B5E139F PUSH1 0xE0 SHL DUP2 EQ SWAP2 POP PUSH2 0x209E JUMP JUMPDEST PUSH1 0x0 JUMPDEST DUP4 DUP2 LT PUSH2 0x20E1 JUMPI POP POP PUSH1 0x0 SWAP2 ADD MSTORE JUMP JUMPDEST DUP2 DUP2 ADD MLOAD DUP4 DUP3 ADD MSTORE PUSH1 0x20 ADD PUSH2 0x20D1 JUMP JUMPDEST SWAP1 PUSH1 0x20 SWAP2 PUSH2 0x210A DUP2 MLOAD DUP1 SWAP3 DUP2 DUP6 MSTORE DUP6 DUP1 DUP7 ADD SWAP2 ADD PUSH2 0x20CE JUMP JUMPDEST PUSH1 0x1F ADD PUSH1 0x1F NOT AND ADD ADD SWAP1 JUMP JUMPDEST PUSH1 0x4 CALLDATALOAD SWAP1 PUSH1 0x1 PUSH1 0x1 PUSH1 0xA0 SHL SUB DUP3 AND DUP3 SUB PUSH2 0x1CD JUMPI JUMP JUMPDEST PUSH1 0x24 CALLDATALOAD SWAP1 PUSH1 0x1 PUSH1 0x1 PUSH1 0xA0 SHL SUB DUP3 AND DUP3 SUB PUSH2 0x1CD JUMPI JUMP JUMPDEST PUSH1 0x60 SWAP1 PUSH1 0x3 NOT ADD SLT PUSH2 0x1CD JUMPI PUSH1 0x4 CALLDATALOAD PUSH1 0x1 PUSH1 0x1 PUSH1 0xA0 SHL SUB DUP2 AND DUP2 SUB PUSH2 0x1CD JUMPI SWAP1 PUSH1 0x24 CALLDATALOAD PUSH1 0x1 PUSH1 0x1 PUSH1 0xA0 SHL SUB DUP2 AND DUP2 SUB PUSH2 0x1CD JUMPI SWAP1 PUSH1 0x44 CALLDATALOAD SWAP1 JUMP JUMPDEST PUSH2 0x160 DUP2 ADD SWAP1 DUP2 LT PUSH8 0xFFFFFFFFFFFFFFFF DUP3 GT OR PUSH2 0x1BFA JUMPI PUSH1 0x40 MSTORE JUMP JUMPDEST SWAP1 PUSH1 0x1F DUP1 NOT SWAP2 ADD AND DUP2 ADD SWAP1 DUP2 LT PUSH8 0xFFFFFFFFFFFFFFFF DUP3 GT OR PUSH2 0x1BFA JUMPI PUSH1 0x40 MSTORE JUMP JUMPDEST PUSH8 0xFFFFFFFFFFFFFFFF DUP2 GT PUSH2 0x1BFA JUMPI PUSH1 0x1F ADD PUSH1 0x1F NOT AND PUSH1 0x20 ADD SWAP1 JUMP JUMPDEST SWAP3 SWAP2 SWAP3 PUSH2 0x21E3 DUP3 PUSH2 0x21BB JUMP JUMPDEST SWAP2 PUSH2 0x21F1 PUSH1 0x40 MLOAD SWAP4 DUP5 PUSH2 0x2199 JUMP JUMPDEST DUP3 SWAP5 DUP2 DUP5 MSTORE DUP2 DUP4 ADD GT PUSH2 0x1CD JUMPI DUP3 DUP2 PUSH1 0x20 SWAP4 DUP5 PUSH1 0x0 SWAP7 ADD CALLDATACOPY ADD ADD MSTORE JUMP JUMPDEST SWAP1 PUSH1 0x1 DUP3 DUP2 SHR SWAP3 AND DUP1 ISZERO PUSH2 0x223E JUMPI JUMPDEST PUSH1 0x20 DUP4 LT EQ PUSH2 0x2228 JUMPI JUMP JUMPDEST PUSH4 0x4E487B71 PUSH1 0xE0 SHL PUSH1 0x0 MSTORE PUSH1 0x22 PUSH1 0x4 MSTORE PUSH1 0x24 PUSH1 0x0 REVERT JUMPDEST SWAP2 PUSH1 0x7F AND SWAP2 PUSH2 0x221D JUMP JUMPDEST PUSH1 0xE SLOAD PUSH1 0x0 SWAP3 SWAP2 PUSH2 0x2258 DUP3 PUSH2 0x220E JUMP JUMPDEST DUP1 DUP3 MSTORE SWAP2 PUSH1 0x1 DUP2 AND SWAP1 DUP2 ISZERO PUSH2 0x22CD JUMPI POP PUSH1 0x1 EQ PUSH2 0x2273 JUMPI POP POP JUMP JUMPDEST PUSH1 0xE PUSH1 0x0 SWAP1 DUP2 MSTORE SWAP3 SWAP4 POP SWAP1 SWAP2 SWAP1 PUSH32 0xBB7B4A454DC3493923482F07822329ED19E8244EFF582CC204F8554C3620C3FD JUMPDEST DUP4 DUP4 LT PUSH2 0x22B3 JUMPI POP PUSH1 0x20 SWAP3 POP ADD ADD SWAP1 JUMP JUMPDEST PUSH1 0x1 DUP2 PUSH1 0x20 SWAP3 SWAP5 SWAP4 SWAP5 SLOAD DUP4 DUP6 DUP8 ADD ADD MSTORE ADD SWAP2 ADD SWAP2 SWAP1 PUSH2 0x22A2 JUMP JUMPDEST SWAP1 POP PUSH1 0x20 SWAP4 SWAP5 POP PUSH1 0xFF SWAP3 SWAP2 SWAP3 NOT AND DUP4 DUP4 ADD MSTORE ISZERO ISZERO PUSH1 0x5 SHL ADD ADD SWAP1 JUMP JUMPDEST PUSH1 0x11 SLOAD PUSH1 0x0 SWAP3 SWAP2 PUSH2 0x22F9 DUP3 PUSH2 0x220E JUMP JUMPDEST DUP1 DUP3 MSTORE SWAP2 PUSH1 0x1 DUP2 AND SWAP1 DUP2 ISZERO PUSH2 0x22CD JUMPI POP PUSH1 0x1 EQ PUSH2 0x2314 JUMPI POP POP JUMP JUMPDEST PUSH1 0x11 PUSH1 0x0 SWAP1 DUP2 MSTORE SWAP3 SWAP4 POP SWAP1 SWAP2 SWAP1 PUSH32 0x31ECC21A745E3968A04E9570E4425BC18FA8019C68028196B546D1669C200C68 JUMPDEST DUP4 DUP4 LT PUSH2 0x2354 JUMPI POP PUSH1 0x20 SWAP3 POP ADD ADD SWAP1 JUMP JUMPDEST PUSH1 0x1 DUP2 PUSH1 0x20 SWAP3 SWAP5 SWAP4 SWAP5 SLOAD DUP4 DUP6 DUP8 ADD ADD MSTORE ADD SWAP2 ADD SWAP2 SWAP1 PUSH2 0x2343 JUMP JUMPDEST PUSH1 0x10 SLOAD PUSH1 0x0 SWAP3 SWAP2 PUSH2 0x237E DUP3 PUSH2 0x220E JUMP JUMPDEST DUP1 DUP3 MSTORE SWAP2 PUSH1 0x1 DUP2 AND SWAP1 DUP2 ISZERO PUSH2 0x22CD JUMPI POP PUSH1 0x1 EQ PUSH2 0x2399 JUMPI POP POP JUMP JUMPDEST PUSH1 0x10 PUSH1 0x0 SWAP1 DUP2 MSTORE SWAP3 SWAP4 POP SWAP1 SWAP2 SWAP1 PUSH32 0x1B6847DC741A1B0CD08D278845F9D819D87B734759AFB55FE2DE5CB82A9AE672 JUMPDEST DUP4 DUP4 LT PUSH2 0x23D9 JUMPI POP PUSH1 0x20 SWAP3 POP ADD ADD SWAP1 JUMP JUMPDEST PUSH1 0x1 DUP2 PUSH1 0x20 SWAP3 SWAP5 SWAP4 SWAP5 SLOAD DUP4 DUP6 DUP8 ADD ADD MSTORE ADD SWAP2 ADD SWAP2 SWAP1 PUSH2 0x23C8 JUMP JUMPDEST PUSH1 0xF SLOAD PUSH1 0x0 SWAP3 SWAP2 PUSH2 0x2403 DUP3 PUSH2 0x220E JUMP JUMPDEST DUP1 DUP3 MSTORE SWAP2 PUSH1 0x1 DUP2 AND SWAP1 DUP2 ISZERO PUSH2 0x22CD JUMPI POP PUSH1 0x1 EQ PUSH2 0x241E JUMPI POP POP JUMP JUMPDEST PUSH1 0xF PUSH1 0x0 SWAP1 DUP2 MSTORE SWAP3 SWAP4 POP SWAP1 SWAP2 SWAP1 PUSH32 0x8D1108E10BCB7C27DDDFC02ED9D693A074039D026CF4EA4240B40F7D581AC802 JUMPDEST DUP4 DUP4 LT PUSH2 0x245E JUMPI POP PUSH1 0x20 SWAP3 POP ADD ADD SWAP1 JUMP JUMPDEST PUSH1 0x1 DUP2 PUSH1 0x20 SWAP3 SWAP5 SWAP4 SWAP5 SLOAD DUP4 DUP6 DUP8 ADD ADD MSTORE ADD SWAP2 ADD SWAP2 SWAP1 PUSH2 0x244D JUMP JUMPDEST PUSH1 0xD SLOAD PUSH1 0x0 SWAP3 SWAP2 PUSH2 0x2488 DUP3 PUSH2 0x220E JUMP JUMPDEST DUP1 DUP3 MSTORE SWAP2 PUSH1 0x1 DUP2 AND SWAP1 DUP2 ISZERO PUSH2 0x22CD JUMPI POP PUSH1 0x1 EQ PUSH2 0x24A3 JUMPI POP POP JUMP JUMPDEST PUSH1 0xD PUSH1 0x0 SWAP1 DUP2 MSTORE SWAP3 SWAP4 POP SWAP1 SWAP2 SWAP1 PUSH32 0xD7B6990105719101DABEB77144F2A3385C8033ACD3AF97E9423A695E81AD1EB5 JUMPDEST DUP4 DUP4 LT PUSH2 0x24E3 JUMPI POP PUSH1 0x20 SWAP3 POP ADD ADD SWAP1 JUMP JUMPDEST PUSH1 0x1 DUP2 PUSH1 0x20 SWAP3 SWAP5 SWAP4 SWAP5 SLOAD DUP4 DUP6 DUP8 ADD ADD MSTORE ADD SWAP2 ADD SWAP2 SWAP1 PUSH2 0x24D2 JUMP JUMPDEST PUSH1 0x0 SWAP3 SWAP2 DUP2 SLOAD SWAP2 PUSH2 0x250D DUP4 PUSH2 0x220E JUMP JUMPDEST DUP1 DUP4 MSTORE SWAP3 PUSH1 0x1 DUP2 AND SWAP1 DUP2 ISZERO PUSH2 0x2563 JUMPI POP PUSH1 0x1 EQ PUSH2 0x2529 JUMPI POP POP POP JUMP JUMPDEST PUSH1 0x0 SWAP1 DUP2 MSTORE PUSH1 0x20 DUP2 KECCAK256 SWAP4 SWAP5 POP SWAP2 SWAP3 JUMPDEST DUP4 DUP4 LT PUSH2 0x2549 JUMPI POP PUSH1 0x20 SWAP3 POP ADD ADD SWAP1 JUMP JUMPDEST PUSH1 0x1 DUP2 PUSH1 0x20 SWAP3 SWAP5 SWAP4 SWAP5 SLOAD DUP4 DUP6 DUP8 ADD ADD MSTORE ADD SWAP2 ADD SWAP2 SWAP1 PUSH2 0x2538 JUMP JUMPDEST SWAP2 POP POP PUSH1 0x20 SWAP4 SWAP5 POP PUSH1 0xFF SWAP3 SWAP2 SWAP3 NOT AND DUP4 DUP4 ADD MSTORE ISZERO ISZERO PUSH1 0x5 SHL ADD ADD SWAP1 JUMP JUMPDEST SWAP2 SWAP1 PUSH1 0x1 PUSH1 0x1 PUSH1 0xA0 SHL SUB DUP2 AND ISZERO PUSH2 0x1DE9 JUMPI PUSH2 0x259D SWAP1 DUP3 CALLER SWAP2 PUSH2 0x27DA JUMP JUMPDEST PUSH1 0x1 PUSH1 0x1 PUSH1 0xA0 SHL SUB SWAP1 DUP2 AND SWAP3 AND DUP1 DUP4 SUB PUSH2 0x25B6 JUMPI POP POP POP JUMP JUMPDEST PUSH4 0x64283D7B PUSH1 0xE0 SHL PUSH1 0x0 MSTORE PUSH1 0x4 MSTORE PUSH1 0x24 MSTORE PUSH1 0x44 MSTORE PUSH1 0x64 PUSH1 0x0 REVERT JUMPDEST PUSH1 0x0 NOT DUP2 EQ PUSH2 0x1856 JUMPI PUSH1 0x1 ADD SWAP1 JUMP JUMPDEST PUSH1 0x40 MLOAD SWAP1 PUSH2 0x25EE PUSH1 0x40 DUP4 PUSH2 0x2199 JUMP JUMPDEST PUSH1 0x6 DUP3 MSTORE PUSH6 0x29BAB6B6B2B9 PUSH1 0xD1 SHL PUSH1 0x20 DUP4 ADD MSTORE JUMP JUMPDEST DUP2 DUP2 LT PUSH2 0x260E JUMPI POP POP JUMP JUMPDEST PUSH1 0x0 DUP2 SSTORE PUSH1 0x1 ADD PUSH2 0x2603 JUMP JUMPDEST SWAP1 PUSH1 0x1F DUP2 GT PUSH2 0x2627 JUMPI POP POP JUMP JUMPDEST PUSH2 0x2642 SWAP2 PUSH1 0x0 MSTORE PUSH1 0x1F PUSH1 0x20 PUSH1 0x0 KECCAK256 SWAP2 ADD PUSH1 0x5 SHR DUP2 ADD SWAP1 PUSH2 0x2603 JUMP JUMPDEST JUMP JUMPDEST SWAP2 SWAP1 PUSH1 0x1F DUP2 GT PUSH2 0x2653 JUMPI POP POP POP JUMP JUMPDEST PUSH2 0x2642 SWAP3 PUSH1 0x0 MSTORE PUSH1 0x20 PUSH1 0x0 KECCAK256 SWAP1 PUSH1 0x20 PUSH1 0x1F DUP5 ADD PUSH1 0x5 SHR DUP4 ADD SWAP4 LT PUSH2 0x267F JUMPI JUMPDEST PUSH1 0x1F ADD PUSH1 0x5 SHR ADD SWAP1 PUSH2 0x2603 JUMP JUMPDEST SWAP1 SWAP2 POP DUP2 SWAP1 PUSH2 0x2672 JUMP JUMPDEST ISZERO PUSH2 0x2690 JUMPI JUMP JUMPDEST PUSH1 0x40 MLOAD PUSH3 0x461BCD PUSH1 0xE5 SHL DUP2 MSTORE PUSH1 0x20 PUSH1 0x4 DUP3 ADD MSTORE PUSH1 0x14 PUSH1 0x24 DUP3 ADD MSTORE PUSH20 0x11DA1BDCDD08191BD95CC81B9BDD08195E1A5CDD PUSH1 0x62 SHL PUSH1 0x44 DUP3 ADD MSTORE PUSH1 0x64 SWAP1 REVERT JUMPDEST SWAP2 SWAP1 DUP3 ADD DUP1 SWAP3 GT PUSH2 0x1856 JUMPI JUMP JUMPDEST PUSH1 0x0 DUP2 DUP2 MSTORE PUSH1 0x2 PUSH1 0x20 MSTORE PUSH1 0x40 SWAP1 KECCAK256 SLOAD PUSH1 0x1 PUSH1 0x1 PUSH1 0xA0 SHL SUB AND SWAP1 DUP2 ISZERO PUSH2 0x26FC JUMPI POP SWAP1 JUMP JUMPDEST PUSH4 0x7E273289 PUSH1 0xE0 SHL PUSH1 0x0 MSTORE PUSH1 0x4 MSTORE PUSH1 0x24 PUSH1 0x0 REVERT JUMPDEST PUSH1 0x0 DUP3 DUP2 MSTORE PUSH1 0x2 PUSH1 0x20 MSTORE PUSH1 0x40 SWAP1 KECCAK256 SLOAD PUSH1 0x1 PUSH1 0x1 PUSH1 0xA0 SHL SUB AND ISZERO PUSH2 0x27CE JUMPI DUP2 PUSH1 0x0 MSTORE PUSH1 0x9 PUSH1 0x20 MSTORE PUSH1 0xFF PUSH1 0x6 PUSH1 0x40 PUSH1 0x0 KECCAK256 ADD SLOAD AND DUP1 PUSH2 0x27C6 JUMPI JUMPDEST PUSH2 0x275B JUMPI PUSH2 0x2758 SWAP2 PUSH1 0x0 SWAP2 PUSH2 0x2EA2 JUMP JUMPDEST SWAP1 JUMP JUMPDEST PUSH1 0x40 MLOAD PUSH3 0x461BCD PUSH1 0xE5 SHL DUP2 MSTORE PUSH1 0x20 PUSH1 0x4 DUP3 ADD MSTORE PUSH1 0x37 PUSH1 0x24 DUP3 ADD MSTORE PUSH32 0x47686F737420697320736F756C626F756E6420746F206861726477617265202D PUSH1 0x44 DUP3 ADD MSTORE PUSH32 0x20757365207472616E7366657248617264776172652829000000000000000000 PUSH1 0x64 DUP3 ADD MSTORE PUSH1 0x84 SWAP1 REVERT JUMPDEST POP PUSH1 0x1 PUSH2 0x2748 JUMP JUMPDEST PUSH2 0x2758 SWAP2 PUSH1 0x0 SWAP2 PUSH2 0x2EA2 JUMP JUMPDEST PUSH1 0x0 DUP3 DUP2 MSTORE PUSH1 0x2 PUSH1 0x20 MSTORE PUSH1 0x40 SWAP1 KECCAK256 SLOAD SWAP1 SWAP3 SWAP2 SWAP1 PUSH1 0x1 PUSH1 0x1 PUSH1 0xA0 SHL SUB AND ISZERO PUSH2 0x282B JUMPI DUP1 PUSH1 0x0 MSTORE PUSH1 0x9 PUSH1 0x20 MSTORE PUSH1 0xFF PUSH1 0x6 PUSH1 0x40 PUSH1 0x0 KECCAK256 ADD SLOAD AND DUP1 PUSH2 0x2823 JUMPI JUMPDEST PUSH2 0x275B JUMPI PUSH2 0x2758 SWAP3 PUSH2 0x2EA2 JUMP JUMPDEST POP PUSH1 0x1 PUSH2 0x2816 JUMP JUMPDEST PUSH2 0x2758 SWAP3 PUSH2 0x2EA2 JUMP JUMPDEST PUSH1 0x7 SLOAD PUSH1 0x1 PUSH1 0x1 PUSH1 0xA0 SHL SUB AND CALLER SUB PUSH2 0x2848 JUMPI JUMP JUMPDEST PUSH4 0x118CDAA7 PUSH1 0xE0 SHL PUSH1 0x0 MSTORE CALLER PUSH1 0x4 MSTORE PUSH1 0x24 PUSH1 0x0 REVERT JUMPDEST SWAP2 SWAP1 SWAP2 DUP1 PUSH1 0x0 MSTORE PUSH1 0x6 PUSH1 0x20 MSTORE PUSH1 0x40 PUSH1 0x0 KECCAK256 DUP4 MLOAD PUSH8 0xFFFFFFFFFFFFFFFF DUP2 GT PUSH2 0x1BFA JUMPI PUSH2 0x2893 DUP2 PUSH2 0x288D DUP5 SLOAD PUSH2 0x220E JUMP JUMPDEST DUP5 PUSH2 0x2644 JUMP JUMPDEST PUSH1 0x20 PUSH1 0x1F DUP3 GT PUSH1 0x1 EQ PUSH2 0x28FB JUMPI SWAP1 DUP1 PUSH1 0x20 SWAP5 SWAP4 SWAP3 PUSH32 0xF8E1A15ABA9398E019F0B49DF1A4FDE98EE17AE345CB5F6B5E2C27F5033E8CE7 SWAP7 SWAP8 PUSH1 0x0 SWAP3 PUSH2 0x28F0 JUMPI JUMPDEST POP POP DUP2 PUSH1 0x1 SHL SWAP2 PUSH1 0x0 NOT SWAP1 PUSH1 0x3 SHL SHR NOT AND OR SWAP1 SSTORE JUMPDEST PUSH1 0x40 MLOAD SWAP1 DUP2 MSTORE LOG1 JUMP JUMPDEST ADD MLOAD SWAP1 POP CODESIZE DUP1 PUSH2 0x28D2 JUMP JUMPDEST PUSH1 0x1F NOT DUP3 AND SWAP6 DUP4 PUSH1 0x0 MSTORE DUP2 PUSH1 0x0 KECCAK256 SWAP7 PUSH1 0x0 JUMPDEST DUP2 DUP2 LT PUSH2 0x296F JUMPI POP SWAP7 PUSH1 0x1 SWAP3 DUP5 SWAP3 PUSH1 0x20 SWAP8 SWAP7 SWAP6 PUSH32 0xF8E1A15ABA9398E019F0B49DF1A4FDE98EE17AE345CB5F6B5E2C27F5033E8CE7 SWAP10 SWAP11 LT PUSH2 0x2956 JUMPI JUMPDEST POP POP POP DUP2 SHL ADD SWAP1 SSTORE PUSH2 0x28E7 JUMP JUMPDEST ADD MLOAD PUSH1 0x0 NOT PUSH1 0xF8 DUP5 PUSH1 0x3 SHL AND SHR NOT AND SWAP1 SSTORE CODESIZE DUP1 DUP1 PUSH2 0x2949 JUMP JUMPDEST DUP4 DUP4 ADD MLOAD DUP10 SSTORE PUSH1 0x1 SWAP1 SWAP9 ADD SWAP8 PUSH1 0x20 SWAP4 DUP5 ADD SWAP4 ADD PUSH2 0x290D JUMP JUMPDEST DUP3 EXTCODESIZE PUSH2 0x2995 JUMPI JUMPDEST POP POP POP POP POP JUMP JUMPDEST PUSH1 0x40 MLOAD PUSH4 0xA85BD01 PUSH1 0xE1 SHL DUP2 MSTORE PUSH1 0x1 PUSH1 0x1 PUSH1 0xA0 SHL SUB SWAP2 DUP3 AND PUSH1 0x4 DUP3 ADD MSTORE SWAP2 DUP2 AND PUSH1 0x24 DUP4 ADD MSTORE PUSH1 0x44 DUP3 ADD SWAP4 SWAP1 SWAP4 MSTORE PUSH1 0x80 PUSH1 0x64 DUP3 ADD MSTORE SWAP2 AND SWAP2 PUSH1 0x20 SWAP1 DUP3 SWAP1 DUP2 SWAP1 PUSH2 0x29E1 SWAP1 PUSH1 0x84 DUP4 ADD SWAP1 PUSH2 0x20F1 JUMP JUMPDEST SUB DUP2 PUSH1 0x0 DUP7 GAS CALL DUP1 SWAP2 PUSH1 0x0 SWAP2 PUSH2 0x2A81 JUMPI JUMPDEST POP SWAP1 PUSH2 0x2A4B JUMPI POP RETURNDATASIZE ISZERO PUSH2 0x2A44 JUMPI RETURNDATASIZE PUSH2 0x2A09 DUP2 PUSH2 0x21BB JUMP JUMPDEST SWAP1 PUSH2 0x2A17 PUSH1 0x40 MLOAD SWAP3 DUP4 PUSH2 0x2199 JUMP JUMPDEST DUP2 MSTORE RETURNDATASIZE PUSH1 0x0 PUSH1 0x20 DUP4 ADD RETURNDATACOPY JUMPDEST DUP1 MLOAD SWAP1 DUP2 PUSH2 0x2A3F JUMPI DUP3 PUSH4 0x32505749 PUSH1 0xE1 SHL PUSH1 0x0 MSTORE PUSH1 0x4 MSTORE PUSH1 0x24 PUSH1 0x0 REVERT JUMPDEST PUSH1 0x20 ADD REVERT JUMPDEST PUSH1 0x60 PUSH2 0x2A22 JUMP JUMPDEST PUSH1 0x1 PUSH1 0x1 PUSH1 0xE0 SHL SUB NOT AND PUSH4 0x757A42FF PUSH1 0xE1 SHL ADD PUSH2 0x2A6D JUMPI POP CODESIZE DUP1 DUP1 DUP1 DUP1 PUSH2 0x298E JUMP JUMPDEST PUSH4 0x32505749 PUSH1 0xE1 SHL PUSH1 0x0 MSTORE PUSH1 0x4 MSTORE PUSH1 0x24 PUSH1 0x0 REVERT JUMPDEST PUSH1 0x20 DUP2 RETURNDATASIZE PUSH1 0x20 GT PUSH2 0x2ABC JUMPI JUMPDEST DUP2 PUSH2 0x2A9A PUSH1 0x20 SWAP4 DUP4 PUSH2 0x2199 JUMP JUMPDEST DUP2 ADD SUB SLT PUSH2 0x1DC8 JUMPI MLOAD SWAP1 PUSH1 0x1 PUSH1 0x1 PUSH1 0xE0 SHL SUB NOT DUP3 AND DUP3 SUB PUSH2 0x1DC5 JUMPI POP CODESIZE PUSH2 0x29F2 JUMP JUMPDEST RETURNDATASIZE SWAP2 POP PUSH2 0x2A8D JUMP JUMPDEST PUSH1 0x40 MLOAD SWAP1 PUSH2 0x2AD3 PUSH1 0x40 DUP4 PUSH2 0x2199 JUMP JUMPDEST PUSH1 0x6 DUP3 MSTORE PUSH6 0x537072696E67 PUSH1 0xD0 SHL PUSH1 0x20 DUP4 ADD MSTORE JUMP JUMPDEST PUSH1 0x40 MLOAD SWAP1 PUSH2 0x2AF7 PUSH1 0x40 DUP4 PUSH2 0x2199 JUMP JUMPDEST PUSH1 0x4 DUP3 MSTORE PUSH4 0x11985B1B PUSH1 0xE2 SHL PUSH1 0x20 DUP4 ADD MSTORE JUMP JUMPDEST PUSH1 0x40 MLOAD SWAP1 PUSH2 0x2B19 PUSH1 0x40 DUP4 PUSH2 0x2199 JUMP JUMPDEST PUSH1 0x6 DUP3 MSTORE PUSH6 0x2BB4B73A32B9 PUSH1 0xD1 SHL PUSH1 0x20 DUP4 ADD MSTORE JUMP JUMPDEST DUP1 MLOAD SWAP1 PUSH1 0x20 DUP2 ADD SWAP2 DUP3 KECCAK256 PUSH2 0x2B40 PUSH2 0x2AC4 JUMP JUMPDEST PUSH1 0x20 DUP2 MLOAD SWAP2 ADD KECCAK256 EQ PUSH2 0x2BD7 JUMPI DUP1 MLOAD DUP3 KECCAK256 PUSH2 0x2B58 PUSH2 0x25DF JUMP JUMPDEST PUSH1 0x20 DUP2 MLOAD SWAP2 ADD KECCAK256 EQ PUSH2 0x2BC5 JUMPI DUP1 MLOAD DUP3 KECCAK256 PUSH2 0x2B70 PUSH2 0x2AE8 JUMP JUMPDEST PUSH1 0x20 DUP2 MLOAD SWAP2 ADD KECCAK256 EQ PUSH2 0x2BB3 JUMPI MLOAD SWAP1 KECCAK256 PUSH2 0x2B87 PUSH2 0x2B0A JUMP JUMPDEST PUSH1 0x20 DUP2 MLOAD SWAP2 ADD KECCAK256 EQ PUSH2 0x2BA3 JUMPI PUSH1 0x40 MLOAD PUSH2 0x2758 DUP2 PUSH2 0x1AE DUP2 PUSH2 0x22E9 JUMP JUMPDEST PUSH1 0x40 MLOAD PUSH2 0x2758 DUP2 PUSH2 0x1AE DUP2 PUSH2 0x236E JUMP JUMPDEST POP POP PUSH1 0x40 MLOAD PUSH2 0x2758 DUP2 PUSH2 0x1AE DUP2 PUSH2 0x23F3 JUMP JUMPDEST POP POP PUSH1 0x40 MLOAD PUSH2 0x2758 DUP2 PUSH2 0x1AE DUP2 PUSH2 0x2248 JUMP JUMPDEST POP POP PUSH1 0x40 MLOAD PUSH2 0x2758 DUP2 PUSH2 0x1AE DUP2 PUSH2 0x2478 JUMP JUMPDEST DUP1 MLOAD SWAP1 PUSH1 0x20 DUP2 ADD SWAP2 DUP3 KECCAK256 PUSH2 0x2BFB PUSH2 0x2AC4 JUMP JUMPDEST PUSH1 0x20 DUP2 MLOAD SWAP2 ADD KECCAK256 EQ PUSH2 0x2CFA JUMPI DUP1 MLOAD DUP3 KECCAK256 PUSH2 0x2C13 PUSH2 0x25DF JUMP JUMPDEST PUSH1 0x20 DUP2 MLOAD SWAP2 ADD KECCAK256 EQ PUSH2 0x2CCE JUMPI DUP1 MLOAD DUP3 KECCAK256 PUSH2 0x2C2B PUSH2 0x2AE8 JUMP JUMPDEST PUSH1 0x20 DUP2 MLOAD SWAP2 ADD KECCAK256 EQ PUSH2 0x2CA2 JUMPI MLOAD SWAP1 KECCAK256 PUSH2 0x2C42 PUSH2 0x2B0A JUMP JUMPDEST PUSH1 0x20 DUP2 MLOAD SWAP2 ADD KECCAK256 EQ PUSH2 0x2C78 JUMPI PUSH1 0x40 MLOAD PUSH2 0x2C5C PUSH1 0x40 DUP3 PUSH2 0x2199 JUMP JUMPDEST PUSH1 0xC DUP2 MSTORE PUSH12 0x2E3A991B19182E3AA3229823 PUSH1 0xA1 SHL PUSH1 0x20 DUP3 ADD MSTORE SWAP1 JUMP JUMPDEST PUSH1 0x40 MLOAD PUSH2 0x2C86 PUSH1 0x40 DUP3 PUSH2 0x2199 JUMP JUMPDEST PUSH1 0xC DUP2 MSTORE PUSH12 0x2E3A991B9A1A2E3AA3229823 PUSH1 0xA1 SHL PUSH1 0x20 DUP3 ADD MSTORE SWAP1 JUMP JUMPDEST POP POP PUSH1 0x40 MLOAD PUSH2 0x2CB2 PUSH1 0x40 DUP3 PUSH2 0x2199 JUMP JUMPDEST PUSH1 0xC DUP2 MSTORE PUSH12 0x2E3AA21C19A1AE3AA2231A19 PUSH1 0xA1 SHL PUSH1 0x20 DUP3 ADD MSTORE SWAP1 JUMP JUMPDEST POP POP PUSH1 0x40 MLOAD PUSH2 0x2CDE PUSH1 0x40 DUP3 PUSH2 0x2199 JUMP JUMPDEST PUSH1 0xC DUP2 MSTORE PUSH12 0x2E3A991B18182E3AA3229823 PUSH1 0xA1 SHL PUSH1 0x20 DUP3 ADD MSTORE SWAP1 JUMP JUMPDEST POP POP PUSH1 0x40 MLOAD PUSH2 0x2D0A PUSH1 0x40 DUP3 PUSH2 0x2199 JUMP JUMPDEST PUSH1 0xC DUP2 MSTORE PUSH12 0xB8EA88706686B8EA888C667 PUSH1 0xA3 SHL PUSH1 0x20 DUP3 ADD MSTORE SWAP1 JUMP JUMPDEST SWAP1 PUSH2 0x2D30 DUP3 PUSH2 0x21BB JUMP JUMPDEST PUSH2 0x2D3D PUSH1 0x40 MLOAD SWAP2 DUP3 PUSH2 0x2199 JUMP JUMPDEST DUP3 DUP2 MSTORE DUP1 SWAP3 PUSH2 0x2D4E PUSH1 0x1F NOT SWAP2 PUSH2 0x21BB JUMP JUMPDEST ADD SWAP1 PUSH1 0x20 CALLDATASIZE SWAP2 ADD CALLDATACOPY JUMP JUMPDEST DUP1 PUSH1 0x0 SWAP2 PUSH19 0x184F03E93FF9F4DAA797ED6E38ED64BF6A1F01 PUSH1 0x40 SHL DUP3 LT ISZERO PUSH2 0x2E7F JUMPI JUMPDEST DUP1 PUSH14 0x4EE2D6D415B85ACEF8100000000 PUSH1 0xA SWAP3 LT ISZERO PUSH2 0x2E64 JUMPI JUMPDEST PUSH7 0x2386F26FC10000 DUP2 LT ISZERO PUSH2 0x2E50 JUMPI JUMPDEST PUSH4 0x5F5E100 DUP2 LT ISZERO PUSH2 0x2E3F JUMPI JUMPDEST PUSH2 0x2710 DUP2 LT ISZERO PUSH2 0x2E30 JUMPI JUMPDEST PUSH1 0x64 DUP2 LT ISZERO PUSH2 0x2E22 JUMPI JUMPDEST LT ISZERO PUSH2 0x2E17 JUMPI JUMPDEST PUSH1 0xA PUSH1 0x21 PUSH2 0x2DDE PUSH1 0x1 DUP6 ADD PUSH2 0x2D26 JUMP JUMPDEST SWAP4 DUP5 ADD ADD JUMPDEST PUSH1 0x0 NOT ADD SWAP2 PUSH16 0x181899199A1A9B1B9C1CB0B131B232B3 PUSH1 0x81 SHL DUP3 DUP3 MOD BYTE DUP4 MSTORE8 DIV DUP1 ISZERO PUSH2 0x2E12 JUMPI PUSH1 0xA SWAP1 SWAP2 PUSH2 0x2DE3 JUMP JUMPDEST POP POP SWAP1 JUMP JUMPDEST PUSH1 0x1 SWAP1 SWAP2 ADD SWAP1 PUSH2 0x2DCE JUMP JUMPDEST PUSH1 0x64 PUSH1 0x2 SWAP2 DIV SWAP4 ADD SWAP3 PUSH2 0x2DC7 JUMP JUMPDEST PUSH2 0x2710 PUSH1 0x4 SWAP2 DIV SWAP4 ADD SWAP3 PUSH2 0x2DBD JUMP JUMPDEST PUSH4 0x5F5E100 PUSH1 0x8 SWAP2 DIV SWAP4 ADD SWAP3 PUSH2 0x2DB2 JUMP JUMPDEST PUSH7 0x2386F26FC10000 PUSH1 0x10 SWAP2 DIV SWAP4 ADD SWAP3 PUSH2 0x2DA5 JUMP JUMPDEST PUSH14 0x4EE2D6D415B85ACEF8100000000 PUSH1 0x20 SWAP2 DIV SWAP4 ADD SWAP3 PUSH2 0x2D95 JUMP JUMPDEST POP PUSH1 0x40 SWAP2 POP PUSH19 0x184F03E93FF9F4DAA797ED6E38ED64BF6A1F01 PUSH1 0x40 SHL DUP2 DIV PUSH2 0x2D7B JUMP JUMPDEST PUSH1 0x0 DUP3 DUP2 MSTORE PUSH1 0x2 PUSH1 0x20 MSTORE PUSH1 0x40 SWAP1 KECCAK256 SLOAD PUSH1 0x1 PUSH1 0x1 PUSH1 0xA0 SHL SUB SWAP1 DUP2 AND SWAP4 AND DUP1 ISZERO ISZERO DUP1 PUSH2 0x2F84 JUMPI JUMPDEST POP POP DUP3 PUSH2 0x2F46 JUMPI JUMPDEST PUSH1 0x1 PUSH1 0x1 PUSH1 0xA0 SHL SUB AND DUP1 PUSH2 0x2F2C JUMPI JUMPDEST DUP2 PUSH1 0x0 MSTORE PUSH1 0x2 PUSH1 0x20 MSTORE PUSH1 0x40 PUSH1 0x0 KECCAK256 DUP2 PUSH12 0xFFFFFFFFFFFFFFFFFFFFFFFF PUSH1 0xA0 SHL DUP3 SLOAD AND OR SWAP1 SSTORE DUP3 PUSH32 0xDDF252AD1BE2C89B69C2B068FC378DAA952BA7F163C4A11628F55A4DF523B3EF PUSH1 0x0 DUP1 LOG4 SWAP1 JUMP JUMPDEST DUP1 PUSH1 0x0 MSTORE PUSH1 0x3 PUSH1 0x20 MSTORE PUSH1 0x40 PUSH1 0x0 KECCAK256 PUSH1 0x1 DUP2 SLOAD ADD SWAP1 SSTORE PUSH2 0x2EDE JUMP JUMPDEST DUP2 PUSH1 0x0 MSTORE PUSH1 0x4 PUSH1 0x20 MSTORE PUSH1 0x40 PUSH1 0x0 KECCAK256 PUSH12 0xFFFFFFFFFFFFFFFFFFFFFFFF PUSH1 0xA0 SHL DUP2 SLOAD AND SWAP1 SSTORE DUP3 PUSH1 0x0 MSTORE PUSH1 0x3 PUSH1 0x20 MSTORE PUSH1 0x40 PUSH1 0x0 KECCAK256 PUSH1 0x0 NOT DUP2 SLOAD ADD SWAP1 SSTORE PUSH2 0x2ECF JUMP JUMPDEST DUP1 PUSH2 0x2FC8 JUMPI JUMPDEST ISZERO PUSH2 0x2F95 JUMPI DUP1 PUSH2 0x2EC7 JUMP JUMPDEST SWAP1 POP DUP3 PUSH2 0x2FB1 JUMPI POP PUSH4 0x7E273289 PUSH1 0xE0 SHL PUSH1 0x0 MSTORE PUSH1 0x4 MSTORE PUSH1 0x24 PUSH1 0x0 REVERT JUMPDEST PUSH4 0x177E802F PUSH1 0xE0 SHL PUSH1 0x0 MSTORE PUSH1 0x4 MSTORE PUSH1 0x24 MSTORE PUSH1 0x44 PUSH1 0x0 REVERT JUMPDEST POP DUP1 DUP5 EQ DUP1 ISZERO PUSH2 0x2FF8 JUMPI JUMPDEST DUP1 PUSH2 0x2F8A JUMPI POP PUSH1 0x0 DUP4 DUP2 MSTORE PUSH1 0x4 PUSH1 0x20 MSTORE PUSH1 0x40 SWAP1 KECCAK256 SLOAD PUSH1 0x1 PUSH1 0x1 PUSH1 0xA0 SHL SUB AND DUP2 EQ PUSH2 0x2F8A JUMP JUMPDEST POP DUP4 PUSH1 0x0 MSTORE PUSH1 0x5 PUSH1 0x20 MSTORE PUSH1 0x40 PUSH1 0x0 KECCAK256 DUP2 PUSH1 0x0 MSTORE PUSH1 0x20 MSTORE PUSH1 0xFF PUSH1 0x40 PUSH1 0x0 KECCAK256 SLOAD AND PUSH2 0x2FD3 JUMP JUMPDEST SWAP2 SWAP1 SWAP2 DUP1 MLOAD ISZERO PUSH2 0x3100 JUMPI DUP1 MLOAD PUSH1 0x2 DUP2 ADD DUP1 SWAP2 GT PUSH2 0x1856 JUMPI PUSH1 0x3 SWAP1 DIV PUSH1 0x2 DUP2 SWAP1 SHL SWAP1 PUSH1 0x1 PUSH1 0x1 PUSH1 0xFE SHL SUB DUP2 AND SUB PUSH2 0x1856 JUMPI PUSH2 0x3055 SWAP1 PUSH2 0x2D26 JUMP JUMPDEST SWAP1 PUSH1 0x20 DUP3 ADD SWAP1 DUP1 DUP2 MLOAD DUP3 ADD SWAP6 PUSH1 0x20 DUP8 ADD SWAP1 DUP2 MLOAD SWAP3 PUSH1 0x0 DUP4 MSTORE JUMPDEST DUP9 DUP2 LT PUSH2 0x30B2 JUMPI POP POP PUSH1 0x3 SWAP4 SWAP5 SWAP6 SWAP7 POP MSTORE MLOAD MOD DUP1 PUSH1 0x1 EQ PUSH2 0x309F JUMPI PUSH1 0x2 EQ PUSH2 0x3094 JUMPI POP SWAP1 JUMP JUMPDEST PUSH1 0x3D SWAP1 PUSH1 0x0 NOT ADD MSTORE8 SWAP1 JUMP JUMPDEST POP PUSH1 0x3D SWAP1 DUP2 PUSH1 0x0 NOT DUP3 ADD MSTORE8 PUSH1 0x1 NOT ADD MSTORE8 SWAP1 JUMP JUMPDEST PUSH1 0x3 PUSH1 0x4 SWAP2 SWAP10 SWAP7 SWAP10 ADD SWAP9 PUSH1 0x1 PUSH1 0x3F DUP12 MLOAD DUP3 DUP3 DUP3 PUSH1 0x12 SHR AND DUP8 ADD ADD MLOAD DUP5 MSTORE8 DUP3 DUP3 DUP3 PUSH1 0xC SHR AND DUP8 ADD ADD MLOAD DUP4 DUP6 ADD MSTORE8 DUP3 DUP3 DUP3 PUSH1 0x6 SHR AND DUP8 ADD ADD MLOAD PUSH1 0x2 DUP6 ADD MSTORE8 AND DUP5 ADD ADD MLOAD PUSH1 0x3 DUP3 ADD MSTORE8 ADD SWAP5 SWAP8 PUSH2 0x306E JUMP JUMPDEST POP SWAP1 POP PUSH1 0x40 MLOAD PUSH2 0x3111 PUSH1 0x20 DUP3 PUSH2 0x2199 JUMP JUMPDEST PUSH1 0x0 DUP2 MSTORE SWAP1 JUMP INVALID LOG2 PUSH5 0x6970667358 0x22 SLT KECCAK256 BLOCKHASH PUSH13 0xE907953F7D307EBB5A1C9276BE 0x4E 0xDF SWAP11 PUSH9 0xC105E1C11CEA4130F7 0x2E EXP SWAP10 0xE2 PUSH5 0x736F6C6343 STOP ADDMOD SHL STOP CALLER "},"methodIdentifiers":{"CLEAN_HEAL_RATE()":"05f9d9cb","DIRTY_DAMAGE_RATE()":"5f5ac283","STREAK_BONUS()":"bcf64475","approve(address,uint256)":"095ea7b3","balanceOf(address)":"70a08231","deadGhostURI()":"b6ccebcf","deviceToToken(address)":"3f73ae72","fallGhostURI()":"d93767ea","getApproved(uint256)":"081812fc","getGhost(uint256)":"d5b8d468","getGhostHistory(uint256)":"46a479e5","ghosts(uint256)":"56520a17","hardwareRegistered(bytes32)":"a24a5271","hardwareToToken(bytes32)":"acdfd1b3","isApprovedForAll(address,address)":"e985e9c5","mintGhost(address,address,bytes32)":"2c1495b6","name()":"06fdde03","owner()":"8da5cb5b","ownerOf(uint256)":"6352211e","renounceOwnership()":"715018a6","safeTransferFrom(address,address,uint256)":"42842e0e","safeTransferFrom(address,address,uint256,bytes)":"b88d4fde","setApprovalForAll(address,bool)":"a22cb465","springGhostURI()":"74f3c3fc","summerGhostURI()":"f6dc74bd","supportsInterface(bytes4)":"01ffc9a7","symbol()":"95d89b41","tokenURI(uint256)":"c87b56dd","transferFrom(address,address,uint256)":"23b872dd","transferHardware(uint256,address)":"817efdce","transferOwnership(address)":"f2fde38b","updateGhost(uint256,string)":"2dac3960","winterGhostURI()":"af57a555"}}}}}