{"contracts/GameLogic.sol":{"GameLogic":{"abi":[{"inputs":[{"internalType":"address","name":"_nftContract","type":"address"}],"stateMutability":"nonpayable","type":"constructor"},{"anonymous":false,"inputs":[{"indexed":true,"internalType":"address","name":"user","type":"address"},{"indexed":false,"internalType":"uint256","name":"slashAmount","type":"uint256"},{"indexed":false,"internalType":"uint256","name":"remaining","type":"uint256"}],"name":"DeathSlash","type":"event"},{"anonymous":false,"inputs":[{"indexed":true,"internalType":"address","name":"user","type":"address"},{"indexed":false,"internalType":"uint256","name":"amount","type":"uint256"}],"name":"Deposited","type":"event"},{"anonymous":false,"inputs":[{"indexed":true,"internalType":"address","name":"user","type":"address"},{"indexed":false,"internalType":"uint256","name":"credits","type":"uint256"}],"name":"GreenCreditEarned","type":"event"},{"anonymous":false,"inputs":[{"indexed":true,"internalType":"address","name":"user","type":"address"},{"indexed":false,"internalType":"uint256","name":"amount","type":"uint256"},{"indexed":false,"internalType":"uint256","name":"newHealth","type":"uint256"}],"name":"Penalized","type":"event"},{"anonymous":false,"inputs":[{"indexed":true,"internalType":"address","name":"user","type":"address"},{"indexed":false,"internalType":"uint256","name":"amount","type":"uint256"},{"indexed":false,"internalType":"uint256","name":"newHealth","type":"uint256"}],"name":"Rewarded","type":"event"},{"inputs":[],"name":"CLEAN_REWARD","outputs":[{"internalType":"uint256","name":"","type":"uint256"}],"stateMutability":"view","type":"function"},{"inputs":[],"name":"DEATH_SLASH","outputs":[{"internalType":"uint256","name":"","type":"uint256"}],"stateMutability":"view","type":"function"},{"inputs":[],"name":"DEPOSIT_AMOUNT","outputs":[{"internalType":"uint256","name":"","type":"uint256"}],"stateMutability":"view","type":"function"},{"inputs":[],"name":"DIRTY_PENALTY","outputs":[{"internalType":"uint256","name":"","type":"uint256"}],"stateMutability":"view","type":"function"},{"inputs":[],"name":"burnAddress","outputs":[{"internalType":"address","name":"","type":"address"}],"stateMutability":"view","type":"function"},{"inputs":[],"name":"deposit","outputs":[],"stateMutability":"payable","type":"function"},{"inputs":[{"internalType":"address","name":"","type":"address"}],"name":"deposits","outputs":[{"internalType":"uint256","name":"","type":"uint256"}],"stateMutability":"view","type":"function"},{"inputs":[{"internalType":"address","name":"user","type":"address"}],"name":"getDeposit","outputs":[{"internalType":"uint256","name":"","type":"uint256"}],"stateMutability":"view","type":"function"},{"inputs":[{"internalType":"address","name":"user","type":"address"}],"name":"getGreenCredits","outputs":[{"internalType":"uint256","name":"","type":"uint256"}],"stateMutability":"view","type":"function"},{"inputs":[{"internalType":"address","name":"user","type":"address"}],"name":"getLifetimeStats","outputs":[{"internalType":"uint256","name":"totalRewards","type":"uint256"},{"internalType":"uint256","name":"totalPenalties","type":"uint256"},{"internalType":"uint256","name":"netChange","type":"uint256"}],"stateMutability":"view","type":"function"},{"inputs":[{"internalType":"address","name":"","type":"address"}],"name":"greenCredits","outputs":[{"internalType":"uint256","name":"","type":"uint256"}],"stateMutability":"view","type":"function"},{"inputs":[{"internalType":"address","name":"","type":"address"}],"name":"lifetimePenalties","outputs":[{"internalType":"uint256","name":"","type":"uint256"}],"stateMutability":"view","type":"function"},{"inputs":[{"internalType":"address","name":"","type":"address"}],"name":"lifetimeRewards","outputs":[{"internalType":"uint256","name":"","type":"uint256"}],"stateMutability":"view","type":"function"},{"inputs":[],"name":"nftContract","outputs":[{"internalType":"contract CarbonGhostNFT","name":"","type":"address"}],"stateMutability":"view","type":"function"},{"inputs":[{"internalType":"address","name":"device","type":"address"},{"internalType":"uint256","name":"tokenId","type":"uint256"},{"internalType":"string","name":"gridStatus","type":"string"}],"name":"processReading","outputs":[],"stateMutability":"nonpayable","type":"function"},{"inputs":[],"name":"withdraw","outputs":[],"stateMutability":"nonpayable","type":"function"},{"stateMutability":"payable","type":"receive"}],"evm":{"bytecode":{"linkReferences":{},"object":"608034608057601f610cae38819003918201601f19168301916001600160401b03831184841017608557808492602094604052833981010312608057516001600160a01b03811690819003608057600180546001600160a01b031990811661dead1790915560008054909116919091179055604051610c12908161009c8239f35b600080fd5b634e487b7160e01b600052604160045260246000fdfe6080806040526004361015610025575b50361561001b57600080fd5b610023610a8e565b005b600090813560e01c9081630d558963146109e5575080631d336d62146109ac578063219783fa146109735780633ccfd60b146108e757806340204175146108c55780636188d33c1461088c57806370d5ae0514610863578063abf84b4c146107de578063d0e30db0146107c7578063d24c1a58146107a5578063d565a7e814610782578063d56d229d1461075b578063e1254fba14610733578063ec0dae441461013c578063ec6925a7146101195763fc7e286d0361000f5734610116576020366003190112610116576020906040906001600160a01b03610105610a1f565b168152600283522054604051908152f35b80fd5b50346101165780600319360112610116576020604051670de0b6b3a76400008152f35b503461011657606036600319011261011657610156610a1f565b60443560243567ffffffffffffffff821161072f573660238301121561072f578160040135928461018685610a72565b936101946040519586610a3a565b8585526020850195366024828401011161072b57806024602093018837850101526001600160a01b031680855260026020526040852054909390156106f35784546040516346a479e560e01b81526004810184905291906001600160a01b03168683602481845afa9283156106c25787936106d1575b50803b156106cd5786604051809263016d61cb60e51b82528660048301526040602483015281836064828b51806044830152610249818484018c610b39565b601f01601f191681010301925af180156106c2576106ae575b5085546040516346a479e560e01b815260048101949094528690849060249082906001600160a01b03165afa9283156106a3578693610679575b5083518120936040946005602087516102b58982610a3a565b828152016421a622a0a760d91b815220146000146103a35750505082845260036020528184208054906001820180921161038f5755828452600260205281842080549066071afd498d0000820180921161038f5755828452600460205281842080549066071afd498d0000820180921161038f577f291e8ba3c0f4b0bd86e6e2346fcee1e7ca0975b1cc1886bfbc722d34f3f24d91846020947f76f10ca8c358f7390980f1f782ea1fe0a685799d64cc7d11fbb819169914d42b969488945581519066071afd498d0000825286820152a25160018152a280f35b634e487b7160e01b86526011600452602486fd5b9493945190206005602086516103b98882610a3a565b8281520164444952545960d81b815220146103d6575b5050505080f35b151580610671575b15610562575080835260026020528183205467016345785d8a0000116104df578083526002602052818320805467016345785d89ffff198101919082116104cb57558280808067016345785d8a000060018060a01b036001541682f1156104c0578083526002602052807fd2043e0c3662c63a47fc7431ec4b749a691a5bd6665e9d799d6908480b7d94e1838086205481519067016345785d8a000082526020820152a25b82526005602052812080549067016345785d8a000082018092116104ac57555b388080806103cf565b634e487b7160e01b83526011600452602483fd5b5051903d90823e3d90fd5b634e487b7160e01b85526011600452602485fd5b8083526002602052818084205482855260026020528482812055848080808460018060a01b0360015416828215610559575bf11561054c57817fd2043e0c3662c63a47fc7431ec4b749a691a5bd6665e9d799d6908480b7d94e191849351908152866020820152a2610483565b50505051903d90823e3d90fd5b506108fc610511565b92918183526002602052660aa87bee5380008184205410156000146106285781835260026020528083208054660aa87bee537fff198101919082116104cb575582808080660aa87bee53800060018060a01b036001541682f11561061d578183526005602052808320938454660aa87bee53800081018091116104cb577f90b72f2bdf728a522e13a5f4342d0ecfe0039f08ab938e18bc71dfee430e2027939495555b815190660aa87bee53800082526020820152a26104a3565b51913d9150823e3d90fd5b8183526005602052808320938454660aa87bee53800081018091116104cb577f90b72f2bdf728a522e13a5f4342d0ecfe0039f08ab938e18bc71dfee430e202793949555610605565b5080156103de565b6106969193503d8088833e61068e8183610a3a565b810190610b5c565b505050915050913861029c565b6040513d88823e3d90fd5b866106bb91979297610a3a565b9438610262565b6040513d89823e3d90fd5b8680fd5b6106e69193503d8089833e61068e8183610a3a565b505050915050913861020a565b60405162461bcd60e51b815260206004820152601060248201526f139bc819195c1bdcda5d08199bdd5b9960821b6044820152606490fd5b8280fd5b8380fd5b5034610116576020366003190112610116576020906040906001600160a01b03610105610a1f565b5034610116578060031936011261011657546040516001600160a01b039091168152602090f35b5034610116578060031936011261011657602060405167016345785d8a00008152f35b5034610116578060031936011261011657602060405166071afd498d00008152f35b5080600319360112610116576107db610a8e565b80f35b5034610116576020366003190112610116576107f8610a1f565b6001600160a01b03168082526004602090815260408084205492845260059091528220548082111561085a578082038281116108465760609350905b60405192835260208301526040820152f35b634e487b7160e01b84526011600452602484fd5b60609290610834565b50346101165780600319360112610116576001546040516001600160a01b039091168152602090f35b5034610116576020366003190112610116576020906040906001600160a01b036108b4610a1f565b168152600383522054604051908152f35b50346101165780600319360112610116576020604051660aa87bee5380008152f35b503461011657806003193601126101165733815260026020526040812054801561093557818080809333825260026020528160408120553382f1156109295780f35b604051903d90823e3d90fd5b60405162461bcd60e51b81526020600482015260166024820152754e6f206465706f73697420746f20776974686472617760501b6044820152606490fd5b5034610116576020366003190112610116576020906040906001600160a01b0361099b610a1f565b168152600583522054604051908152f35b5034610116576020366003190112610116576020906040906001600160a01b036109d4610a1f565b168152600483522054604051908152f35b905034610a1b576020366003190112610a1b576020916040906001600160a01b03610a0e610a1f565b1681526003845220548152f35b5080fd5b600435906001600160a01b0382168203610a3557565b600080fd5b90601f8019910116810190811067ffffffffffffffff821117610a5c57604052565b634e487b7160e01b600052604160045260246000fd5b67ffffffffffffffff8111610a5c57601f01601f191660200190565b670de0b6b3a76400003410610afd573360005260026020526040600020805490348201809211610ae757556040513481527f2da466a7b24304f47e87fa2e1e5a81b9831ce54fec19055ce277ca2f39ba42c460203392a2565b634e487b7160e01b600052601160045260246000fd5b60405162461bcd60e51b8152602060048201526014602482015273125b9cdd59999a58da595b9d0819195c1bdcda5d60621b6044820152606490fd5b60005b838110610b4c5750506000910152565b8181015183820152602001610b3c565b9060c082820312610a3557815192602083015192604081015192606082015167ffffffffffffffff8111610a3557820181601f82011215610a35578051610ba281610a72565b92610bb06040519485610a3a565b81845260208284010111610a3557610bce9160208085019101610b39565b9160a060808301519201519056fea2646970667358221220f147af655e34780962f9bf111f55ca5a6e0942f152a05b1cd3c318aac2de739464736f6c634300081b0033","opcodes":"PUSH1 0x80 CALLVALUE PUSH1 0x80 JUMPI PUSH1 0x1F PUSH2 0xCAE CODESIZE DUP2 SWAP1 SUB SWAP2 DUP3 ADD PUSH1 0x1F NOT AND DUP4 ADD SWAP2 PUSH1 0x1 PUSH1 0x1 PUSH1 0x40 SHL SUB DUP4 GT DUP5 DUP5 LT OR PUSH1 0x85 JUMPI DUP1 DUP5 SWAP3 PUSH1 0x20 SWAP5 PUSH1 0x40 MSTORE DUP4 CODECOPY DUP2 ADD SUB SLT PUSH1 0x80 JUMPI MLOAD PUSH1 0x1 PUSH1 0x1 PUSH1 0xA0 SHL SUB DUP2 AND SWAP1 DUP2 SWAP1 SUB PUSH1 0x80 JUMPI PUSH1 0x1 DUP1 SLOAD PUSH1 0x1 PUSH1 0x1 PUSH1 0xA0 SHL SUB NOT SWAP1 DUP2 AND PUSH2 0xDEAD OR SWAP1 SWAP2 SSTORE PUSH1 0x0 DUP1 SLOAD SWAP1 SWAP2 AND SWAP2 SWAP1 SWAP2 OR SWAP1 SSTORE PUSH1 0x40 MLOAD PUSH2 0xC12 SWAP1 DUP2 PUSH2 0x9C DUP3 CODECOPY RETURN JUMPDEST PUSH1 0x0 DUP1 REVERT JUMPDEST PUSH4 0x4E487B71 PUSH1 0xE0 SHL PUSH1 0x0 MSTORE PUSH1 0x41 PUSH1 0x4 MSTORE PUSH1 0x24 PUSH1 0x0 REVERT INVALID PUSH1 0x80 DUP1 PUSH1 0x40 MSTORE PUSH1 0x4 CALLDATASIZE LT ISZERO PUSH2 0x25 JUMPI JUMPDEST POP CALLDATASIZE ISZERO PUSH2 0x1B JUMPI PUSH1 0x0 DUP1 REVERT JUMPDEST PUSH2 0x23 PUSH2 0xA8E JUMP JUMPDEST STOP JUMPDEST PUSH1 0x0 SWAP1 DUP2 CALLDATALOAD PUSH1 0xE0 SHR SWAP1 DUP2 PUSH4 0xD558963 EQ PUSH2 0x9E5 JUMPI POP DUP1 PUSH4 0x1D336D62 EQ PUSH2 0x9AC JUMPI DUP1 PUSH4 0x219783FA EQ PUSH2 0x973 JUMPI DUP1 PUSH4 0x3CCFD60B EQ PUSH2 0x8E7 JUMPI DUP1 PUSH4 0x40204175 EQ PUSH2 0x8C5 JUMPI DUP1 PUSH4 0x6188D33C EQ PUSH2 0x88C JUMPI DUP1 PUSH4 0x70D5AE05 EQ PUSH2 0x863 JUMPI DUP1 PUSH4 0xABF84B4C EQ PUSH2 0x7DE JUMPI DUP1 PUSH4 0xD0E30DB0 EQ PUSH2 0x7C7 JUMPI DUP1 PUSH4 0xD24C1A58 EQ PUSH2 0x7A5 JUMPI DUP1 PUSH4 0xD565A7E8 EQ PUSH2 0x782 JUMPI DUP1 PUSH4 0xD56D229D EQ PUSH2 0x75B JUMPI DUP1 PUSH4 0xE1254FBA EQ PUSH2 0x733 JUMPI DUP1 PUSH4 0xEC0DAE44 EQ PUSH2 0x13C JUMPI DUP1 PUSH4 0xEC6925A7 EQ PUSH2 0x119 JUMPI PUSH4 0xFC7E286D SUB PUSH2 0xF JUMPI CALLVALUE PUSH2 0x116 JUMPI PUSH1 0x20 CALLDATASIZE PUSH1 0x3 NOT ADD SLT PUSH2 0x116 JUMPI PUSH1 0x20 SWAP1 PUSH1 0x40 SWAP1 PUSH1 0x1 PUSH1 0x1 PUSH1 0xA0 SHL SUB PUSH2 0x105 PUSH2 0xA1F JUMP JUMPDEST AND DUP2 MSTORE PUSH1 0x2 DUP4 MSTORE KECCAK256 SLOAD PUSH1 0x40 MLOAD SWAP1 DUP2 MSTORE RETURN JUMPDEST DUP1 REVERT JUMPDEST POP CALLVALUE PUSH2 0x116 JUMPI DUP1 PUSH1 0x3 NOT CALLDATASIZE ADD SLT PUSH2 0x116 JUMPI PUSH1 0x20 PUSH1 0x40 MLOAD PUSH8 0xDE0B6B3A7640000 DUP2 MSTORE RETURN JUMPDEST POP CALLVALUE PUSH2 0x116 JUMPI PUSH1 0x60 CALLDATASIZE PUSH1 0x3 NOT ADD SLT PUSH2 0x116 JUMPI PUSH2 0x156 PUSH2 0xA1F JUMP JUMPDEST PUSH1 0x44 CALLDATALOAD PUSH1 0x24 CALLDATALOAD PUSH8 0xFFFFFFFFFFFFFFFF DUP3 GT PUSH2 0x72F JUMPI CALLDATASIZE PUSH1 0x23 DUP4 ADD SLT ISZERO PUSH2 0x72F JUMPI DUP2 PUSH1 0x4 ADD CALLDATALOAD SWAP3 DUP5 PUSH2 0x186 DUP6 PUSH2 0xA72 JUMP JUMPDEST SWAP4 PUSH2 0x194 PUSH1 0x40 MLOAD SWAP6 DUP7 PUSH2 0xA3A JUMP JUMPDEST DUP6 DUP6 MSTORE PUSH1 0x20 DUP6 ADD SWAP6 CALLDATASIZE PUSH1 0x24 DUP3 DUP5 ADD ADD GT PUSH2 0x72B JUMPI DUP1 PUSH1 0x24 PUSH1 0x20 SWAP4 ADD DUP9 CALLDATACOPY DUP6 ADD ADD MSTORE PUSH1 0x1 PUSH1 0x1 PUSH1 0xA0 SHL SUB AND DUP1 DUP6 MSTORE PUSH1 0x2 PUSH1 0x20 MSTORE PUSH1 0x40 DUP6 KECCAK256 SLOAD SWAP1 SWAP4 SWAP1 ISZERO PUSH2 0x6F3 JUMPI DUP5 SLOAD PUSH1 0x40 MLOAD PUSH4 0x46A479E5 PUSH1 0xE0 SHL DUP2 MSTORE PUSH1 0x4 DUP2 ADD DUP5 SWAP1 MSTORE SWAP2 SWAP1 PUSH1 0x1 PUSH1 0x1 PUSH1 0xA0 SHL SUB AND DUP7 DUP4 PUSH1 0x24 DUP2 DUP5 GAS STATICCALL SWAP3 DUP4 ISZERO PUSH2 0x6C2 JUMPI DUP8 SWAP4 PUSH2 0x6D1 JUMPI JUMPDEST POP DUP1 EXTCODESIZE ISZERO PUSH2 0x6CD JUMPI DUP7 PUSH1 0x40 MLOAD DUP1 SWAP3 PUSH4 0x16D61CB PUSH1 0xE5 SHL DUP3 MSTORE DUP7 PUSH1 0x4 DUP4 ADD MSTORE PUSH1 0x40 PUSH1 0x24 DUP4 ADD MSTORE DUP2 DUP4 PUSH1 0x64 DUP3 DUP12 MLOAD DUP1 PUSH1 0x44 DUP4 ADD MSTORE PUSH2 0x249 DUP2 DUP5 DUP5 ADD DUP13 PUSH2 0xB39 JUMP JUMPDEST PUSH1 0x1F ADD PUSH1 0x1F NOT AND DUP2 ADD SUB ADD SWAP3 GAS CALL DUP1 ISZERO PUSH2 0x6C2 JUMPI PUSH2 0x6AE JUMPI JUMPDEST POP DUP6 SLOAD PUSH1 0x40 MLOAD PUSH4 0x46A479E5 PUSH1 0xE0 SHL DUP2 MSTORE PUSH1 0x4 DUP2 ADD SWAP5 SWAP1 SWAP5 MSTORE DUP7 SWAP1 DUP5 SWAP1 PUSH1 0x24 SWAP1 DUP3 SWAP1 PUSH1 0x1 PUSH1 0x1 PUSH1 0xA0 SHL SUB AND GAS STATICCALL SWAP3 DUP4 ISZERO PUSH2 0x6A3 JUMPI DUP7 SWAP4 PUSH2 0x679 JUMPI JUMPDEST POP DUP4 MLOAD DUP2 KECCAK256 SWAP4 PUSH1 0x40 SWAP5 PUSH1 0x5 PUSH1 0x20 DUP8 MLOAD PUSH2 0x2B5 DUP10 DUP3 PUSH2 0xA3A JUMP JUMPDEST DUP3 DUP2 MSTORE ADD PUSH5 0x21A622A0A7 PUSH1 0xD9 SHL DUP2 MSTORE KECCAK256 EQ PUSH1 0x0 EQ PUSH2 0x3A3 JUMPI POP POP POP DUP3 DUP5 MSTORE PUSH1 0x3 PUSH1 0x20 MSTORE DUP2 DUP5 KECCAK256 DUP1 SLOAD SWAP1 PUSH1 0x1 DUP3 ADD DUP1 SWAP3 GT PUSH2 0x38F JUMPI SSTORE DUP3 DUP5 MSTORE PUSH1 0x2 PUSH1 0x20 MSTORE DUP2 DUP5 KECCAK256 DUP1 SLOAD SWAP1 PUSH7 0x71AFD498D0000 DUP3 ADD DUP1 SWAP3 GT PUSH2 0x38F JUMPI SSTORE DUP3 DUP5 MSTORE PUSH1 0x4 PUSH1 0x20 MSTORE DUP2 DUP5 KECCAK256 DUP1 SLOAD SWAP1 PUSH7 0x71AFD498D0000 DUP3 ADD DUP1 SWAP3 GT PUSH2 0x38F JUMPI PUSH32 0x291E8BA3C0F4B0BD86E6E2346FCEE1E7CA0975B1CC1886BFBC722D34F3F24D91 DUP5 PUSH1 0x20 SWAP5 PUSH32 0x76F10CA8C358F7390980F1F782EA1FE0A685799D64CC7D11FBB819169914D42B SWAP7 SWAP5 DUP9 SWAP5 SSTORE DUP2 MLOAD SWAP1 PUSH7 0x71AFD498D0000 DUP3 MSTORE DUP7 DUP3 ADD MSTORE LOG2 MLOAD PUSH1 0x1 DUP2 MSTORE LOG2 DUP1 RETURN JUMPDEST PUSH4 0x4E487B71 PUSH1 0xE0 SHL DUP7 MSTORE PUSH1 0x11 PUSH1 0x4 MSTORE PUSH1 0x24 DUP7 REVERT JUMPDEST SWAP5 SWAP4 SWAP5 MLOAD SWAP1 KECCAK256 PUSH1 0x5 PUSH1 0x20 DUP7 MLOAD PUSH2 0x3B9 DUP9 DUP3 PUSH2 0xA3A JUMP JUMPDEST DUP3 DUP2 MSTORE ADD PUSH5 0x4449525459 PUSH1 0xD8 SHL DUP2 MSTORE KECCAK256 EQ PUSH2 0x3D6 JUMPI JUMPDEST POP POP POP POP DUP1 RETURN JUMPDEST ISZERO ISZERO DUP1 PUSH2 0x671 JUMPI JUMPDEST ISZERO PUSH2 0x562 JUMPI POP DUP1 DUP4 MSTORE PUSH1 0x2 PUSH1 0x20 MSTORE DUP2 DUP4 KECCAK256 SLOAD PUSH8 0x16345785D8A0000 GT PUSH2 0x4DF JUMPI DUP1 DUP4 MSTORE PUSH1 0x2 PUSH1 0x20 MSTORE DUP2 DUP4 KECCAK256 DUP1 SLOAD PUSH8 0x16345785D89FFFF NOT DUP2 ADD SWAP2 SWAP1 DUP3 GT PUSH2 0x4CB JUMPI SSTORE DUP3 DUP1 DUP1 DUP1 PUSH8 0x16345785D8A0000 PUSH1 0x1 DUP1 PUSH1 0xA0 SHL SUB PUSH1 0x1 SLOAD AND DUP3 CALL ISZERO PUSH2 0x4C0 JUMPI DUP1 DUP4 MSTORE PUSH1 0x2 PUSH1 0x20 MSTORE DUP1 PUSH32 0xD2043E0C3662C63A47FC7431EC4B749A691A5BD6665E9D799D6908480B7D94E1 DUP4 DUP1 DUP7 KECCAK256 SLOAD DUP2 MLOAD SWAP1 PUSH8 0x16345785D8A0000 DUP3 MSTORE PUSH1 0x20 DUP3 ADD MSTORE LOG2 JUMPDEST DUP3 MSTORE PUSH1 0x5 PUSH1 0x20 MSTORE DUP2 KECCAK256 DUP1 SLOAD SWAP1 PUSH8 0x16345785D8A0000 DUP3 ADD DUP1 SWAP3 GT PUSH2 0x4AC JUMPI SSTORE JUMPDEST CODESIZE DUP1 DUP1 DUP1 PUSH2 0x3CF JUMP JUMPDEST PUSH4 0x4E487B71 PUSH1 0xE0 SHL DUP4 MSTORE PUSH1 0x11 PUSH1 0x4 MSTORE PUSH1 0x24 DUP4 REVERT JUMPDEST POP MLOAD SWAP1 RETURNDATASIZE SWAP1 DUP3 RETURNDATACOPY RETURNDATASIZE SWAP1 REVERT JUMPDEST PUSH4 0x4E487B71 PUSH1 0xE0 SHL DUP6 MSTORE PUSH1 0x11 PUSH1 0x4 MSTORE PUSH1 0x24 DUP6 REVERT JUMPDEST DUP1 DUP4 MSTORE PUSH1 0x2 PUSH1 0x20 MSTORE DUP2 DUP1 DUP5 KECCAK256 SLOAD DUP3 DUP6 MSTORE PUSH1 0x2 PUSH1 0x20 MSTORE DUP5 DUP3 DUP2 KECCAK256 SSTORE DUP5 DUP1 DUP1 DUP1 DUP5 PUSH1 0x1 DUP1 PUSH1 0xA0 SHL SUB PUSH1 0x1 SLOAD AND DUP3 DUP3 ISZERO PUSH2 0x559 JUMPI JUMPDEST CALL ISZERO PUSH2 0x54C JUMPI DUP2 PUSH32 0xD2043E0C3662C63A47FC7431EC4B749A691A5BD6665E9D799D6908480B7D94E1 SWAP2 DUP5 SWAP4 MLOAD SWAP1 DUP2 MSTORE DUP7 PUSH1 0x20 DUP3 ADD MSTORE LOG2 PUSH2 0x483 JUMP JUMPDEST POP POP POP MLOAD SWAP1 RETURNDATASIZE SWAP1 DUP3 RETURNDATACOPY RETURNDATASIZE SWAP1 REVERT JUMPDEST POP PUSH2 0x8FC PUSH2 0x511 JUMP JUMPDEST SWAP3 SWAP2 DUP2 DUP4 MSTORE PUSH1 0x2 PUSH1 0x20 MSTORE PUSH7 0xAA87BEE538000 DUP2 DUP5 KECCAK256 SLOAD LT ISZERO PUSH1 0x0 EQ PUSH2 0x628 JUMPI DUP2 DUP4 MSTORE PUSH1 0x2 PUSH1 0x20 MSTORE DUP1 DUP4 KECCAK256 DUP1 SLOAD PUSH7 0xAA87BEE537FFF NOT DUP2 ADD SWAP2 SWAP1 DUP3 GT PUSH2 0x4CB JUMPI SSTORE DUP3 DUP1 DUP1 DUP1 PUSH7 0xAA87BEE538000 PUSH1 0x1 DUP1 PUSH1 0xA0 SHL SUB PUSH1 0x1 SLOAD AND DUP3 CALL ISZERO PUSH2 0x61D JUMPI DUP2 DUP4 MSTORE PUSH1 0x5 PUSH1 0x20 MSTORE DUP1 DUP4 KECCAK256 SWAP4 DUP5 SLOAD PUSH7 0xAA87BEE538000 DUP2 ADD DUP1 SWAP2 GT PUSH2 0x4CB JUMPI PUSH32 0x90B72F2BDF728A522E13A5F4342D0ECFE0039F08AB938E18BC71DFEE430E2027 SWAP4 SWAP5 SWAP6 SSTORE JUMPDEST DUP2 MLOAD SWAP1 PUSH7 0xAA87BEE538000 DUP3 MSTORE PUSH1 0x20 DUP3 ADD MSTORE LOG2 PUSH2 0x4A3 JUMP JUMPDEST MLOAD SWAP2 RETURNDATASIZE SWAP2 POP DUP3 RETURNDATACOPY RETURNDATASIZE SWAP1 REVERT JUMPDEST DUP2 DUP4 MSTORE PUSH1 0x5 PUSH1 0x20 MSTORE DUP1 DUP4 KECCAK256 SWAP4 DUP5 SLOAD PUSH7 0xAA87BEE538000 DUP2 ADD DUP1 SWAP2 GT PUSH2 0x4CB JUMPI PUSH32 0x90B72F2BDF728A522E13A5F4342D0ECFE0039F08AB938E18BC71DFEE430E2027 SWAP4 SWAP5 SWAP6 SSTORE PUSH2 0x605 JUMP JUMPDEST POP DUP1 ISZERO PUSH2 0x3DE JUMP JUMPDEST PUSH2 0x696 SWAP2 SWAP4 POP RETURNDATASIZE DUP1 DUP9 DUP4 RETURNDATACOPY PUSH2 0x68E DUP2 DUP4 PUSH2 0xA3A JUMP JUMPDEST DUP2 ADD SWAP1 PUSH2 0xB5C JUMP JUMPDEST POP POP POP SWAP2 POP POP SWAP2 CODESIZE PUSH2 0x29C JUMP JUMPDEST PUSH1 0x40 MLOAD RETURNDATASIZE DUP9 DUP3 RETURNDATACOPY RETURNDATASIZE SWAP1 REVERT JUMPDEST DUP7 PUSH2 0x6BB SWAP2 SWAP8 SWAP3 SWAP8 PUSH2 0xA3A JUMP JUMPDEST SWAP5 CODESIZE PUSH2 0x262 JUMP JUMPDEST PUSH1 0x40 MLOAD RETURNDATASIZE DUP10 DUP3 RETURNDATACOPY RETURNDATASIZE SWAP1 REVERT JUMPDEST DUP7 DUP1 REVERT JUMPDEST PUSH2 0x6E6 SWAP2 SWAP4 POP RETURNDATASIZE DUP1 DUP10 DUP4 RETURNDATACOPY PUSH2 0x68E DUP2 DUP4 PUSH2 0xA3A JUMP JUMPDEST POP POP POP SWAP2 POP POP SWAP2 CODESIZE PUSH2 0x20A JUMP JUMPDEST PUSH1 0x40 MLOAD PUSH3 0x461BCD PUSH1 0xE5 SHL DUP2 MSTORE PUSH1 0x20 PUSH1 0x4 DUP3 ADD MSTORE PUSH1 0x10 PUSH1 0x24 DUP3 ADD MSTORE PUSH16 0x139BC819195C1BDCDA5D08199BDD5B99 PUSH1 0x82 SHL PUSH1 0x44 DUP3 ADD MSTORE PUSH1 0x64 SWAP1 REVERT JUMPDEST DUP3 DUP1 REVERT JUMPDEST DUP4 DUP1 REVERT JUMPDEST POP CALLVALUE PUSH2 0x116 JUMPI PUSH1 0x20 CALLDATASIZE PUSH1 0x3 NOT ADD SLT PUSH2 0x116 JUMPI PUSH1 0x20 SWAP1 PUSH1 0x40 SWAP1 PUSH1 0x1 PUSH1 0x1 PUSH1 0xA0 SHL SUB PUSH2 0x105 PUSH2 0xA1F JUMP JUMPDEST POP CALLVALUE PUSH2 0x116 JUMPI DUP1 PUSH1 0x3 NOT CALLDATASIZE ADD SLT PUSH2 0x116 JUMPI SLOAD PUSH1 0x40 MLOAD PUSH1 0x1 PUSH1 0x1 PUSH1 0xA0 SHL SUB SWAP1 SWAP2 AND DUP2 MSTORE PUSH1 0x20 SWAP1 RETURN JUMPDEST POP CALLVALUE PUSH2 0x116 JUMPI DUP1 PUSH1 0x3 NOT CALLDATASIZE ADD SLT PUSH2 0x116 JUMPI PUSH1 0x20 PUSH1 0x40 MLOAD PUSH8 0x16345785D8A0000 DUP2 MSTORE RETURN JUMPDEST POP CALLVALUE PUSH2 0x116 JUMPI DUP1 PUSH1 0x3 NOT CALLDATASIZE ADD SLT PUSH2 0x116 JUMPI PUSH1 0x20 PUSH1 0x40 MLOAD PUSH7 0x71AFD498D0000 DUP2 MSTORE RETURN JUMPDEST POP DUP1 PUSH1 0x3 NOT CALLDATASIZE ADD SLT PUSH2 0x116 JUMPI PUSH2 0x7DB PUSH2 0xA8E JUMP JUMPDEST DUP1 RETURN JUMPDEST POP CALLVALUE PUSH2 0x116 JUMPI PUSH1 0x20 CALLDATASIZE PUSH1 0x3 NOT ADD SLT PUSH2 0x116 JUMPI PUSH2 0x7F8 PUSH2 0xA1F JUMP JUMPDEST PUSH1 0x1 PUSH1 0x1 PUSH1 0xA0 SHL SUB AND DUP1 DUP3 MSTORE PUSH1 0x4 PUSH1 0x20 SWAP1 DUP2 MSTORE PUSH1 0x40 DUP1 DUP5 KECCAK256 SLOAD SWAP3 DUP5 MSTORE PUSH1 0x5 SWAP1 SWAP2 MSTORE DUP3 KECCAK256 SLOAD DUP1 DUP3 GT ISZERO PUSH2 0x85A JUMPI DUP1 DUP3 SUB DUP3 DUP2 GT PUSH2 0x846 JUMPI PUSH1 0x60 SWAP4 POP SWAP1 JUMPDEST PUSH1 0x40 MLOAD SWAP3 DUP4 MSTORE PUSH1 0x20 DUP4 ADD MSTORE PUSH1 0x40 DUP3 ADD MSTORE RETURN JUMPDEST PUSH4 0x4E487B71 PUSH1 0xE0 SHL DUP5 MSTORE PUSH1 0x11 PUSH1 0x4 MSTORE PUSH1 0x24 DUP5 REVERT JUMPDEST PUSH1 0x60 SWAP3 SWAP1 PUSH2 0x834 JUMP JUMPDEST POP CALLVALUE PUSH2 0x116 JUMPI DUP1 PUSH1 0x3 NOT CALLDATASIZE ADD SLT PUSH2 0x116 JUMPI PUSH1 0x1 SLOAD PUSH1 0x40 MLOAD PUSH1 0x1 PUSH1 0x1 PUSH1 0xA0 SHL SUB SWAP1 SWAP2 AND DUP2 MSTORE PUSH1 0x20 SWAP1 RETURN JUMPDEST POP CALLVALUE PUSH2 0x116 JUMPI PUSH1 0x20 CALLDATASIZE PUSH1 0x3 NOT ADD SLT PUSH2 0x116 JUMPI PUSH1 0x20 SWAP1 PUSH1 0x40 SWAP1 PUSH1 0x1 PUSH1 0x1 PUSH1 0xA0 SHL SUB PUSH2 0x8B4 PUSH2 0xA1F JUMP JUMPDEST AND DUP2 MSTORE PUSH1 0x3 DUP4 MSTORE KECCAK256 SLOAD PUSH1 0x40 MLOAD SWAP1 DUP2 MSTORE RETURN JUMPDEST POP CALLVALUE PUSH2 0x116 JUMPI DUP1 PUSH1 0x3 NOT CALLDATASIZE ADD SLT PUSH2 0x116 JUMPI PUSH1 0x20 PUSH1 0x40 MLOAD PUSH7 0xAA87BEE538000 DUP2 MSTORE RETURN JUMPDEST POP CALLVALUE PUSH2 0x116 JUMPI DUP1 PUSH1 0x3 NOT CALLDATASIZE ADD SLT PUSH2 0x116 JUMPI CALLER DUP2 MSTORE PUSH1 0x2 PUSH1 0x20 MSTORE PUSH1 0x40 DUP2 KECCAK256 SLOAD DUP1 ISZERO PUSH2 0x935 JUMPI DUP2 DUP1 DUP1 DUP1 SWAP4 CALLER DUP3 MSTORE PUSH1 0x2 PUSH1 0x20 MSTORE DUP2 PUSH1 0x40 DUP2 KECCAK256 SSTORE CALLER DUP3 CALL ISZERO PUSH2 0x929 JUMPI DUP1 RETURN JUMPDEST PUSH1 0x40 MLOAD SWAP1 RETURNDATASIZE SWAP1 DUP3 RETURNDATACOPY RETURNDATASIZE SWAP1 REVERT JUMPDEST PUSH1 0x40 MLOAD PUSH3 0x461BCD PUSH1 0xE5 SHL DUP2 MSTORE PUSH1 0x20 PUSH1 0x4 DUP3 ADD MSTORE PUSH1 0x16 PUSH1 0x24 DUP3 ADD MSTORE PUSH22 0x4E6F206465706F73697420746F207769746864726177 PUSH1 0x50 SHL PUSH1 0x44 DUP3 ADD MSTORE PUSH1 0x64 SWAP1 REVERT JUMPDEST POP CALLVALUE PUSH2 0x116 JUMPI PUSH1 0x20 CALLDATASIZE PUSH1 0x3 NOT ADD SLT PUSH2 0x116 JUMPI PUSH1 0x20 SWAP1 PUSH1 0x40 SWAP1 PUSH1 0x1 PUSH1 0x1 PUSH1 0xA0 SHL SUB PUSH2 0x99B PUSH2 0xA1F JUMP JUMPDEST AND DUP2 MSTORE PUSH1 0x5 DUP4 MSTORE KECCAK256 SLOAD PUSH1 0x40 MLOAD SWAP1 DUP2 MSTORE RETURN JUMPDEST POP CALLVALUE PUSH2 0x116 JUMPI PUSH1 0x20 CALLDATASIZE PUSH1 0x3 NOT ADD SLT PUSH2 0x116 JUMPI PUSH1 0x20 SWAP1 PUSH1 0x40 SWAP1 PUSH1 0x1 PUSH1 0x1 PUSH1 0xA0 SHL SUB PUSH2 0x9D4 PUSH2 0xA1F JUMP JUMPDEST AND DUP2 MSTORE PUSH1 0x4 DUP4 MSTORE KECCAK256 SLOAD PUSH1 0x40 MLOAD SWAP1 DUP2 MSTORE RETURN JUMPDEST SWAP1 POP CALLVALUE PUSH2 0xA1B JUMPI PUSH1 0x20 CALLDATASIZE PUSH1 0x3 NOT ADD SLT PUSH2 0xA1B JUMPI PUSH1 0x20 SWAP2 PUSH1 0x40 SWAP1 PUSH1 0x1 PUSH1 0x1 PUSH1 0xA0 SHL SUB PUSH2 0xA0E PUSH2 0xA1F JUMP JUMPDEST AND DUP2 MSTORE PUSH1 0x3 DUP5 MSTORE KECCAK256 SLOAD DUP2 MSTORE RETURN JUMPDEST POP DUP1 REVERT JUMPDEST PUSH1 0x4 CALLDATALOAD SWAP1 PUSH1 0x1 PUSH1 0x1 PUSH1 0xA0 SHL SUB DUP3 AND DUP3 SUB PUSH2 0xA35 JUMPI JUMP JUMPDEST PUSH1 0x0 DUP1 REVERT JUMPDEST SWAP1 PUSH1 0x1F DUP1 NOT SWAP2 ADD AND DUP2 ADD SWAP1 DUP2 LT PUSH8 0xFFFFFFFFFFFFFFFF DUP3 GT OR PUSH2 0xA5C JUMPI PUSH1 0x40 MSTORE JUMP JUMPDEST PUSH4 0x4E487B71 PUSH1 0xE0 SHL PUSH1 0x0 MSTORE PUSH1 0x41 PUSH1 0x4 MSTORE PUSH1 0x24 PUSH1 0x0 REVERT JUMPDEST PUSH8 0xFFFFFFFFFFFFFFFF DUP2 GT PUSH2 0xA5C JUMPI PUSH1 0x1F ADD PUSH1 0x1F NOT AND PUSH1 0x20 ADD SWAP1 JUMP JUMPDEST PUSH8 0xDE0B6B3A7640000 CALLVALUE LT PUSH2 0xAFD JUMPI CALLER PUSH1 0x0 MSTORE PUSH1 0x2 PUSH1 0x20 MSTORE PUSH1 0x40 PUSH1 0x0 KECCAK256 DUP1 SLOAD SWAP1 CALLVALUE DUP3 ADD DUP1 SWAP3 GT PUSH2 0xAE7 JUMPI SSTORE PUSH1 0x40 MLOAD CALLVALUE DUP2 MSTORE PUSH32 0x2DA466A7B24304F47E87FA2E1E5A81B9831CE54FEC19055CE277CA2F39BA42C4 PUSH1 0x20 CALLER SWAP3 LOG2 JUMP JUMPDEST PUSH4 0x4E487B71 PUSH1 0xE0 SHL PUSH1 0x0 MSTORE PUSH1 0x11 PUSH1 0x4 MSTORE PUSH1 0x24 PUSH1 0x0 REVERT JUMPDEST PUSH1 0x40 MLOAD PUSH3 0x461BCD PUSH1 0xE5 SHL DUP2 MSTORE PUSH1 0x20 PUSH1 0x4 DUP3 ADD MSTORE PUSH1 0x14 PUSH1 0x24 DUP3 ADD MSTORE PUSH20 0x125B9CDD59999A58DA595B9D0819195C1BDCDA5D PUSH1 0x62 SHL PUSH1 0x44 DUP3 ADD MSTORE PUSH1 0x64 SWAP1 REVERT JUMPDEST PUSH1 0x0 JUMPDEST DUP4 DUP2 LT PUSH2 0xB4C JUMPI POP POP PUSH1 0x0 SWAP2 ADD MSTORE JUMP JUMPDEST DUP2 DUP2 ADD MLOAD DUP4 DUP3 ADD MSTORE PUSH1 0x20 ADD PUSH2 0xB3C JUMP JUMPDEST SWAP1 PUSH1 0xC0 DUP3 DUP3 SUB SLT PUSH2 0xA35 JUMPI DUP2 MLOAD SWAP3 PUSH1 0x20 DUP4 ADD MLOAD SWAP3 PUSH1 0x40 DUP2 ADD MLOAD SWAP3 PUSH1 0x60 DUP3 ADD MLOAD PUSH8 0xFFFFFFFFFFFFFFFF DUP2 GT PUSH2 0xA35 JUMPI DUP3 ADD DUP2 PUSH1 0x1F DUP3 ADD SLT ISZERO PUSH2 0xA35 JUMPI DUP1 MLOAD PUSH2 0xBA2 DUP2 PUSH2 0xA72 JUMP JUMPDEST SWAP3 PUSH2 0xBB0 PUSH1 0x40 MLOAD SWAP5 DUP6 PUSH2 0xA3A JUMP JUMPDEST DUP2 DUP5 MSTORE PUSH1 0x20 DUP3 DUP5 ADD ADD GT PUSH2 0xA35 JUMPI PUSH2 0xBCE SWAP2 PUSH1 0x20 DUP1 DUP6 ADD SWAP2 ADD PUSH2 0xB39 JUMP JUMPDEST SWAP2 PUSH1 0xA0 PUSH1 0x80 DUP4 ADD MLOAD SWAP3 ADD MLOAD SWAP1 JUMP INVALID LOG2 PUSH5 0x6970667358 0x22 SLT KECCAK256 CALL SELFBALANCE 0xAF PUSH6 0x5E34780962F9 0xBF GT 0x1F SSTORE 0xCA GAS PUSH15 0x942F152A05B1CD3C318AAC2DE7394 PUSH5 0x736F6C6343 STOP ADDMOD SHL STOP CALLER "},"methodIdentifiers":{"CLEAN_REWARD()":"d24c1a58","DEATH_SLASH()":"d565a7e8","DEPOSIT_AMOUNT()":"ec6925a7","DIRTY_PENALTY()":"40204175","burnAddress()":"70d5ae05","deposit()":"d0e30db0","deposits(address)":"fc7e286d","getDeposit(address)":"e1254fba","getGreenCredits(address)":"6188d33c","getLifetimeStats(address)":"abf84b4c","greenCredits(address)":"0d558963","lifetimePenalties(address)":"219783fa","lifetimeRewards(address)":"1d336d62","nftContract()":"d56d229d","processReading(address,uint256,string)":"ec0dae44","withdraw()":"3ccfd60b"}}}}}