{
  "_format": "hh-sol-artifact-1",
  "contractName": "CarbonGhostNFT",
  "sourceName": "contracts/CarbonGhostNFT.sol",
  "abi": [
    {
      "inputs": [],
      "stateMutability": "nonpayable",
      "type": "constructor"
    },
    {
      "inputs": [
        {
          "internalType": "address",
          "name": "sender",
          "type": "address"
        },
        {
          "internalType": "uint256",
          "name": "tokenId",
          "type": "uint256"
        },
        {
          "internalType": "address",
          "name": "owner",
          "type": "address"
        }
      ],
      "name": "ERC721IncorrectOwner",
      "type": "error"
    },
    {
      "inputs": [
        {
          "internalType": "address",
          "name": "operator",
          "type": "address"
        },
        {
          "internalType": "uint256",
          "name": "tokenId",
          "type": "uint256"
        }
      ],
      "name": "ERC721InsufficientApproval",
      "type": "error"
    },
    {
      "inputs": [
        {
          "internalType": "address",
          "name": "approver",
          "type": "address"
        }
      ],
      "name": "ERC721InvalidApprover",
      "type": "error"
    },
    {
      "inputs": [
        {
          "internalType": "address",
          "name": "operator",
          "type": "address"
        }
      ],
      "name": "ERC721InvalidOperator",
      "type": "error"
    },
    {
      "inputs": [
        {
          "internalType": "address",
          "name": "owner",
          "type": "address"
        }
      ],
      "name": "ERC721InvalidOwner",
      "type": "error"
    },
    {
      "inputs": [
        {
          "internalType": "address",
          "name": "receiver",
          "type": "address"
        }
      ],
      "name": "ERC721InvalidReceiver",
      "type": "error"
    },
    {
      "inputs": [
        {
          "internalType": "address",
          "name": "sender",
          "type": "address"
        }
      ],
      "name": "ERC721InvalidSender",
      "type": "error"
    },
    {
      "inputs": [
        {
          "internalType": "uint256",
          "name": "tokenId",
          "type": "uint256"
        }
      ],
      "name": "ERC721NonexistentToken",
      "type": "error"
    },
    {
      "inputs": [
        {
          "internalType": "address",
          "name": "owner",
          "type": "address"
        }
      ],
      "name": "OwnableInvalidOwner",
      "type": "error"
    },
    {
      "inputs": [
        {
          "internalType": "address",
          "name": "account",
          "type": "address"
        }
      ],
      "name": "OwnableUnauthorizedAccount",
      "type": "error"
    },
    {
      "anonymous": false,
      "inputs": [
        {
          "indexed": true,
          "internalType": "address",
          "name": "owner",
          "type": "address"
        },
        {
          "indexed": true,
          "internalType": "address",
          "name": "approved",
          "type": "address"
        },
        {
          "indexed": true,
          "internalType": "uint256",
          "name": "tokenId",
          "type": "uint256"
        }
      ],
      "name": "Approval",
      "type": "event"
    },
    {
      "anonymous": false,
      "inputs": [
        {
          "indexed": true,
          "internalType": "address",
          "name": "owner",
          "type": "address"
        },
        {
          "indexed": true,
          "internalType": "address",
          "name": "operator",
          "type": "address"
        },
        {
          "indexed": false,
          "internalType": "bool",
          "name": "approved",
          "type": "bool"
        }
      ],
      "name": "ApprovalForAll",
      "type": "event"
    },
    {
      "anonymous": false,
      "inputs": [
        {
          "indexed": false,
          "internalType": "uint256",
          "name": "_fromTokenId",
          "type": "uint256"
        },
        {
          "indexed": false,
          "internalType": "uint256",
          "name": "_toTokenId",
          "type": "uint256"
        }
      ],
      "name": "BatchMetadataUpdate",
      "type": "event"
    },
    {
      "anonymous": false,
      "inputs": [
        {
          "indexed": true,
          "internalType": "uint256",
          "name": "tokenId",
          "type": "uint256"
        },
        {
          "indexed": false,
          "internalType": "address",
          "name": "owner",
          "type": "address"
        }
      ],
      "name": "GhostDied",
      "type": "event"
    },
    {
      "anonymous": false,
      "inputs": [
        {
          "indexed": true,
          "internalType": "uint256",
          "name": "tokenId",
          "type": "uint256"
        },
        {
          "indexed": true,
          "internalType": "address",
          "name": "owner",
          "type": "address"
        },
        {
          "indexed": false,
          "internalType": "bytes32",
          "name": "hardwareId",
          "type": "bytes32"
        }
      ],
      "name": "GhostMinted",
      "type": "event"
    },
    {
      "anonymous": false,
      "inputs": [
        {
          "indexed": true,
          "internalType": "uint256",
          "name": "tokenId",
          "type": "uint256"
        },
        {
          "indexed": false,
          "internalType": "uint256",
          "name": "health",
          "type": "uint256"
        },
        {
          "indexed": false,
          "internalType": "string",
          "name": "season",
          "type": "string"
        },
        {
          "indexed": false,
          "internalType": "string",
          "name": "mood",
          "type": "string"
        }
      ],
      "name": "GhostUpdated",
      "type": "event"
    },
    {
      "anonymous": false,
      "inputs": [
        {
          "indexed": true,
          "internalType": "uint256",
          "name": "tokenId",
          "type": "uint256"
        },
        {
          "indexed": false,
          "internalType": "address",
          "name": "from",
          "type": "address"
        },
        {
          "indexed": false,
          "internalType": "address",
          "name": "to",
          "type": "address"
        }
      ],
      "name": "HardwareTransferred",
      "type": "event"
    },
    {
      "anonymous": false,
      "inputs": [
        {
          "indexed": false,
          "internalType": "uint256",
          "name": "_tokenId",
          "type": "uint256"
        }
      ],
      "name": "MetadataUpdate",
      "type": "event"
    },
    {
      "anonymous": false,
      "inputs": [
        {
          "indexed": true,
          "internalType": "address",
          "name": "previousOwner",
          "type": "address"
        },
        {
          "indexed": true,
          "internalType": "address",
          "name": "newOwner",
          "type": "address"
        }
      ],
      "name": "OwnershipTransferred",
      "type": "event"
    },
    {
      "anonymous": false,
      "inputs": [
        {
          "indexed": true,
          "internalType": "uint256",
          "name": "tokenId",
          "type": "uint256"
        },
        {
          "indexed": false,
          "internalType": "string",
          "name": "fromSeason",
          "type": "string"
        },
        {
          "indexed": false,
          "internalType": "string",
          "name": "toSeason",
          "type": "string"
        }
      ],
      "name": "SeasonChanged",
      "type": "event"
    },
    {
      "anonymous": false,
      "inputs": [
        {
          "indexed": true,
          "internalType": "address",
          "name": "from",
          "type": "address"
        },
        {
          "indexed": true,
          "internalType": "address",
          "name": "to",
          "type": "address"
        },
        {
          "indexed": true,
          "internalType": "uint256",
          "name": "tokenId",
          "type": "uint256"
        }
      ],
      "name": "Transfer",
      "type": "event"
    },
    {
      "inputs": [],
      "name": "CLEAN_HEAL_RATE",
      "outputs": [
        {
          "internalType": "uint256",
          "name": "",
          "type": "uint256"
        }
      ],
      "stateMutability": "view",
      "type": "function"
    },
    {
      "inputs": [],
      "name": "DIRTY_DAMAGE_RATE",
      "outputs": [
        {
          "internalType": "uint256",
          "name": "",
          "type": "uint256"
        }
      ],
      "stateMutability": "view",
      "type": "function"
    },
    {
      "inputs": [],
      "name": "STREAK_BONUS",
      "outputs": [
        {
          "internalType": "uint256",
          "name": "",
          "type": "uint256"
        }
      ],
      "stateMutability": "view",
      "type": "function"
    },
    {
      "inputs": [
        {
          "internalType": "address",
          "name": "to",
          "type": "address"
        },
        {
          "internalType": "uint256",
          "name": "tokenId",
          "type": "uint256"
        }
      ],
      "name": "approve",
      "outputs": [],
      "stateMutability": "nonpayable",
      "type": "function"
    },
    {
      "inputs": [
        {
          "internalType": "address",
          "name": "owner",
          "type": "address"
        }
      ],
      "name": "balanceOf",
      "outputs": [
        {
          "internalType": "uint256",
          "name": "",
          "type": "uint256"
        }
      ],
      "stateMutability": "view",
      "type": "function"
    },
    {
      "inputs": [],
      "name": "deadGhostURI",
      "outputs": [
        {
          "internalType": "string",
          "name": "",
          "type": "string"
        }
      ],
      "stateMutability": "view",
      "type": "function"
    },
    {
      "inputs": [
        {
          "internalType": "address",
          "name": "",
          "type": "address"
        }
      ],
      "name": "deviceToToken",
      "outputs": [
        {
          "internalType": "uint256",
          "name": "",
          "type": "uint256"
        }
      ],
      "stateMutability": "view",
      "type": "function"
    },
    {
      "inputs": [],
      "name": "fallGhostURI",
      "outputs": [
        {
          "internalType": "string",
          "name": "",
          "type": "string"
        }
      ],
      "stateMutability": "view",
      "type": "function"
    },
    {
      "inputs": [
        {
          "internalType": "uint256",
          "name": "tokenId",
          "type": "uint256"
        }
      ],
      "name": "getApproved",
      "outputs": [
        {
          "internalType": "address",
          "name": "",
          "type": "address"
        }
      ],
      "stateMutability": "view",
      "type": "function"
    },
    {
      "inputs": [
        {
          "internalType": "uint256",
          "name": "tokenId",
          "type": "uint256"
        }
      ],
      "name": "getGhost",
      "outputs": [
        {
          "components": [
            {
              "internalType": "uint256",
              "name": "health",
              "type": "uint256"
            },
            {
              "internalType": "string",
              "name": "season",
              "type": "string"
            },
            {
              "internalType": "string",
              "name": "mood",
              "type": "string"
            },
            {
              "internalType": "uint256",
              "name": "lastUpdate",
              "type": "uint256"
            },
            {
              "internalType": "address",
              "name": "deviceOwner",
              "type": "address"
            },
            {
              "internalType": "bytes32",
              "name": "hardwareId",
              "type": "bytes32"
            },
            {
              "internalType": "bool",
              "name": "isSoulbound",
              "type": "bool"
            },
            {
              "internalType": "uint256",
              "name": "totalCleanReadings",
              "type": "uint256"
            },
            {
              "internalType": "uint256",
              "name": "totalDirtyReadings",
              "type": "uint256"
            },
            {
              "internalType": "uint256",
              "name": "consecutiveClean",
              "type": "uint256"
            },
            {
              "internalType": "uint256",
              "name": "consecutiveDirty",
              "type": "uint256"
            }
          ],
          "internalType": "struct CarbonGhostNFT.Ghost",
          "name": "",
          "type": "tuple"
        }
      ],
      "stateMutability": "view",
      "type": "function"
    },
    {
      "inputs": [
        {
          "internalType": "uint256",
          "name": "tokenId",
          "type": "uint256"
        }
      ],
      "name": "getGhostHistory",
      "outputs": [
        {
          "internalType": "uint256",
          "name": "totalClean",
          "type": "uint256"
        },
        {
          "internalType": "uint256",
          "name": "totalDirty",
          "type": "uint256"
        },
        {
          "internalType": "uint256",
          "name": "health",
          "type": "uint256"
        },
        {
          "internalType": "string",
          "name": "season",
          "type": "string"
        },
        {
          "internalType": "uint256",
          "name": "cleanStreak",
          "type": "uint256"
        },
        {
          "internalType": "uint256",
          "name": "dirtyStreak",
          "type": "uint256"
        }
      ],
      "stateMutability": "view",
      "type": "function"
    },
    {
      "inputs": [
        {
          "internalType": "uint256",
          "name": "",
          "type": "uint256"
        }
      ],
      "name": "ghosts",
      "outputs": [
        {
          "internalType": "uint256",
          "name": "health",
          "type": "uint256"
        },
        {
          "internalType": "string",
          "name": "season",
          "type": "string"
        },
        {
          "internalType": "string",
          "name": "mood",
          "type": "string"
        },
        {
          "internalType": "uint256",
          "name": "lastUpdate",
          "type": "uint256"
        },
        {
          "internalType": "address",
          "name": "deviceOwner",
          "type": "address"
        },
        {
          "internalType": "bytes32",
          "name": "hardwareId",
          "type": "bytes32"
        },
        {
          "internalType": "bool",
          "name": "isSoulbound",
          "type": "bool"
        },
        {
          "internalType": "uint256",
          "name": "totalCleanReadings",
          "type": "uint256"
        },
        {
          "internalType": "uint256",
          "name": "totalDirtyReadings",
          "type": "uint256"
        },
        {
          "internalType": "uint256",
          "name": "consecutiveClean",
          "type": "uint256"
        },
        {
          "internalType": "uint256",
          "name": "consecutiveDirty",
          "type": "uint256"
        }
      ],
      "stateMutability": "view",
      "type": "function"
    },
    {
      "inputs": [
        {
          "internalType": "bytes32",
          "name": "",
          "type": "bytes32"
        }
      ],
      "name": "hardwareRegistered",
      "outputs": [
        {
          "internalType": "bool",
          "name": "",
          "type": "bool"
        }
      ],
      "stateMutability": "view",
      "type": "function"
    },
    {
      "inputs": [
        {
          "internalType": "bytes32",
          "name": "",
          "type": "bytes32"
        }
      ],
      "name": "hardwareToToken",
      "outputs": [
        {
          "internalType": "uint256",
          "name": "",
          "type": "uint256"
        }
      ],
      "stateMutability": "view",
      "type": "function"
    },
    {
      "inputs": [
        {
          "internalType": "address",
          "name": "owner",
          "type": "address"
        },
        {
          "internalType": "address",
          "name": "operator",
          "type": "address"
        }
      ],
      "name": "isApprovedForAll",
      "outputs": [
        {
          "internalType": "bool",
          "name": "",
          "type": "bool"
        }
      ],
      "stateMutability": "view",
      "type": "function"
    },
    {
      "inputs": [
        {
          "internalType": "address",
          "name": "to",
          "type": "address"
        },
        {
          "internalType": "address",
          "name": "deviceAddress",
          "type": "address"
        },
        {
          "internalType": "bytes32",
          "name": "hardwareId",
          "type": "bytes32"
        }
      ],
      "name": "mintGhost",
      "outputs": [
        {
          "internalType": "uint256",
          "name": "",
          "type": "uint256"
        }
      ],
      "stateMutability": "nonpayable",
      "type": "function"
    },
    {
      "inputs": [],
      "name": "name",
      "outputs": [
        {
          "internalType": "string",
          "name": "",
          "type": "string"
        }
      ],
      "stateMutability": "view",
      "type": "function"
    },
    {
      "inputs": [],
      "name": "owner",
      "outputs": [
        {
          "internalType": "address",
          "name": "",
          "type": "address"
        }
      ],
      "stateMutability": "view",
      "type": "function"
    },
    {
      "inputs": [
        {
          "internalType": "uint256",
          "name": "tokenId",
          "type": "uint256"
        }
      ],
      "name": "ownerOf",
      "outputs": [
        {
          "internalType": "address",
          "name": "",
          "type": "address"
        }
      ],
      "stateMutability": "view",
      "type": "function"
    },
    {
      "inputs": [],
      "name": "renounceOwnership",
      "outputs": [],
      "stateMutability": "nonpayable",
      "type": "function"
    },
    {
      "inputs": [
        {
          "internalType": "address",
          "name": "from",
          "type": "address"
        },
        {
          "internalType": "address",
          "name": "to",
          "type": "address"
        },
        {
          "internalType": "uint256",
          "name": "tokenId",
          "type": "uint256"
        }
      ],
      "name": "safeTransferFrom",
      "outputs": [],
      "stateMutability": "nonpayable",
      "type": "function"
    },
    {
      "inputs": [
        {
          "internalType": "address",
          "name": "from",
          "type": "address"
        },
        {
          "internalType": "address",
          "name": "to",
          "type": "address"
        },
        {
          "internalType": "uint256",
          "name": "tokenId",
          "type": "uint256"
        },
        {
          "internalType": "bytes",
          "name": "data",
          "type": "bytes"
        }
      ],
      "name": "safeTransferFrom",
      "outputs": [],
      "stateMutability": "nonpayable",
      "type": "function"
    },
    {
      "inputs": [
        {
          "internalType": "address",
          "name": "operator",
          "type": "address"
        },
        {
          "internalType": "bool",
          "name": "approved",
          "type": "bool"
        }
      ],
      "name": "setApprovalForAll",
      "outputs": [],
      "stateMutability": "nonpayable",
      "type": "function"
    },
    {
      "inputs": [],
      "name": "springGhostURI",
      "outputs": [
        {
          "internalType": "string",
          "name": "",
          "type": "string"
        }
      ],
      "stateMutability": "view",
      "type": "function"
    },
    {
      "inputs": [],
      "name": "summerGhostURI",
      "outputs": [
        {
          "internalType": "string",
          "name": "",
          "type": "string"
        }
      ],
      "stateMutability": "view",
      "type": "function"
    },
    {
      "inputs": [
        {
          "internalType": "bytes4",
          "name": "interfaceId",
          "type": "bytes4"
        }
      ],
      "name": "supportsInterface",
      "outputs": [
        {
          "internalType": "bool",
          "name": "",
          "type": "bool"
        }
      ],
      "stateMutability": "view",
      "type": "function"
    },
    {
      "inputs": [],
      "name": "symbol",
      "outputs": [
        {
          "internalType": "string",
          "name": "",
          "type": "string"
        }
      ],
      "stateMutability": "view",
      "type": "function"
    },
    {
      "inputs": [
        {
          "internalType": "uint256",
          "name": "tokenId",
          "type": "uint256"
        }
      ],
      "name": "tokenURI",
      "outputs": [
        {
          "internalType": "string",
          "name": "",
          "type": "string"
        }
      ],
      "stateMutability": "view",
      "type": "function"
    },
    {
      "inputs": [
        {
          "internalType": "address",
          "name": "from",
          "type": "address"
        },
        {
          "internalType": "address",
          "name": "to",
          "type": "address"
        },
        {
          "internalType": "uint256",
          "name": "tokenId",
          "type": "uint256"
        }
      ],
      "name": "transferFrom",
      "outputs": [],
      "stateMutability": "nonpayable",
      "type": "function"
    },
    {
      "inputs": [
        {
          "internalType": "uint256",
          "name": "tokenId",
          "type": "uint256"
        },
        {
          "internalType": "address",
          "name": "newOwner",
          "type": "address"
        }
      ],
      "name": "transferHardware",
      "outputs": [],
      "stateMutability": "nonpayable",
      "type": "function"
    },
    {
      "inputs": [
        {
          "internalType": "address",
          "name": "newOwner",
          "type": "address"
        }
      ],
      "name": "transferOwnership",
      "outputs": [],
      "stateMutability": "nonpayable",
      "type": "function"
    },
    {
      "inputs": [
        {
          "internalType": "uint256",
          "name": "tokenId",
          "type": "uint256"
        },
        {
          "internalType": "string",
          "name": "status",
          "type": "string"
        }
      ],
      "name": "updateGhost",
      "outputs": [],
      "stateMutability": "nonpayable",
      "type": "function"
    },
    {
      "inputs": [],
      "name": "winterGhostURI",
      "outputs": [
        {
          "internalType": "string",
          "name": "",
          "type": "string"
        }
      ],
      "stateMutability": "view",
      "type": "function"
    }
  ],
  "bytecode": "0x60806040523461057957604080519081016001600160401b038111828210176104a6576040908152600b82526a10d85c989bdb91da1bdcdd60aa1b602083015280519081016001600160401b038111828210176104a657604052600581526411d213d4d560da1b602082015281516001600160401b0381116104a65761008660005461057e565b601f811161052b575b50602092601f82116001146104c757928192936000926104bc575b50508160011b916000199060031b1c1916176000555b80516001600160401b0381116104a6576100db60015461057e565b601f811161044c575b50602091601f82116001146103e8579181926000926103dd575b50508160011b916000199060031b1c1916176001555b33156103c75760078054336001600160a01b0319821681179092556001600160a01b03167f8be0079c531659141344cd1fd0a4f28419497f9722a3daafe3b4186f6b6457e0600080a3610168600d5461057e565b601f8111610388575b507f697066733a2f2f516d537072696e6747686f7374000000000000000000000028600d55600e546101a29061057e565b601f8111610349575b507f697066733a2f2f516d53756d6d657247686f7374000000000000000000000028600e55600f546101dc9061057e565b601f811161030a575b507f697066733a2f2f516d46616c6c47686f73740000000000000000000000000024600f556010546102169061057e565b601f81116102cb575b507f697066733a2f2f516d57696e74657247686f73740000000000000000000000286010556011546102509061057e565b601f811161028c575b7f697066733a2f2f516d4465616447686f7374000000000000000000000000002460115560405161314e90816105d08239f35b60116000526102c590601f0160051c7f31ecc21a745e3968a04e9570e4425bc18fa8019c68028196b546d1669c200c68908101906105b8565b38610259565b601060005261030490601f0160051c7f1b6847dc741a1b0cd08d278845f9d819d87b734759afb55fe2de5cb82a9ae672908101906105b8565b3861021f565b600f60005261034390601f0160051c7f8d1108e10bcb7c27dddfc02ed9d693a074039d026cf4ea4240b40f7d581ac802908101906105b8565b386101e5565b600e60005261038290601f0160051c7fbb7b4a454dc3493923482f07822329ed19e8244eff582cc204f8554c3620c3fd908101906105b8565b386101ab565b600d6000526103c190601f0160051c7fd7b6990105719101dabeb77144f2a3385c8033acd3af97e9423a695e81ad1eb5908101906105b8565b38610171565b631e4fbdf760e01b600052600060045260246000fd5b0151905038806100fe565b601f198216926001600052806000209160005b8581106104345750836001951061041b575b505050811b01600155610114565b015160001960f88460031b161c1916905538808061040d565b919260206001819286850151815501940192016103fb565b6001600052610496907fb10e2d527612073b26eecdfd717e6a320cf44b4afac2b0732d9fcbe2b7fa0cf6601f840160051c8101916020851061049c575b601f0160051c01906105b8565b386100e4565b9091508190610489565b634e487b7160e01b600052604160045260246000fd5b0151905038806100aa565b601f1982169360008052806000209160005b86811061051357508360019596106104fa575b505050811b016000556100c0565b015160001960f88460031b161c191690553880806104ec565b919260206001819286850151815501940192016104d9565b60008052610573907f290decd9548b62a8d60345a988386fc84ba6bc95484008f6362f93160ef3e563601f840160051c8101916020851061049c57601f0160051c01906105b8565b3861008f565b600080fd5b90600182811c921680156105ae575b602083101461059857565b634e487b7160e01b600052602260045260246000fd5b91607f169161058d565b8181106105c3575050565b600081556001016105b856fe608080604052600436101561001357600080fd5b60003560e01c90816301ffc9a7146120495750806305f9d9cb1461202d57806306fdde0314611f88578063081812fc14611f4a578063095ea7b314611e5b57806323b872dd14611e445780632c1495b61461187e5780632dac3960146112fb5780633f73ae72146112c157806342842e0e1461129157806346a479e51461116857806356520a17146110815780635f5ac283146110655780636352211e1461103557806370a0823114610fdf578063715018a614610f8257806374f3c3fc14610f5e578063817efdce14610dfa5780638da5cb5b14610dd157806395d89b4114610d04578063a22cb46514610c5a578063a24a527114610c29578063acdfd1b314610bfd578063af57a55514610bd9578063b6ccebcf14610bb5578063b88d4fde14610b47578063bcf6447514610b2b578063c87b56dd146104af578063d5b8d468146102db578063d93767ea146102b7578063e985e9c51461025c578063f2fde38b146101d25763f6dc74bd1461018a57600080fd5b346101cd5760003660031901126101cd576101c96040516101b5816101ae81612248565b0382612199565b6040519182916020835260208301906120f1565b0390f35b600080fd5b346101cd5760203660031901126101cd576101eb612116565b6101f3612834565b6001600160a01b0316801561024657600780546001600160a01b0319811683179091556001600160a01b03167f8be0079c531659141344cd1fd0a4f28419497f9722a3daafe3b4186f6b6457e0600080a3005b631e4fbdf760e01b600052600060045260246000fd5b346101cd5760403660031901126101cd57610275612116565b61027d61212c565b9060018060a01b0316600052600560205260406000209060018060a01b0316600052602052602060ff604060002054166040519015158152f35b346101cd5760003660031901126101cd576101c96040516101b5816101ae816123f3565b346101cd5760203660031901126101cd5760043560006101406040516103008161217c565b82815260606020820152606060408201528260608201528260808201528260a08201528260c08201528260e08201528261010082015282610120820152015280600052600260205261036060018060a01b03604060002054161515612689565b600052600960205260408060002081519061037a8261217c565b805482528251916103998361039281600186016124fd565b0384612199565b602081019283528351916103b48361039281600285016124fd565b8482019283526003810154926060830193845260018060a01b0360048301541660808401908152600583015460a0850190815260ff6006850154169060c08601911515825260078501549260e0870193845261046b6008870154956101008901968752610458600a60098a0154996101208c019a8b5201549961014081019a8b526101608e519e8f9e8f9360208552516020850152519201526101808d01906120f1565b90518b8203601f190160608d01526120f1565b975160808a0152516001600160a01b031660a08901525160c088015251151560e0870152516101008601525161012085015251610140840152516101608301520390f35b346101cd5760203660031901126101cd576004356000818152600260205260409020546104e6906001600160a01b03161515612689565b8060005260096020526040600020906040516105018161217c565b82548152604051918261051781600187016124fd565b036105229084612199565b60208201928352604051938461053b81600284016124fd565b036105469086612199565b6040830194855260038101546060840152600160a01b600190036004820154166080840152600581015460a0840152600681015460ff16151560c0840152600781015460e0840190815260088201549061010085019182526009830154926101208601938452600a015493610140860194855286516105c490612b2e565b9787516105d090612be9565b916105da90612d58565b9780519982519880516105ec90612d58565b90516105f790612d58565b92519351955161060690612d58565b965161061190612d58565b975161061c90612d58565b985161062790612d58565b996040519c8d809d602082017f7b226e616d65223a2022436172626f6e2047686f737420230000000000000000905280516038819301916020019161066b926120ce565b61088b60f21b6038918f01918201527f226465736372697074696f6e223a2022536561736f6e3a200000000000000000603a8201528151916106b690839060528401906020016120ce565b01603801601a810161040560f31b905281519182601c830191602001916106dc926120ce565b01601a01600281016b014903e102432b0b63a341d160a51b905281519182600e8301916020019161070c926120ce565b01600201600c81016302f3130360e41b905261088b60f21b6010820152691134b6b0b3b2911d101160b11b601282015281519182601c83019160200191610752926120ce565b61088b60f21b601c92909101918201526e2261747472696275746573223a205b60881b601e8201527f7b2274726169745f74797065223a20224865616c7468222c202276616c756522602d8201526101d160f51b604d820152815191600c8201916107c5918491604f01906020016120ce565b0160100160338101611f4b60f21b9052603581017f7b2274726169745f74797065223a2022536561736f6e222c202276616c7565229052621d101160e91b60558201528151918260588301916020019161081e926120ce565b0160330160258101600160fd1b905281519182602683019160200191610843926120ce565b0160250162089f4b60ea1b6001820152600481017f7b2274726169745f74797065223a20224d6f6f64222c202276616c7565223a209052601160f91b60248201528151918260258301916020019161089a926120ce565b0160010162089f4b60ea1b6024820152602781017f7b2274726169745f74797065223a2022546f74616c20436c65616e205265616490526f034b733b9911610113b30b63ab2911d160851b604782015281519182605783019160200191610900926120ce565b0160240160338101611f4b60f21b9052603581017f7b2274726169745f74797065223a2022546f74616c204469727479205265616490526f034b733b9911610113b30b63ab2911d160851b605582015281519182606583019160200191610966926120ce565b0160330160328101611f4b60f21b9052603481017f7b2274726169745f74797065223a2022436c65616e2053747265616b222c202290526703b30b63ab2911d160c51b605482015281519182605c830191602001916109c4926120ce565b01603201602a8101611f4b60f21b9052602c81017f7b2274726169745f74797065223a202244697274792053747265616b222c202290526703b30b63ab2911d160c51b604c82015281519182605483019160200191610a22926120ce565b01602a01602a8101607d60f81b9052602b8101615d7d60f01b905203602a01601c1981018252600301610a559082612199565b604051610a63606082612199565b60408082527f4142434445464748494a4b4c4d4e4f505152535455565758595a61626364656660208301527f6768696a6b6c6d6e6f707172737475767778797a303132333435363738392b2f90820152610abc9161301c565b6040518091602082017f646174613a6170706c69636174696f6e2f6a736f6e3b6261736536342c000000905280519081603d84019160200191610afe926120ce565b810103603d01601f1981018252610b159082612199565b604051809160208252602082016101c9916120f1565b346101cd5760003660031901126101cd57602060405160018152f35b346101cd5760803660031901126101cd57610b60612116565b610b6861212c565b906044356064359267ffffffffffffffff84116101cd57366023850112156101cd57610ba1610bb39436906024816004013591016121d7565b92610bad838383612580565b33612987565b005b346101cd5760003660031901126101cd576101c96040516101b5816101ae816122e9565b346101cd5760003660031901126101cd576101c96040516101b5816101ae8161236e565b346101cd5760203660031901126101cd57600435600052600b6020526020604060002054604051908152f35b346101cd5760203660031901126101cd57600435600052600c602052602060ff604060002054166040519015158152f35b346101cd5760403660031901126101cd57610c73612116565b60243590811515908183036101cd576001600160a01b0316918215610cef57610cc19033600052600560205260406000208460005260205260406000209060ff801983541691151516179055565b6040519081527f17307eab39ab6107e8899845ad3d59bd9653f200f220920489ca2b5937696c3160203392a3005b82630b61174360e31b60005260045260246000fd5b346101cd5760003660031901126101cd576040516000600154610d268161220e565b8084529060018116908115610dad5750600114610d4e575b6101c9836101b581850382612199565b600160009081527fb10e2d527612073b26eecdfd717e6a320cf44b4afac2b0732d9fcbe2b7fa0cf6939250905b808210610d93575090915081016020016101b5610d3e565b919260018160209254838588010152019101909291610d7b565b60ff191660208086019190915291151560051b840190910191506101b59050610d3e565b346101cd5760003660031901126101cd576007546040516001600160a01b039091168152602090f35b346101cd5760403660031901126101cd57600435610e1661212c565b90610e20816126d9565b336001600160a01b0390911603610f29576001600160a01b0382168015610ef057600082815260096020526040812060040180546001600160a01b03198116841790915590936001600160a01b03918216929190610e7f908590612710565b1680610e9957637e27328960e01b85526004849052602485fd5b828103610ed457507fea8d4830026c44c91618341dd03a64194fad13c4176744abc919af15f9acdcdc9160409182519182526020820152a280f35b6364283d7b60e01b855260048390526024849052604452606484fd5b60405162461bcd60e51b815260206004820152601160248201527024b73b30b634b2103732bb9037bbb732b960791b6044820152606490fd5b60405162461bcd60e51b815260206004820152600d60248201526c2737ba103a34329037bbb732b960991b6044820152606490fd5b346101cd5760003660031901126101cd576101c96040516101b5816101ae81612478565b346101cd5760003660031901126101cd57610f9b612834565b600780546001600160a01b031981169091556000906001600160a01b03167f8be0079c531659141344cd1fd0a4f28419497f9722a3daafe3b4186f6b6457e08280a3005b346101cd5760203660031901126101cd576001600160a01b03611000612116565b16801561101f5760005260036020526020604060002054604051908152f35b6322718ad960e21b600052600060045260246000fd5b346101cd5760203660031901126101cd5760206110536004356126d9565b6040516001600160a01b039091168152f35b346101cd5760003660031901126101cd57602060405160038152f35b346101cd5760203660031901126101cd576004356000526009602052602060406000208054906040516110bb816101ae81600186016124fd565b604051916110d08361039281600285016124fd565b60038101549260018060a01b03600483015416600583015460ff60068501541690600785015492611136600887015495611128600a60098a0154990154996101606040519e8f9e8f90815201526101608d01906120f1565b908b820360408d01526120f1565b9760608a0152608089015260a0880152151560c087015260e08601526101008501526101208401526101408301520390f35b346101cd5760203660031901126101cd5760043560008181526002602052604090205461119f906001600160a01b03161515612689565b600052600960205260406000206040516111b88161217c565b81548152604051916111d18361039281600185016124fd565b602082019283526040516111ec816101ae81600286016124fd565b60408301526003810154606083015260018060a01b036004820154166080830152600581015460a083015260ff600682015416151560c08301526007810154918260e082015261128260088301549485610100840152600a60098501549485610120860152015492836101408201525190519060405196879687526020870152604086015260c0606086015260c08501906120f1565b91608084015260a08301520390f35b346101cd57610bb36112a236612142565b90604051926112b2602085612199565b60008452610bad838383612580565b346101cd5760203660031901126101cd576001600160a01b036112e2612116565b16600052600a6020526020604060002054604051908152f35b346101cd5760403660031901126101cd5760043560243567ffffffffffffffff81116101cd57366023820112156101cd576113409036906024816004013591016121d7565b611348612834565b60008281526002602052604090205461136b906001600160a01b03161515612689565b816000526009602052604060002060018101604051906113968261138f81846124fd565b0383612199565b8483549285516020870190812096604097600560208a516113b78c82612199565b828152016421a622a0a760d91b815220146000146117cb575050600785016113df81546125d0565b9055600985016113ef81546125d0565b8091556000600a870155600290600581061590816117c1575b506117b9575b855490606461141d82846126cc565b11156117a9575050606485555b816000526009602052856000208054604b81109081158061179e575b156115d757505080600160029201611467611461825461220e565b8261261a565b600c65537072696e6760d01b01905501611484611461825461220e565b601067426c6f6f6d696e6760c01b01905585516114ae906114a8816101ae81612478565b8361285d565b426003860155845492827fe2267724154d2ee55333bab328e2971878e0a154a3c11e4befcaf4f7a88a9389885186815260606020820152806115066114f660608301876124fd565b8281038d84015260028c016124fd565b0390a2815160208301208751611520816101ae81866124fd565b6020815191012003611584575b50505015908161157a575b5061153f57005b6004015490516001600160a01b0390911681527fd8fe76dab9bc87697e5595a194a133b77fb4df26e5e8a7912b292b694fc8f6a290602090a2005b9050151584611538565b7f62ba4931de755221bf21b177998c1ac214066976a361c2eedfb178ffc3d12d24916115cc6115be9289519384938b85528b8501906120f1565b9083820360208501526124fd565b0390a284868061152d565b603281109182159081611796575b501561164357505080600160029201611601611461825461220e565b600c6529bab6b6b2b960d11b0190550161161e611461825461220e565b6008635761726d60e01b019055855161163e906114a8816101ae81612248565b6114ae565b60198110918215908161178e575b50156116d75750508060016002920161166d611461825461220e565b60086311985b1b60e21b0190550180546116869061220e565b601f81116116b5575b506012684465636c696e696e6760b81b019055855161163e906114a8816101ae816123f3565b6116d19082600052601f6020600020910160051c810190612603565b8861168f565b600211159081611786575b501561173d57806001600292016116fc611461825461220e565b600c652bb4b73a32b960d11b01905501611719611461825461220e565b60106710dc9a5d1a58d85b60c21b019055855161163e906114a8816101ae8161236e565b60026001820191611757611751845461220e565b8461261a565b6008631119585960e21b0180935501611773611461825461220e565b5561163e86516114a8816101ae816122e9565b9050896116e2565b90508b611651565b90508b6115e5565b506064811115611446565b6117b2916126cc565b855561142a565b50600361140e565b9050151589611408565b5190206005602088516117de8a82612199565b8281520164444952545960d81b8152200361142a576008850161180181546125d0565b9055600a850161181181546125d0565b8091556000600987015560039060058106159081611874575b5061186c575b8085101561184257506000855561142a565b84039150838211611856578691855561142a565b634e487b7160e01b600052601160045260246000fd5b506004611830565b905015158961182a565b346101cd5760603660031901126101cd57611897612116565b61189f61212c565b6118a7612834565b604435600052600c60205260ff60406000205416611dff576008546118cb816125d0565b6008556020916040516118de8482612199565b600081526001600160a01b03851615611de9576001600160a01b036119038487612710565b16611dd357843b611c8c575b50909192604051916119208361217c565b6032835261192c6125df565b85840190815260409384516119418682612199565b600781526613995d5d1c985b60ca1b888201528582015242606082015260018060a01b038416608082015260443560a0820152600160c0820152600060e082015260006101008201526000610120820152600061014082015285600052600987528460002091815183555180519067ffffffffffffffff8211611bfa5781906119da826119d1600188015461220e565b60018801612644565b8990601f8311600114611c1b57600092611c10575b50508160011b916000199060031b1c19161760018301555b8481015180519067ffffffffffffffff8211611bfa57611a3782611a2e600287015461220e565b60028701612644565b8890601f8311600114611b85579180600a949261014094600092611b7a575b50508160011b916000199060031b1c19161760028501555b6060810151600385015560808101516004850180546001600160a01b039092166001600160a01b031990921691909117905560a0810151600585015560c081015160068501805460ff191691151560ff1691909117905560e081015160078501556101008101516008850155610120810151600985015501519101556001600160a01b03166000908152600a8552828120849055604435808252600b86528382208590558152600c8552829020805460ff191660011790558151611b3f90611b39816101ae81612248565b8461285d565b827f218516bf62149417fd9533597ed29f259bd16cbe64ad7aa8111d863a7a246e5e85845193604435855260018060a01b031693a351908152f35b015190508b80611a56565b9060028501600052896000209160005b8b601f1986168210611be457505092600a94926001926101409583601f19811610611bcb575b505050811b016002850155611a6e565b015160001960f88460031b161c191690558b8080611bbb565b6001849582939585015181550194019201611b95565b634e487b7160e01b600052604160045260246000fd5b0151905089806119ef565b92506001850160005289600020906000935b8b601f1985168610611c7357506001945083601f19811610611c5a575b505050811b016001830155611a07565b015160001960f88460031b161c19169055898080611c4a565b8282015184559485019460019093019290910190611c2d565b83611cc69160405180938192630a85bd0160e11b8352336004840152600060248401528760448401526080606484015260848301906120f1565b038160006001600160a01b038a165af18091600091611d8e575b5090611d46575050503d600014611d3e573d90611cfc826121bb565b91611d0a6040519384612199565b82523d60008284013e5b81519182611d3b57633250574960e11b60009081526001600160a01b038516600452602490fd5b01fd5b606090611d14565b929391929091906001600160e01b03191663757a42ff60e11b01611d6d579291908461190f565b633250574960e11b60009081526001600160a01b0391909116600452602490fd5b8581813d8311611dcc575b611da38183612199565b81010312611dc85751906001600160e01b031982168203611dc5575086611ce0565b80fd5b5080fd5b503d611d99565b6339e3563760e11b600052600060045260246000fd5b633250574960e11b600052600060045260246000fd5b60405162461bcd60e51b815260206004820152601c60248201527f486172647761726520616c72656164792068617320612067686f7374000000006044820152606490fd5b346101cd57610bb3611e5536612142565b91612580565b346101cd5760403660031901126101cd57611e74612116565b602435611e80816126d9565b33151580611f37575b80611f09575b611ef45781906001600160a01b0384811691167f8c5be1e5ebec7d5bd14f71427d1e84f3dd0314c0f7b2291e5b200ac8c7c3b925600080a4600090815260046020526040902080546001600160a01b0319166001600160a01b03909216919091179055005b63a9fbf51f60e01b6000523360045260246000fd5b506001600160a01b038116600090815260056020908152604080832033845290915290205460ff1615611e8f565b506001600160a01b038116331415611e89565b346101cd5760203660031901126101cd57600435611f67816126d9565b506000526004602052602060018060a01b0360406000205416604051908152f35b346101cd5760003660031901126101cd5760405160008054611fa98161220e565b8084529060018116908115610dad5750600114611fd0576101c9836101b581850382612199565b60008080527f290decd9548b62a8d60345a988386fc84ba6bc95484008f6362f93160ef3e563939250905b808210612013575090915081016020016101b5610d3e565b919260018160209254838588010152019101909291611ffb565b346101cd5760003660031901126101cd57602060405160028152f35b346101cd5760203660031901126101cd576004359063ffffffff60e01b82168092036101cd57602091632483248360e11b811490811561208b575b5015158152f35b6380ac58cd60e01b8114915081156120bd575b81156120ac575b5083612084565b6301ffc9a760e01b149050836120a5565b635b5e139f60e01b8114915061209e565b60005b8381106120e15750506000910152565b81810151838201526020016120d1565b9060209161210a815180928185528580860191016120ce565b601f01601f1916010190565b600435906001600160a01b03821682036101cd57565b602435906001600160a01b03821682036101cd57565b60609060031901126101cd576004356001600160a01b03811681036101cd57906024356001600160a01b03811681036101cd579060443590565b610160810190811067ffffffffffffffff821117611bfa57604052565b90601f8019910116810190811067ffffffffffffffff821117611bfa57604052565b67ffffffffffffffff8111611bfa57601f01601f191660200190565b9291926121e3826121bb565b916121f16040519384612199565b8294818452818301116101cd578281602093846000960137010152565b90600182811c9216801561223e575b602083101461222857565b634e487b7160e01b600052602260045260246000fd5b91607f169161221d565b600e54600092916122588261220e565b80825291600181169081156122cd5750600114612273575050565b600e60009081529293509091907fbb7b4a454dc3493923482f07822329ed19e8244eff582cc204f8554c3620c3fd5b8383106122b3575060209250010190565b6001816020929493945483858701015201910191906122a2565b9050602093945060ff929192191683830152151560051b010190565b601154600092916122f98261220e565b80825291600181169081156122cd5750600114612314575050565b601160009081529293509091907f31ecc21a745e3968a04e9570e4425bc18fa8019c68028196b546d1669c200c685b838310612354575060209250010190565b600181602092949394548385870101520191019190612343565b6010546000929161237e8261220e565b80825291600181169081156122cd5750600114612399575050565b601060009081529293509091907f1b6847dc741a1b0cd08d278845f9d819d87b734759afb55fe2de5cb82a9ae6725b8383106123d9575060209250010190565b6001816020929493945483858701015201910191906123c8565b600f54600092916124038261220e565b80825291600181169081156122cd575060011461241e575050565b600f60009081529293509091907f8d1108e10bcb7c27dddfc02ed9d693a074039d026cf4ea4240b40f7d581ac8025b83831061245e575060209250010190565b60018160209294939454838587010152019101919061244d565b600d54600092916124888261220e565b80825291600181169081156122cd57506001146124a3575050565b600d60009081529293509091907fd7b6990105719101dabeb77144f2a3385c8033acd3af97e9423a695e81ad1eb55b8383106124e3575060209250010190565b6001816020929493945483858701015201910191906124d2565b6000929181549161250d8361220e565b8083529260018116908115612563575060011461252957505050565b60009081526020812093945091925b838310612549575060209250010190565b600181602092949394548385870101520191019190612538565b915050602093945060ff929192191683830152151560051b010190565b91906001600160a01b03811615611de95761259d908233916127da565b6001600160a01b0390811692168083036125b657505050565b6364283d7b60e01b60005260045260245260445260646000fd5b60001981146118565760010190565b604051906125ee604083612199565b600682526529bab6b6b2b960d11b6020830152565b81811061260e575050565b60008155600101612603565b90601f8111612627575050565b61264291600052601f6020600020910160051c810190612603565b565b9190601f811161265357505050565b612642926000526020600020906020601f840160051c8301931061267f575b601f0160051c0190612603565b9091508190612672565b1561269057565b60405162461bcd60e51b815260206004820152601460248201527311da1bdcdd08191bd95cc81b9bdd08195e1a5cdd60621b6044820152606490fd5b9190820180921161185657565b6000818152600260205260409020546001600160a01b03169081156126fc575090565b637e27328960e01b60005260045260246000fd5b6000828152600260205260409020546001600160a01b0316156127ce5781600052600960205260ff60066040600020015416806127c6575b61275b5761275891600091612ea2565b90565b60405162461bcd60e51b815260206004820152603760248201527f47686f737420697320736f756c626f756e6420746f206861726477617265202d60448201527f20757365207472616e73666572486172647761726528290000000000000000006064820152608490fd5b506001612748565b61275891600091612ea2565b600082815260026020526040902054909291906001600160a01b03161561282b5780600052600960205260ff6006604060002001541680612823575b61275b5761275892612ea2565b506001612816565b61275892612ea2565b6007546001600160a01b0316330361284857565b63118cdaa760e01b6000523360045260246000fd5b9190918060005260066020526040600020835167ffffffffffffffff8111611bfa576128938161288d845461220e565b84612644565b6020601f82116001146128fb57908060209493927ff8e1a15aba9398e019f0b49df1a4fde98ee17ae345cb5f6b5e2c27f5033e8ce796976000926128f0575b50508160011b916000199060031b1c19161790555b604051908152a1565b0151905038806128d2565b601f1982169583600052816000209660005b81811061296f575096600192849260209796957ff8e1a15aba9398e019f0b49df1a4fde98ee17ae345cb5f6b5e2c27f5033e8ce7999a10612956575b505050811b0190556128e7565b015160001960f88460031b161c19169055388080612949565b8383015189556001909801976020938401930161290d565b823b612995575b5050505050565b604051630a85bd0160e11b81526001600160a01b0391821660048201529181166024830152604482019390935260806064820152911691602090829081906129e19060848301906120f1565b03816000865af18091600091612a81575b5090612a4b57503d15612a44573d612a09816121bb565b90612a176040519283612199565b81523d6000602083013e5b80519081612a3f5782633250574960e11b60005260045260246000fd5b602001fd5b6060612a22565b6001600160e01b03191663757a42ff60e11b01612a6d5750388080808061298e565b633250574960e11b60005260045260246000fd5b6020813d602011612abc575b81612a9a60209383612199565b81010312611dc85751906001600160e01b031982168203611dc55750386129f2565b3d9150612a8d565b60405190612ad3604083612199565b6006825265537072696e6760d01b6020830152565b60405190612af7604083612199565b600482526311985b1b60e21b6020830152565b60405190612b19604083612199565b60068252652bb4b73a32b960d11b6020830152565b80519060208101918220612b40612ac4565b6020815191012014612bd75780518220612b586125df565b6020815191012014612bc55780518220612b70612ae8565b6020815191012014612bb357519020612b87612b0a565b6020815191012014612ba357604051612758816101ae816122e9565b604051612758816101ae8161236e565b5050604051612758816101ae816123f3565b5050604051612758816101ae81612248565b5050604051612758816101ae81612478565b80519060208101918220612bfb612ac4565b6020815191012014612cfa5780518220612c136125df565b6020815191012014612cce5780518220612c2b612ae8565b6020815191012014612ca257519020612c42612b0a565b6020815191012014612c7857604051612c5c604082612199565b600c81526b2e3a991b19182e3aa322982360a11b602082015290565b604051612c86604082612199565b600c81526b2e3a991b9a1a2e3aa322982360a11b602082015290565b5050604051612cb2604082612199565b600c81526b2e3aa21c19a1ae3aa2231a1960a11b602082015290565b5050604051612cde604082612199565b600c81526b2e3a991b18182e3aa322982360a11b602082015290565b5050604051612d0a604082612199565b600c81526b0b8ea88706686b8ea888c66760a31b602082015290565b90612d30826121bb565b612d3d6040519182612199565b8281528092612d4e601f19916121bb565b0190602036910137565b8060009172184f03e93ff9f4daa797ed6e38ed64bf6a1f0160401b821015612e7f575b806d04ee2d6d415b85acef8100000000600a921015612e64575b662386f26fc10000811015612e50575b6305f5e100811015612e3f575b612710811015612e30575b6064811015612e22575b1015612e17575b600a6021612dde60018501612d26565b938401015b60001901916f181899199a1a9b1b9c1cb0b131b232b360811b8282061a8353048015612e1257600a9091612de3565b505090565b600190910190612dce565b606460029104930192612dc7565b61271060049104930192612dbd565b6305f5e10060089104930192612db2565b662386f26fc1000060109104930192612da5565b6d04ee2d6d415b85acef810000000060209104930192612d95565b506040915072184f03e93ff9f4daa797ed6e38ed64bf6a1f0160401b8104612d7b565b6000828152600260205260409020546001600160a01b03908116931680151580612f84575b505082612f46575b6001600160a01b031680612f2c575b8160005260026020526040600020816bffffffffffffffffffffffff60a01b825416179055827fddf252ad1be2c89b69c2b068fc378daa952ba7f163c4a11628f55a4df523b3ef600080a490565b806000526003602052604060002060018154019055612ede565b81600052600460205260406000206bffffffffffffffffffffffff60a01b815416905582600052600360205260406000206000198154019055612ecf565b80612fc8575b15612f955780612ec7565b905082612fb15750637e27328960e01b60005260045260246000fd5b63177e802f60e01b60005260045260245260446000fd5b508084148015612ff8575b80612f8a57506000838152600460205260409020546001600160a01b03168114612f8a565b5083600052600560205260406000208160005260205260ff60406000205416612fd3565b919091805115613100578051600281018091116118565760039004600281901b906001600160fe1b038116036118565761305590612d26565b9060208201908081518201956020870190815192600083525b8881106130b2575050600393949596505251068060011461309f57600214613094575090565b603d90600019015390565b50603d9081600019820153600119015390565b600360049199969901986001603f8b5182828260121c16870101518453828282600c1c16870101518385015382828260061c168701015160028501531684010151600382015301949761306e565b509050604051613111602082612199565b600081529056fea2646970667358221220406ce907953f7d307ebb5a1c9276be4edf9a68c105e1c11cea4130f72e0a99e264736f6c634300081b0033",
  "linkReferences": {},
  "deployedLinkReferences": {}
}