{
  "_format": "hh-sol-artifact-1",
  "contractName": "GameLogic",
  "sourceName": "contracts/GameLogic.sol",
  "abi": [
    {
      "inputs": [
        {
          "internalType": "address",
          "name": "_nftContract",
          "type": "address"
        }
      ],
      "stateMutability": "nonpayable",
      "type": "constructor"
    },
    {
      "anonymous": false,
      "inputs": [
        {
          "indexed": true,
          "internalType": "address",
          "name": "user",
          "type": "address"
        },
        {
          "indexed": false,
          "internalType": "uint256",
          "name": "slashAmount",
          "type": "uint256"
        },
        {
          "indexed": false,
          "internalType": "uint256",
          "name": "remaining",
          "type": "uint256"
        }
      ],
      "name": "DeathSlash",
      "type": "event"
    },
    {
      "anonymous": false,
      "inputs": [
        {
          "indexed": true,
          "internalType": "address",
          "name": "user",
          "type": "address"
        },
        {
          "indexed": false,
          "internalType": "uint256",
          "name": "amount",
          "type": "uint256"
        }
      ],
      "name": "Deposited",
      "type": "event"
    },
    {
      "anonymous": false,
      "inputs": [
        {
          "indexed": true,
          "internalType": "address",
          "name": "user",
          "type": "address"
        },
        {
          "indexed": false,
          "internalType": "uint256",
          "name": "credits",
          "type": "uint256"
        }
      ],
      "name": "GreenCreditEarned",
      "type": "event"
    },
    {
      "anonymous": false,
      "inputs": [
        {
          "indexed": true,
          "internalType": "address",
          "name": "user",
          "type": "address"
        },
        {
          "indexed": false,
          "internalType": "uint256",
          "name": "amount",
          "type": "uint256"
        },
        {
          "indexed": false,
          "internalType": "uint256",
          "name": "newHealth",
          "type": "uint256"
        }
      ],
      "name": "Penalized",
      "type": "event"
    },
    {
      "anonymous": false,
      "inputs": [
        {
          "indexed": true,
          "internalType": "address",
          "name": "user",
          "type": "address"
        },
        {
          "indexed": false,
          "internalType": "uint256",
          "name": "amount",
          "type": "uint256"
        },
        {
          "indexed": false,
          "internalType": "uint256",
          "name": "newHealth",
          "type": "uint256"
        }
      ],
      "name": "Rewarded",
      "type": "event"
    },
    {
      "inputs": [],
      "name": "CLEAN_REWARD",
      "outputs": [
        {
          "internalType": "uint256",
          "name": "",
          "type": "uint256"
        }
      ],
      "stateMutability": "view",
      "type": "function"
    },
    {
      "inputs": [],
      "name": "DEATH_SLASH",
      "outputs": [
        {
          "internalType": "uint256",
          "name": "",
          "type": "uint256"
        }
      ],
      "stateMutability": "view",
      "type": "function"
    },
    {
      "inputs": [],
      "name": "DEPOSIT_AMOUNT",
      "outputs": [
        {
          "internalType": "uint256",
          "name": "",
          "type": "uint256"
        }
      ],
      "stateMutability": "view",
      "type": "function"
    },
    {
      "inputs": [],
      "name": "DIRTY_PENALTY",
      "outputs": [
        {
          "internalType": "uint256",
          "name": "",
          "type": "uint256"
        }
      ],
      "stateMutability": "view",
      "type": "function"
    },
    {
      "inputs": [],
      "name": "burnAddress",
      "outputs": [
        {
          "internalType": "address",
          "name": "",
          "type": "address"
        }
      ],
      "stateMutability": "view",
      "type": "function"
    },
    {
      "inputs": [],
      "name": "deposit",
      "outputs": [],
      "stateMutability": "payable",
      "type": "function"
    },
    {
      "inputs": [
        {
          "internalType": "address",
          "name": "",
          "type": "address"
        }
      ],
      "name": "deposits",
      "outputs": [
        {
          "internalType": "uint256",
          "name": "",
          "type": "uint256"
        }
      ],
      "stateMutability": "view",
      "type": "function"
    },
    {
      "inputs": [
        {
          "internalType": "address",
          "name": "user",
          "type": "address"
        }
      ],
      "name": "getDeposit",
      "outputs": [
        {
          "internalType": "uint256",
          "name": "",
          "type": "uint256"
        }
      ],
      "stateMutability": "view",
      "type": "function"
    },
    {
      "inputs": [
        {
          "internalType": "address",
          "name": "user",
          "type": "address"
        }
      ],
      "name": "getGreenCredits",
      "outputs": [
        {
          "internalType": "uint256",
          "name": "",
          "type": "uint256"
        }
      ],
      "stateMutability": "view",
      "type": "function"
    },
    {
      "inputs": [
        {
          "internalType": "address",
          "name": "user",
          "type": "address"
        }
      ],
      "name": "getLifetimeStats",
      "outputs": [
        {
          "internalType": "uint256",
          "name": "totalRewards",
          "type": "uint256"
        },
        {
          "internalType": "uint256",
          "name": "totalPenalties",
          "type": "uint256"
        },
        {
          "internalType": "uint256",
          "name": "netChange",
          "type": "uint256"
        }
      ],
      "stateMutability": "view",
      "type": "function"
    },
    {
      "inputs": [
        {
          "internalType": "address",
          "name": "",
          "type": "address"
        }
      ],
      "name": "greenCredits",
      "outputs": [
        {
          "internalType": "uint256",
          "name": "",
          "type": "uint256"
        }
      ],
      "stateMutability": "view",
      "type": "function"
    },
    {
      "inputs": [
        {
          "internalType": "address",
          "name": "",
          "type": "address"
        }
      ],
      "name": "lifetimePenalties",
      "outputs": [
        {
          "internalType": "uint256",
          "name": "",
          "type": "uint256"
        }
      ],
      "stateMutability": "view",
      "type": "function"
    },
    {
      "inputs": [
        {
          "internalType": "address",
          "name": "",
          "type": "address"
        }
      ],
      "name": "lifetimeRewards",
      "outputs": [
        {
          "internalType": "uint256",
          "name": "",
          "type": "uint256"
        }
      ],
      "stateMutability": "view",
      "type": "function"
    },
    {
      "inputs": [],
      "name": "nftContract",
      "outputs": [
        {
          "internalType": "contract CarbonGhostNFT",
          "name": "",
          "type": "address"
        }
      ],
      "stateMutability": "view",
      "type": "function"
    },
    {
      "inputs": [
        {
          "internalType": "address",
          "name": "device",
          "type": "address"
        },
        {
          "internalType": "uint256",
          "name": "tokenId",
          "type": "uint256"
        },
        {
          "internalType": "string",
          "name": "gridStatus",
          "type": "string"
        }
      ],
      "name": "processReading",
      "outputs": [],
      "stateMutability": "nonpayable",
      "type": "function"
    },
    {
      "inputs": [],
      "name": "withdraw",
      "outputs": [],
      "stateMutability": "nonpayable",
      "type": "function"
    },
    {
      "stateMutability": "payable",
      "type": "receive"
    }
  ],
  "bytecode": "0x608034608057601f610cae38819003918201601f19168301916001600160401b03831184841017608557808492602094604052833981010312608057516001600160a01b03811690819003608057600180546001600160a01b031990811661dead1790915560008054909116919091179055604051610c12908161009c8239f35b600080fd5b634e487b7160e01b600052604160045260246000fdfe6080806040526004361015610025575b50361561001b57600080fd5b610023610a8e565b005b600090813560e01c9081630d558963146109e5575080631d336d62146109ac578063219783fa146109735780633ccfd60b146108e757806340204175146108c55780636188d33c1461088c57806370d5ae0514610863578063abf84b4c146107de578063d0e30db0146107c7578063d24c1a58146107a5578063d565a7e814610782578063d56d229d1461075b578063e1254fba14610733578063ec0dae441461013c578063ec6925a7146101195763fc7e286d0361000f5734610116576020366003190112610116576020906040906001600160a01b03610105610a1f565b168152600283522054604051908152f35b80fd5b50346101165780600319360112610116576020604051670de0b6b3a76400008152f35b503461011657606036600319011261011657610156610a1f565b60443560243567ffffffffffffffff821161072f573660238301121561072f578160040135928461018685610a72565b936101946040519586610a3a565b8585526020850195366024828401011161072b57806024602093018837850101526001600160a01b031680855260026020526040852054909390156106f35784546040516346a479e560e01b81526004810184905291906001600160a01b03168683602481845afa9283156106c25787936106d1575b50803b156106cd5786604051809263016d61cb60e51b82528660048301526040602483015281836064828b51806044830152610249818484018c610b39565b601f01601f191681010301925af180156106c2576106ae575b5085546040516346a479e560e01b815260048101949094528690849060249082906001600160a01b03165afa9283156106a3578693610679575b5083518120936040946005602087516102b58982610a3a565b828152016421a622a0a760d91b815220146000146103a35750505082845260036020528184208054906001820180921161038f5755828452600260205281842080549066071afd498d0000820180921161038f5755828452600460205281842080549066071afd498d0000820180921161038f577f291e8ba3c0f4b0bd86e6e2346fcee1e7ca0975b1cc1886bfbc722d34f3f24d91846020947f76f10ca8c358f7390980f1f782ea1fe0a685799d64cc7d11fbb819169914d42b969488945581519066071afd498d0000825286820152a25160018152a280f35b634e487b7160e01b86526011600452602486fd5b9493945190206005602086516103b98882610a3a565b8281520164444952545960d81b815220146103d6575b5050505080f35b151580610671575b15610562575080835260026020528183205467016345785d8a0000116104df578083526002602052818320805467016345785d89ffff198101919082116104cb57558280808067016345785d8a000060018060a01b036001541682f1156104c0578083526002602052807fd2043e0c3662c63a47fc7431ec4b749a691a5bd6665e9d799d6908480b7d94e1838086205481519067016345785d8a000082526020820152a25b82526005602052812080549067016345785d8a000082018092116104ac57555b388080806103cf565b634e487b7160e01b83526011600452602483fd5b5051903d90823e3d90fd5b634e487b7160e01b85526011600452602485fd5b8083526002602052818084205482855260026020528482812055848080808460018060a01b0360015416828215610559575bf11561054c57817fd2043e0c3662c63a47fc7431ec4b749a691a5bd6665e9d799d6908480b7d94e191849351908152866020820152a2610483565b50505051903d90823e3d90fd5b506108fc610511565b92918183526002602052660aa87bee5380008184205410156000146106285781835260026020528083208054660aa87bee537fff198101919082116104cb575582808080660aa87bee53800060018060a01b036001541682f11561061d578183526005602052808320938454660aa87bee53800081018091116104cb577f90b72f2bdf728a522e13a5f4342d0ecfe0039f08ab938e18bc71dfee430e2027939495555b815190660aa87bee53800082526020820152a26104a3565b51913d9150823e3d90fd5b8183526005602052808320938454660aa87bee53800081018091116104cb577f90b72f2bdf728a522e13a5f4342d0ecfe0039f08ab938e18bc71dfee430e202793949555610605565b5080156103de565b6106969193503d8088833e61068e8183610a3a565b810190610b5c565b505050915050913861029c565b6040513d88823e3d90fd5b866106bb91979297610a3a565b9438610262565b6040513d89823e3d90fd5b8680fd5b6106e69193503d8089833e61068e8183610a3a565b505050915050913861020a565b60405162461bcd60e51b815260206004820152601060248201526f139bc819195c1bdcda5d08199bdd5b9960821b6044820152606490fd5b8280fd5b8380fd5b5034610116576020366003190112610116576020906040906001600160a01b03610105610a1f565b5034610116578060031936011261011657546040516001600160a01b039091168152602090f35b5034610116578060031936011261011657602060405167016345785d8a00008152f35b5034610116578060031936011261011657602060405166071afd498d00008152f35b5080600319360112610116576107db610a8e565b80f35b5034610116576020366003190112610116576107f8610a1f565b6001600160a01b03168082526004602090815260408084205492845260059091528220548082111561085a578082038281116108465760609350905b60405192835260208301526040820152f35b634e487b7160e01b84526011600452602484fd5b60609290610834565b50346101165780600319360112610116576001546040516001600160a01b039091168152602090f35b5034610116576020366003190112610116576020906040906001600160a01b036108b4610a1f565b168152600383522054604051908152f35b50346101165780600319360112610116576020604051660aa87bee5380008152f35b503461011657806003193601126101165733815260026020526040812054801561093557818080809333825260026020528160408120553382f1156109295780f35b604051903d90823e3d90fd5b60405162461bcd60e51b81526020600482015260166024820152754e6f206465706f73697420746f20776974686472617760501b6044820152606490fd5b5034610116576020366003190112610116576020906040906001600160a01b0361099b610a1f565b168152600583522054604051908152f35b5034610116576020366003190112610116576020906040906001600160a01b036109d4610a1f565b168152600483522054604051908152f35b905034610a1b576020366003190112610a1b576020916040906001600160a01b03610a0e610a1f565b1681526003845220548152f35b5080fd5b600435906001600160a01b0382168203610a3557565b600080fd5b90601f8019910116810190811067ffffffffffffffff821117610a5c57604052565b634e487b7160e01b600052604160045260246000fd5b67ffffffffffffffff8111610a5c57601f01601f191660200190565b670de0b6b3a76400003410610afd573360005260026020526040600020805490348201809211610ae757556040513481527f2da466a7b24304f47e87fa2e1e5a81b9831ce54fec19055ce277ca2f39ba42c460203392a2565b634e487b7160e01b600052601160045260246000fd5b60405162461bcd60e51b8152602060048201526014602482015273125b9cdd59999a58da595b9d0819195c1bdcda5d60621b6044820152606490fd5b60005b838110610b4c5750506000910152565b8181015183820152602001610b3c565b9060c082820312610a3557815192602083015192604081015192606082015167ffffffffffffffff8111610a3557820181601f82011215610a35578051610ba281610a72565b92610bb06040519485610a3a565b81845260208284010111610a3557610bce9160208085019101610b39565b9160a060808301519201519056fea2646970667358221220fe8534515429318dabe93888f2ebb5a5f9b996bfb19bb3891f383dbe8673180664736f6c634300081b0033",
  "linkReferences": {},
  "deployedLinkReferences": {}
}