{
  "_format": "hh-sol-artifact-1",
  "contractName": "CarbonIntensityOracle",
  "sourceName": "contracts/CarbonIntensityOracle.sol",
  "abi": [
    {
      "inputs": [
        {
          "internalType": "address",
          "name": "router",
          "type": "address"
        },
        {
          "internalType": "uint64",
          "name": "_subscriptionId",
          "type": "uint64"
        },
        {
          "internalType": "bytes32",
          "name": "_donID",
          "type": "bytes32"
        }
      ],
      "stateMutability": "nonpayable",
      "type": "constructor"
    },
    {
      "inputs": [],
      "name": "EmptyArgs",
      "type": "error"
    },
    {
      "inputs": [],
      "name": "EmptySecrets",
      "type": "error"
    },
    {
      "inputs": [],
      "name": "EmptySource",
      "type": "error"
    },
    {
      "inputs": [],
      "name": "NoInlineSecrets",
      "type": "error"
    },
    {
      "inputs": [],
      "name": "OnlyRouterCanFulfill",
      "type": "error"
    },
    {
      "inputs": [
        {
          "internalType": "address",
          "name": "owner",
          "type": "address"
        }
      ],
      "name": "OwnableInvalidOwner",
      "type": "error"
    },
    {
      "inputs": [
        {
          "internalType": "address",
          "name": "account",
          "type": "address"
        }
      ],
      "name": "OwnableUnauthorizedAccount",
      "type": "error"
    },
    {
      "anonymous": false,
      "inputs": [
        {
          "indexed": true,
          "internalType": "bytes32",
          "name": "requestId",
          "type": "bytes32"
        },
        {
          "indexed": false,
          "internalType": "string",
          "name": "zone",
          "type": "string"
        }
      ],
      "name": "CarbonIntensityRequested",
      "type": "event"
    },
    {
      "anonymous": false,
      "inputs": [
        {
          "indexed": false,
          "internalType": "uint256",
          "name": "intensity",
          "type": "uint256"
        },
        {
          "indexed": false,
          "internalType": "string",
          "name": "zone",
          "type": "string"
        }
      ],
      "name": "CarbonIntensityUpdated",
      "type": "event"
    },
    {
      "anonymous": false,
      "inputs": [
        {
          "indexed": true,
          "internalType": "address",
          "name": "previousOwner",
          "type": "address"
        },
        {
          "indexed": true,
          "internalType": "address",
          "name": "newOwner",
          "type": "address"
        }
      ],
      "name": "OwnershipTransferred",
      "type": "event"
    },
    {
      "anonymous": false,
      "inputs": [
        {
          "indexed": true,
          "internalType": "bytes32",
          "name": "requestId",
          "type": "bytes32"
        },
        {
          "indexed": false,
          "internalType": "bytes",
          "name": "error",
          "type": "bytes"
        }
      ],
      "name": "RequestFailed",
      "type": "event"
    },
    {
      "anonymous": false,
      "inputs": [
        {
          "indexed": true,
          "internalType": "bytes32",
          "name": "id",
          "type": "bytes32"
        }
      ],
      "name": "RequestFulfilled",
      "type": "event"
    },
    {
      "anonymous": false,
      "inputs": [
        {
          "indexed": true,
          "internalType": "bytes32",
          "name": "id",
          "type": "bytes32"
        }
      ],
      "name": "RequestSent",
      "type": "event"
    },
    {
      "inputs": [],
      "name": "carbonIntensity",
      "outputs": [
        {
          "internalType": "uint256",
          "name": "",
          "type": "uint256"
        }
      ],
      "stateMutability": "view",
      "type": "function"
    },
    {
      "inputs": [],
      "name": "currentZone",
      "outputs": [
        {
          "internalType": "string",
          "name": "",
          "type": "string"
        }
      ],
      "stateMutability": "view",
      "type": "function"
    },
    {
      "inputs": [],
      "name": "donID",
      "outputs": [
        {
          "internalType": "bytes32",
          "name": "",
          "type": "bytes32"
        }
      ],
      "stateMutability": "view",
      "type": "function"
    },
    {
      "inputs": [],
      "name": "encryptedSecretsUrls",
      "outputs": [
        {
          "internalType": "bytes",
          "name": "",
          "type": "bytes"
        }
      ],
      "stateMutability": "view",
      "type": "function"
    },
    {
      "inputs": [],
      "name": "gasLimit",
      "outputs": [
        {
          "internalType": "uint32",
          "name": "",
          "type": "uint32"
        }
      ],
      "stateMutability": "view",
      "type": "function"
    },
    {
      "inputs": [],
      "name": "getGridStatus",
      "outputs": [
        {
          "internalType": "string",
          "name": "",
          "type": "string"
        }
      ],
      "stateMutability": "view",
      "type": "function"
    },
    {
      "inputs": [
        {
          "internalType": "bytes32",
          "name": "requestId",
          "type": "bytes32"
        },
        {
          "internalType": "bytes",
          "name": "response",
          "type": "bytes"
        },
        {
          "internalType": "bytes",
          "name": "err",
          "type": "bytes"
        }
      ],
      "name": "handleOracleFulfillment",
      "outputs": [],
      "stateMutability": "nonpayable",
      "type": "function"
    },
    {
      "inputs": [],
      "name": "latestRequestId",
      "outputs": [
        {
          "internalType": "bytes32",
          "name": "",
          "type": "bytes32"
        }
      ],
      "stateMutability": "view",
      "type": "function"
    },
    {
      "inputs": [],
      "name": "owner",
      "outputs": [
        {
          "internalType": "address",
          "name": "",
          "type": "address"
        }
      ],
      "stateMutability": "view",
      "type": "function"
    },
    {
      "inputs": [],
      "name": "renounceOwnership",
      "outputs": [],
      "stateMutability": "nonpayable",
      "type": "function"
    },
    {
      "inputs": [
        {
          "internalType": "string",
          "name": "zone",
          "type": "string"
        }
      ],
      "name": "requestCarbonIntensity",
      "outputs": [
        {
          "internalType": "bytes32",
          "name": "",
          "type": "bytes32"
        }
      ],
      "stateMutability": "nonpayable",
      "type": "function"
    },
    {
      "inputs": [
        {
          "internalType": "uint256",
          "name": "_intensity",
          "type": "uint256"
        }
      ],
      "name": "setCarbonIntensity",
      "outputs": [],
      "stateMutability": "nonpayable",
      "type": "function"
    },
    {
      "inputs": [
        {
          "internalType": "bytes",
          "name": "_encryptedSecretsUrls",
          "type": "bytes"
        }
      ],
      "name": "setEncryptedSecretsUrls",
      "outputs": [],
      "stateMutability": "nonpayable",
      "type": "function"
    },
    {
      "inputs": [
        {
          "internalType": "string",
          "name": "_source",
          "type": "string"
        }
      ],
      "name": "setSource",
      "outputs": [],
      "stateMutability": "nonpayable",
      "type": "function"
    },
    {
      "inputs": [],
      "name": "source",
      "outputs": [
        {
          "internalType": "string",
          "name": "",
          "type": "string"
        }
      ],
      "stateMutability": "view",
      "type": "function"
    },
    {
      "inputs": [],
      "name": "subscriptionId",
      "outputs": [
        {
          "internalType": "uint64",
          "name": "",
          "type": "uint64"
        }
      ],
      "stateMutability": "view",
      "type": "function"
    },
    {
      "inputs": [
        {
          "internalType": "address",
          "name": "newOwner",
          "type": "address"
        }
      ],
      "name": "transferOwnership",
      "outputs": [],
      "stateMutability": "nonpayable",
      "type": "function"
    },
    {
      "inputs": [
        {
          "internalType": "uint64",
          "name": "_subscriptionId",
          "type": "uint64"
        },
        {
          "internalType": "uint32",
          "name": "_gasLimit",
          "type": "uint32"
        },
        {
          "internalType": "bytes32",
          "name": "_donID",
          "type": "bytes32"
        }
      ],
      "name": "updateConfig",
      "outputs": [],
      "stateMutability": "nonpayable",
      "type": "function"
    },
    {
      "inputs": [
        {
          "internalType": "bytes32",
          "name": "",
          "type": "bytes32"
        }
      ],
      "name": "validRequests",
      "outputs": [
        {
          "internalType": "bool",
          "name": "",
          "type": "bool"
        }
      ],
      "stateMutability": "view",
      "type": "function"
    }
  ],
  "bytecode": "0x60a03461011357601f611db638819003918201601f19168301916001600160401b03831184841017610118578084926060946040528339810103126101135780516001600160a01b038116908190036101135760208201516001600160401b038116929083900361011357604001519060805233156100fd5760008054336001600160a01b0319821681178355604051946a0493e000000000000000009390926001600160a01b0316907f8be0079c531659141344cd1fd0a4f28419497f9722a3daafe3b4186f6b6457e09080a360018060601b0319600454161717600455600555611c87908161012f8239608051818181610282015261143f0152f35b631e4fbdf760e01b600052600060045260246000fd5b600080fd5b634e487b7160e01b600052604160045260246000fdfe6080604052600436101561001257600080fd5b60003560e01c806309c1ba2e146101475780630ca76175146101425780631aa46f591461013d57806341c52553146101385780634ae63ee21461013357806360adab3c1461012e57806367e828bf1461012957806369fee87e146101245780636e74336b1461011f578063715018a61461011a5780638da5cb5b1461011557806396f887d61461011057806399d254551461010b578063adefa75f14610106578063bd3edca714610101578063d0f784f0146100fc578063dab79c40146100f7578063f2fde38b146100f25763f68016b7146100ed57600080fd5b610c73565b610be6565b610b3e565b610a2e565b6109fd565b6108ef565b6107f7565b6106e0565b61067c565b610623565b610605565b61059c565b610580565b610550565b610532565b610455565b6102f2565b61022e565b3461016e57600036600319011261016e5760206001600160401b0360045416604051908152f35b600080fd5b634e487b7160e01b600052604160045260246000fd5b604081019081106001600160401b038211176101a457604052565b610173565b90601f801991011681019081106001600160401b038211176101a457604052565b9291926001600160401b0382116101a457604051916101f3601f8201601f1916602001846101a9565b82948184528183011161016e578281602093846000960137010152565b9080601f8301121561016e5781602061022b933591016101ca565b90565b3461016e57606036600319011261016e576004356024356001600160401b03811161016e57610261903690600401610210565b6044356001600160401b03811161016e57610280903690600401610210565b7f00000000000000000000000000000000000000000000000000000000000000006001600160a01b031633036102e1576102ba9183610f80565b7f85e1543bf2f84fe80c6badbce3648c8539ad1df4d2b3d822938ca0538be727e6600080a2005b63c6829f8360e01b60005260046000fd5b3461016e57600036600319011261016e576020600154604051908152f35b90600182811c92168015610340575b602083101461032a57565b634e487b7160e01b600052602260045260246000fd5b91607f169161031f565b604051906000826006549161035e83610310565b80835292600181169081156103e45750600114610384575b610382925003836101a9565b565b506006600090815290917ff652222313e28459528d920b65115c16c04f3efc82aaedc97be59f3f377c0d3f5b8183106103c857505090602061038292820101610376565b60209193508060019154838589010152019101909184926103b0565b6020925061038294915060ff191682840152151560051b820101610376565b919082519283825260005b84811061042f575050826000602080949584010152601f8019910116010190565b8060208092840101518282860101520161040e565b90602061022b928181520190610403565b3461016e57600036600319011261016e57604051600060035461047781610310565b808452906001811690811561050e57506001146104af575b6104ab8361049f818503826101a9565b60405191829182610444565b0390f35b600360009081527fc2575a0e9e593c00f959f8c92f12db2869c3395a3b0502d05e2516446f71f85b939250905b8082106104f45750909150810160200161049f61048f565b9192600181602092548385880101520191019092916104dc565b60ff191660208086019190915291151560051b8401909101915061049f905061048f565b3461016e57600036600319011261016e576020600254604051908152f35b3461016e57600036600319011261016e576104ab61056c610c9a565b604051918291602083526020830190610403565b3461016e57600036600319011261016e576104ab61056c61034a565b3461016e57602036600319011261016e577fd5d38beeba170512a581e928b7d5f0ee2fa78e7e8574a7963de014e1fe180e2660806004356105db611064565b8060025560405190815260406020820152600660408201526513505395505360d21b6060820152a1005b3461016e57600036600319011261016e576020600554604051908152f35b3461016e57600036600319011261016e5761063c611064565b600080546001600160a01b0319811682556001600160a01b03167f8be0079c531659141344cd1fd0a4f28419497f9722a3daafe3b4186f6b6457e08280a3005b3461016e57600036600319011261016e576000546040516001600160a01b039091168152602090f35b602060031982011261016e57600435906001600160401b03821161016e578060238301121561016e5781602461022b936004013591016101ca565b3461016e576104ab6107ce6106f4366106a5565b7f4a2ff27be19571b6819a0d723c35af5791837b9b5e0de5c2e0bd8651755bd96861079561076e610723610cee565b61073461072e61034a565b826114d6565b61075a61073f610d37565b8661074982610d88565b5261075381610d88565b508261108d565b610765600754610310565b6107e15761120e565b60045461078b6001600160401b0382169160401c63ffffffff1690565b90600554926113e7565b9283926107bc6107af856000526008602052604060002090565b805460ff19166001179055565b6107c584600155565b61049f81610e7e565b0390a26040519081529081906020820190565b6107f26107ec610b24565b826110d0565b61120e565b3461016e57610805366106a5565b61080d611064565b80516001600160401b0381116101a4576108318161082c600654610310565b610dc5565b602091601f8211600114610871576108619260009183610866575b50508160011b916000199060031b1c19161790565b600655005b01519050388061084c565b6006600052601f198216927ff652222313e28459528d920b65115c16c04f3efc82aaedc97be59f3f377c0d3f9160005b8581106108d7575083600195106108be575b505050811b01600655005b015160001960f88460031b161c191690553880806108b3565b919260206001819286850151815501940192016108a1565b3461016e57602036600319011261016e576004356001600160401b03811161016e5761091f903690600401610210565b610927611064565b80516001600160401b0381116101a45761094b81610946600754610310565b610e0a565b602091601f821160011461097f5761097a92600091836108665750508160011b916000199060031b1c19161790565b600755005b6007600052601f198216927fa66cc928b5edb82af9bd49922954155ab7b0942694bea4ce44661d9a8736c6889160005b8581106109e5575083600195106109cc575b505050811b01600755005b015160001960f88460031b161c191690553880806109c1565b919260206001819286850151815501940192016109af565b3461016e57602036600319011261016e576004356000526008602052602060ff604060002054166040519015158152f35b3461016e57606036600319011261016e576004356001600160401b03811680910361016e5760243563ffffffff8116810361016e5760443591610a6f611064565b6bffffffff00000000000000006004549260401b16916bffffffffffffffffffffffff19161717600455600555600080f35b60009291815491610ab183610310565b8083529260018116908115610b075750600114610acd57505050565b60009081526020812093945091925b838310610aed575060209250010190565b600181602092949394548385870101520191019190610adc565b915050602093945060ff929192191683830152151560051b010190565b6040519061038282610b37816007610aa1565b03836101a9565b3461016e57600036600319011261016e576040516000600754610b6081610310565b808452906001811690811561050e5750600114610b87576104ab8361049f818503826101a9565b600760009081527fa66cc928b5edb82af9bd49922954155ab7b0942694bea4ce44661d9a8736c688939250905b808210610bcc5750909150810160200161049f61048f565b919260018160209254838588010152019101909291610bb4565b3461016e57602036600319011261016e576004356001600160a01b0381169081900361016e57610c14611064565b8015610c5d57600080546001600160a01b03198116831782556001600160a01b0316907f8be0079c531659141344cd1fd0a4f28419497f9722a3daafe3b4186f6b6457e09080a3005b631e4fbdf760e01b600052600060045260246000fd5b3461016e57600036600319011261016e57602063ffffffff60045460401c16604051908152f35b61012c60025410600014610ccb57604051610cb66040826101a9565b600581526421a622a0a760d91b602082015290565b604051610cd96040826101a9565b6005815264444952545960d81b602082015290565b6040519060e082018281106001600160401b038211176101a457604052606060c08360008152600060208201526000604082015282808201528260808201528260a08201520152565b60408051909190610d4883826101a9565b6001815291601f19018260005b828110610d6157505050565b806060602080938501015201610d55565b634e487b7160e01b600052603260045260246000fd5b805115610d955760200190565b610d72565b8051821015610d955760209160051b010190565b818110610db9575050565b60008155600101610dae565b90601f8211610dd2575050565b6103829160066000526020600020906020601f840160051c83019310610e00575b601f0160051c0190610dae565b9091508190610df3565b90601f8211610e17575050565b6103829160076000526020600020906020601f840160051c83019310610e0057601f0160051c0190610dae565b9190601f8111610e5357505050565b610382926000526020600020906020601f840160051c83019310610e0057601f0160051c0190610dae565b9081516001600160401b0381116101a457610ea581610e9e600354610310565b6003610e44565b602092601f8211600114610edb57610ed6929382916000926108665750508160011b916000199060031b1c19161790565b600355565b6003600052601f198216937fc2575a0e9e593c00f959f8c92f12db2869c3395a3b0502d05e2516446f71f85b9160005b868110610f425750836001959610610f29575b505050811b01600355565b015160001960f88460031b161c19169055388080610f1e565b91926020600181928685015181550194019201610f0b565b9081602091031261016e575190565b60409061022b928152816020820152016003610aa1565b909181600052600860205260ff604060002054161561102d578051610ff4575050610fb781602080610fbc94518301019101610f5a565b600255565b7fd5d38beeba170512a581e928b7d5f0ee2fa78e7e8574a7963de014e1fe180e26610fef60025460405191829182610f69565b0390a1565b7f61982c98cbc49d11759a948f460b92bca26bdf12ceee12c310f117eb2ca9a9cb9192506110289060405191829182610444565b0390a2565b60405162461bcd60e51b815260206004820152600f60248201526e125b9d985b1a59081c995c5d595cdd608a1b6044820152606490fd5b6000546001600160a01b0316330361107857565b63118cdaa760e01b6000523360045260246000fd5b81511561109a5760a00152565b63fe936cb760e01b60005260046000fd5b634e487b7160e01b600052602160045260246000fd5b600311156110cb57565b6110ab565b8151156110e4576001602082015260800152565b63e889636f60e01b60005260046000fd5b604051906111046040836101a9565b600c82526b31b7b232a637b1b0ba34b7b760a11b6020830152565b6040519061112e6040836101a9565b60088252676c616e677561676560c01b6020830152565b600111156110cb57565b6040519061115e6040836101a9565b6006825265736f7572636560d01b6020830152565b604051906111826040836101a9565b60048252636172677360e01b6020830152565b604051906111a46040836101a9565b600f82526e39b2b1b932ba39a637b1b0ba34b7b760891b6020830152565b604051906111d16040836101a9565b60078252667365637265747360c81b6020830152565b604051906111f66040836101a9565b600982526862797465734172677360b81b6020830152565b611216611519565b906112286112226110f5565b8361154a565b6112458151611236816110c1565b61123f816110c1565b83611633565b61125061122261111f565b61126a604082015161126181611145565b61123f81611145565b61127561122261114f565b61128360608201518361154a565b60a08101805151611382575b506080810190815151611303575b60c09150018051516112b0575b50515190565b916112bc6112226111e7565b6112c582611696565b60005b835180518210156112f057906112ea6112e382600194610d9a565b51856116f9565b016112c8565b505091506112fd816116d6565b386112aa565b602081018051611312816110c1565b61131b816110c1565b156113715760c09261135461136c9261133b611335611195565b8861154a565b51611345816110c1565b61134e816110c1565b86611633565b61136561135f6111c2565b8661154a565b51846116f9565b61129d565b63a80d31f760e01b60005260046000fd5b9261139461138e611173565b8461154a565b61139d83611696565b60005b845180518210156113c857906113c26113bb82600194610d9a565b518661154a565b016113a0565b505092506113d5826116d6565b3861128f565b6040513d6000823e3d90fd5b92906020926001600160401b039263ffffffff611426604051978896879663230e93b160e11b885216600487015260a0602487015260a4860190610403565b60016044860152921660648401526084830152038160007f00000000000000000000000000000000000000000000000000000000000000006001600160a01b03165af19081156114d1576000916114a2575b50807f1131472297a800fee664d1d89cfa8f7676ff07189ecc53f80bbb5f4969099db8600080a290565b6114c4915060203d6020116114ca575b6114bc81836101a9565b810190610f5a565b38611478565b503d6114b2565b6113db565b60008251156114f057506000808252604082015260600152565b6322ce3edd60e01b8152600490fd5b6040519061150c82610189565b6000602083606081520152565b60405161152581610189565b600061152f6114ff565b8083526115456101006020850192848452611792565b505290565b815161159b9291906001600160401b03166017811161159e578151611586916115809061157960605b60ff1690565b1760ff1690565b9061192a565b505b51906115926114ff565b50805191611b94565b50565b60ff81116115cb5781516115c591906115bd90601860605b179061192a565b508251611b14565b50611588565b61ffff81116115f05781516115c591906115e890601960606115b6565b508251611a9b565b63ffffffff81116116175781516115c5919061160f90601a60606115b6565b508251611a22565b81516115c5919061162b90601b60606115b6565b5082516119a4565b906103829161164281516118ba565b506040519160208301526020825261165b6040836101a9565b6116f9565b634e487b7160e01b600052601160045260246000fd5b906020820180921161168457565b611660565b9190820180921161168457565b6020906116a5609f825161192a565b5001805190600182018092116116845752565b601f1981019190821161168457565b60001981019190821161168457565b6020906116e560ff825161192a565b500180516000198101919082116116845752565b815161159b9291906001600160401b03166017811161172657815161158691611580906115796040611573565b60ff81116117425781516115c591906115bd90601860406115b6565b61ffff811161175f5781516115c591906115e890601960406115b6565b63ffffffff811161177e5781516115c5919061160f90601a60406115b6565b81516115c5919061162b90601b60406115b6565b9061179b6114ff565b50601f8116806117ca575b508060208301526040519081835260008252810160200190811061016e5760405290565b6020036020811161168457810180911161168457386117a6565b906117ed6114ff565b5080516117f86114ff565b506118068251821115611b8d565b825151916118148284611689565b906020850151821161188d575b602091855183815196820101958211611885575b505001905b602081101561185f57600019906020036101000a019081199051169082511617905290565b909161187a6118746118809285518152611676565b93611676565b916116b8565b61183a565b523880611835565b61189f611899836118a4565b86611c3a565b611821565b908160011b918083046002149015171561168457565b6118c26114ff565b5080515160018101908181116116845760208301518110156118fb575b60c2602084519283010153805182116118f757505090565b5290565b8160011b82810460021483151715611684576119249061191d85519186611792565b50846117e4565b506118df565b906119336114ff565b508151516001810191828211611684576020840151821015611966575b602084519283010153805182116118f757505090565b8260011b838104600214841517156116845761198f9061198886519187611792565b50856117e4565b50611950565b601f8111611684576101000a90565b906119ad6114ff565b5081515180600801918260081161168457602084015183116119fa575b6119dc6119d76008611995565b6116c7565b9060088551938401019119825116179052805182116118f757505090565b8260011b8381046002148415171561168457611a1c9061198886519187611792565b506119ca565b90611a2b6114ff565b508151518060040191826004116116845760208401518311611a73575b611a556119d76004611995565b9060048551938401019119825116179052805182116118f757505090565b8260011b8381046002148415171561168457611a959061198886519187611792565b50611a48565b90611aa46114ff565b508151518060020191826002116116845760208401518311611aec575b611ace6119d76002611995565b9060028551938401019119825116179052805182116118f757505090565b8260011b8381046002148415171561168457611b0e9061198886519187611792565b50611ac1565b90611b1d6114ff565b508151518060010191826001116116845760208401518311611b65575b611b476119d76001611995565b9060018551938401019119825116179052805182116118f757505090565b8260011b8381046002148415171561168457611b879061198886519187611792565b50611b3a565b1561016e57565b91611b9d6114ff565b50611bab8251821115611b8d565b602083515192611bbb8385611689565b828601518111611c23575b855183815196820101958211611c1b575b505001905b6020811015611c0157600019906020036101000a019081199051169082511617905290565b909161187a611874611c169285518152611676565b611bdc565b523880611bd7565b611c35611c2f826118a4565b87611c3a565b611bc6565b9061159b91611c4b81519282611792565b506117e456fea26469706673582212207073fddedc9a2e3856b709476485f986ca6fe2d729402f4073284145e29e1ceb64736f6c634300081b0033",
  "linkReferences": {},
  "deployedLinkReferences": {}
}